:020000040000FA
:10000000B0640020558000009FBB010029800000E3
:10001000298000002980000029800000298000003C
:1000200000000000000000000000000075770000E4
:1000300029800000000000001977000029800000DE
:10004000F9770000F9770000F9770000F9770000F0
:10005000F9770000F9770000F9770000F9770000E0
:10006000F9770000F9770000F9770000F9770000D0
:10007000F9770000F9770000F9770000F9770000C0
:10008000F9770000F9770000F9770000F9770000B0
:10009000F9770000F9770000F9770000F9770000A0
:1000A000F9770000F9770000F9770000F977000090
:1000B000F9770000F9770000F9770000F977000080
:1000C000F9770000F9770000F9770000F977000070
:1000D000F9770000F9770000F9770000F977000060
:1000E000F9770000F9770000F9770000F977000050
:1000F000F9770000F9770000F9770000F977000040
:10010000F9770000F9770000F9770000F97700002F
:10011000F9770000F9770000F9770000F97700001F
:10012000F9770000F9770000F9770000F97700000F
:10013000F9770000F9770000F9770000F9770000FF
:10014000F9770000F9770000F9770000F9770000EF
:10015000F9770000FFFFFFFF53B94AB9002908BF34
:1001600000281CBF4FF0FF314FF0FF3000F00CB8FB
:10017000ADF1080C6DE904CE00F008F8DDF804E0FC
:10018000DDE9022304B07047704700BF2DE9F04756
:1001900086468C460846089E154674461946002B2E
:1001A00040F0C1808542B2FA82F245D94AB1C2F12B
:1001B000200300FA02FC954094402EFA03F343EA30
:1001C0000C0C4FEA154EA8B2230CBCFBFEF80EFB3C
:1001D00018CC08FB00F943EA0C43994528D9EB18E1
:1001E00008F1FF3704D2994502D9A8F102072B4440
:1001F000A3EB0903A4B2B3FBFEFC0EFB1C330CFB08
:1002000000F044EA0344A04214D92C190CF1FF3346
:1002100004D2A04202D9ACF102032C44241A43EACE
:1002200007401EB1D440002334607360BDE8F087FE
:100230004746DDE76346F1E792BB431B01214FEAE6
:10024000154EAFB2200CB3FBFEFC0EFB1C330CFBB7
:1002500007F840EA0343984561D9EB180CF1FF30E9
:1002600004D2984502D9ACF102002B44A3EB080359
:10027000A4B2B3FBFEFC0EFB1C330CFB07F744EAF5
:100280000344A7424DD92C190CF1FF3304D2A742E5
:1002900002D9ACF102032C44E41B43EA0040C0E75E
:1002A000C2F120039540944020FA03F12EFA03F3A3
:1002B0004FEA154E9040AFB20343B1FBFEFC0EFB7C
:1002C0001C10190C0CFB07F841EA0041884522D9A3
:1002D00069180CF1FF3004D2884502D9ACF1020054
:1002E0002944A1EB08019BB2B1FBFEFC0EFB1C11E3
:1002F0000CFB07F743EA01439F420ED9EB180CF1C0
:10030000FF3104D29F4202D9ACF102012B44DB1B26
:1003100041EA004193E76046E3E76146F7E760465C
:10032000A4E76346B8E7834206D916B90021084618
:100330007CE7C6E900E0F9E7B3FA83F78FB98342B7
:1003400001D3724508D8BEEB020460EB0303012021
:100350009C461EB9002169E73846FAE7C6E9004C19
:10036000F8E7C7F1200CBB400EFA07F522FA0CF4AF
:100370002EFA0CF1BA401C4320FA0CF3B8404FEAB5
:10038000144901431FFA84FEB3FBF9F809FB183046
:100390000B0C08FB0EFA43EA00439A4540D9E318D8
:1003A00008F1FF3004D29A4502D9A8F10200234493
:1003B000A3EB0A0389B2B3FBF9F809FB183308FB76
:1003C0000EFE41EA03418E452CD9611808F1FF3336
:1003D00004D28E4502D9A8F10203214443EA004029
:1003E000A1EB0E01A0FB02984145CE46434602D345
:1003F00006D14D4504D20138B9EB020E68EB040377
:10040000002EA7D0B5EB0E0261EB030101FA0CFC44
:1004100022FA07F3F9404CEA0303C6E9003199E7F1
:100420004046C5E74346D9E72DE9F04383B0714D17
:1004300000AFD5F85C31996811F001011DD140F68B
:1004400003403A1D08F0C0FE0446002840F0BD807D
:100450007C68E3681B786BB90BF0ACF805F1CC0352
:10046000D3E8AF2F02F00902D3E8EF1FC3E8E02F73
:100470000028F9D1204613F0EBFA002141F20300E5
:100480003A1D08F0A1FE0446002840F09E807E68D8
:100490000822F168584801311BF047FD304613F03F
:1004A000D7FA214641F201003A1D08F08DFE0446BC
:1004B000002840F08A807868C3685A7885F86820F8
:1004C0005A88A5F86A201A7985F86920B3F80720B8
:1004D000A5F86C20B3F80530A5F86E3013F0B8FA23
:1004E000214641F202003A1D08F06EFE0446002843
:1004F0006BD17C684022E168404801311BF015FD5A
:10050000204613F0A5FA0BF07FFA044600285CD1D0
:1005100095F8823099061ED43948036813F0060F07
:100520000ED06C4688B06A46364B4FF4C4515361C6
:10053000354B9361032342F8103F1BF0D0FDA546D5
:1005400095F874305A0665D42D4803685B0741D18D
:100550006FF0120439E0072140F6334008F0FAFD4D
:100560008046002800F0338107210C301EF095FCF6
:100570002146072206461BF0E3FC6FF009034FF00B
:1005800001093370062322463471414640F6334058
:1005900086F80190F37008F017FE0446A8B94946A2
:1005A00040F6314008F0D6FD0646002800F00F81E5
:1005B00049460C301EF080FC2246314640F6314060
:1005C00008F002FE04460028BAD020460C37BD468B
:1005D000BDE8F0836C4688B06A460C4B4FF4C251BC
:1005E00053610B4B9361032342F8103F1BF077FDDF
:1005F000A546ADE700000020700000207800002034
:100600002C0600204D530200D65802007F530200F2
:10061000CE580200002142F203003A1D08F0D4FD3A
:1006200004460028D1D17E680822F1689C48013137
:100630001BF07BFC304613F00BFA214642F202001D
:100640003A1D08F0C1FD04460028BED17C68E3686D
:10065000B3F8012091B2A5F8FC2021B1DA789148D5
:10066000114620F00DF8204613F0F2F995F8746069
:1006700016F0200618D1022140F66D4008F06AFD00
:100680000446002800F0A38002210C301EF005FC77
:100690000123214603704670324640F66D4008F053
:1006A00093FD0446002890D195F894301E0712D58A
:1006B000002142F21C003A1D08F086FD0446002885
:1006C00083D17868C368D3F80120D3F80530C5E931
:1006D000362313F0BDF995F8D0305C0610D5002113
:1006E00042F22A003A1D08F06FFD044600287FF40C
:1006F0006CAF7868C3685B7885F8183113F0A8F997
:10070000082142F2010008F025FD044600285ED0D1
:1007100008210C301EF0C1FB95F8D01040F20223E6
:1007200011F0400F08BF0323024688074CBF43F077
:100730002C0043F00C0095F8D1308E0648BF40F0F5
:10074000400013F0090F18BF40F40060CB0795F884
:100750009A3048BF40F0100003F00603062B08BF94
:1007600040F4C07000211BF0C5FC2146002242F27B
:10077000010008F029FD044600287FF426AF95F813
:100780007430B5F8FC109E0624D4C9B941F20500B6
:100790003A1D08F019FD044600287FF416AFB5F89D
:1007A000FC307C684BB9E368B3F80120A5F8FC2065
:1007B0009A883C4811461FF063FF204613F048F921
:1007C000082140F6014008F0C5FC0446D8B96FF096
:1007D0006804FAE60029F3D1334803685C0702D1C4
:1007E0006FF00404F1E66C4688B06A462F4B4FF474
:1007F000C25153612E4B9361032342F8103F1BF00B
:100800006EFCA546ECE708210C301EF046FB95F87F
:10081000D0300246D9073AD44FF0005125481BF09A
:1008200069FC2146002240F6014008F0CDFC044658
:1008300000287FF4CAAE01463A1D4FF6014008F089
:10084000C3FC194C00283BD0236813F0060F0FD0CF
:100850006D4688B06A46184B4FF4C4515361174B2C
:1008600020469361032342F8103F1BF038FCAD464D
:100870000AF0A8FA044600287FF4A7AE0CF048FB63
:10088000044600287FF4A1AE09F026FC9DE602A1F3
:10089000D1E90001C3E700BF90880002008000207A
:1008A000D0000020000100202C060020A7530200E9
:1008B000E758020010880002CE530200C25802001E
:1008C0007B68D3F80C80236803F00703022B6DD9F3
:1008D000B8F80130E946032B98BF5C4A8AB094BF50
:1008E00052F823105A496A46136240F201335948BC
:1008F0009384594E594BC2E9066150614FF433510C
:1009000042F8103F56481BF0EAFB2368CD4603F03F
:100910000703022B4AD9B8F80120B8F80330022A9D
:1009200065D1032B63D84F4A52F82310E9468AB0A9
:100930006A46C2E9071340F201334B489384474BA0
:10094000C2E905064FF4335142F8103F44481BF00A
:10095000C6FB2368CD4603F00703022B26D998F87F
:10096000053098F806E0032B98BF404AB8F807C056
:10097000D8F80900E8468EB094BF52F823103449E5
:100980006A46C2E9071340F20133DFF8E4901386A8
:10099000384BD062C2E90596C2E909EC44F2C04185
:1009A0002F4842F8103F1BF09AFBC546786813F0B9
:1009B0004FF800214FF602403A1D08F005FC0646AC
:1009C000B8B1236813F0060F3FF452AF6C4688B0FD
:1009D0006A46294B5361204B4FF4C4519361032362
:1009E0001F4842F8103F1BF07AFBA54640E7184924
:1009F0009CE7D7F804800222D8F80C101F48013178
:100A00001BF093FA404613F023F895F8B9305B07D2
:100A10007FF52EAF31464FF603403A1D08F0D4FB68
:100A200048B1236813F0060F3FF422AF6C4688B03C
:100A30006A46134BCEE701227C681248E1681144F4
:100A40001BF073FA204613F003F811E7DC1E0200D6
:100A50007E4D0200F6530200C2580200050000015C
:100A60002C060020CC1E020013540200BC1E020003
:100A70002F5402000800000160540200B900002059
:100A80008D540200B8000020014817F04FBF00BF8E
:100A9000DC250200014817F049BF00BFEF25020026
:100AA000014817F043BF00BF1C26020010B50C46DA
:100AB000074817F03BFF62882188064817F036FF89
:100AC000E288A188044817F031FF012010BD00BF63
:100AD0002F2602005F2602008B26020030B50D464D
:100AE00004468BB02822002168461BF029FA0D4BE2
:100AF0000D490E48002D08BF194617F017FF69462B
:100B000020460BF053FF014620B1094817F00EFFB5
:100B10000BB030BD9DF80130002BF9D10122054BFF
:100B20001A70F5E7A52602005E700200B0260200EA
:100B3000C1260200D3360020002008B506F064F973
:100B4000014620B1BDE80840014817F0EFBE08BDDE
:100B5000E326020030B50B4D89B003AC0FCD0FC4B6
:100B60002B680949236001230222009303A8074B45
:100B70000AF0B4FB014610B1054817F0D7FE09B0E2
:100B800030BD00BFE0140200641602005C160200D3
:100B90000627020070B50D4600268AB028220021E3
:100BA000044668461BF0CCF929460F4D0F4817F054
:100BB000BDFE0F4B28681E7010B11BF012FE2E6098
:100BC000694620460BF0F2FE014620B1094817F0B5
:100BD000ADFE0AB070BD9DF8013013B9FFF7ACFF50
:100BE000F7E7FFF7B7FFF4E7E0230020272702002D
:100BF000D336002045270200F0B50C4691B00546DB
:100C00002822002106A81BF09BF934B1022C0ED03B
:100C10002146254817F08AFE09E0244C236843B199
:100C2000234817F083FE132128461BF0D5FE11B090
:100C3000F0BD28461BF0BEFD06A920600BF0B6FEF5
:100C4000014608B11B48E5E71B4B1C4A9DF81910EB
:100C50001B48002914BF1146194617F067FEBDF85E
:100C60002C10184817F062FE9DF81930002BDED1C9
:100C700001AA1646144B256803F11007144618689C
:100C80005968083303C4BB422246F7D11B7831466A
:100C9000237028460D4B0E4A05F044FE01460028FD
:100CA000C5D00C48B6E700BF7C270200E023002037
:100CB0009C270200C126020069270200712702005A
:100CC000CD270200DE270200F4140200C423002016
:100CD00068010020FA27020038B504460D460E4888
:100CE00017F024FE2946204606F0FEF820461AF0AA
:100CF000CCFA0A490A4B0B600A4B18680FF082FCC9
:100D0000014620B1BDE83840074817F00FBE07483C
:100D1000BDE8384017F00ABE14280200C0230020A6
:100D2000DD0A0000E0230020312802004F280200E5
:100D300008B5044817F0FAFDBDE80840024816F06F
:100D40005FBB00BF65280200B807002070B50378BC
:100D50008AB004460E4607AD032B20D8DFE803F027
:100D600002191B1D114928461BF05DF80595637893
:100D70001E210493A37830460393E3780C4A029330
:100D80002379019363790093A37917F0DCFD0AB00E
:100D900070BD0849E7E70849E5E70849E3E70A21A4
:100DA0002846074A17F0CFFDE0E700BFAD28020054
:100DB000CF280200B4280200BB280200C528020088
:100DC000BA71020010B51446036888B01868694605
:100DD000FFF7BCFF22466946024817F0A7FD08B09E
:100DE00010BD00BFF228020010B50C46036888B0A1
:100DF00018686946FFF7AAFF22466946024817F0BD
:100E000095FD08B010BD00BF2029020013B50A4CA3
:100E100023787BB1CB88094800938B884A8809885E
:100E200017F084FD00232370054802B0BDE8104090
:100E300016F0E6BA02B010BDD43600204F290200E9
:100E4000B807002008B50B460A785B78042A96BFDD
:100E50000849094951F82210042B96BF054A064A51
:100E600052F82320054817F061FDBDE8084004480A
:100E700016F0C6BA3816020091290200992902001C
:100E8000B807002010B5104C237823B1BDE81040FE
:100E90000E4817F04BBD80B10D4817F047FDFFF726
:100EA0004BFE01230B48237014F09EFB014650B10A
:100EB000BDE81040084817F039BD084817F036FD66
:100EC000FFF748FEEDE710BDD2360020BF29020033
:100ED000F029020060010020302A02000D2A0200E1
:100EE0002DE9F0413A4E8AB0074688461546002162
:100EF000282268461BF024F8694630680BF056FD3E
:100F0000044638B10146334817F010FD20460AB0B8
:100F1000BDE8F0819DF8013013B12F4817F006FDB0
:100F2000414630681BF03CFD044610B101462B4899
:100F3000EAE72B4817F0FAFC4FF420220023294857
:100F400016F084FA044618B1274817F0EFFCDDE7E5
:100F5000089B1A882B889A421DD00122234B2946D0
:100F600030681A701BF00CFD054628B10146204878
:100F700017F0DCFC2C46C9E71E4817F0D7FC4FF4ED
:100F800020220023174816F061FA054618B11A48C6
:100F900017F0CCFCEEE7BDF814207B889A42B5D060
:100FA000394630681BF077FD054610B101461348FD
:100FB000DEE7134817F0BAFC4FF42022002309485B
:100FC00016F044FA05460028A0D00E48E0E700BF1E
:100FD000E02300204A2A02006B2A0200A52A020010
:100FE000BC2A0200B8070020CF2A0200D436002015
:100FF000E22A0200032B0200212B02003F2B0200F9
:10100000672B02008C2B02002DE9F04705468AB0C1
:10101000002009F039F9044638B10146384817F084
:1010200085FC20460AB0BDE8F08705AE01461422D3
:1010300030461AF085FF4FF010120123CDE9063239
:101040008DF80C302F4B02A80493029605F0AAFEEF
:101050002D4805F06DFD2D49032005F079FD014671
:1010600040B32B4817F062FC002014F0FFFA40B3A5
:10107000284817F05BFC2846FFF704FF17F0CFFB6A
:101080000025044644F62068DFF88CA017F0C7FB63
:10109000041B61EB0505444575F1000507468946CB
:1010A000DAF8003011DBCBB91C4817F03FFC6FF0C9
:1010B0007F04B6E7042005F0ADFD0028D4D0184821
:1010C000D0E7184814F072FAD5E73BB94FF4004066
:1010D000002117F0B2FB3C464D46D7E74FF05012C7
:1010E0004FF07A73CDE90523A3F1F37301930E4B0F
:1010F000304602AA01A90293FFF7F2FE044690E7E8
:10110000B12B020008050020740100208D0500208D
:10111000D12B02000E2C0200E02300202E2C020016
:10112000F12B020060010020FB00904210B50E4B35
:10113000186850B96FF07F040C4817F0F7FB0C4AA1
:10114000136801331360204610BD0A4A1321136847
:10115000013313601BF040FC04460028F3D006481E
:1011600017F0E4FBEFE700BFE0230020492C02006A
:10117000E4230020E8230020592C020010B517F0CA
:101180004EFB04460120FFF73FFF002005F03CFE28
:1011900000214FF4C03017F050FBFFF7C7FF4FF4AA
:1011A0008030002117F049FB17F039FB44F621622B
:1011B000001B63EB0303904273F1000305D24FF46D
:1011C0000040002117F039FBDFE7064B064819689D
:1011D00017F0ACFBBDE81040044B0548196817F048
:1011E000A5BB00BFE82300206D2C0200E4230020F3
:1011F0008A2C02002DE9F84300AF80460E461546C2
:1012000000F0C8F8C36804461BB943691A78002A7D
:101210005BD10023E3606368434556F8232009DB74
:101220004A4B6361204600F09BF84FF0FF30BD460B
:10123000BDE8F883511C616192F80090B9F12D0F5F
:10124000EED1911C616151782D29A16004D1927871
:101250006AB901336360E3E749B93C4B4946284624
:1012600063611AF0FEFD0028DCD0C4F8089028461F
:10127000A1681AF0F6FDA36862693A2B01D0114605
:1012800040BB127812B96268013262602268BAB15A
:101290002A783A2A14D02E480268510710D06D4699
:1012A00088B06A462B4951612B49C2E906130423D1
:1012B00042F8103F00234FF4015101F06BFEAD46A0
:1012C000204600F04DF83F20B1E75A1C42611B78E0
:1012D0008360CCE740783A280BD000232361137851
:1012E00013B9636801336360204600F039F8A068E1
:1012F0009DE791F800C062681448BCF1000F05D169
:1013000001329045626004DD56F82210C4E90410F1
:10131000E7E760612D783A2D04D1204600F020F8EF
:10132000284684E72268002ACAD009480268520782
:10133000C6D06D4688B06A46084951610649C2E97F
:101340000613042342F8103F6346B4E71A34020040
:1013500064060020D62C0200152D0200EF2C02009E
:101360000268074B1A604268064B1A608268064B97
:101370001A60C268054B1A600269054B1A60704713
:101380009801002094010020F4230020F023002085
:10139000EC230020004870477C0100202DE9F04F2D
:1013A00091B0009302F004030293C2F3C20301332D
:1013B000840705460E46DDF868800392059340F0E9
:1013C000BD81041D30B1072909D86FF01B0011B091
:1013D000BDE8F08F01F00706341DC6F10806009B3A
:1013E0004FF000094FF0040A591E4FF0FF334F46EB
:1013F0000193CB465346CDF810900DB1009A226070
:101400000598002800F3EB809948009A824203D3A4
:1014100098488242C0F0E380039AA4EB050E92073D
:101420004FEA9E0000F106810F2F00F2B480002DDC
:1014300000F0088107F140020DEB020C019A0CF854
:10144000200C0CF8102C049801300490EAE07A2863
:1014500060D84B280ED847285CD829282FD82528B3
:1014600055D057D820287DD02338D0F1000B4BEB36
:10147000000B77E0A0F14C0CBCF12E0F4AD8DFE84E
:101480000CF07149494949494949494949494C4937
:10149000494949494949495A494C4C5A5A5A714C47
:1014A0006E497149184C18494983804C49494C4947
:1014B000800000204FF0000B4FF0040A39E00122B9
:1014C000A0F12A0C5FFA8CFC02FA0CFC1CEA0E0F4D
:1014D00048D11CF062502ED11CEA020B42D0013CD4
:1014E0005444CAF1000C04EA0C04002D61D0A3EBB3
:1014F000050CA444B4453FF668AF002868D1042B1E
:1015000047D158F8043B2360042304342AE0019AAD
:10151000013A01924FF0000B24E011F8010C6C2805
:1015200034D1002011F8023C83466C2BC4D14FF01B
:10153000080A5346D3E708F1070828F007080734DC
:1015400024F00704F8E802AB35B106982044B04215
:101550003FF63BAFC4E900AB4FF0000B08344FF04F
:10156000080A534611F8010F002878D0BBF1000F8C
:101570007FF46DAF2528F5D14FF0010B019B0133AE
:1015800001934FF0040AECE7584693E700208346A6
:10159000A5E7082B02D06FF0150018E708F107083F
:1015A00028F00708F8E80223C4E9002308230834D8
:1015B000D8E768B9042B02D108F10408A4E7082B86
:1015C000E9D108F1070828F0070808F10808EDE755
:1015D000059A013A059258F8042B00920DE7039AF8
:1015E000900720D54FF0010CA4EB050E4FEA9E00AA
:1015F000BEF5007FCFD20F2FCDD8F5B107F1400255
:101600000DEB020E019AC0B20EF8200C0EF8102C51
:10161000BCF1000F3FF417AF60F07F000EF8200C14
:1016200009F101090137C5F108024FF6DA7E0434E9
:10163000069297E74FF0000CDAE7BCF1000F01D0FB
:101640000136EFE7029802360028EBD10098CDE989
:1016500006311AF014FCDDE906310644E2E7631BAB
:10166000B3F5806F97D23DB9A6F10804E018AEE655
:10167000280F02004C7E0200029A9B0828602B7003
:101680009DF81030C2B1EB7085F80290B9F1000FEF
:1016900005D0002208A8C5F1010C97420ED14FF0E9
:1016A000000AC5F101030DF1200801930DF1300B83
:1016B000574512D1601B8AE66B70E5E710F8013BD5
:1016C000190608D504EB0C0EB64503F07F033FF670
:1016D0007CAE04F8013B0132DFE7B9F1000F03D023
:1016E00098F90020002A17DB029BD3B11AF80B20CF
:1016F00004F8012B0022019B98182044B0423FF6C9
:1017000064AE98F80000009904F8010B204603929B
:101710001AF00BFC039A14440AF1010A08F10108BB
:10172000C6E798F8002055F822300093029B0098F5
:1017300045F822301AF0A3FB421CDCE76FF00D00E5
:1017400045E600BF2DE9F04F95B000AFD7F878B06F
:10175000BB61CBF3C00304467A623B61396251B985
:101760000D4603784678807800EB83002044AE4233
:101770001AD8031B3B6294F80290E3784E467B61D3
:10178000B9F1000F02D01BF0010F16D17B6953BBDA
:101790007B6A1BB12046BA69396A98473D6A284678
:1017A0005437BD46BDE8F08F00F1010840461AF0FD
:1017B00066FB013040440135D9E7636894F800A026
:1017C000FB617B6A4FEA8A02FA6004EB8A0A002B0B
:1017D00040F00881D04600263D6A09EB0A034345E4
:1017E00054D1CA4413E01BF0020FD1D094F800A0EA
:1017F0004FEA8A03FB60636804EB8A0AFB617B6A39
:10180000002B7ED13D6AB9F1000F54D14E461BF03A
:10181000050F0CBF022301237B627B690AEB43099E
:101820000BF002033B62CA45B9D01AF8021B1AF842
:10183000013C54F82380AD4B984502D3AC4B9845FE
:101840003FD33B69002B49D0F86917F033F80028E3
:1018500044D0A848036813F0060F15D0E8468AB0B4
:101860006A46A54B5361A54B9361FB69C2E90731F9
:1018700040F201339384A24B42F8103F00234FF40F
:10188000325101F087FBC546023DCCE718F8012B29
:101890007B6254F822001AF0F2FAFA6F7B6A013088
:1018A0003AB1D7F8802096423EBFFA6F22F8160070
:1018B0000136054493E71BF004061CBF7E6ACA4448
:1018C000A5E73B6923B1F86916F0F4FF0028C0D101
:1018D0001BF0010F05D17B6AED1AA4E73B6A002BD0
:1018E000A1D040461AF0CBFAFB6F43B1D7F8803055
:1018F0009E423FBFFA6F431C22F816300136054462
:1019000091E7B9F1000F72D01BF0040672D0C846FF
:10191000002607F140004A4651461AF006FB7B6953
:10192000CA445B00BB607B690AEB43037B610BF03D
:1019300002037B607B699A455ED123781BF0020F1E
:10194000FB61637818BF002106EB030208BF4FEA72
:1019500058011BF0010FD2B240F09D801BF0040F24
:1019600014BF4046002094F802B094F803A03B61F5
:101970006270A070E1702046BA69F9687B6A984786
:10198000051EFFF60CAFFB69414623703B69BA693F
:10199000637084F802B07B6A84F803A007F140000A
:1019A0009847B0F10008C0F2B0803B6ABA69A3EB77
:1019B0000901FB687869C91ABB68C91A7B6A98472C
:1019C0000028C0F2A4804FF0000BA84408EB0005EB
:1019D00007F1300AB34560DB0021BA6908467B6A2B
:1019E0009847DCE64FF0000807F1300093E74E46D9
:1019F000C84694E7B04692E71AF8021B3B4A1AF829
:101A0000015C54F82530934202D3394A93421CD3E7
:101A10003B6923B1F86916F04DFF00288AD17B6835
:101A2000F3B908F1280207F12800024408F1010384
:101A300002F8101C07F1500208F1020852FA83F371
:101A40005FFA88F803F8105C74E73B692BB1F8691A
:101A500016F030FF00287FF46DAF1BF0010F09D0A6
:101A600006F1280207F12801731C561806F8205CBD
:101A7000DEB25FE71BF0040F3FF45CAF08F1280211
:101A800007F1280108F1010302EB010808F8105CD6
:101A90005FFA83F84EE7002065E71BF80A3054F838
:101AA000239087F82F30FB6F63B333F81B8001213D
:101AB000BA697B6A07F12F009847002827DB0544A5
:101AC000B8F1000F06D148461AF0D9F900F1010823
:101AD0001FFA88F841464846BA697B6A9847002849
:101AE00015DB05440BF1010B74E700BF280F020062
:101AF0004C7E020054060020232D0200CA2D020055
:101B000005000001D7F87C80D1E7454647E6054649
:101B100045E600BF014B1860704700BF9C010020E4
:101B200030B5002587B0CDE903010446009503A92F
:101B30000548059500F018F9DDE904309842B8BF72
:101B4000255407B030BD00BF038901002DE9F047DF
:101B5000058B04462807904611D4022905F0070595
:101B600040F0CD80204617F0ABF978B10138218BD9
:101B7000042811D8DFE800F0C3106D859500012915
:101B80000CBF45F0100545F02005258388F311882A
:101B9000BFF36F8FBDE8F08701F0070AAA4500F098
:101BA000A6800027B9463E46A368002B00F0BD8002
:101BB00041F00801218388F31188BFF36F8FA1687A
:101BC000002900F0BB800D68002900F0B780334683
:101BD00052462046D1F80480C047002D76D02B68AD
:101BE00029461D46F0E701F007035A1F012A1BD8BA
:101BF000002221F00701062B276889B2C4E90022E0
:101C000009D13B4603E0628B013262831B68002BE3
:101C1000F9D141F002012046218317F051F9002843
:101C20007BD041F0200177E0042B0AD121F007019D
:101C300089B22046218317F043F910B141F0200109
:101C40002183218B01F0070AAA4550D00027B9460D
:101C5000AAE7236921F0070141F00601062DD3F818
:101C6000009021832DD1B9F1000F40D041F008013F
:101C7000218388F31188BFF36F8F20463949C84705
:101C800029E021F00701236941F0040189B2042D04
:101C9000D3F804902183E6D000274FF0040A3E4693
:101CA00082E721F00701236941F0050189B2052D82
:101CB000D3F808902183D6D000274FF0050A3E467E
:101CC00072E700274FF0060A3E466DE72B4687E78E
:101CD000B9F1000FD1D14FF02003EFF3118883F356
:101CE0001288BFF36F8F238B23F008032383258B88
:101CF000EA062ED525F01003238305F00705666953
:101D0000218B002EBFF66FAF00232768C4E9003394
:101D100021F0070141F001012183218B4FF00009DF
:101D200001F0070AAA457FF43FAF002F9BD041F096
:101D30000801218388F31188BFF36F8F002FC7D06C
:101D40003D68394633465246204617F0E5F82F469F
:101D5000F4E7AB067FF51AAF25F02003238305F0E7
:101D60000705FFE6458F01002DE9F04F81468B46C0
:101D700017461C46002595B0387808B9284657E321
:101D80007B1C2528039306D05946C8470028C0F27B
:101D90004F830135FBE1182200210EA81AF0D0F87C
:101DA0007B78252B7DD0002398469E469C461E4678
:101DB000781C014610F8012B2B2A00F0A18000F2BC
:101DC0009880202A00F09F80232A00F09F802BB16A
:101DD0009DF8403043F040038DF84030B8F1000FDB
:101DE00005D09DF8403043F020038DF84030BEF11F
:101DF000000F05D09DF8403043F010038DF84030BF
:101E0000BCF1000F05D09DF8403043F008038DF879
:101E100040302EB19DF8403043F004038DF840303F
:101E20009DF8403003F04400442803D16FF386133B
:101E30008DF840309DF840302A2A43F080038DF819
:101E400040307FD19DF841204B1C42F001028DF8BB
:101E500041201A782E2A0CBF012100219DF8412033
:101E600061F341028DF8412078D15A782A2A6ED048
:101E700000224FF00A0C0133194611F8010BA0F1B2
:101E80003006092E40F295809DF840101292C1F361
:101E9000400040EAD2700A4660F341028DF84020CB
:101EA0005CE0BA1C03928DF843309DF84130DA07AC
:101EB00040F12E8154F8048BB8F1000F07DA9DF839
:101EC0004020C8F1000842F004028DF840205E076F
:101ED00040F1278154F804ABBAF1000F80F226815B
:101EE0009DF841306FF341038DF841304FF0FF3AD8
:101EF0001CE12D2A0DD0302A7FF469AF012358E769
:101F00004FF0010C55E74FF0010E52E74FF001087A
:101F10004FE701264DE703460EFB0262303A1846B2
:101F200010F8016BA6F1300CBCF1090FF3D99942FE
:101F30008FD09DF840101192D20F62F341018DF8BD
:101F4000401086E70B4600224FF00A0EE7E79DF8A7
:101F50004120023342F004028DF841201A786C2AA5
:101F600047D02BD8682A31D06A2A4BD04C2A51D07E
:101F70001A4612F8013B782B03928DF843309DF8F6
:101F8000412000F2BE806D2B51D8692B00F2B98040
:101F9000572B67D8412B03D0453B022B00F2B18071
:101FA00004229DF8423062F302038DF8423001238F
:101FB00073E00CFB02020B46303A5DE7742A25D031
:101FC0007A2AD5D106219DF841200CE05A78682A5A
:101FD0009DF8412006D1012161F3C6028DF8412010
:101FE0000233C5E7022161F3C6028DF841200133B7
:101FF000BEE75A786C2A9DF8412001D10421EBE715
:102000000321F0E705219DF84120ECE707219DF829
:102010004120E8E7BDF8402022F4F04222F002021D
:1020200042F4804242F00202ADF84020DFE76E3B0E
:10203000D9B201238B4040F282410B4237D113F0D9
:10204000240F51D1D8075CD503219DF8423061F3AC
:1020500002038DF8423002F07803A3F140014B42B5
:102060004B411AE00120A3F15801C9B200FA01F175
:1020700011F4624F94D140F6010631421DD111F4A2
:10208000043F3ED09DF8423060F3020302F0780234
:10209000402A8DF8423034D000239DF84020C2F30E
:1020A00040010B4363F341028DF84020FDE602211D
:1020B0009DF8423061F30203E8E702209DF84210E8
:1020C00002F0780260F30201402A8DF8421002BF4C
:1020D0009DF8401041F001018DF84010632BDBD1D9
:1020E000131E18BF0123D8E703219DF8423012F0D8
:1020F000780F61F302038DF8423014BF01230023EF
:10210000CBE79DF8403043F001038DF84030C3E742
:102110009DF94020002AACBF4FF0FF38DDF8448025
:10212000D5E698077FF5E2AEDDF848A00023CDE9BB
:1021300011339DF842309DF8411003F00703012B45
:10214000C1F3C30133D1CB1E042B04D8DFE803F065
:10215000214646212100236801294FEAE372CDE997
:102160000E321CD19DF93830DA17CDE90E32043425
:102170009DF8403013F0030650D03A465946484681
:10218000039B16F0CBFF0028C0F252810544039F49
:10219000F2E554F8043BDA17CDE90E32E8E70229FC
:1021A000E5D11AB243F3C033CDE90E23DFE7022BAA
:1021B00024D1CB1E042B04D8DFE803F0181010182C
:1021C000180001294FF0000254F8043B14D00229F2
:1021D000CDE90E32CCD19BB20E93C9E7073424F07F
:1021E0000704F4E80223CDE90E23C1E754F8043BC9
:1021F0000E9300230F93BBE7DBB2CDE7042B08D18E
:10220000073424F00704D4E900230834CDE90E2371
:10221000AEE7032BACD154F8043BDDE79DF8430057
:102220007828B4D862281CD825283FF4ADAD5828AA
:10223000ADD1DDE90E010DF13603009310AA08AB14
:1022400016F026FFBAF1000F074680F29980002FA2
:102250009DD00DF13603D81B002E00F0C080013058
:10226000BDE06338152892D801A252F820F000BFD3
:1022700045230000572300008F2100008F2100001C
:102280008F2100008F210000572300008F210000C4
:102290008F2100008F2100008F210000E323000028
:1022A0007B230000A12300008F2100008F2100006C
:1022B000C92200008F2100007B2300008F21000035
:1022C0008F2100007B230000BAF1000F0E9F35DB49
:1022D0005146384619F0DAFD07EB000A002F3FF4AB
:1022E00056AF00269DF8423013F01002059200F020
:1022F000928002305B06119A48BF129B104448BF7F
:10230000C018B8F1000F049240F39F809DF8402060
:10231000A8EB0008C2F380035007069300F19580F4
:10232000510640F188803EB159463046C8470028E2
:102330007EDB069B01351E4630227DE0384619F0D3
:102340009EFDC9E70E9B002601208DF8203008AFC6
:102350000DF1210AC6E719075ABFC3F300135E0146
:102360002B26DDE90E23002BBFF663AF524263EB51
:1023700043032D26CDE90E235BE7002659E700260F
:102380009DF840200DF13603DB1B6FF386129A4552
:102390008DF840207FF65BAFAAEB0303119356E75D
:1023A0000E9890B30DF136030093002108AB10AAEC
:1023B00016F06EFEBDF84230BAF1000F03F0EF03E5
:1023C00043F4F04343F010030746ADF84230D6DA49
:1023D00000283FF4DCAE00260DF13603181A9A46A9
:1023E00080E70E9B07293FF6D2AEDFE801F00C0430
:1023F000060C08080C0C1D70C9E61D80C7E6EA171C
:10240000C3E90052C3E61D60C1E62F4F064607F13F
:10241000050A052066E71A0748BF01306AE710463B
:10242000079306925946C847DDE90623002804DAD7
:1024300015B0BDE8F08F202243461946002903F16C
:10244000FF33ECDC454498466D1A2EB159463046B0
:10245000C8470028ECDB01359DF84230DA0601D48C
:102460001B0705D559463020C8470028E0DB013559
:10247000059B33B159469DF84300C8470028D7DB78
:102480000135049E2E4405E059463020C8470028F7
:10249000CEDB0135731B002BF6DC53463A4659461A
:1024A000484616F03BFE0028C2DB0544A844A8EBD2
:1024B0000503002B7FF76BAE59462020C847002844
:1024C000B6DB0135F3E700BFF42D020008B54FF08D
:1024D0002002EFF3118382F31288BFF36F8F05F0B0
:1024E000EFFD034816F022FA04F0F2FFFCE700BF0C
:1024F000FA2D020010B5094B094C00F01F024009EB
:10250000012818BF234603EB8203D3F8002222F0F0
:10251000E04242EA0172C3F8002210BD0028845054
:1025200000258450F8B54FF02003EFF3118783F3B3
:102530001288BFF36F8F0125214B224EC3F800553F
:1025400002230321C6F8D0360020FFF7D3FF284628
:10255000FFF7D0FF7E237F220024C6F80C37C6F891
:102560003C39194B2946C3F81821184A2120C2F8D2
:10257000044EC2F8084E02F54822C2F81041C3F8D2
:102580002441C3F82C4103F5FF1303F58053C3F82E
:10259000A042C6F80457C6F80459C6F8005BFFF716
:1025A000A9FF2020FFF7A6FF0B20FFF7A3FF0A20BB
:1025B000FFF7A0FF87F31188BFF36F8F2046F8BDA8
:1025C00000100050004000500020005000900350C8
:1025D00005232DE9F041244D00AF2C78DFF88C80E5
:1025E0000134B4FBF3F303EB8303E41A1CF039FF6B
:1025F0001F4A204E137803B358F82430C01A072816
:102600001BD83378ABB91C48026812F0060F0ED005
:102610006C4688B06A461949516119499161032194
:1026200042F8101F4FF4C45100F0B4FCA54601233A
:1026300033700020BD46BDE8F08100214FF05023EB
:102640003170D3F8140138B1C3F81411D3F8143130
:102650002C700CB9012313702C781CF002FF48F881
:1026600024000120E6E700BFD7360020F823002031
:10267000D6360020D536002098060020232E0200F2
:10268000502E020048B1054B054A1B68B3FBF2F31C
:102690005843044B43F0010318477047E8030020F8
:1026A00040420F0030160200062807D10122044BD9
:1026B000C3F80025BFF34F8F20BFFDE7704700BF71
:1026C00000400050F0B583B000AF381D13F016FA8B
:1026D0002A4B98424ED112F0ADFB041E18DA38791D
:1026E00013F012FA264803685B073FD06D4688B0A6
:1026F0006A46244B5361244BC2E90634042342F852
:10270000103F00234FF4015100F044FCAD462DE092
:1027100040F607031D4D7C71AE68FB8074687B68D2
:1027200014B96FF05704DDE708212846184AA0477E
:10273000041ED7DB3369002BF3D001220821284681
:102740009847041ECEDB01233D79124AAB40C2F804
:1027500004357879FE791CF079FE0F4B45F0004581
:10276000B600C0F880509D51002CBBD120460C37DC
:10277000BD46F0BD6FF01204B4E700BF0000AD0B22
:102780009C0600206C2E0200982E020048100200C9
:10279000E12700000070015080A1025038B5049C70
:1027A000C4F30725284612F0BFF900210A4BA20BFB
:1027B00002F0FC02C0F8801099500123E4B2074AED
:1027C000A3402846C2F8083512F052FB2046BDE867
:1027D000384013F099B900BF80A00250007001503A
:1027E000F7B5144683681B690BB100229847C4F300
:1027F0000726304612F0A0F9054630461CF026FEAA
:102800000027104B220E9200C0F880709F50304677
:1028100012F08AF9A20B0C4B02F0FC021344E2B254
:1028200042F000421A60094BC0F8802005F13202E4
:10283000009330463B46019452001CF010FE03B05A
:10284000F0BD00BF80A1025080A002509D27000073
:1028500013F000B82DE9F047044607464FF0010990
:10286000DFF8508014B93846BDE8F08794FAA4F533
:10287000B5FA85F509FA05F32E0108EB05156FEA9F
:10288000030A24EA03042B7B002BEBD058F8063014
:102890001B694BB94644736804222846196807EA45
:1028A0000A0700F009FBDDE7284698470028D9D140
:1028B000F0E700BF5014020030B5002289B00F4984
:1028C0000F481EF07AF9002200230024CDE90623E8
:1028D0000E230C4DCDE903344FF440722846CDE968
:1028E0000144094B0949009414F0F6FB08492846B5
:1028F00014F030FB204609B030BD00BF15290000A0
:10290000680E0020A8090020152C000008380020BF
:10291000AE320200014814F073BD00BF88070020EA
:102920002DE9F04780461F480F4617F01AF8064673
:10293000002830D000252846BDE8F087237B73B1FE
:102940002368DB680BB12046984723681B69D3B91D
:10295000636804222046196800F0AEFA013610348C
:102960004C45EBD3B8F1000FE5D0002DE2D028465E
:10297000FFF770FF0546002FF7D000214FF4A47039
:1029800015F062FAF1E7204698470028E0D00AFAED
:1029900006F31D43E2E705464FF0010A024CDFF85B
:1029A0000C90DDE71C24002050140200601402008B
:1029B00008B5034608462BB1044A136000F05CFDDD
:1029C000002008BD6FF01500FBE700BFA00100204C
:1029D00010B5044C237813B9034814F011FD0123FA
:1029E000237010BDD83600208807002010B504469B
:1029F000064816F0B6FF3CB1054BD3E8EF1F01398E
:102A0000C3E8E21F002AF8D110BD00BF1424002043
:102A10001824002000200146034BD3E8EF0FC3E841
:102A2000E21F002AF9D170471424002070B5FFF787
:102A3000F1FF0546074C084EB44200D370BD6368F1
:102A40005B792BB123685B6813B129462046984710
:102A50001034F1E7501402006014020010B5044C69
:102A60000449204616F0CDFC034B1C6010BD00BF8E
:102A7000C0050020741602000C24002008B50023B5
:102A8000074A4FF400411370064A07481360FFF7E6
:102A90008FFFFFF7E3FFBDE8084000F07FB900BFFC
:102AA000D9360020142400205F990100014600223D
:102AB0000023014816F0C6BCC0050020014816F0EE
:102AC0005FBD00BFC0050020024B0146186816F02C
:102AD000A7BD00BF0C240020014816F0D5BD00BFE3
:102AE000C0050020F8B5334B1878002860D0FFF7F8
:102AF000E5FF044670B1304BD3E8EF1F0139C3E85E
:102B0000E21F002AF8D12D4D2D4EB5422DD320467F
:102B1000FFF7DAFF2B4B2C4C1B68002B19DD1EF046
:102B200024F84FF47A72A0FB020302FB0131C30BBD
:102B300043EA4143D4E900209B1A40F2E9324FEACC
:102B4000D13161EB0001934271F1000101D3FFF734
:102B50006DFFD4E9003213F57A7342F10002C4E943
:102B60000032BDE8F840FFF7B7BF6B685B793BB157
:102B700021784B0706D52B68214628461B689847C5
:102B80001035C2E72388626813F4E07FC3F382172D
:102B9000C1F3C201EFD0002AEDD00C4B2846D21A67
:102BA00042F38F02012300F0D3F9B842E8D3E2E701
:102BB000F8BD00BFD83600201824002050140200B1
:102BC0006014020014240020600E0020040600207F
:102BD00070B50D4D297861B90120FFF7A1FE0B4CAE
:102BE0000B4EB44206D3FFF77DFF0028FBD1012333
:102BF0002B7070BD63685B791BB1236820469B68AE
:102C000098471034EDE700BFD93600205014020079
:102C10006014020000212DE9F0470846FFF780FE0E
:102C2000044648B340F267684FF0000915F026F9F2
:102C30001A4B186030B11A4B1B68092B02DD19487A
:102C400014F0DEFB0025184FDFF858A044B12046F1
:102C5000FFF700FE044618B94FF0FF384FF0FF3978
:102C6000FFF740FF064628B9B5B942464B465046E5
:102C700014F0ECFB3546E9E74FF0FF384FF0FF3931
:102C8000D4E72B689B691BB1002228461146984760
:102C90001035BD42F5D3E8E7044DFAE710240020D3
:102CA000182400208807002060140200501402003D
:102CB00013B5184816F055FE174B1B787BB14FF033
:102CC0002003EFF3118483F31288BFF36F8FFFF7B4
:102CD00009FF84F31188BFF36F8F02B010BD0F4B53
:102CE0001B68002BF9D050B9002200230C48CDE915
:102CF00000234FF40042002315F002FBEDE70A2801
:102D0000EBD107481DF065FF064802B0BDE8104052
:102D100014F076BB18240020D9360020102400209F
:102D2000680E00208807002010B5064B04461B687B
:102D300098472146A060044816F002FCBDE8104008
:102D4000FFF7B6BFA0010020C005002008B50A4665
:102D50000146024816F0A2FC002008BDC005002074
:102D60000146014816F0A5BCC0050020024B0348EF
:102D7000C01AC008704700BF1013020050140200B0
:102D8000044A054B9B1AB1EBD30F34BF52F8310004
:102D900000207047101302005014020000210B485D
:102DA0000B4B30B51B1A0B4CDB080430994200D199
:102DB00030BD10F83120256802F0070225F0070524
:102DC0002A4344F8042B0131F0E700BF101302003E
:102DD0005014020004060020F8B506460024094FEE
:102DE000094DED1BED08AC4203D14FF0FF342046F6
:102DF000F8BD314657F8340019F051F80028F6D0E4
:102E00000134F0E710130200501402002DE9F843DA
:102E1000884615461E4698B90446224FDFF888902A
:102E200009E0384633462A464146FFF7EFFF844221
:102E300038BF044610374F45F3D32046BDE8F8832A
:102E40001A4B1B4AD21AB5EBD20F28D203EBC5039B
:102E50001C79B44228BF344607214368154E1A79BD
:102E600056F8253002EB4202914023EA010304F0B8
:102E7000070101FA02F213430021032223FA02F0B0
:102E800000F00700814202F1030238BF01461E2A0A
:102E9000F4D123F007030B4346F82530CDE7002497
:102EA000DAE700BF501402006014020010130200A1
:102EB00050140200040600202DE9F04104460E469D
:102EC0000025436810481746201A00110130187178
:102ED00063689A710D4B0E4AA3EB02084FEAD808BB
:102EE000454508D3012263681E6063685A71BDE8D6
:102EF000F041FFF76DBD00212AB23B462046013567
:102F0000FFF784FFADB2EBE750140200501402004B
:102F10001013020070B5436805465B791BB90022A7
:102F20006B685A7170BD0024074E084BF61AF608FC
:102F3000B442F4D2002322B2194628460134FFF7E6
:102F400065FFA4B2F4E700BF5014020010130200A2
:102F50000146184663B1002A14DB4B680A491B7905
:102F600051F8220003EB4303D84000F007007047FC
:102F7000064B0749C91AB2EBD10F04D203EBC203C7
:102F800018797047042070470406002010130200CF
:102F9000501402002DE9F04FC1F3CB448FB0C1F3C0
:102FA00049260D469046994605901734002E3CD090
:102FB0004FF0040B4FF00A0A002209AF31460BAB69
:102FC0004046CDF808B00197CDF800A0CDE90B221E
:102FD0000D920796FEF7B6FBC0F30903181920F00F
:102FE000070080081E4663F352250693FFF75EFD37
:102FF000044678B10022069B10300B900C930D9282
:103000004046CDE9017B0C4A0799CDF800A00BABF7
:10301000FEF798FB66F352254B462A462046059953
:103020000FB0BDE8F04F16F0CEBC24F007008008CA
:10303000FFF73CFD0446EDE79B9901002DE9F04FB9
:1030400087B00446DDE9105ADDE912690F46934660
:103050009846B6B31021334652460020CDF8009072
:10306000CDF81490FEF79AF90146174B04F00704C7
:103070000BF0070BE40003EA412305F1170044EAD3
:103080008B141C430844114B20F0070003EAC5438E
:1030900080081C430391FFF709FD054640B13EB18E
:1030A000334652460399CDF800901030FEF776F97A
:1030B000434622463946284607B0BDE8F04F16F091
:1030C00082BC3146D1E700BF00FE07000000F87F58
:1030D0000EB403B503AB53F8042B01460448019327
:1030E00016F098FC02B05DF804EB03B0704700BF27
:1030F0003D9A0100CA0605D48B064CBF024903491C
:10310000FFF7E6BF704700BF193402006E2F0200C0
:103110002DE9F04F89B09B46DDE915769DF84830E2
:1031200004460493DDE913930593049B0D46069230
:10313000002B00F0878006F00803079316F02BFCA5
:1031400006F0020A024600284BD020468549FFF7C8
:10315000BFFF8046BAF1000F08D016F0440F42D1ED
:103160002A4620468049FFF7B3FF804406F001035A
:103170005BB17E4B049A204653F822207C4B7D495C
:10318000002A08BF1A46FFF7A3FF06F00803002B2A
:1031900055D0794B049A204653F822207749FFF7FF
:1031A00097FF0546069B2BB11A4620467449FFF748
:1031B0008FFF0544BBF1000F05D05A4620467149E8
:1031C000FFF786FF05444544B9F1000F49D1002FB0
:1031D0004FD1F30700F1C08031462046FFF78AFF48
:1031E000B4E08046B6E7684B18680028BDD0674B4E
:1031F0004FF47A7E1B684FF46162B5FBF3F5B5FBC3
:10320000F0F300FB13550EFB05F5B3FBF2FAB5FB2B
:10321000F0FC3C2102FB1A3200FB1C55B2FBF1F31F
:103220000EFB05F5B5FBF0F501FB132220460092DD
:10323000CDE901C552465649FFF74AFF95E706F02A
:103240000805AFE7BBF1010F06D1B9F1000F64D15A
:10325000002F7BD000250CE0B9F1000FF8D04D48CD
:103260005CE04D484B4622464C4915F0F2FA002FDF
:1032700068D0DFF82C91DFF82CA1102F31462046C2
:10328000B8464FF0000B28BF4FF01008FFF732FF91
:103290005D4545DC059B514620461A78FFF718FF2F
:1032A0004FF0010B1BF0070F03D149462046FFF7F3
:1032B0000FFFD8453BD9059B5146204613F80B20FC
:1032C000FFF706FF0BF1010BBBF1100FEAD14FF036
:1032D000000B20463449FFF7FBFE5A46059B20466B
:1032E0009A5CA2F120015F2928BF2E222F49FFF707
:1032F000EFFE0BF1010BBBF1100F1DD01BF0070F00
:1033000003D149462046FFF7E3FED8455A46E5D8A3
:1033100049462046FFF7DCFEEBE71F48049DA1E786
:1033200049462046FFF7D4FE0BF1010BB0E72046DB
:103330001F49FFF7CDFEC5E7059BB7EB08074344E0
:1033400005939AD1049B002B7FF443AF204609B02C
:10335000BDE8F04F16F065BB2046054A0549FFF76A
:10336000B7FE39E7C22E0200C62E02008816020000
:10337000BD2E02006C3602009C160200EB2E0200ED
:10338000F12E0200F52E020024240020202400202B
:10339000CF2E02006B9A01003D9A0100159A0100A0
:1033A000BD7C0200FA2E0200002F0200EC2C02006D
:1033B000BB7C02002DE9F0410F884B6805460C46A6
:1033C00090468E6886B0C7F382175BB1134A9B1A8A
:1033D00043F38F0100291FDB2078C0F3C200FFF701
:1033E000CFFC0346214651F8102B6088C2F34922D6
:1033F000002A01EB020408BF0021C0F3CB00CDE995
:103400000308CDE901140022314628460097FFF752
:103410007FFE06B0BDE8F0810023E3E7040600204C
:1034200042F20F7373B58B4228BF0B460568044602
:10343000052168460D4A15F086FA06466368284657
:1034400004225B680A4916F0D8FA63683246694676
:1034500028465B6816F0D1FA6368172228465B6835
:10346000044916F0CAFA02B070BD00BF002B02007A
:103470001A2F0200022F020000210123064A904267
:1034800006D8064A01B901231360054B186070473E
:10349000012140085B00F2E740420F002024002099
:1034A0002424002000230428CB604B6098BF044BE9
:1034B000044A98BF53F820308A600B60704700BF01
:1034C000F8170200D41402000023064A06488A6056
:1034D000064ACB604B6082420B6000D37047936812
:1034E0001032F8E77C17020060140200501402004A
:1034F0000023064A10B50C46CB604B608A6001463B
:103500001846FFF73DFC206010BD00BFD414020038
:103510002DE9F34105460E4C0E4E0F4FDFF83C806F
:10352000B44203D3002002B0BDE8F08163682846AE
:1035300059791B7900290CBF3A464246CDE9002350
:103540000821A368064A16F05DFC1034E8E700BFC6
:103550005014020060140200472F02003F2F0200A7
:10356000502F02002DE9F74F0D4604460020FFF7CB
:10357000FDFB6B6807465B7923B9032120461D4A92
:1035800016F040FC082120461B4B1C4A16F03AFC62
:10359000082120461A4A16F035FC4FF00008DFF8E3
:1035A00064A00FFA88F6BE4208F1010803D3002098
:1035B00003B0BDE8F08F3246012300212846FFF713
:1035C000C7FC00233246194681462846FFF7C0FC57
:1035D000834631460020FFF7D3FB5AF82B200346E1
:1035E00001925AF82920082100922046064A16F036
:1035F00009FCD6E7712F0200832F02008F2F0200F3
:10360000AD2F02000C180200EA2F02002DE9F84F3E
:1036100052F8048C064640469B468A46174618F0E8
:103620002EFC81460F4D104B9D4208D3434601218D
:1036300030460E4A16F0E6FB6FF007040CE04A46EF
:103640004046A96818F037FC074B044638B93B469A
:10365000524629463046D8472046BDE8F88F1035F7
:10366000E2E700BF5014020060140200FE2F0200C7
:1036700008B5024BFFF7CAFF002008BD6535000002
:10368000014BFFF7C3BF00BF879A0100014BFFF753
:10369000BDBF00BF8F9A0100014BFFF7B7BF00BF4E
:1036A00029380000014BFFF7B1BF00BFDB9A0100D2
:1036B0001FB5044602A901A8FFF748FB002804DA59
:1036C00001212046134A16F09DFB08212046124A8C
:1036D00016F098FB08212046019B104A16F092FB39
:1036E00008212046029B0E4A16F08CFB03A8FFF728
:1036F00037FB002804DA082120460A4A16F082FB2C
:1037000020460821039B084A16F07CFB002004B0E9
:1037100010BD00BF13300200443002006C300200C4
:10372000813002009E300200D630020010B5C3691D
:103730009B681C792CB90121034A16F063FB2046D3
:1037400010BD0120FCE700BFF03002002DE9F04F72
:10375000074689469846154685B0B2BB1046FFF726
:1037600005FB0646D9F804305B7923B903213846B6
:10377000294A16F047FB0024DFF8A0B0B44221DA52
:103780003DB358F8243000200293FFF7EFFA0023EE
:1037900082469A450CD0194600200393FFF7F0FAB1
:1037A0004022029918F087FB039B80B9002B2CDA8A
:1037B00058F8243001213846194A013416F022FB0A
:1037C000A642DEDC05B0BDE8F08F1646CAE701333D
:1037D000DFE7A24600210E9B22B24846FFF716FB08
:1037E0000E9B044683420DD095B951462846FFF7FB
:1037F000C7FA03465BF82420032100923846094AA1
:1038000016F000FB0AF10104B8E7A2461C46E1E706
:1038100058F82A30EEE700BF143102000C180200FD
:103820003F310200293102002DE9F74F0646884654
:1038300091461D460027D3F804A0DFF844B00422C7
:1038400050465BF8041B18F036FB044658B10137AC
:10385000052FF4D1012130466B680A4A16F0D2FADE
:103860006FF0070408E041463046009705F1080371
:10387000A9F10202FFF76AFF204603B0BDE8F08F0E
:103880000C1802005931020013B5044613F0ACFCC9
:10389000C0F307230193C0F3074300930821030EED
:1038A000034A204616F0AEFA002002B010BD00BF59
:1038B0001433020038B504461DF057F94FF47A75F9
:1038C000A0FB052305FB0133D20B204642EA43430C
:1038D0000821024A16F096FA002038BD2D33020066
:1038E00010B5044611F004FB08210346074A2046A0
:1038F00016F088FA2046064A082116F083FA214677
:10390000044813F0EFFA002010BD00BF3C33020062
:103910005B33020019390000F0B58FB004460D4644
:10392000D0F8A0701CF0EDFD064614F0A7FA244B69
:10393000244A002E08BF1E46234B0821844218BF8C
:103940001346CDE900462846204A16F05BFAD4E932
:103950000A23CDE9022394F90E3028460093237BF5
:1039600008211B4A16F04EFA06A92022204613F021
:1039700001FB626E0346009208212846154A16F0A4
:1039800041FA204605A91CF0CCFD034630B10821C0
:103990002846114A16F036FA0FB0F0BD6423059A96
:1039A0002846B91A4B43B3FBF7F3CDE90021CDE923
:1039B000027308213B46094A16F024FAECE700BFDF
:1039C00065330200BD7C0200F44B02006833020044
:1039D00074330200A0330200B7330200E433020064
:1039E000002130B593B01C2204460BA80A9118F0B0
:1039F000A7FA1B4818F043FAC0F1200001282CD97F
:103A0000174818F03CFAC0F120020AAD20212846E0
:103A100018F096FA2146134813F064FA09AA4FF4F5
:103A2000006111481CF071FD6423099A0195C2F5EB
:103A300000614B43DB0A002506934FF400632046E8
:103A4000CDE90413CDE902320821074B074A00955E
:103A500016F0D8F9284613B030BD0122D5E700BFD3
:103A60001B340200613B000070570020223402002A
:103A700010B504461BF0F5FC08210346024A204617
:103A800016F0C0F9002010BD6B3402002DE9F3419F
:103A90001746002304460A21B86801AA019316F0CC
:103AA000E9FB019DC6B255B12B4601212046144ABF
:103AB00016F0A8F9019D284602B0BDE8F081042E59
:103AC0000AD93346012120460E4A16F09BF92046BA
:103AD00016F0A5F90125EEE77868FFF77DF9B0F15A
:103AE000000805DA012120467B68074A16F08AF9AA
:103AF0000021334608460FFA88F2FFF787F9DAE724
:103B000081340200A8340200BF34020013460022B0
:103B100073B5044601920A21586801AA16F0AAFB5F
:103B2000019D95B920EAE0744FF40046294640F221
:103B3000E7304FF47A720023C4FB0601FCF70CFB5C
:103B400014F082F9284602B070BD2B4601212046B0
:103B5000024A16F057F9019DF4E700BFDE34020077
:103B6000F0B504460D46D0F8A06089B007A91CF056
:103B7000D8FC034630B1082128460F4A16F042F916
:103B800009B0F0BD20461CF0BCFC6423079A0B4F23
:103B9000B11A4B43002818BF0746B3FBF6F3CDE933
:103BA0000221CDE90463082123462846CDE90076A9
:103BB000034A16F027F9E3E7B73302006533020042
:103BC000FE34020010B5034600680C46114608B1E9
:103BD000027822B92046024A04F0AEFC204610BD0D
:103BE0003C36020010B50C68D1E90112FFF7EAFF7C
:103BF00008210346024A204616F004F9002010BDB1
:103C0000413602002DE9F0478AB0054601A812F0BE
:103C100079FF1823019E082103FB0066194A2846F4
:103C200016F0F0F8DFF86080019CDFF86090DFF8B4
:103C300060A0B44203D300200AB0BDE8F08705AF0E
:103C4000394614222046FFF7BDFF424603460821AD
:103C5000284616F0D7F820461CF066FB08210028FD
:103C60000CBF4B4653460B4A284616F0CBF814239C
:103C70002046094902AACDE90257049318341CF0E2
:103C80005EFBD6E7603602006A3602005736020055
:103C9000513602006F360200E53B00002DE9F0438B
:103CA00006460027104BDFF8449053F821400131BD
:103CB00053F8218087B0A04503D8384607B0BDE847
:103CC000F08320461CF030FB054658B1142201A9B0
:103CD0002046FFF777FF4A4603460821304616F094
:103CE00091F82F461834E6E7801902007636020074
:103CF00010B504460821254A16F084F80021204614
:103D0000FFF7CCFF20B908212046214A16F07AF8A7
:103D1000082120461F4A16F075F801212046FFF7BA
:103D2000BDFF20B908212046194A16F06BF808217A
:103D30002046194A16F066F802212046FFF7AEFF2A
:103D400020B908212046124A16F05CF808212046C6
:103D5000124A16F057F803212046FFF79FFF20B9BB
:103D6000082120460A4A16F04DF8082120460C4A40
:103D700016F048F804212046FFF790FF20B90821EB
:103D80002046034A16F03EF8002010BD7C360200A3
:103D9000843602008C3602009B360200AA360200EE
:103DA000B83602008B1E022B2DE9F04107468846EB
:103DB000144637D810220021606817F09DFFB8F133
:103DC000020F064607D1202308213846244A16F060
:103DD00019F8336816E00A220021A06817F08CFF5A
:103DE000C5B22B46082138461D4A16F00BF8B8F12B
:103DF000040F1AD0102D0DD0202DEAD0082D0CD193
:103E00003378DBB208213846164A15F0FBFF002054
:103E1000BDE8F08133889BB2F4E708213846124AA6
:103E200015F0F0FF6FF01500F2E710220021E068B6
:103E300017F062FF0821034604460C4A384615F085
:103E4000E1FF102D06D0202D07D0082DE5D1E4B2DA
:103E50003470DCE7A4B23480D9E73460D7E700BF20
:103E600017370200423702002C3702005337020096
:103E700070B5104E04460D46337881B12BB1012147
:103E8000BDE870400C4A15F0BDBF01233370082116
:103E900020460A4A15F0B6FF0123337004E083F090
:103EA00001033370002BF2D129462046BDE8704053
:103EB00015F0CABFDA36002067370200A2370200C9
:103EC00070B504463C480378182B02D10B78112BAF
:103ED00031D00B46013A8D18AB4225D18B5C0A7864
:103EE0000370A2F13003092B344C04D922F02003D3
:103EF000413B052B04D823683149CA540133236060
:103F00002368022B34D1102200212D4817F0F4FE33
:103F10002C4A136803F8010B13602B4A1368013312
:103F200013600023236023E013F8016B182ED3D114
:103F30001E78112ED0D1244D08212B682046234A0B
:103F400015F060FF20460021FFF792FF204B187804
:103F500070B9204A2B681168042B0ADC08B1116083
:103F60002B6013F003010BD1126813681BBA1360A6
:103F700070BD0868043B00BA41F8040B0120EBE770
:103F80005B4203F0030358BF5942022904D112686F
:103F900013885BBA9BB2EAE70329E9D1106802688B
:103FA0001104C2F3074301F47F010B4302F47F4283
:103FB00013430360DCE700BFDB3600202824002029
:103FC000DD360020342400202C240020CC370200D1
:103FD000DC360020302400202DE9F84F002306466F
:103FE00014460D462949DFF8A8800B602949DFF8FF
:103FF000A890DFF8A8B088F800300B60012D2746A4
:1040000054F804AF1ED902224946504617F053FF18
:1040100080B922689278003A18BF01229244504633
:1040200002221F4917F047FF30B9012388F80030FA
:10403000013DE3E70022F1E74946504617F02FFF24
:10404000A8B9043700227868114617F0E0FD002275
:10405000144B11461860786817F0D9FD124B1349BC
:1040600018603046FFF704FF0020BDE8F88F9AF88B
:1040700000202D2AE6D19AF80120002AE2D05346EA
:104080005A460821304615F0BDFED1E7282400200D
:10409000DC3600202C240020E6370200EC3702003A
:1040A000E93702003424002030240020C13E000003
:1040B0002DE9F04F4FF0FF35914601220746884623
:1040C00020262C46534BDFF850A185B01A60494694
:1040D00052464046FDF78EF8411C07D16A1C4FD16D
:1040E0004E4A0121384615F08DFE1CE073281FD082
:1040F000772831D0612816D1DFF824B110220021B1
:10410000DBF8000017F0F8FD05460028DFD112F0BB
:1041100007FD0368162BDAD1DBF80030414A012194
:10412000384615F06FFE6FF0150005B0BDE8F08F52
:104130000022DFF8ECB01146DBF8000017F0DCFDE0
:1041400004460028C3D112F0EBFC0368162BBED145
:10415000DBF80030344AE2E70022DFF8C4B0114651
:10416000DBF8000017F0C8FD06460028AFD112F0BA
:10417000D7FC0368162BAAD1DBF800302B4ACEE718
:10418000631C01D12A4AACE75FFA86F8C6F3C4067D
:10419000002C3CD06B4629461A46A6EB050C0CE0D9
:1041A000B8F1100F1DD0B8F1200F20D0B8F1080FD2
:1041B0002AD10878187031443344A64203D80CEB56
:1041C00001001028ECD9102CA14628BF4FF010098F
:1041D00029464B46384600F07FFF1035A4EB090412
:1041E000D6E7088880B21870000A5870E3E70868BC
:1041F0004FEA102E187083F801E04FEA104E000EBF
:1042000083F802E0D870D6E708210A4A6AE7204618
:104210008BE700BF940100203B38020042380200C7
:10422000EC23002001380200143802002738020075
:104230005F3802002C37020007B50A481CF074F8FA
:1042400060B10423084A0093126801230549074816
:1042500000F014FE002003B05DF804FB6FF01200C4
:10426000F9E700BF18100200EC1902006014020008
:1042700010B5144642681068016011684C601168FE
:104280008B60136891681C680023C1E90233C1E99F
:1042900005334B600B61D168C1E90233C1E90533D5
:1042A0004B600B611168CB60A36823B19B6C13B1A9
:1042B000204604499847A3689B6A0BB1204698475B
:1042C000002010BDC94200002DE9F04383B0044630
:1042D0000D4600AF83685B6C03B19847A3685B6BC6
:1042E00003BB4FF00008E868391DC26914F02DFFC8
:1042F0008146002837D0A36879689B6943B302469A
:1043000020469847064630B33146E86814F03AFF35
:10431000B1454FF00108E6D02B680020D3E9012118
:10432000904703E0204698470028DAD1A3685B6AEB
:10433000002B36D1A868391DC26914F057FF064614
:10434000002836D1204615F014FC2B68DE603BE0D7
:104350006FF05706D8E70146E86814F013FFB8F18C
:10436000000FE3D0D8E71D48036813F0060F0FD005
:104370006E4688B06A461A4B53611A4B9361032309
:1043800042F8103F4FF4C4514B46FEF703FEB546CA
:10439000A3689B69002BE2D001222046F91C9847B4
:1043A000DDE7204698470028C4D10C37BD46BDE85C
:1043B000F083A36879685B6963B102462046984739
:1043C0000146A86814F02EFF2B680120D3E90121D3
:1043D0009047EAE76FF05701F3E700BF940600202B
:1043E000C5390200DE39020010B504468168083183
:1043F00001F008F9A1682046BDE81040014A0831E3
:1044000001F0A0B81A3A0200014915F03EBC00BF05
:104410001934020037B5044680680D46D0F864327E
:104420005A0705D5002115F071FCE06816F087FBEE
:10443000E368DB6873B9002D39D0A068423015F00D
:104440001EFCA368002834D003F1420103F5A170DB
:1044500017F0E9FCA2682946E0680DF10603423234
:1044600016F070FB58B9A06800F5A171423017F042
:10447000DAFCA068423015F002FCADF806002046D8
:1044800015F0F4FFA368D3F860329B0603D50A4900
:10449000606915F0FAFB204600F020FFA268BDF825
:1044A00006302046D387A268938715F04AFF03B0F1
:1044B00030BD83F84201CDE7A0150200022210B5FD
:1044C000836804461A718268936BDBB982F84230C4
:1044D0008268D387826893878368D3F86432DB0469
:1044E0000BD50321084B094A16F06FF8A0686FF44A
:1044F000805100F5197015F0A1FB2046BDE8104071
:1045000001F002B810BD00BF283A02006C3602006C
:104510002DE9F04FA7B004465422002111A817F04E
:104520000FFD0023CDE90533A368204642330293F3
:1045300015F0A2FF204615F0EBFE10B96069FFF7F9
:1045400063FF00264FF0FF37B246B3463546B1460B
:10455000A06814220021083017F0F2FC204615F064
:1045600055FEA168E0688A8F423116F022FB204692
:1045700016F0A1FB0DF144080396DDE90532012A8E
:104580006DD0132B6ED85FBBBBF1000F0AD0204655
:1045900016F0B2FB1423A26811A942320DEB0300FE
:1045A00015F0BFFCB9F1000F0CD099F81130FE2BBB
:1045B00008D1059B26AA02EB830252F8542C0AB1BB
:1045C00001330593A068059D4369002B40F0B68038
:1045D000CEB1C3689E422DD00D9600F1080524E0AF
:1045E00002234146029A06A815F09BFCD8F8042045
:1045F00006990346029231B101290AD148B16F4AA6
:10460000204615F0E2FF6FF00705284627B0BDE809
:10461000F08F059B002B34D0D8F8000001F016F87D
:1046200098B166B1A5680D9608350CAE0FCE0FC5D2
:1046300033682B602046FFF7D7FE0125E5E7604A87
:104640000121204615F0C1FFDDE7059BCBB12946CE
:104650002046D8F8002001F091F9022809D1059BE5
:10466000132B91D9069B022B8ED10121554B564A13
:10467000C6E7032805D0059B4FF0010B01330593D6
:104680007BE7039B33B94846D8F8001007AA15F01A
:104690003EFD054608F10408013F9DB3EB68BBF100
:1046A000000F08D0F3B1204615F0E6FE204615F0C5
:1046B00048FE464AC4E7ABB1AE46A368DDF814A095
:1046C00003F1080CBEE80F00ACE80F00DEF8003084
:1046D000CCF80030AB682BB96B7CFE2B04BF2F7C71
:1046E00007F1FF37D5F804C0BCF1000F08D0AE4683
:1046F0000CAEBEE80F000FC6DEF800303360664631
:10470000A94603E0059B53B101230393069B17B908
:10471000022B7FF432AF059B013305932DE7A3688D
:10472000DB6913B1DB68002BEED1294B012100932B
:104730002046119B274A15F048FFE5E7037EA5EBCD
:104740000A05B3B14FF6FF72417EFF2918BF0A4632
:104750009D4202D313449D420BD983680121204618
:104760001D4A15F032FF2046FFF73EFE6FF015059B
:104770004BE74FF4006100F5197015F054FAA0688A
:1047800000F53E7015F0DBFAA36811AA294602EB8A
:104790008A0220465B6998470546A0684FF0FF32C1
:1047A0004FF0FF3300F53E7015F07CFAA0686FF40F
:1047B000006100F5197015F041FA26E76C3A020025
:1047C000803A0200E13A0200783602009E3A020086
:1047D000CD3A02007B3D0200053B02002DE9F04F7F
:1047E000044680680121B1B000F5197015F01BFA7C
:1047F000A3681B79022B17D100230993A368606873
:104800009E6B03681D6909ABC6B110221BA9A8479E
:10481000099A4AB120461BA9B047A3689B6B002B9D
:10482000ECD12046FFF74AFE6FF00101A06800F5C9
:10483000197031B0BDE8F04F15F000BA01220DF14A
:104840002301A847099B002BEED09DF923209DF85A
:104850002310002AA368D1DB5A79032A00F294823C
:10486000DFE812F004008102980292020D297BD049
:104870000A2959D0B3F8642209296FF3CA02A3F8B0
:104880006422A06800F083803ED80029B6D00829B1
:1048900000F0F3810346D3F860229207AED50139C8
:1048A0001629ABD801A252F821F000BF354E000006
:1048B000B54C0000BD4C0000AD4C0000294E00007E
:1048C000DB4C0000FD470000FD470000FD470000F5
:1048D000FD470000E34C0000EB4C0000FD470000EA
:1048E000154D0000FD4700001F4D0000FD47000072
:1048F000FD470000FD470000FD470000234D00007C
:10490000FD470000574D00001B293DD07F2900F0D6
:10491000C081A1F120025E2A0346BCD8012115F016
:10492000F5F99DF82310E4E0D3F86422C2F3C7023E
:104930002AB1D3F86422C2F3C7020A2AABD1B3F872
:10494000642261F3CA02A3F86422A068818FB9B916
:1049500015F0DCF9E06816F0F2F86069FFF754FD35
:104960002046FFF7ABFD49E7D3F86422C2F3C70244
:10497000002AE4D0D3F86422C2F3C7020D2ADDE78F
:104980002046FFF7C5FDEBE70123437136E7D0F87A
:1049900060329B077FF532AF012115F0B7F9A068AF
:1049A000838FFF2B3FF42AAF0025C28F00F1420115
:1049B00000F5A17017F0B9FAA3681BA9DA8F0BA84C
:1049C000134483F84251A268142302F5A17215F032
:1049D000A8FA0B9914293FF611AF30AB03EB810312
:1049E00043F8545CA368DA8F134493F84130202BCA
:1049F00002D0093B042B46D8002947D100250A954F
:104A000000260A9B30AA02EB830353F854ACB3464A
:104A1000504615F034F9B0463746029039462846DC
:104A200016AA00F0E3FB814600283BD1012E64D199
:104A30000A9B30AA02EB830353F8540C15F01FF9BC
:104A4000A268064641462846083200F0CFFB0546DC
:104A5000006815F014F9864206D02968821B92B2CC
:104A60002046314415F0F1FDA068C38F034493F84C
:104A70004230202B02D0093B042B29D801212046AB
:104A800015F092FCBAE60129B8D9013900200CAB27
:104A9000009301900AAB1BAA15F059FB05460028AC
:104AA000AED1ABE65146029AD9F8000017F003FAEE
:104AB00060B9D9F8000017F0E2F9584538BF5846F8
:104AC000002E08BFB8461FFA80FB01360137A5E764
:104AD000D0F86032DF070BD5002115F021F9202135
:104AE000204600F0DBFC0121A06815F019F985E6ED
:104AF0002021204600F0D2FC80E67FF67FAE0A9AA5
:104B000030AB03EB820252F8543CC2461846029383
:104B100015F0B5F8A2680490A2F830900396A26848
:104B200051462846083200F061FB029B07460AF115
:104B3000010A002B50D13B68002B57D1A268138685
:104B4000039B013B0393EAD16069FFF75DFC2046BC
:104B500000F0DAFC0A9B30AA02EB830353F8540CF2
:104B600015F08DF8414611AA8146284600F03EFB1B
:104B70000746A0683968FF2200F5A17017F05DF9BB
:104B80003B684FF6FF7708F1010AB8460293514699
:104B9000284616AA0AF1010B00F028FB002860D075
:104BA0000022A168036801F2411111F801EF985C3D
:104BB000704503D110B101324245F6D1B9F1000F71
:104BC00001D04A4506DBBA42A8BF3A46013E012E53
:104BD00097B246D0DA46DAE700680028ABD0049AEC
:104BE000029917F068F90028A5D098E79D48069328
:104BF00015F045F8A16800EB0B0292B299484F8D71
:104C0000079215F03CF8069B0590184615F037F80A
:104C1000059B079AFF1A97FBF2F7A168A2EB000920
:104C2000088EBFB2B0FBF7F200F1010E07FB1200D5
:104C300080B2069B1FFA89F9A1F830E058B90093B9
:104C400006212046874B884A15F0BFFC494620467E
:104C500000F02EFB74E706212046844A15F0B5FCCF
:104C6000F4E7002F3FF4CAAD0299A7EB09022046F2
:104C700092B2494415F0E9FCC0E5D0F860329E07D5
:104C80007FF5BCAD012115F041F8204615F0FAFC86
:104C9000B4E5D0F860329D077FF5B0AD012115F085
:104CA00035F8A368D3F860321907EED4204615F022
:104CB000CEFCA3E5204615F0E6FB9FE5204615F067
:104CC000DBFB204615F024FB10B96069FFF79CFB65
:104CD0000121A06815F01AF842E6204615F0DBFB2A
:104CE0008CE5204615F0E0FB88E5D3F860329B06A2
:104CF00003D55F49606914F0C8FFA368D3F8603238
:104D00009F0603D55B49606914F0BFFF204600F0A1
:104D1000FBFB73E500212046FFF77CFB6EE50121DC
:104D2000F9E7204615F0A2FB0023A268012182F8D2
:104D30004230A268D387A2689387A06814F0E6FF88
:104D4000A368D3F860329E067FF558AD4A49606982
:104D500014F09BFF52E5204600F006FB0121A068FD
:104D600014F0D4FF4AE55B2902D102225A7145E5CD
:104D7000D3F860329D0706D5622907D14FF0FF3185
:104D8000204615F035FBA3680022EFE76629FAD12B
:104D90000121F5E700225A71A268D2F86032980723
:104DA0007FF52CADA1F131031B2B3FF627AD01A1FF
:104DB00051F823F0314E00003D4E0000514E0000EE
:104DC000254E0000FD470000FD470000FD470000A4
:104DD000FD470000FD470000FD470000FD470000C3
:104DE000FD470000FD470000FD470000FD470000B3
:104DF000FD4700001F4D0000154D0000DB4C00007A
:104E0000B54C0000FD470000294E0000FD470000A2
:104E1000354E0000FD470000FD470000FD47000043
:104E2000414E000003235371204615F025FBE5E4B5
:104E300003235371204615F019FBDFE4032353715C
:104E4000A068D0F8601201F0010181F001014CE688
:104E500003235371A368D3F860329B077FF5CEAC70
:104E600024E700BFBC7C0200203B02006C3602003D
:104E7000A5150200AA150200A01502002DE9F043B5
:104E8000044680688846D0F80C1315461F4689B042
:104E9000002966D14FF4447217F052F8A3682268D3
:104EA0001A60E06815F0EDFEA06800F53E701BF09A
:104EB0004CFB4FF42A794FF41A76A06830441BF06B
:104EC000F3FFA068002283190121484410361BF02B
:104ED000CEFFB6F52A7F09F11409EED10026A369A9
:104EE00002211E60A06866F3820500F5197014F0B7
:104EF0009AFE5022A3685A851822A3681A85A368CF
:104F0000186814F0BCFEA368414683F82C00A3681F
:104F1000154AC3F86052606803681D682346A847B5
:104F20000546D0B90122A3681A71D4E90A0100220A
:104F30000023CDE906230E230393109B4FF4006258
:104F4000CDE901730495094B009412F0C5F8A368EC
:104F5000C3F80C03616A11F0FDFF284609B0BDE8F3
:104F6000F0836FF07705F8E7A99C0100C54F0000BA
:104F700010B5044680680379012B1DD14FF0FF3234
:104F80004FF0FF3300F53E7014F08CFE20460821F0
:104F900000F0ACF9206814F072FE18B1084960699D
:104FA00014F073FE2046FFF789FAA06800F53E7002
:104FB00014F0C5FE002010BD6FF08500FBE700BFB8
:104FC000183402002DE9F041044640680E4603689B
:104FD00000219B681546984700284CD126B12A46E7
:104FE0002146E06915F038FC2046FFF7C1FF002894
:104FF00041D1224E224FDFF88C80A06800F52A7044
:105000004FF0FF324FF0FF33032113F0C5F905468F
:10501000A0684FF0FF324FF0FF3300F53E7075B1DE
:1050200014F040FE20462B460121174A15F0CDFA18
:10503000A068BDE8F04100F53E7014F080BE14F0A9
:1050400031FE32460221204614F003FE3A4629463C
:10505000204614F0FEFD20464246012114F0F9FDE1
:10506000606803685B6903B19847A06800F53E700B
:1050700014F065FEC1E7BDE8F08100BFBD9C0100F2
:10508000DD470000439D0100263B020010B50446A9
:1050900008210C4A14F0B6FE204608210A4A14F0F2
:1050A000B1FE20460821094A14F0ACFE2046082132
:1050B000074A14F0A7FE20460021064A00F042FAF3
:1050C000002010BD3D3B02007B3B0200DA3B0200AA
:1050D0002E3C0200C83C0200F8B51E4617460B469F
:1050E0002F4A0821044614F08DFE6EB30821204695
:1050F0003B782C4A14F086FE01256A0704D108216A
:105100002046294A14F07EFEAE4223D908212046CB
:105110007B5D244A14F076FE0135102DEDD1082177
:105120002046224A14F06EFED6B9082120461E4AB7
:1051300014F068FE0125AE422B4613D80821204604
:10514000194A14F05FFE18E008212046184A14F0AE
:1051500059FE012508212046154A14F053FEDBE7CD
:1051600000252B46FB5C0821A3F120025F2A28BF03
:105170002E2320460F4A14F045FE0135102D07D08E
:105180006B07D8D108212046074A14F03BFED2E72E
:105190002046BDE8F8400821074A14F033BE00BF9E
:1051A000DE3C0200FA2E0200BD7C0200002F02004D
:1051B000BB7C0200EC2C0200E53C020013460022FE
:1051C00013B5044600920A4601460748FCF7CCFD99
:1051D00023691B792BB1204602B0BDE8104014F0C2
:1051E00036BE02B010BD00BF679E010038B50B4649
:1051F000154648B91449154A521AB3EB920F05D215
:1052000051F82350284638BD84680CB90025F9E7C9
:105210000F4A94420AD30F4A944207D218462946AD
:10522000226890472B68002BECD1EFE70A4A9442A2
:1052300002D30A4A944205D3246814225343E51842
:10524000E358F0E70133F8E790140200B8140200C5
:10525000CC140200D8140200B8140200CC140200CE
:105260008368D3F860329B0603D50249406915F084
:105270002EB87047B0150200014915F028B800BFDC
:10528000193402000A1E0DDC0ED042238168D1F8C9
:105290006012890608D5002A04494069B8BF524205
:1052A00015F015B84123F1E7704700BF013D02003A
:1052B0000A1E0DDC0ED044238168D1F860128906E5
:1052C00008D5002A04494069B8BF524214F0FFBF14
:1052D0004323F1E7704700BF013D020082680249A5
:1052E0004069423214F0F3BF6C36020008290A46C6
:1052F00017D8836893F82E10914212D083F82E208D
:105300008368082AD3F8603205D0990609D5054983
:10531000406914F0DCBF9B0603D50349406914F0D3
:10532000D6BF7047083D0200B515020038B50D46DE
:1053300009780446FFF7DAFF6A78072A11D8A368CC
:1053400093F82F1091420CD083F82F20A368D3F844
:1053500060329B0605D560690249BDE8384014F00B
:10536000B6BF38BD113D0200F8B5836804469A8F78
:10537000D98F002A50D000294ED0413103F1420587
:105380000B441846A84206D3014611F80169202EA5
:1053900039D0A84239D286B29DB2AB1B9BB2591C00
:1053A000471CD21A0144384616F0A8FDA268711BAA
:1053B000938F204613FA81F39387A36809B29A8FDB
:1053C0001344002283F8422014F0EEFFA368D3F8C0
:1053D00060329A0603D51149606914F078FF3B46A4
:1053E000082120460E4A15F0F0F82046FFF738FF56
:1053F000A368D3F860329B060ED560690949BDE801
:10540000F84014F064BF0846BCE7014611F8016992
:10541000202EC0D00846BCE7F8BD00BFBA15020078
:105420006C360200BE1502002DE9F04104460D461F
:1054300017460AB1FFF714FFA368DA8FD3F860129A
:10544000423213444A071FD5184616F018FD064687
:10545000DFF8408096B9A36820469A8FDA8714F067
:1054600043FF20B107B115B16069FFF705FF69423D
:105470002046BDE8F04109B214F096BF414660698C
:1054800014F025FF013EE5E708212046024A15F009
:105490009CF8E0E7F44B02006C36020013B5836819
:1054A0008DF80710D3F860220446D00722D5D98F93
:1054B0009A8F8A421ED0481C9DF80720D8870B443B
:1054C00083F84220A368D3F86012890710D5D3F877
:1054D0006032606913F0040F18BF2A22094914F0E2
:1054E000F6FE204614F014FF10B16069FFF7C4FE09
:1054F00002B010BD012220460DF1070115F072F82F
:10550000F6E700BFEC2C020010B5044683680221C8
:105510001B68084A15F059F8A368D3F860329B0756
:1055200007D52046FFF7DAFE2046BDE8104014F00C
:1055300018BF10BD6C360200014915F012BA00BF49
:10554000193402002DE9F04F0E460021044617469B
:105550000D468BB0304605AA01F10108FFF746FE63
:10556000A0B985B127B13A460821204615F02DF89B
:105570000021214FDFF884B0304605AA01F1010A6D
:10558000FFF734FE60B90BB0BDE8F08F006810B1D2
:1055900016F075FC80B2854238BF05464146D9E712
:1055A0000368D0F804903846039316F068FC039B18
:1055B00080467BB11A786AB1CDE9005308213B4699
:1055C00020460F4A15F001F8B9F1000F04D16069C7
:1055D000FFF7B2FF5146CFE75A4620463B46082127
:1055E00014F0F3FF6A1C02EB48024946204692B2CF
:1055F00015F0C4F9EEE700BF333D0200213D020083
:105600001A3D0200F7B5064608680D46B8B116F017
:1056100036FC84B20B4F384616F031FC0097044438
:10562000082130462B68084AA4B214F0CEFF224667
:105630003046696803B0BDE8F04015F09FB90446F4
:10564000E8E700BF2F3D0200213B020010B50749EB
:10565000044616F024FC38B12046054916F01FFC1C
:10566000B0FA80F0400910BD0120FCE7253D0200A2
:10567000283D020010B583680446D3F860329B06CB
:1056800003D50649406915F0EDF95022A3680020C2
:105690005A851822A3681A8510BD00BFC2150200E2
:1056A00008B5836908211B68024A14F0ABFB00208F
:1056B00008BD00BF363D02002DE9F3410E4A082126
:1056C000054614F09FFB00230C4C0D4EDFF8348090
:1056D000B44203F1010703D3002002B0BDE8F0811A
:1056E000A2689BB21268082100922846424614F034
:1056F00089FB30343B46EBE7463D02006014020074
:10570000901402005E3D02007FB5044600250E4E57
:10571000A2680DF10E030121E06802F5A17215F0F7
:1057200011FABDF80E00A36850B103F5A173009300
:1057300032462B460821204614F064FB0135E7E78A
:1057400083F8420104B070BD6A3D0200022907B52A
:105750000DD15368012101930C4B009313680C4A3F
:1057600014F050FB6FF0150003B05DF804FB836884
:10577000084AD3F86032082113F0020F064B08BF25
:105780001346064A14F03EFB0020EDE7813D02007F
:10579000783D0200743D0200D6350200963D0200BD
:1057A00010B583680446D3F860329A0603D50749DA
:1057B000406915F057F9A368D3F860329B0603D50A
:1057C0000349606915F04EF9002010BDC9150200AB
:1057D000CE150200F0B50129044685B00CD05368FF
:1057E000012101935F4B009313685F4A14F00AFB99
:1057F0006FF0150005B0F0BD8368D3F860329906EC
:1058000003D55A49406915F02DF900256FF0F901CB
:105810002046FFF737FDFA212046FFF749FDA06833
:105820004FF48072294600F5A1708DF80B5016F0E8
:1058300087FB4F49606915F015F9606914F007FBA3
:105840004FF47A766068012203680DF10B011F693D
:1058500003ABB847039BF3B9013E4FF47A70B6B27D
:105860001BF085F9002EEDD1A368D3F860329B06BA
:1058700003D54049606915F0F5F85022A368204629
:105880005A851822A36803211A853B4A14F0BAFAF4
:105890006FF00700AEE79DF80B20A3681B2A53D0DA
:1058A00093F842111B29CDD1522A4DD15A19002308
:1058B00082F84231A66896F843215B2A2BD1022553
:1058C00006F2431010F8011F2A463B2905F1010595
:1058D000ADB223D1FF2AC7D002F5A17216FA82F128
:1058E000002211F8010F18BBFA2A28BFFA22FA2B5E
:1058F00028BFFA2386F84201A1684A85A268138569
:10590000A368D3F860329A0603D51A49606915F086
:10591000A9F800206EE786F84231A5E703EB830380
:10592000303901EB4301B5F5807F8BB2CAD19BE7DB
:10593000013502EB8202ADB2303800EB4200B5F522
:10594000807F82B2CDD18FE72B440135ADB2092DD6
:1059500083F842217FF676AF0022A36883F84221C4
:1059600082E700BF813D0200783D0200D4150200AD
:10597000E13D0200D8150200A73D02002DE9F04FDD
:1059800007461546894689B021B90324204609B047
:10599000BDE8F08F104615F07AF90028F5D04FF0E9
:1059A00000080224414624E05C463CE029460AF512
:1059B000A17016F018FA064600284CD016F05FFACF
:1059C00082B2601C31460132304416F097FA22460A
:1059D0005946304616F0A9FA4FF020033355BAF86D
:1059E000403008F1010801331C44AAF8404000246B
:1059F00001994B1C484603AA0193FFF7F7FB0646A3
:105A0000E8B100222846316813F08CFF0028EFD15E
:105A1000D6F800B0D7F808A0BBF1000FC4D05846A4
:105A200016F02DFA84B2BAF840302344FF2BBDDDC6
:105A30002B4603213846094A14F0C7FD0124B8F16A
:105A4000000FA3D0B8682A4600F1400100F5A1700C
:105A500014F036FB9AE70224F1E700BFC7410200C9
:105A600098B500AFB8B91B4803685A0703D16FF067
:105A70001500BD4698BD6C4688B06A46164B4FF47B
:105A8000C2515361154B9361032342F8103F15F047
:105A900042F9A546EBE78368B3B90E4803685B0794
:105AA00002D16FF00400E4E76C4688B06A460C4B04
:105AB0004FF4C2515361094B9361032342F8103FE5
:105AC00015F029F9A546ECE71B680BB19847D0E71C
:105AD0001846CEE76806002019420200E1420200A3
