:020000040000FA
:10000000B064002069800000AFBB01003D800000AB
:100010003D8000003D8000003D8000003D800000EC
:1000200000000000000000000000000089770000D0
:100030003D800000000000002D7700003D800000A2
:100040000D7800000D7800000D7800000D7800009C
:100050000D7800000D7800000D7800000D7800008C
:100060000D7800000D7800000D7800000D7800007C
:100070000D7800000D7800000D7800000D7800006C
:100080000D7800000D7800000D7800000D7800005C
:100090000D7800000D7800000D7800000D7800004C
:1000A0000D7800000D7800000D7800000D7800003C
:1000B0000D7800000D7800000D7800000D7800002C
:1000C0000D7800000D7800000D7800000D7800001C
:1000D0000D7800000D7800000D7800000D7800000C
:1000E0000D7800000D7800000D7800000D780000FC
:1000F0000D7800000D7800000D7800000D780000EC
:100100000D7800000D7800000D7800000D780000DB
:100110000D7800000D7800000D7800000D780000CB
:100120000D7800000D7800000D7800000D780000BB
:100130000D7800000D7800000D7800000D780000AB
:100140000D7800000D7800000D7800000D7800009B
:100150000D780000FFFFFFFF53B94AB9002908BF1F
:1001600000281CBF4FF0FF314FF0FF3000F00CB8FB
:10017000ADF1080C6DE904CE00F008F8DDF804E0FC
:10018000DDE9022304B07047704700BF2DE9F04756
:1001900086468C460846089E154674461946002B2E
:1001A00040F0C1808542B2FA82F245D94AB1C2F12B
:1001B000200300FA02FC954094402EFA03F343EA30
:1001C0000C0C4FEA154EA8B2230CBCFBFEF80EFB3C
:1001D00018CC08FB00F943EA0C43994528D9EB18E1
:1001E00008F1FF3704D2994502D9A8F102072B4440
:1001F000A3EB0903A4B2B3FBFEFC0EFB1C330CFB08
:1002000000F044EA0344A04214D92C190CF1FF3346
:1002100004D2A04202D9ACF102032C44241A43EACE
:1002200007401EB1D440002334607360BDE8F087FE
:100230004746DDE76346F1E792BB431B01214FEAE6
:10024000154EAFB2200CB3FBFEFC0EFB1C330CFBB7
:1002500007F840EA0343984561D9EB180CF1FF30E9
:1002600004D2984502D9ACF102002B44A3EB080359
:10027000A4B2B3FBFEFC0EFB1C330CFB07F744EAF5
:100280000344A7424DD92C190CF1FF3304D2A742E5
:1002900002D9ACF102032C44E41B43EA0040C0E75E
:1002A000C2F120039540944020FA03F12EFA03F3A3
:1002B0004FEA154E9040AFB20343B1FBFEFC0EFB7C
:1002C0001C10190C0CFB07F841EA0041884522D9A3
:1002D00069180CF1FF3004D2884502D9ACF1020054
:1002E0002944A1EB08019BB2B1FBFEFC0EFB1C11E3
:1002F0000CFB07F743EA01439F420ED9EB180CF1C0
:10030000FF3104D29F4202D9ACF102012B44DB1B26
:1003100041EA004193E76046E3E76146F7E760465C
:10032000A4E76346B8E7834206D916B90021084618
:100330007CE7C6E900E0F9E7B3FA83F78FB98342B7
:1003400001D3724508D8BEEB020460EB0303012021
:100350009C461EB9002169E73846FAE7C6E9004C19
:10036000F8E7C7F1200CBB400EFA07F522FA0CF4AF
:100370002EFA0CF1BA401C4320FA0CF3B8404FEAB5
:10038000144901431FFA84FEB3FBF9F809FB183046
:100390000B0C08FB0EFA43EA00439A4540D9E318D8
:1003A00008F1FF3004D29A4502D9A8F10200234493
:1003B000A3EB0A0389B2B3FBF9F809FB183308FB76
:1003C0000EFE41EA03418E452CD9611808F1FF3336
:1003D00004D28E4502D9A8F10203214443EA004029
:1003E000A1EB0E01A0FB02984145CE46434602D345
:1003F00006D14D4504D20138B9EB020E68EB040377
:10040000002EA7D0B5EB0E0261EB030101FA0CFC44
:1004100022FA07F3F9404CEA0303C6E9003199E7F1
:100420004046C5E74346D9E72DE9F04383B0714D17
:1004300000AFD5F85C31996811F001011DD140F68B
:1004400003403A1D08F0CAFE0446002840F0BD8073
:100450007C68E3681B786BB90BF0B6F805F1CC0348
:10046000D3E8AF2F02F00902D3E8EF1FC3E8E02F73
:100470000028F9D1204613F0F5FA002141F20300DB
:100480003A1D08F0ABFE0446002840F09E807E68CE
:100490000822F168584801311BF04FFD304613F037
:1004A000E1FA214641F201003A1D08F097FE0446A8
:1004B000002840F08A807868C3685A7885F86820F8
:1004C0005A88A5F86A201A7985F86920B3F80720B8
:1004D000A5F86C20B3F80530A5F86E3013F0C2FA19
:1004E000214641F202003A1D08F078FE0446002839
:1004F0006BD17C684022E168404801311BF01DFD52
:10050000204613F0AFFA0BF089FA044600285CD1BC
:1005100095F8823099061ED43948036813F0060F07
:100520000ED06C4688B06A46364B4FF4C4515361C6
:10053000354B9361032342F8103F1BF0D8FDA546CD
:1005400095F874305A0665D42D4803685B0741D18D
:100550006FF0120439E0072140F6334008F004FE42
:100560008046002800F0338107210C301EF09DFCEE
:100570002146072206461BF0EBFC6FF009034FF003
:1005800001093370062322463471414640F6334058
:1005900086F80190F37008F021FE0446A8B9494698
:1005A00040F6314008F0E0FD0646002800F00F81DB
:1005B00049460C301EF088FC2246314640F6314058
:1005C00008F00CFE04460028BAD020460C37BD4681
:1005D000BDE8F0836C4688B06A460C4B4FF4C251BC
:1005E00053610B4B9361032342F8103F1BF07FFDD7
:1005F000A546ADE700000020700000207800002034
:100600002C060020A55302002E590200D7530200E9
:1006100026590200002142F203003A1D08F0DEFDD7
:1006200004460028D1D17E680822F1689C48013137
:100630001BF083FC304613F015FA214642F202000B
:100640003A1D08F0CBFD04460028BED17C68E36863
:10065000B3F8012091B2A5F8FC2021B1DA789148D5
:10066000114620F015F8204613F0FCF995F8746057
:1006700016F0200618D1022140F66D4008F074FDF6
:100680000446002800F0A38002210C301EF00DFC6F
:100690000123214603704670324640F66D4008F053
:1006A0009DFD0446002890D195F894301E0712D580
:1006B000002142F21C003A1D08F090FD044600287B
:1006C00083D17868C368D3F80120D3F80530C5E931
:1006D000362313F0C7F995F8D0305C0610D5002109
:1006E00042F22A003A1D08F079FD044600287FF402
:1006F0006CAF7868C3685B7885F8183113F0B2F98D
:10070000082142F2010008F02FFD044600285ED0C7
:1007100008210C301EF0C9FB95F8D01040F20223DE
:1007200011F0400F08BF0323024688074CBF43F077
:100730002C0043F00C0095F8D1308E0648BF40F0F5
:10074000400013F0090F18BF40F40060CB0795F884
:100750009A3048BF40F0100003F00603062B08BF94
:1007600040F4C07000211BF0CDFC2146002242F273
:10077000010008F033FD044600287FF426AF95F809
:100780007430B5F8FC109E0624D4C9B941F20500B6
:100790003A1D08F023FD044600287FF416AFB5F893
:1007A000FC307C684BB9E368B3F80120A5F8FC2065
:1007B0009A883C4811461FF06BFF204613F052F90F
:1007C000082140F6014008F0CFFC0446D8B96FF08C
:1007D0006804FAE60029F3D1334803685C0702D1C4
:1007E0006FF00404F1E66C4688B06A462F4B4FF474
:1007F000C25153612E4B9361032342F8103F1BF00B
:1008000076FCA546ECE708210C301EF04EFB95F86F
:10081000D0300246D9073AD44FF0005125481BF09A
:1008200071FC2146002240F6014008F0D7FC044646
:1008300000287FF4CAAE01463A1D4FF6014008F089
:10084000CDFC194C00283BD0236813F0060F0FD0C5
:100850006D4688B06A46184B4FF4C4515361174B2C
:1008600020469361032342F8103F1BF040FCAD4645
:100870000AF0B2FA044600287FF4A7AE0CF052FB4F
:10088000044600287FF4A1AE09F030FC9DE602A1E9
:10089000D1E90001C3E700BF90880002008000207A
:1008A000D0000020000100202C060020FF53020091
:1008B0003F59020010880002265402001A59020013
:1008C0007B68D3F80C80236803F00703022B6DD9F3
:1008D000B8F80130E946032B98BF5C4A8AB094BF50
:1008E00052F823105A496A46136240F201335948BC
:1008F0009384594E594BC2E9066150614FF433510C
:1009000042F8103F56481BF0F2FB2368CD4603F037
:100910000703022B4AD9B8F80120B8F80330022A9D
:1009200065D1032B63D84F4A52F82310E9468AB0A9
:100930006A46C2E9071340F201334B489384474BA0
:10094000C2E905064FF4335142F8103F44481BF00A
:10095000CEFB2368CD4603F00703022B26D998F877
:10096000053098F806E0032B98BF404AB8F807C056
:10097000D8F80900E8468EB094BF52F823103449E5
:100980006A46C2E9071340F20133DFF8E4901386A8
:10099000384BD062C2E90596C2E909EC44F2C04185
:1009A0002F4842F8103F1BF0A2FBC546786813F0B1
:1009B00059F800214FF602403A1D08F00FFC064698
:1009C000B8B1236813F0060F3FF452AF6C4688B0FD
:1009D0006A46294B5361204B4FF4C4519361032362
:1009E0001F4842F8103F1BF082FBA54640E718491C
:1009F0009CE7D7F804800222D8F80C101F48013178
:100A00001BF09BFA404613F02DF895F8B9305B07C0
:100A10007FF52EAF31464FF603403A1D08F0DEFB5E
:100A200048B1236813F0060F3FF422AF6C4688B03C
:100A30006A46134BCEE701227C681248E1681144F4
:100A40001BF07BFA204613F00DF811E7EC1E0200B4
:100A5000D64D02004E5402001A5902000500000152
:100A60002C060020DC1E02006B540200CC1E02008B
:100A70008754020008000001B8540200B9000020A9
:100A8000E5540200B8000020014817F057BF00BF2E
:100A9000EC250200014817F051BF00BFFF250200FE
:100AA000014817F04BBF00BF2C26020010B50C46C2
:100AB000074817F043FF62882188064817F03EFF79
:100AC000E288A188044817F039FF012010BD00BF5B
:100AD0003F2602006F2602009B26020030B50D461D
:100AE00004468BB02822002168461BF031FA0D4BDA
:100AF0000D490E48002D08BF194617F01FFF694623
:100B000020460BF05DFF014620B1094817F016FFA3
:100B10000BB030BD9DF80130002BF9D10122054BFF
:100B20001A70F5E7B5260200B6700200C026020072
:100B3000D1260200D3360020002008B506F06EF959
:100B4000014620B1BDE80840014817F0F7BE08BDD6
:100B5000F326020030B50B4D89B003AC0FCD0FC4A6
:100B60002B680949236001230222009303A8074B45
:100B70000AF0BEFB014610B1054817F0DFFE09B0D0
:100B800030BD00BFF0140200741602006C160200A3
:100B90001627020070B50D4600268AB028220021D3
:100BA000044668461BF0D4F929460F4D0F4817F04C
:100BB000C5FE0F4B28681E7010B11BF01AFE2E6088
:100BC000694620460BF0FCFE014620B1094817F0AB
:100BD000B5FE0AB070BD9DF8013013B9FFF7ACFF48
:100BE000F7E7FFF7B7FFF4E7E0230020372702001D
:100BF000D336002055270200F0B50C4691B00546CB
:100C00002822002106A81BF0A3F934B1022C0ED033
:100C10002146254817F092FE09E0244C236843B191
:100C2000234817F08BFE132128461BF0DDFE11B080
:100C3000F0BD28461BF0C6FD06A920600BF0C0FEE3
:100C4000014608B11B48E5E71B4B1C4A9DF81910EB
:100C50001B48002914BF1146194617F06FFEBDF856
:100C60002C10184817F06AFE9DF81930002BDED1C1
:100C700001AA1646144B256803F11007144618689C
:100C80005968083303C4BB422246F7D11B7831466A
:100C9000237028460D4B0E4A05F04EFE01460028F3
:100CA000C5D00C48B6E700BF8C270200E023002027
:100CB000AC270200D126020079270200812702001A
:100CC000DD270200EE27020004150200C4230020E5
:100CD000680100200A28020038B504460D460E4877
:100CE00017F02CFE2946204606F008F920461AF097
:100CF000D4FA0A490A4B0B600A4B18680FF08CFCB7
:100D0000014620B1BDE83840074817F017BE074834
:100D1000BDE8384017F012BE24280200C02300208E
:100D2000DD0A0000E0230020412802005F280200C5
:100D300008B5044817F002FEBDE80840024816F066
:100D400069BB00BF75280200B807002070B50378A2
:100D50008AB004460E4607AD032B20D8DFE803F027
:100D600002191B1D114928461BF065F8059563788B
:100D70001E210493A37830460393E3780C4A029330
:100D80002379019363790093A37917F0E4FD0AB006
:100D900070BD0849E7E70849E5E70849E3E70A21A4
:100DA0002846074A17F0D7FDE0E700BFBD2802003C
:100DB000DF280200C4280200CB280200D528020048
:100DC0001272020010B51446036888B018686946AC
:100DD000FFF7BCFF22466946024817F0AFFD08B096
:100DE00010BD00BF0229020010B50C46036888B090
:100DF00018686946FFF7AAFF22466946024817F0BD
:100E00009DFD08B010BD00BF3029020013B50A4C8B
:100E100023787BB1CB88094800938B884A8809885E
:100E200017F08CFD00232370054802B0BDE8104088
:100E300016F0F0BA02B010BDD43600205F290200CF
:100E4000B807002008B50B460A785B78042A96BFDD
:100E50000849094951F82210042B96BF054A064A51
:100E600052F82320054817F069FDBDE80840044802
:100E700016F0D0BA48160200A1290200A9290200E2
:100E8000B807002010B5104C237823B1BDE81040FE
:100E90000E4817F053BD80B10D4817F04FFDFFF716
:100EA0004BFE01230B48237014F0A8FB014650B100
:100EB000BDE81040084817F041BD084817F03EFD56
:100EC000FFF748FEEDE710BDD2360020CF29020023
:100ED000002A020060010020402A02001D2A0200B0
:100EE0002DE9F0413A4E8AB0074688461546002162
:100EF000282268461BF02CF8694630680BF060FD2C
:100F0000044638B10146334817F018FD20460AB0B0
:100F1000BDE8F0819DF8013013B12F4817F00EFDA8
:100F2000414630681BF044FD044610B101462B4891
:100F3000EAE72B4817F002FD4FF42022002329484E
:100F400016F08EFA044618B1274817F0F7FCDDE7D3
:100F5000089B1A882B889A421DD00122234B2946D0
:100F600030681A701BF014FD054628B10146204870
:100F700017F0E4FC2C46C9E71E4817F0DFFC4FF4DD
:100F800020220023174816F06BFA054618B11A48BC
:100F900017F0D4FCEEE7BDF814207B889A42B5D058
:100FA000394630681BF07FFD054610B101461348F5
:100FB000DEE7134817F0C2FC4FF420220023094853
:100FC00016F04EFA05460028A0D00E48E0E700BF14
:100FD000E02300205A2A02007B2A0200B52A0200E0
:100FE000CC2A0200B8070020DF2A0200D4360020F5
:100FF000F22A0200132B0200312B02004F2B0200B9
:10100000772B02009C2B02002DE9F04705468AB0A1
:10101000002009F043F9044638B10146384817F07A
:101020008DFC20460AB0BDE8F08705AE01461422CB
:1010300030461AF08DFF4FF010120123CDE9063231
:101040008DF80C302F4B02A80493029605F0B4FEE5
:101050002D4805F077FD2D49032005F083FD01465D
:1010600040B32B4817F06AFC002014F009FB40B392
:10107000284817F063FC2846FFF704FF17F0D9FB58
:101080000025044644F62068DFF88CA017F0D1FB59
:10109000041B61EB0505444575F1000507468946CB
:1010A000DAF8003011DBCBB91C4817F047FC6FF0C1
:1010B0007F04B6E7042005F0B7FD0028D4D0184817
:1010C000D0E7184814F07CFAD5E73BB94FF400405C
:1010D000002116F0C3FE3C464D46D7E74FF05012B4
:1010E0004FF07A73CDE90523A3F1F37301930E4B0F
:1010F000304602AA01A90293FFF7F2FE044690E7E8
:10110000C12B020008050020740100208D0500207D
:10111000E12B02001E2C0200E02300203E2C0200E6
:10112000012C020060010020FB00904210B50E4B24
:10113000186850B96FF07F040C4817F0FFFB0C4A99
:10114000136801331360204610BD0A4A1321136847
:10115000013313601BF048FC04460028F3D0064816
:1011600017F0ECFBEFE700BFE0230020592C020052
:10117000E4230020E8230020692C020038B51B4836
:1011800017F0DCFB0120FFF73FFF194817F0D6FBF3
:1011900017F04FFB0446174D002005F03FFE0021DD
:1011A0004FF4C03016F05AFE284617F0C7FBFFF781
:1011B000BDFF00214FF4803016F050FE17F039FBD0
:1011C00044F62161031B62EB02028B4272F10002C2
:1011D000E2D3094B0948196817F0B0FB084B0948DE
:1011E0001968BDE8384017F0A9BB00BF7D2C02008C
:1011F0008E2C02009E2C0200E8230020C52C020049
:10120000E4230020E22C02002DE9F84300AF8046E1
:101210000E46154600F0C8F8C36804461BB943697A
:101220001A78002A5BD10023E3606368434556F8CF
:10123000232009DB4A4B6361204600F09BF84FF006
:10124000FF30BD46BDE8F883511C616192F8009003
:10125000B9F12D0FEED1911C616151782D29A1605A
:1012600004D192786AB901336360E3E749B93C4B32
:101270004946284663611AF0FCFD0028DCD0C4F81A
:1012800008902846A1681AF0F4FDA36862693A2B19
:1012900001D0114640BB127812B962680132626017
:1012A0002268BAB12A783A2A14D02E480268510727
:1012B00010D06D4688B06A462B4951612B49C2E96E
:1012C0000613042342F8103F00234FF4015101F0AC
:1012D0006BFEAD46204600F04DF83F20B1E75A1CAA
:1012E00042611B788360CCE740783A280BD000231A
:1012F0002361137813B9636801336360204600F0FB
:1013000039F8A0689DE791F800C062681448BCF104
:10131000000F05D101329045626004DD56F82210BD
:10132000C4E90410E7E760612D783A2D04D1204626
:1013300000F020F8284684E72268002ACAD009482D
:1013400002685207C6D06D4688B06A4608495161A6
:101350000649C2E90613042342F8103F6346B4E786
:1013600072340200640600202E2D02006D2D020052
:10137000472D02000268074B1A604268064B1A604C
:101380008268064B1A60C268054B1A600269054BF9
:101390001A6070479801002094010020F423002077
:1013A000F0230020EC230020004870477C0100203F
:1013B0002DE9F04F91B0009302F004030293C2F3C1
:1013C000C2030133840705460E46DDF868800392A8
:1013D000059340F0BD81041D30B1072909D86FF095
:1013E0001B0011B0BDE8F08F01F00706341DC6F1F7
:1013F0000806009B4FF000094FF0040A591E4FF0F9
:10140000FF334F460193CB465346CDF810900DB1B4
:10141000009A22600598002800F3EB809948009A12
:10142000824203D398488242C0F0E380039AA4EB3F
:10143000050E92074FEA9E0000F106810F2F00F281
:10144000B480002D00F0088107F140020DEB020C82
:10145000019A0CF8200C0CF8102C04980130049020
:10146000EAE07A2860D84B280ED847285CD829288B
:101470002FD8252855D057D820287DD02338D0F113
:10148000000B4BEB000B77E0A0F14C0CBCF12E0FE6
:101490004AD8DFE80CF07149494949494949494965
:1014A00049494C49494949494949495A494C4C5A81
:1014B0005A5A714C6E497149184C18494983804CED
:1014C00049494C49800000204FF0000B4FF0040ABE
:1014D00039E00122A0F12A0C5FFA8CFC02FA0CFC24
:1014E0001CEA0E0F48D11CF062502ED11CEA020BF0
:1014F00042D0013C5444CAF1000C04EA0C04002D13
:1015000061D0A3EB050CA444B4453FF668AF0028B6
:1015100068D1042B47D158F8043B236004230434DA
:101520002AE0019A013A01924FF0000B24E011F8F1
:10153000010C6C2834D1002011F8023C83466C2B3E
:10154000C4D14FF0080A5346D3E708F1070828F042
:101550000708073424F00704F8E802AB35B1069811
:101560002044B0423FF63BAFC4E900AB4FF0000B64
:1015700008344FF0080A534611F8010F002878D0BC
:10158000BBF1000F7FF46DAF2528F5D14FF0010BB3
:10159000019B013301934FF0040AECE7584693E7AF
:1015A00000208346A5E7082B02D06FF0150018E74E
:1015B00008F1070828F00708F8E80223C4E9002327
:1015C00008230834D8E768B9042B02D108F10408CD
:1015D000A4E7082BE9D108F1070828F0070808F16B
:1015E0000808EDE7059A013A059258F8042B009295
:1015F0000DE7039A900720D54FF0010CA4EB050EE0
:101600004FEA9E00BEF5007FCFD20F2FCDD8F5B1A7
:1016100007F140020DEB020E019AC0B20EF8200C49
:101620000EF8102CBCF1000F3FF417AF60F07F00F4
:101630000EF8200C09F101090137C5F108024FF637
:10164000DA7E0434069297E74FF0000CDAE7BCF13B
:10165000000F01D00136EFE7029802360028EBD1E7
:101660000098CDE906311AF012FCDDE90631064496
:10167000E2E7631BB3F5806F97D23DB9A6F108048A
:10168000E018AEE6380F0200A47E0200029A9B0822
:1016900028602B709DF81030C2B1EB7085F8029075
:1016A000B9F1000F05D0002208A8C5F1010C97423E
:1016B0000ED14FF0000AC5F101030DF1200801938E
:1016C0000DF1300B574512D1601B8AE66B70E5E7D0
:1016D00010F8013B190608D504EB0C0EB64503F0D3
:1016E0007F033FF67CAE04F8013B0132DFE7B9F13E
:1016F000000F03D098F90020002A17DB029BD3B11A
:101700001AF80B2004F8012B0022019B98182044A2
:10171000B0423FF664AE98F80000009904F8010B5F
:10172000204603921AF009FC039A14440AF1010AB4
:1017300008F10108C6E798F8002055F82230009318
:10174000029B009845F822301AF0A1FB421CDCE70E
:101750006FF00D0045E600BF2DE9F04F95B000AFEA
:10176000D7F878B0BB61CBF3C00304467A623B6123
:10177000396251B90D4603784678807800EB8300D2
:101780002044AE421AD8031B3B6294F80290E378DF
:101790004E467B61B9F1000F02D01BF0010F16D14C
:1017A0007B6953BB7B6A1BB12046BA69396A98478B
:1017B0003D6A28465437BD46BDE8F08F00F1010868
:1017C00040461AF064FB013040440135D9E76368B4
:1017D00094F800A0FB617B6A4FEA8A02FA6004EB8E
:1017E0008A0A002B40F00881D04600263D6A09EBAA
:1017F0000A03434554D1CA4413E01BF0020FD1D071
:1018000094F800A04FEA8A03FB60636804EB8A0A3D
:10181000FB617B6A002B7ED13D6AB9F1000F54D188
:101820004E461BF0050F0CBF022301237B627B6930
:101830000AEB43090BF002033B62CA45B9D01AF820
:10184000021B1AF8013C54F82380AD4B984502D393
:10185000AC4B98453FD33B69002B49D0F86917F052
:1018600031F8002844D0A848036813F0060F15D0BB
:10187000E8468AB06A46A54B5361A54B9361FB6964
:10188000C2E9073140F201339384A24B42F8103F82
:1018900000234FF4325101F087FBC546023DCCE7EF
:1018A00018F8012B7B6254F822001AF0F0FAFA6F54
:1018B0007B6A01303AB1D7F8802096423EBFFA6F7A
:1018C00022F816000136054493E71BF004061CBFFE
:1018D0007E6ACA44A5E73B6923B1F86916F0F2FFB6
:1018E0000028C0D11BF0010F05D17B6AED1AA4E7D7
:1018F0003B6A002BA1D040461AF0C9FAFB6F43B1F6
:10190000D7F880309E423FBFFA6F431C22F8163052
:101910000136054491E7B9F1000F72D01BF00406BF
:1019200072D0C846002607F140004A4651461AF0D8
:1019300004FB7B69CA445B00BB607B690AEB430321
:101940007B610BF002037B607B699A455ED1237853
:101950001BF0020FFB61637818BF002106EB030246
:1019600008BF4FEA58011BF0010FD2B240F09D8032
:101970001BF0040F14BF4046002094F802B094F806
:1019800003A03B616270A070E1702046BA69F968FB
:101990007B6A9847051EFFF60CAFFB694146237032
:1019A0003B69BA69637084F802B07B6A84F803A06B
:1019B00007F140009847B0F10008C0F2B0803B6AE0
:1019C000BA69A3EB0901FB687869C91ABB68C91A2F
:1019D0007B6A98470028C0F2A4804FF0000BA8440F
:1019E00008EB000507F1300AB34560DB0021BA6956
:1019F00008467B6A9847DCE64FF0000807F13000A4
:101A000093E74E46C84694E7B04692E71AF8021BA1
:101A10003B4A1AF8015C54F82530934202D3394A04
:101A200093421CD33B6923B1F86916F04BFF0028A1
:101A30008AD17B68F3B908F1280207F12800024433
:101A400008F1010302F8101C07F1500208F1020826
:101A500052FA83F35FFA88F803F8105C74E73B6985
:101A60002BB1F86916F02EFF00287FF46DAF1BF044
:101A7000010F09D006F1280207F12801731C56183E
:101A800006F8205CDEB25FE71BF0040F3FF45CAFAA
:101A900008F1280207F1280108F1010302EB01080F
:101AA00008F8105C5FFA83F84EE7002065E71BF842
:101AB0000A3054F8239087F82F30FB6F63B333F864
:101AC0001B800121BA697B6A07F12F009847002823
:101AD00027DB0544B8F1000F06D148461AF0D7F9C4
:101AE00000F101081FFA88F841464846BA697B6A46
:101AF0009847002815DB05440BF1010B74E700BF84
:101B0000380F0200A47E0200540600207B2D020044
:101B1000222E020005000001D7F87C80D1E745465F
:101B200047E6054645E600BF014B1860704700BF19
:101B30009C01002030B5002587B0CDE903010446A3
:101B4000009503A90548059500F018F9DDE9043072
:101B50009842B8BF255407B030BD00BF13890100BB
:101B60002DE9F047058B04462807904611D4022939
:101B700005F0070540F0CD80204617F0A9F978B1AF
:101B80000138218B042811D8DFE800F0C3106D85DF
:101B9000950001290CBF45F0100545F0200525836F
:101BA00088F31188BFF36F8FBDE8F08701F0070A53
:101BB000AA4500F0A6800027B9463E46A368002B40
:101BC00000F0BD8041F00801218388F31188BFF344
:101BD0006F8FA168002900F0BB800D68002900F01C
:101BE000B780334652462046D1F80480C047002DC6
:101BF00076D02B6829461D46F0E701F007035A1FEF
:101C0000012A1BD8002221F00701062B276889B280
:101C1000C4E9002209D13B4603E0628B01326283B2
:101C20001B68002BF9D141F002012046218317F0F7
:101C30004FF900287BD041F0200177E0042B0AD136
:101C400021F0070189B22046218317F041F910B134
:101C500041F020012183218B01F0070AAA4550D0D1
:101C60000027B946AAE7236921F0070141F00601E0
:101C7000062DD3F8009021832DD1B9F1000F40D06B
:101C800041F00801218388F31188BFF36F8F20464C
:101C90003949C84729E021F00701236941F00401CF
:101CA00089B2042DD3F804902183E6D000274FF0A9
:101CB000040A3E4682E721F00701236941F005014D
:101CC00089B2052DD3F808902183D6D000274FF094
:101CD000050A3E4672E700274FF0060A3E466DE7CA
:101CE0002B4687E7B9F1000FD1D14FF02003EFF376
:101CF000118883F31288BFF36F8F238B23F00803BF
:101D00002383258BEA062ED525F01003238305F0C7
:101D100007056669218B002EBFF66FAF0023276889
:101D2000C4E9003321F0070141F001012183218B37
:101D30004FF0000901F0070AAA457FF43FAF002FDA
:101D40009BD041F00801218388F31188BFF36F8F86
:101D5000002FC7D03D68394633465246204617F01B
:101D6000E3F82F46F4E7AB067FF51AAF25F0200322
:101D7000238305F00705FFE6558F01002DE9F04F9D
:101D800081468B4617461C46002595B0387808B921
:101D9000284657E37B1C2528039306D05946C8479D
:101DA0000028C0F24F830135FBE1182200210EA864
:101DB0001AF0CEF87B78252B7DD0002398469E46DE
:101DC0009C461E46781C014610F8012B2B2A00F079
:101DD000A18000F29880202A00F09F80232A00F042
:101DE0009F802BB19DF8403043F040038DF8403088
:101DF000B8F1000F05D09DF8403043F020038DF876
:101E00004030BEF1000F05D09DF8403043F0100384
:101E10008DF84030BCF1000F05D09DF8403043F004
:101E200008038DF840302EB19DF8403043F0040394
:101E30008DF840309DF8403003F04400442803D131
:101E40006FF386138DF840309DF840302A2A43F016
:101E500080038DF840307FD19DF841204B1C42F02B
:101E600001028DF841201A782E2A0CBF0121002191
:101E70009DF8412061F341028DF8412078D15A78D4
:101E80002A2A6ED000224FF00A0C0133194611F8AD
:101E9000010BA0F13006092E40F295809DF840100C
:101EA0001292C1F3400040EAD2700A4660F3410248
:101EB0008DF840205CE0BA1C03928DF843309DF809
:101EC0004130DA0740F12E8154F8048BB8F1000F4D
:101ED00007DA9DF84020C8F1000842F004028DF8AE
:101EE00040205E0740F1278154F804ABBAF1000F9F
:101EF00080F226819DF841306FF341038DF8413027
:101F00004FF0FF3A1CE12D2A0DD0302A7FF469AF43
:101F1000012358E74FF0010C55E74FF0010E52E74F
:101F20004FF001084FE701264DE703460EFB026222
:101F3000303A184610F8016BA6F1300CBCF1090FCD
:101F4000F3D999428FD09DF840101192D20F62F3CD
:101F500041018DF8401086E70B4600224FF00A0E33
:101F6000E7E79DF84120023342F004028DF841205A
:101F70001A786C2A47D02BD8682A31D06A2A4BD0DD
:101F80004C2A51D01A4612F8013B782B03928DF857
:101F900043309DF8412000F2BE806D2B51D8692B53
:101FA00000F2B980572B67D8412B03D0453B022B59
:101FB00000F2B18004229DF8423062F302038DF8F2
:101FC0004230012373E00CFB02020B46303A5DE71E
:101FD000742A25D07A2AD5D106219DF841200CE01B
:101FE0005A78682A9DF8412006D1012161F3C60282
:101FF0008DF841200233C5E7022161F3C6028DF856
:1020000041200133BEE75A786C2A9DF8412001D166
:102010000421EBE70321F0E705219DF84120ECE7DF
:1020200007219DF84120E8E7BDF8402022F4F04266
:1020300022F0020242F4804242F00202ADF8402057
:10204000DFE76E3BD9B201238B4040F282410B4265
:1020500037D113F0240F51D1D8075CD503219DF857
:10206000423061F302038DF8423002F07803A3F1AD
:1020700040014B424B411AE00120A3F15801C9B283
:1020800000FA01F111F4624F94D140F60106314299
:102090001DD111F4043F3ED09DF8423060F302039D
:1020A00002F07802402A8DF8423034D000239DF8A7
:1020B0004020C2F340010B4363F341028DF84020FE
:1020C000FDE602219DF8423061F30203E8E70220B9
:1020D0009DF8421002F0780260F30201402A8DF868
:1020E000421002BF9DF8401041F001018DF84010F0
:1020F000632BDBD1131E18BF0123D8E703219DF802
:10210000423012F0780F61F302038DF8423014BFB1
:1021100001230023CBE79DF8403043F001038DF805
:102120004030C3E79DF94020002AACBF4FF0FF3894
:10213000DDF84480D5E698077FF5E2AEDDF848A0EB
:102140000023CDE911339DF842309DF8411003F092
:102150000703012BC1F3C30133D1CB1E042B04D8D9
:10216000DFE803F0214646212100236801294FEAD8
:10217000E372CDE90E321CD19DF93830DA17CDE982
:102180000E3204349DF8403013F0030650D03A4626
:1021900059464846039B16F0C9FF0028C0F25281F9
:1021A0000544039FF2E554F8043BDA17CDE90E32FB
:1021B000E8E70229E5D11AB243F3C033CDE90E2393
:1021C000DFE7022B24D1CB1E042B04D8DFE803F079
:1021D00018101018180001294FF0000254F8043BA1
:1021E00014D00229CDE90E32CCD19BB20E93C9E7AF
:1021F000073424F00704F4E80223CDE90E23C1E7F5
:1022000054F8043B0E9300230F93BBE7DBB2CDE7FA
:10221000042B08D1073424F00704D4E90023083440
:10222000CDE90E23AEE7032BACD154F8043BDDE738
:102230009DF843007828B4D862281CD825283FF49C
:10224000ADAD5828ADD1DDE90E010DF13603009397
:1022500010AA08AB16F024FFBAF1000F074680F26F
:102260009980002F9DD00DF13603D81B002E00F071
:10227000C0800130BDE06338152892D801A252F821
:1022800020F000BF592300006B230000A3210000B1
:10229000A3210000A3210000A32100006B23000064
:1022A000A3210000A3210000A3210000A32100001E
:1022B000F72300008F230000B5230000A3210000B6
:1022C000A3210000DD220000A32100008F230000D5
:1022D000A3210000A32100008F230000BAF1000F0A
:1022E0000E9F35DB5146384619F0D8FD07EB000A42
:1022F000002F3FF456AF00269DF8423013F0100235
:10230000059200F0928002305B06119A48BF129B42
:10231000104448BFC018B8F1000F049240F39F80EA
:102320009DF84020A8EB0008C2F3800350070693F5
:1023300000F19580510640F188803EB15946304603
:10234000C84700287EDB069B01351E4630227DE013
:10235000384619F09CFDC9E70E9B002601208DF838
:10236000203008AF0DF1210AC6E719075ABFC3F3A1
:1023700000135E012B26DDE90E23002BBFF663AFB1
:10238000524263EB43032D26CDE90E235BE7002683
:1023900059E700269DF840200DF13603DB1B6FF353
:1023A00086129A458DF840207FF65BAFAAEB0303B7
:1023B000119356E70E9890B30DF136030093002168
:1023C00008AB10AA16F06CFEBDF84230BAF1000F4F
:1023D00003F0EF0343F4F04343F010030746ADF876
:1023E0004230D6DA00283FF4DCAE00260DF1360389
:1023F000181A9A4680E70E9B07293FF6D2AEDFE80F
:1024000001F00C04060C08080C0C1D70C9E61D80B8
:10241000C7E6EA17C3E90052C3E61D60C1E62F4FC5
:10242000064607F1050A052066E71A0748BF01308E
:102430006AE71046079306925946C847DDE9062326
:10244000002804DA15B0BDE8F08F20224346194673
:10245000002903F1FF33ECDC454498466D1A2EB198
:1024600059463046C8470028ECDB01359DF842301C
:10247000DA0601D41B0705D559463020C847002885
:10248000E0DB0135059B33B159469DF84300C84751
:102490000028D7DB0135049E2E4405E05946302044
:1024A000C8470028CEDB0135731B002BF6DC5346F2
:1024B0003A465946484616F039FE0028C2DB054424
:1024C000A844A8EB0503002B7FF76BAE59462020EC
:1024D000C8470028B6DB0135F3E700BF4C2E0200E9
:1024E00008B54FF02002EFF3118382F31288BFF397
:1024F0006F8F05F0EFFD034816F020FA04F0F2FFAD
:10250000FCE700BF522E020010B5094B094C00F049
:102510001F024009012818BF234603EB8203D3F8AA
:10252000002222F0E04242EA0172C3F8002210BD0C
:102530000028845000258450F8B54FF02003EFF3B5
:10254000118783F31288BFF36F8F0125214B224E31
:10255000C3F8005502230321C6F8D0360020FFF748
:10256000D3FF2846FFF7D0FF7E237F220024C6F842
:102570000C37C6F83C39194B2946C3F81821184ABC
:102580002120C2F8044EC2F8084E02F54822C2F8D3
:102590001041C3F82441C3F82C4103F5FF1303F5A0
:1025A0008053C3F8A042C6F80457C6F80459C6F8C9
:1025B000005BFFF7A9FF2020FFF7A6FF0B20FFF726
:1025C000A3FF0A20FFF7A0FF87F31188BFF36F8FE7
:1025D0002046F8BD00100050004000500020005080
:1025E0000090035005232DE9F041244D00AF2C78D5
:1025F000DFF88C800134B4FBF3F303EB8303E41ABC
:102600001CF037FF1F4A204E137803B358F82430CC
:10261000C01A07281BD83378ABB91C48026812F0DF
:10262000060F0ED06C4688B06A46194951611949A7
:102630009161032142F8101F4FF4C45100F0B4FC23
:10264000A546012333700020BD46BDE8F08100217E
:102650004FF050233170D3F8140138B1C3F814117E
:10266000D3F814312C700CB9012313702C781CF0A2
:1026700000FF48F824000120E6E700BFD73600201D
:10268000F8230020D6360020D536002098060020FA
:102690007B2E0200A82E020048B1054B054A1B689C
:1026A000B3FBF2F35843044B43F001031847704760
:1026B000E803002040420F0040160200062807D120
:1026C0000122044BC3F80025BFF34F8F20BFFDE765
:1026D000704700BF00400050F0B583B000AF381D18
:1026E00013F016FA2A4B98424ED112F0ADFB041E9D
:1026F00018DA387913F012FA264803685B073FD0DE
:102700006D4688B06A46244B5361244BC2E90634B7
:10271000042342F8103F00234FF4015100F044FC21
:10272000AD462DE040F607031D4D7C71AE68FB8081
:1027300074687B6814B96FF05704DDE708212846F8
:10274000184AA047041ED7DB3369002BF3D00122BF
:10275000082128469847041ECEDB01233D79124A02
:10276000AB40C2F804357879FE791CF077FE0F4B48
:1027700045F00045B600C0F880509D51002CBBD1FB
:1027800020460C37BD46F0BD6FF01204B4E700BF21
:102790000000AD0B9C060020C42E0200F02E0200AB
:1027A00058100200F52700000070015080A102506F
:1027B00038B5049CC4F30725284612F0BFF9002160
:1027C0000A4BA20B02F0FC02C0F8801099500123C2
:1027D000E4B2074AA3402846C2F8083512F052FB7B
:1027E0002046BDE8384013F099B900BF80A00250E0
:1027F00000700150F7B5144683681B690BB10022C5
:102800009847C4F30726304612F0A0F90546304633
:102810001CF024FE0027104B220E9200C0F880709E
:102820009F50304612F08AF9A20B0C4B02F0FC02CA
:102830001344E2B242F000421A60094BC0F8802013
:1028400005F13202009330463B46019452001CF0E1
:102850000EFE03B0F0BD00BF80A1025080A0025068
:10286000B127000013F000B82DE9F04704460746F1
:102870004FF00109DFF8508014B93846BDE8F08701
:1028800094FAA4F5B5FA85F509FA05F32E0108EBDB
:1028900005156FEA030A24EA03042B7B002BEBD017
:1028A00058F806301B694BB9464473680422284621
:1028B000196807EA0A0700F009FBDDE72846984790
:1028C0000028D9D1F0E700BF6014020030B5002223
:1028D00089B00F490F481EF078F900220023002428
:1028E000CDE906230E230C4DCDE903344FF440729D
:1028F0002846CDE90144094B0949009414F0F6FB40
:102900000849284614F030FB204609B030BD00BF0E
:1029100029290000680E0020A8090020292C0000A9
:102920000838002006330200014814F073BD00BFD0
:10293000880700202DE9F04780461F480F4617F012
:1029400018F80646002830D000252846BDE8F08754
:10295000237B73B12368DB680BB12046984723685B
:102960001B69D3B9636804222046196800F0AEFAE7
:10297000013610344C45EBD3B8F1000FE5D0002DF3
:10298000E2D02846FFF770FF0546002FF7D0002160
:102990004FF4A47015F062FAF1E72046984700283A
:1029A000E0D00AFA06F31D43E2E705464FF0010ABC
:1029B000024CDFF80C90DDE71C24002060140200BC
:1029C0007014020008B5034608462BB1044A136090
:1029D00000F05CFD002008BD6FF01500FBE700BFB4
:1029E000A001002010B5044C237813B9034814F05B
:1029F00011FD0123237010BDD83600208807002068
:102A000010B50446064816F0B4FF3CB1054BD3E8B8
:102A1000EF1F0139C3E8E21F002AF8D110BD00BF43
:102A2000142400201824002000200146034BD3E882
:102A3000EF0FC3E8E21F002AF9D1704714240020E9
:102A400070B5FFF7F1FF0546074C084EB44200D3BE
:102A500070BD63685B792BB123685B6813B129464D
:102A6000204698471034F1E7601402007014020009
:102A700010B5044C0449204616F0CBFC034B1C60F7
:102A800010BD00BFC0050020841602000C240020E9
:102A900008B50023074A4FF400411370064A07485F
:102AA0001360FFF78FFFFFF7E3FFBDE8084000F07A
:102AB0007FB900BFD9360020142400206F9901008F
:102AC000014600220023014816F0C4BCC0050020C6
:102AD000014816F05DBD00BFC0050020024B014655
:102AE000186816F0A5BD00BF0C240020014816F0A0
:102AF000D3BD00BFC0050020F8B5334B18780028BF
:102B000060D0FFF7E5FF044670B1304BD3E8EF1F0C
:102B10000139C3E8E21F002AF8D12D4D2D4EB542F0
:102B20002DD32046FFF7DAFF2B4B2C4C1B68002BD4
:102B300019DD1EF022F84FF47A72A0FB020302FBAB
:102B40000131C30B43EA4143D4E900209B1A40F210
:102B5000E9324FEAD13161EB0001934271F100019A
:102B600001D3FFF76DFFD4E9003213F57A7342F118
:102B70000002C4E90032BDE8F840FFF7B7BF6B6858
:102B80005B793BB121784B0706D52B682146284657
:102B90001B6898471035C2E72388626813F4E07F0A
:102BA000C3F38217C1F3C201EFD0002AEDD00C4B62
:102BB0002846D21A42F38F02012300F0D3F9B8421B
:102BC000E8D3E2E7F8BD00BFD83600201824002083
:102BD000601402007014020014240020600E002013
:102BE0000406002070B50D4D297861B90120FFF76A
:102BF000A1FE0B4C0B4EB44206D3FFF77DFF00281D
:102C0000FBD101232B7070BD63685B791BB1236816
:102C100020469B6898471034EDE700BFD936002066
:102C2000601402007014020000212DE9F0470846EC
:102C3000FFF780FE044648B340F267684FF0000992
:102C400015F026F91A4B186030B11A4B1B68092B86
:102C500002DD194814F0DEFB0025184FDFF858A0FC
:102C600044B12046FFF700FE044618B94FF0FF3884
:102C70004FF0FF39FFF740FF064628B9B5B9424685
:102C80004B46504614F0ECFB3546E9E74FF0FF3871
:102C90004FF0FF39D4E72B689B691BB1002228460F
:102CA000114698471035BD42F5D3E8E7044DFAE7E1
:102CB000102400201824002088070020701402002F
:102CC0006014020013B5184816F053FE174B1B781A
:102CD0007BB14FF02003EFF3118483F31288BFF32D
:102CE0006F8FFFF709FF84F31188BFF36F8F02B076
:102CF00010BD0F4B1B68002BF9D050B900220023E8
:102D00000C48CDE900234FF40042002315F002FBEC
:102D1000EDE70A28EBD107481DF063FF064802B033
:102D2000BDE8104014F076BB18240020D9360020EE
:102D300010240020680E00208807002010B5064BE4
:102D400004461B6898472146A060044816F000FC22
:102D5000BDE81040FFF7B6BFA0010020C00500206D
:102D600008B50A460146024816F0A0FC002008BD3E
:102D7000C00500200146014816F0A3BCC005002094
:102D8000024B0348C01AC008704700BF201302005E
:102D900060140200044A054B9B1AB1EBD30F34BFF9
:102DA00052F8310000207047201302006014020026
:102DB00000210B480B4B30B51B1A0B4CDB080430C1
:102DC000994200D130BD10F83120256802F0070289
:102DD00025F007052A4344F8042B0131F0E700BF32
:102DE000201302006014020004060020F8B5064615
:102DF0000024094F094DED1BED08AC4203D14FF003
:102E0000FF342046F8BD314657F8340019F04FF82A
:102E10000028F6D00134F0E720130200601402000D
:102E20002DE9F843884615461E4698B90446224FB8
:102E3000DFF8889009E0384633462A464146FFF7D6
:102E4000EFFF844238BF044610374F45F3D3204686
:102E5000BDE8F8831A4B1B4AD21AB5EBD20F28D221
:102E600003EBC5031C79B44228BF344607214368ED
:102E7000154E1A7956F8253002EB4202914023EAAA
:102E8000010304F0070101FA02F2134300210322B7
:102E900023FA02F000F00700814202F1030238BF7A
:102EA00001461E2AF4D123F007030B4346F82530D0
:102EB000CDE70024DAE700BF6014020070140200BE
:102EC0002013020060140200040600202DE9F041E6
:102ED00004460E460025436810481746201A001184
:102EE0000130187163689A710D4B0E4AA3EB02080A
:102EF0004FEAD808454508D3012263681E6063681D
:102F00005A71BDE8F041FFF76DBD00212AB23B4682
:102F100020460135FFF784FFADB2EBE760140200F5
:102F2000601402002013020070B5436805465B7907
:102F30001BB900226B685A7170BD0024074E084B04
:102F4000F61AF608B442F4D2002322B219462846F3
:102F50000134FFF765FFA4B2F4E700BF601402007C
:102F6000201302000146184663B1002A14DB4B68A7
:102F70000A491B7951F8220003EB4303D84000F0C3
:102F800007007047064B0749C91AB2EBD10F04D2AC
:102F900003EBC20318797047042070470406002031
:102FA00020130200601402002DE9F04FC1F3CB445E
:102FB0008FB0C1F349260D469046994605901734C7
:102FC000002E3CD04FF0040B4FF00A0A002209AF4C
:102FD00031460BAB4046CDF808B00197CDF800A0C4
:102FE000CDE90B220D920796FEF7B6FBC0F309035D
:102FF000181920F0070080081E4663F35225069337
:10300000FFF75EFD044678B10022069B10300B905E
:103010000C930D924046CDE9017B0C4A0799CDF8FF
:1030200000A00BABFEF798FB66F352254B462A46F1
:10303000204605990FB0BDE8F04F16F0CCBC24F047
:1030400007008008FFF73CFD0446EDE7AB9901005F
:103050002DE9F04F87B00446DDE9105ADDE9126929
:103060000F4693469846B6B3102133465246002089
:10307000CDF80090CDF81490FEF79AF90146174B61
:1030800004F007040BF0070BE40003EA412305F109
:10309000170044EA8B141C430844114B20F007002E
:1030A00003EAC54380081C430391FFF709FD054669
:1030B00040B13EB1334652460399CDF800901030EE
:1030C000FEF776F9434622463946284607B0BDE862
:1030D000F04F16F080BC3146D1E700BF00FE07007C
:1030E0000000F87F0EB403B503AB53F8042B014680
:1030F0000448019316F096FC02B05DF804EB03B0AF
:10310000704700BF4D9A0100CA0605D48B064CBF1C
:1031100002490349FFF7E6BF704700BF7134020060
:10312000C62F02002DE9F04F89B09B46DDE91576E8
:103130009DF8483004460493DDE913930593049BFE
:103140000D460692002B00F0878006F008030793D7
:1031500016F029FC06F0020A024600284BD0204651
:103160008549FFF7BFFF8046BAF1000F08D016F07F
:10317000440F42D12A4620468049FFF7B3FF8044DE
:1031800006F001035BB17E4B049A204653F82220DF
:103190007C4B7D49002A08BF1A46FFF7A3FF06F0C3
:1031A0000803002B55D0794B049A204653F822206F
:1031B0007749FFF797FF0546069B2BB11A46204635
:1031C0007449FFF78FFF0544BBF1000F05D05A4645
:1031D00020467149FFF786FF05444544B9F1000FC9
:1031E00049D1002F4FD1F30700F1C080314620466E
:1031F000FFF78AFFB4E08046B6E7684B18680028FE
:10320000BDD0674B4FF47A7E1B684FF46162B5FB0B
:10321000F3F5B5FBF0F300FB13550EFB05F5B3FB1F
:10322000F2FAB5FBF0FC3C2102FB1A3200FB1C5504
:10323000B2FBF1F30EFB05F5B5FBF0F501FB132234
:1032400020460092CDE901C552465649FFF74AFF94
:1032500095E706F00805AFE7BBF1010F06D1B9F11C
:10326000000F64D1002F7BD000250CE0B9F1000FD6
:10327000F8D04D485CE04D484B4622464C4915F08D
:10328000F0FA002F68D0DFF82C91DFF82CA1102F76
:1032900031462046B8464FF0000B28BF4FF01008CB
:1032A000FFF732FF5D4545DC059B514620461A7805
:1032B000FFF718FF4FF0010B1BF0070F03D1494632
:1032C0002046FFF70FFFD8453BD9059B51462046C6
:1032D00013F80B20FFF706FF0BF1010BBBF1100FEA
:1032E000EAD14FF0000B20463449FFF7FBFE5A4667
:1032F000059B20469A5CA2F120015F2928BF2E225F
:103300002F49FFF7EFFE0BF1010BBBF1100F1DD0A2
:103310001BF0070F03D149462046FFF7E3FED845CF
:103320005A46E5D849462046FFF7DCFEEBE71F4842
:10333000049DA1E749462046FFF7D4FE0BF1010B9F
:10334000B0E720461F49FFF7CDFEC5E7059BB7EB69
:103350000807434405939AD1049B002B7FF443AFA5
:10336000204609B0BDE8F04F16F063BB2046054A81
:103370000549FFF7B7FE39E71A2F02001E2F02009A
:1033800098160200152F0200C4360200AC16020087
:10339000432F0200492F02004D2F02002424002059
:1033A00020240020272F02007B9A01004D9A010063
:1033B000259A0100157D0200522F0200582F0200AD
:1033C000442D0200137D02002DE9F0410F884B6867
:1033D00005460C4690468E6886B0C7F382175BB1EF
:1033E000134A9B1A43F38F0100291FDB2078C0F397
:1033F000C200FFF7CFFC0346214651F8102B60882E
:10340000C2F34922002A01EB020408BF0021C0F3E5
:10341000CB00CDE90308CDE901140022314628464E
:103420000097FFF77FFE06B0BDE8F0810023E3E7D9
:103430000406002042F20F7373B58B4228BF0B467F
:1034400005680446052168460D4A15F084FA0646CB
:103450006368284604225B680A4916F0D6FA636856
:103460003246694628465B6816F0CFFA6368172231
:1034700028465B68044916F0C8FA02B070BD00BF68
:10348000102B0200722F02005A2F0200002101238C
:10349000064A904206D8064A01B901231360054B3B
:1034A00018607047012140085B00F2E740420F00BE
:1034B000202400202424002000230428CB604B601B
:1034C00098BF044B044A98BF53F820308A600B60C1
:1034D000704700BF08180200E41402000023064AE7
:1034E00006488A60064ACB604B6082420B6000D37C
:1034F000704793681032F8E78C17020070140200CE
:10350000601402000023064A10B50C46CB604B60E5
:103510008A6001461846FFF73DFC206010BD00BFE1
:10352000E41402002DE9F34105460E4C0E4E0F4FF8
:10353000DFF83C80B44203D3002002B0BDE8F08144
:103540006368284659791B7900290CBF3A464246E0
:10355000CDE900230821A368064A16F05BFC10346D
:10356000E8E700BF60140200701402009F2F020001
:10357000972F0200A82F02002DE9F74F0D460446B1
:103580000020FFF7FDFB6B6807465B7923B9032139
:1035900020461D4A16F03EFC082120461B4B1C4AC3
:1035A00016F038FC082120461A4A16F033FC4FF07A
:1035B0000008DFF864A00FFA88F6BE4208F101089F
:1035C00003D3002003B0BDE8F08F32460123002171
:1035D0002846FFF7C7FC0023324619468146284695
:1035E000FFF7C0FC834631460020FFF7D3FB5AF8B3
:1035F0002B20034601925AF82920082100922046E8
:10360000064A16F007FCD6E7C92F0200DB2F02009E
:10361000E72F0200053002001C18020042300200B1
:103620002DE9F84F52F8048C064640469B468A46E0
:10363000174618F02CFC81460F4D104B9D4208D3C5
:103640004346012130460E4A16F0E4FB6FF00704B2
:103650000CE04A464046A96818F035FC074B044682
:1036600038B93B46524629463046D8472046BDE841
:10367000F88F1035E2E700BF6014020070140200FA
:103680005630020008B5024BFFF7CAFF002008BD04
:1036900079350000014BFFF7C3BF00BF979A0100C7
:1036A000014BFFF7BDBF00BF9F9A0100014BFFF721
:1036B000B7BF00BF3D380000014BFFF7B1BF00BFEF
:1036C000EB9A01001FB5044602A901A8FFF748FBC9
:1036D000002804DA01212046134A16F09BFB08213A
:1036E0002046124A16F096FB08212046019B104AFC
:1036F00016F090FB08212046029B0E4A16F08AFB2A
:1037000003A8FFF737FB002804DA082120460A4AFD
:1037100016F080FB20460821039B084A16F07AFB2E
:10372000002004B010BD00BF6B3002009C300200CE
:10373000C4300200D9300200F63002002E310200FF
:1037400010B5C3699B681C792CB90121034A16F096
:1037500061FB204610BD0120FCE700BF483102009C
:103760002DE9F04F074689469846154685B0B2BB0D
:103770001046FFF705FB0646D9F804305B7923B9FC
:1037800003213846294A16F045FB0024DFF8A0B093
:10379000B44221DA3DB358F8243000200293FFF7F9
:1037A000EFFA002382469A450CD019460020039375
:1037B000FFF7F0FA4022029918F085FB039B80B9CD
:1037C000002B2CDA58F8243001213846194A0134EC
:1037D00016F020FBA642DEDC05B0BDE8F08F1646F1
:1037E000CAE70133DFE7A24600210E9B22B248461A
:1037F000FFF716FB0E9B044683420DD095B9514648
:103800002846FFF7C7FA03465BF8242003210092FD
:103810003846094A16F0FEFA0AF10104B8E7A24652
:103820001C46E1E758F82A30EEE700BF6C31020091
:103830001C18020097310200813102002DE9F74F78
:103840000646884691461D460027D3F804A0DFF8B7
:1038500044B0042250465BF8041B18F034FB0446C5
:1038600058B10137052FF4D1012130466B680A4A5F
:1038700016F0D0FA6FF0070408E041463046009792
:1038800005F10803A9F10202FFF76AFF204603B021
:10389000BDE8F08F1C180200B131020013B50446D8
:1038A00013F0ACFCC0F307230193C0F3074300936C
:1038B0000821030E034A204616F0ACFA002002B09D
:1038C00010BD00BF6C33020038B504461DF055F939
:1038D0004FF47A75A0FB052305FB0133D20B20467C
:1038E00042EA43430821024A16F094FA002038BD08
:1038F0008533020010B5044611F004FB082103468D
:10390000074A204616F086FA2046064A082116F095
:1039100081FA2146044813F0EFFA002010BD00BFE1
:1039200094330200B33302002D390000F0B58FB09C
:1039300004460D46D0F8A0701CF0EBFD064614F0CE
:10394000A7FA244B244A002E08BF1E46234B082109
:10395000844218BF1346CDE900462846204A16F097
:1039600059FAD4E90A23CDE9022394F90E30284606
:103970000093237B08211B4A16F04CFA06A920224B
:10398000204613F001FB626E034600920821284690
:10399000154A16F03FFA204605A91CF0CAFD034659
:1039A00030B108212846114A16F034FA0FB0F0BDA4
:1039B0006423059A2846B91A4B43B3FBF7F3CDE9C4
:1039C0000021CDE9027308213B46094A16F022FA8C
:1039D000ECE700BFBD330200157D02004C4C020035
:1039E000C0330200CC330200F83302000F3402006F
:1039F0003C340200002130B593B01C2204460BA8D1
:103A00000A9118F0A5FA1B4818F041FAC0F12000FD
:103A100001282CD9174818F03AFAC0F120020AAD53
:103A20002021284618F094FA2146134813F064FA2E
:103A300009AA4FF4006111481CF06FFD6423099A34
:103A40000195C2F500614B43DB0A002506934FF454
:103A500000632046CDE90413CDE902320821074B6B
:103A6000074A009516F0D6F9284613B030BD01225A
:103A7000D5E700BF73340200753B0000705700208B
:103A80007A34020010B504461BF0F3FC082103460B
:103A9000024A204616F0BEF9002010BDC3340200D1
:103AA0002DE9F3411746002304460A21B86801AA0C
:103AB000019316F0E7FB019DC6B255B12B460121DB
:103AC0002046144A16F0A6F9019D284602B0BDE82A
:103AD000F081042E0AD93346012120460E4A16F001
:103AE00099F9204616F0A3F90125EEE77868FFF76B
:103AF0007DF9B0F1000805DA012120467B68074A0C
:103B000016F088F90021334608460FFA88F2FFF7CD
:103B100087F9DAE7D93402000035020017350200D0
:103B20001346002273B5044601920A21586801AA7F
:103B300016F0A8FB019D95B920EAE0744FF4004609
:103B4000294640F2E7304FF47A720023C4FB0601A5
:103B5000FCF702FB14F082F9284602B070BD2B4638
:103B600001212046024A16F055F9019DF4E700BFF5
:103B700036350200F0B504460D46D0F8A06089B095
:103B800007A91CF0D6FC034630B1082128460F4A8D
:103B900016F040F909B0F0BD20461CF0BAFC6423D1
:103BA000079A0B4FB11A4B43002818BF0746B3FBC7
:103BB000F6F3CDE90221CDE9046308212346284626
:103BC000CDE90076034A16F025F9E3E70F34020049
:103BD000BD3302005635020010B5034600680C469E
:103BE000114608B1027822B92046024A04F0AEFC20
:103BF000204610BD9436020010B50C68D1E90112C0
:103C0000FFF7EAFF08210346024A204616F002F9B0
:103C1000002010BD993602002DE9F0478AB0054614
:103C200001A812F079FF1823019E082103FB00660A
:103C3000194A284616F0EEF8DFF86080019CDFF89C
:103C40006090DFF860A0B44203D300200AB0BDE862
:103C5000F08705AF394614222046FFF7BDFF4246E4
:103C600003460821284616F0D5F820461CF064FBD0
:103C7000082100280CBF4B4653460B4A284616F035
:103C8000C9F814232046094902AACDE90257049332
:103C900018341CF05CFBD6E7B8360200C2360200CE
:103CA000AF360200A9360200C7360200F93B000019
:103CB0002DE9F04306460027104BDFF8449053F8F7
:103CC0002140013153F8218087B0A04503D8384600
:103CD00007B0BDE8F08320461CF02EFB054658B126
:103CE000142201A92046FFF777FF4A460346082120
:103CF000304616F08FF82F461834E6E79019020088
:103D0000CE36020010B504460821254A16F082F886
:103D100000212046FFF7CCFF20B908212046214A88
:103D200016F078F8082120461F4A16F073F8012192
:103D30002046FFF7BDFF20B908212046194A16F09A
:103D400069F808212046194A16F064F80221204635
:103D5000FFF7AEFF20B908212046124A16F05AF8A4
:103D600008212046124A16F055F803212046FFF795
:103D70009FFF20B9082120460A4A16F04BF8082177
:103D800020460C4A16F046F804212046FFF790FF23
:103D900020B908212046034A16F03CF8002010BD47
:103DA000D4360200DC360200E4360200F3360200AC
:103DB00002370200103702008B1E022B2DE9F04162
:103DC00007468846144637D810220021606817F04D
:103DD0009BFFB8F1020F064607D120230821384681
:103DE000244A16F017F8336816E00A220021A0686A
:103DF00017F08AFFC5B22B46082138461D4A16F037
:103E000009F8B8F1040F1AD0102D0DD0202DEAD0EA
:103E1000082D0CD13378DBB208213846164A15F04C
:103E2000F9FF0020BDE8F08133889BB2F4E7082158
:103E30003846124A15F0EEFF6FF01500F2E7102237
:103E40000021E06817F060FF0821034604460C4A91
:103E5000384615F0DFFF102D06D0202D07D0082D95
:103E6000E5D1E4B23470DCE7A4B23480D9E7346041
:103E7000D7E700BF6F3702009A370200843702008D
:103E8000AB37020070B5104E04460D46337881B151
:103E90002BB10121BDE870400C4A15F0BBBF0123D6
:103EA0003370082120460A4A15F0B4FF012333700D
:103EB00004E083F001033370002BF2D12946204641
:103EC000BDE8704015F0C8BFDA360020BF370200E9
:103ED000FA37020070B504463C480378182B02D12B
:103EE0000B78112B31D00B46013A8D18AB4225D1FE
:103EF0008B5C0A780370A2F13003092B344C04D98F
:103F000022F02003413B052B04D823683149CA54D1
:103F1000013323602368022B34D1102200212D4865
:103F200017F0F2FE2C4A136803F8010B13602B4ABA
:103F30001368013313600023236023E013F8016B3F
:103F4000182ED3D11E78112ED0D1244D08212B68E4
:103F50002046234A15F05EFF20460021FFF792FF1E
:103F6000204B187870B9204A2B681168042B0ADCA2
:103F700008B111602B6013F003010BD112681368B4
:103F80001BBA136070BD0868043B00BA41F8040B0B
:103F90000120EBE75B4203F0030358BF59420229BB
:103FA00004D1126813885BBA9BB2EAE70329E9D10E
:103FB000106802681104C2F3074301F47F010B4348
:103FC00002F47F4213430360DCE700BFDB360020CE
:103FD00028240020DD360020342400202C2400205A
:103FE00024380200DC360020302400202DE9F84F70
:103FF0000023064614460D462949DFF8A8800B60C9
:104000002949DFF8A890DFF8A8B088F800300B60E5
:10401000012D274654F804AF1ED9022249465046C6
:1040200017F051FF80B922689278003A18BF012238
:104030009244504602221F4917F045FF30B9012330
:1040400088F80030013DE3E70022F1E74946504699
:1040500017F02DFFA8B9043700227868114617F031
:10406000DEFD0022144B11461860786817F0D7FD6A
:10407000124B134918603046FFF704FF0020BDE8DB
:10408000F88F9AF800202D2AE6D19AF80120002A0C
:10409000E2D053465A460821304615F0BBFED1E720
:1040A00028240020DC3600202C2400203E3802008A
:1040B000443802004138020034240020302400201B
:1040C000D53E00002DE9F04F4FF0FF35914601221B
:1040D0000746884620262C46534BDFF850A185B072
:1040E0001A60494652464046FDF78EF8411C07D1FA
:1040F0006A1C4FD14E4A0121384615F08BFE1CE058
:1041000073281FD0772831D0612816D1DFF824B169
:1041100010220021DBF8000017F0F6FD054600280C
:10412000DFD112F007FD0368162BDAD1DBF800307F
:10413000414A0121384615F06DFE6FF0150005B0BB
:10414000BDE8F08F0022DFF8ECB01146DBF800008C
:1041500017F0DAFD04460028C3D112F0EBFC036827
:10416000162BBED1DBF80030344AE2E70022DFF83C
:10417000C4B01146DBF8000017F0C6FD0646002863
:10418000AFD112F0D7FC0368162BAAD1DBF80030B0
:104190002B4ACEE7631C01D12A4AACE75FFA86F8C6
:1041A000C6F3C406002C3CD06B4629461A46A6EB43
:1041B000050C0CE0B8F1100F1DD0B8F1200F20D085
:1041C000B8F1080F2AD10878187031443344A64258
:1041D00003D80CEB01001028ECD9102CA14628BF05
:1041E0004FF0100929464B46384600F07FFF103546
:1041F000A4EB0904D6E7088880B21870000A58704A
:10420000E3E708684FEA102E187083F801E04FEAE0
:10421000104E000E83F802E0D870D6E708210A4A53
:104220006AE720468BE700BF940100209338020024
:104230009A380200EC230020593802006C38020042
:104240007F380200B73802008437020007B50A48F9
:104250001CF072F860B10423084A0093126801232D
:104260000549074800F014FE002003B05DF804FB88
:104270006FF01200F9E700BF28100200FC190200DD
:104280007014020010B5144642681068016011688D
:104290004C6011688B60136891681C680023C1E949
:1042A0000233C1E905334B600B61D168C1E90233C8
:1042B000C1E905334B600B611168CB60A36823B182
:1042C0009B6C13B1204604499847A3689B6A0BB1C5
:1042D00020469847002010BDDD4200002DE9F04344
:1042E00083B004460D4600AF83685B6C03B198470A
:1042F000A3685B6B03BB4FF00008E868391DC26917
:1043000014F02BFF8146002837D0A36879689B6999
:1043100043B3024620469847064630B33146E86824
:1043200014F038FFB1454FF00108E6D02B680020AB
:10433000D3E90121904703E0204698470028DAD1CD
:10434000A3685B6A002B36D1A868391DC26914F0D6
:1043500055FF0646002836D1204615F012FC2B6882
:10436000DE603BE06FF05706D8E70146E86814F0DE
:1043700011FFB8F1000FE3D0D8E71D48036813F030
:10438000060F0FD06E4688B06A461A4B53611A4B1F
:104390009361032342F8103F4FF4C4514B46FEF79C
:1043A00003FEB546A3689B69002BE2D0012220469C
:1043B000F91C9847DDE7204698470028C4D10C3700
:1043C000BD46BDE8F083A36879685B6963B10246C6
:1043D000204698470146A86814F02CFF2B6801205E
:1043E000D3E901219047EAE76FF05701F3E700BFF7
:1043F000940600201D3A0200363A020010B5044629
:104400008168083101F008F9A1682046BDE8104034
:10441000014A083101F0A0B8723A0200014915F0D2
:104420003CBC00BF7134020037B5044680680D46BD
:10443000D0F864325A0705D5002115F06FFCE0680A
:1044400016F085FBE368DB6873B9002D39D0A068EE
:10445000423015F01CFCA368002834D003F142015F
:1044600003F5A17017F0E7FCA2682946E0680DF19A
:104470000603423216F06EFB58B9A06800F5A17130
:10448000423017F0D8FCA068423015F000FCADF8BF
:104490000600204615F0F2FFA368D3F860329B06B1
:1044A00003D50A49606915F0F8FB204600F020FFAB
:1044B000A268BDF806302046D387A268938715F01E
:1044C00048FF03B030BD83F84201CDE7B0150200CC
:1044D000022210B5836804461A718268936BDBB9B7
:1044E00082F842308268D387826893878368D3F8E2
:1044F0006432DB040BD50321084B094A16F06DF832
:10450000A0686FF4805100F5197015F09FFB2046EC
:10451000BDE8104001F002B810BD00BF803A0200B3
:10452000C43602002DE9F04FA7B004465422002102
:1045300011A817F00DFD0023CDE90533A36820462F
:104540004233029315F0A0FF204615F0E9FE10B9A2
:104550006069FFF763FF00264FF0FF37B246B346AE
:104560003546B146A06814220021083017F0F0FC4F
:10457000204615F053FEA168E0688A8F423116F09C
:1045800020FB204616F09FFB0DF144080396DDE961
:104590000532012A6DD0132B6ED85FBBBBF1000F23
:1045A0000AD0204616F0B0FB1423A26811A94232AB
:1045B0000DEB030015F0BDFCB9F1000F0CD099F81C
:1045C0001130FE2B08D1059B26AA02EB830252F87C
:1045D000542C0AB101330593A068059D4369002B53
:1045E00040F0B680CEB1C3689E422DD00D9600F14A
:1045F000080524E002234146029A06A815F099FC1A
:10460000D8F8042006990346029231B101290AD153
:1046100048B16F4A204615F0E0FF6FF007052846C5
:1046200027B0BDE8F08F059B002B34D0D8F80000F0
:1046300001F016F898B166B1A5680D9608350CAE74
:104640000FCE0FC533682B602046FFF7D7FE01253C
:10465000E5E7604A0121204615F0BFFFDDE7059B35
:10466000CBB129462046D8F8002001F091F9022864
:1046700009D1059B132B91D9069B022B8ED10121C9
:10468000554B564AC6E7032805D0059B4FF0010B52
:10469000013305937BE7039B33B94846D8F80010F4
:1046A00007AA15F03CFD054608F10408013F9DB33B
:1046B000EB68BBF1000F08D0F3B1204615F0E4FE23
:1046C000204615F046FE464AC4E7ABB1AE46A368A5
:1046D000DDF814A003F1080CBEE80F00ACE80F00F1
:1046E000DEF80030CCF80030AB682BB96B7CFE2BC9
:1046F00004BF2F7C07F1FF37D5F804C0BCF1000FD1
:1047000008D0AE460CAEBEE80F000FC6DEF8003093
:1047100033606646A94603E0059B53B1012303932A
:10472000069B17B9022B7FF432AF059B013305932B
:104730002DE7A368DB6913B1DB68002BEED1294BB1
:10474000012100932046119B274A15F046FFE5E71B
:10475000037EA5EB0A05B3B14FF6FF72417EFF2938
:1047600018BF0A469D4202D313449D420BD9836869
:10477000012120461D4A15F030FF2046FFF73EFE7E
:104780006FF015054BE74FF4006100F5197015F057
:1047900052FAA06800F53E7015F0D9FAA36811AA84
:1047A000294602EB8A0220465B6998470546A068C5
:1047B0004FF0FF324FF0FF3300F53E7015F07AFAFC
:1047C000A0686FF4006100F5197015F03FFA26E754
:1047D000C43A0200D83A0200393B0200D036020047
:1047E000F63A0200253B0200D33D02005D3B020089
:1047F0002DE9F04F044680680121B1B000F5197031
:1048000015F019FAA3681B79022B17D1002309931D
:10481000A36860689E6B03681D6909ABC6B110226E
:104820001BA9A847099A4AB120461BA9B047A3680B
:104830009B6B002BECD12046FFF74AFE6FF0010185
:10484000A06800F5197031B0BDE8F04F15F0FEB961
:1048500001220DF12301A847099B002BEED09DF901
:1048600023209DF82310002AA368D1DB5A79032A5C
:1048700000F29482DFE812F00400810298029202B2
:104880000D297BD00A2959D0B3F8642209296FF386
:10489000CA02A3F86422A06800F083803ED80029F1
:1048A000B6D0082900F0F3810346D3F860229207BE
:1048B000AED501391629ABD801A252F821F000BFBC
:1048C000494E0000C94C0000D14C0000C14C000012
:1048D0003D4E0000EF4C0000114800001148000060
:1048E0001148000011480000F74C0000FF4C000088
:1048F00011480000294D000011480000334D000010
:104900001148000011480000114800001148000043
:10491000374D0000114800006B4D00001B293DD0B1
:104920007F2900F0C081A1F120025E2A0346BCD895
:10493000012115F0F3F99DF82310E4E0D3F8642287
:10494000C2F3C7022AB1D3F86422C2F3C7020A2A0B
:10495000ABD1B3F8642261F3CA02A3F86422A06861
:10496000818FB9B915F0DAF9E06816F0F0F86069EE
:10497000FFF754FD2046FFF7ABFD49E7D3F864226B
:10498000C2F3C702002AE4D0D3F86422C2F3C702FC
:104990000D2ADDE72046FFF7C5FDEBE70123437154
:1049A00036E7D0F860329B077FF532AF012115F072
:1049B000B5F9A068838FFF2B3FF42AAF0025C28F83
:1049C00000F1420100F5A17017F0B7FAA3681BA926
:1049D000DA8F0BA8134483F84251A268142302F51E
:1049E000A17215F0A6FA0B9914293FF611AF30AB5E
:1049F00003EB810343F8545CA368DA8F134493F804
:104A00004130202B02D0093B042B46D8002947D146
:104A100000250A9500260A9B30AA02EB830353F86F
:104A200054ACB346504615F032F9B04637460290C2
:104A30003946284616AA00F0E3FB814600283BD100
:104A4000012E64D10A9B30AA02EB830353F8540C65
:104A500015F01DF9A268064641462846083200F0C6
:104A6000CFFB0546006815F012F9864206D029688A
:104A7000821B92B22046314415F0EFFDA068C38F2F
:104A8000034493F84230202B02D0093B042B29D851
:104A90000121204615F090FCBAE60129B8D9013968
:104AA00000200CAB009301900AAB1BAA15F057FB3A
:104AB00005460028AED1ABE65146029AD9F800006F
:104AC00017F001FA60B9D9F8000017F0E0F958457D
:104AD00038BF5846002E08BFB8461FFA80FB013683
:104AE0000137A5E7D0F86032DF070BD5002115F0BC
:104AF0001FF92021204600F0DBFC0121A06815F001
:104B000017F985E62021204600F0D2FC80E67FF6EA
:104B10007FAE0A9A30AB03EB820252F8543CC24695
:104B20001846029315F0B3F8A2680490A2F83090EA
:104B30000396A26851462846083200F061FB029BAA
:104B400007460AF1010A002B50D13B68002B57D1D0
:104B5000A2681386039B013B0393EAD16069FFF7C8
:104B60005DFC204600F0DAFC0A9B30AA02EB8303CE
:104B700053F8540C15F08BF8414611AA814628468B
:104B800000F03EFB0746A0683968FF2200F5A170DF
:104B900017F05BF93B684FF6FF7708F1010AB8465A
:104BA00002935146284616AA0AF1010B00F028FB91
:104BB000002860D00022A168036801F2411111F8B9
:104BC00001EF985C704503D110B101324245F6D136
:104BD000B9F1000F01D04A4506DBBA42A8BF3A46F8
:104BE000013E012E97B246D0DA46DAE70068002887
:104BF000ABD0049A029917F066F90028A5D098E77F
:104C00009D48069315F043F8A16800EB0B0292B2A1
:104C100099484F8D079215F03AF8069B0590184673
:104C200015F035F8059B079AFF1A97FBF2F7A16874
:104C3000A2EB0009088EBFB2B0FBF7F200F1010E43
:104C400007FB120080B2069B1FFA89F9A1F830E039
:104C500058B9009306212046874B884A15F0BDFCC1
:104C60004946204600F02EFB74E706212046844A80
:104C700015F0B3FCF4E7002F3FF4CAAD0299A7EB9F
:104C80000902204692B2494415F0E7FCC0E5D0F88D
:104C900060329E077FF5BCAD012115F03FF820463C
:104CA00015F0F8FCB4E5D0F860329D077FF5B0ADA3
:104CB000012115F033F8A368D3F860321907EED458
:104CC000204615F0CCFCA3E5204615F0E4FB9FE55B
:104CD000204615F0D9FB204615F022FB10B960697B
:104CE000FFF79CFB0121A06815F018F842E620466A
:104CF00015F0D9FB8CE5204615F0DEFB88E5D3F8EE
:104D000060329B0603D55F49606914F0C6FFA36853
:104D1000D3F860329F0603D55B49606914F0BDFF8C
:104D2000204600F0FBFB73E500212046FFF77CFBEB
:104D30006EE50121F9E7204615F0A0FB0023A268EB
:104D4000012182F84230A268D387A2689387A068C5
:104D500014F0E4FFA368D3F860329E067FF558ADE7
:104D60004A49606914F099FF52E5204600F006FBBD
:104D70000121A06814F0D2FF4AE55B2902D102228A
:104D80005A7145E5D3F860329D0706D5622907D1EF
:104D90004FF0FF31204615F033FBA3680022EFE708
:104DA0006629FAD10121F5E700225A71A268D2F8EA
:104DB000603298077FF52CADA1F131031B2B3FF634
:104DC00027AD01A151F823F0454E0000514E0000DF
:104DD000654E0000394E00001148000011480000E7
:104DE000114800001148000011480000114800005F
:104DF000114800001148000011480000114800004F
:104E00001148000011480000334D0000294D0000FA
:104E1000EF4C0000C94C0000114800003D4E00005E
:104E200011480000494E00001148000011480000E0
:104E300011480000554E000003235371204615F021
:104E400023FBE5E403235371204615F017FBDFE451
:104E500003235371A068D0F8601201F0010181F0C2
:104E600001014CE603235371A368D3F860329B071A
:104E70007FF5CEAC24E700BF147D0200783B020032
:104E8000C4360200B5150200BA150200B0150200C2
:104E90002DE9F043044680688846D0F80C13154687
:104EA0001F4689B0002966D14FF4447217F050F8BC
:104EB000A36822681A60E06815F0EBFEA06800F5B0
:104EC0003E701BF04AFB4FF42A794FF41A76A06823
:104ED00030441BF0F1FFA0680022831901214844EF
:104EE00010361BF0CCFFB6F52A7F09F11409EED17C
:104EF0000026A36902211E60A06866F3820500F502
:104F0000197014F098FE5022A3685A851822A368DD
:104F10001A85A368186814F0BAFEA368414683F89E
:104F20002C00A368154AC3F86052606803681D68C6
:104F30002346A8470546D0B90122A3681A71D4E9CF
:104F40000A0100220023CDE906230E230393109BC0
:104F50004FF40062CDE901730495094B009412F0FF
:104F6000C5F8A368C3F80C03616A11F0FDFF284679
:104F700009B0BDE8F0836FF07705F8E7B99C010050
:104F8000D94F000010B5044680680379012B1DD16C
:104F90004FF0FF324FF0FF3300F53E7014F08AFE01
:104FA0002046082100F0ACF9206814F070FE18B11A
:104FB0000849606914F071FE2046FFF789FAA0687D
:104FC00000F53E7014F0C3FE002010BD6FF08500A8
:104FD000FBE700BF703402002DE9F0410446406851
:104FE0000E46036800219B681546984700284CD15F
:104FF00026B12A462146E06915F036FC2046FFF727
:10500000C1FF002841D1224E224FDFF88C80A068DA
:1050100000F52A704FF0FF324FF0FF33032113F0F9
:10502000C5F90546A0684FF0FF324FF0FF3300F599
:105030003E7075B114F03EFE20462B460121174A02
:1050400015F0CBFAA068BDE8F04100F53E7014F011
:105050007EBE14F02FFE32460221204614F001FEDF
:105060003A462946204614F0FCFD204642460121DE
:1050700014F0F7FD606803685B6903B19847A068A6
:1050800000F53E7014F063FEC1E7BDE8F08100BF9B
:10509000CD9C0100F1470000539D01007E3B0200C2
:1050A00010B5044608210C4A14F0B4FE204608212D
:1050B0000A4A14F0AFFE20460821094A14F0AAFE5D
:1050C00020460821074A14F0A5FE20460021064A82
:1050D00000F042FA002010BD953B0200D33B0200D5
:1050E000323C0200863C0200203D0200F8B51E461C
:1050F00017460B462F4A0821044614F08BFE6EB368
:10510000082120463B782C4A14F084FE01256A07CA
:1051100004D108212046294A14F07CFEAE4223D94E
:10512000082120467B5D244A14F074FE0135102DC1
:10513000EDD108212046224A14F06CFED6B9082190
:1051400020461E4A14F066FE0125AE422B4613D8B7
:1051500008212046194A14F05DFE18E00821204677
:10516000184A14F057FE012508212046154A14F06C
:1051700051FEDBE700252B46FB5C0821A3F1200252
:105180005F2A28BF2E2320460F4A14F043FE013524
:10519000102D07D06B07D8D108212046074A14F0FC
:1051A00039FED2E72046BDE8F8400821074A14F04E
:1051B00031BE00BF363D0200522F0200157D0200B5
:1051C000582F0200137D0200442D02003D3D0200D5
:1051D0001346002213B5044600920A4601460748CA
:1051E000FCF7CCFD23691B792BB1204602B0BDE84A
:1051F000104014F034BE02B010BD00BF779E010015
:1052000038B50B46154648B91449154A521AB3EB3E
:10521000920F05D251F82350284638BD84680CB946
:105220000025F9E70F4A94420AD30F4A944207D265
:1052300018462946226890472B68002BECD1EFE7EF
:105240000A4A944202D30A4A944205D3246814229B
:105250005343E518E358F0E70133F8E7A0140200E0
:10526000C8140200DC140200E8140200C814020092
:10527000DC1402008368D3F860329B0603D5024930
:10528000406915F02CB87047C0150200014915F0AF
:1052900026B800BF713402000A1E0DDC0ED0422376
:1052A0008168D1F86012890608D5002A044940694E
:1052B000B8BF524215F013B84123F1E7704700BF61
:1052C000593D02000A1E0DDC0ED044238168D1F83E
:1052D0006012890608D5002A04494069B8BF5242C5
:1052E00014F0FDBF4323F1E7704700BF593D0200B2
:1052F000826802494069423214F0F1BFC4360200AC
:1053000008290A4617D8836893F82E10914212D0C4
:1053100083F82E208368082AD3F8603205D09906D6
:1053200009D50549406914F0DABF9B0603D5034946
:10533000406914F0D4BF7047603D0200C5150200FB
:1053400038B50D4609780446FFF7DAFF6A78072A70
:1053500011D8A36893F82F1091420CD083F82F2016
:10536000A368D3F860329B0605D560690249BDE8A1
:10537000384014F0B4BF38BD693D0200F8B5836809
:1053800004469A8FD98F002A50D000294ED041313F
:1053900003F142050B441846A84206D3014611F812
:1053A0000169202E39D0A84239D286B29DB2AB1BFA
:1053B0009BB2591C471CD21A0144384616F0A6FD70
:1053C000A268711B938F204613FA81F39387A36819
:1053D00009B29A8F1344002283F8422014F0ECFFA4
:1053E000A368D3F860329A0603D51149606914F0B6
:1053F00076FF3B46082120460E4A15F0EEF820467F
:10540000FFF738FFA368D3F860329B060ED56069BA
:105410000949BDE8F84014F062BF0846BCE7014600
:1054200011F80169202EC0D00846BCE7F8BD00BFC6
:10543000CA150200C4360200CE1502002DE9F04163
:1054400004460D4617460AB1FFF714FFA368DA8F2A
:10545000D3F86012423213444A071FD5184616F09B
:1054600016FD0646DFF8408096B9A36820469A8F5D
:10547000DA8714F041FF20B107B115B16069FFF779
:1054800005FF69422046BDE8F04109B214F094BF1F
:105490004146606914F023FF013EE5E708212046FC
:1054A000024A15F09AF8E0E74C4C0200C4360200BC
:1054B00013B583688DF80710D3F860220446D0072F
:1054C00022D5D98F9A8F8A421ED0481C9DF807207A
:1054D000D8870B4483F84220A368D3F86012890769
:1054E00010D5D3F86032606913F0040F18BF2A2278
:1054F000094914F0F4FE204614F012FF10B160695F
:10550000FFF7C4FE02B010BD012220460DF10701D5
:1055100015F070F8F6E700BF442D020010B5044600
:10552000836802211B68084A15F057F8A368D3F86E
:1055300060329B0707D52046FFF7DAFE2046BDE81C
:10554000104014F016BF10BDC4360200014915F01A
:1055500010BA00BF713402002DE9F04F0E46002151
:10556000044617460D468BB0304605AA01F10108E6
:10557000FFF746FEA0B985B127B13A46082120467B
:1055800015F02BF80021214FDFF884B0304605AA32
:1055900001F1010AFFF734FE60B90BB0BDE8F08FEE
:1055A000006810B116F073FC80B2854238BF054622
:1055B0004146D9E70368D0F804903846039316F0C3
:1055C00066FC039B80467BB11A786AB1CDE9005333
:1055D00008213B4620460F4A14F0FFFFB9F1000FA7
:1055E00004D16069FFF7B2FF5146CFE75A46204623
:1055F0003B46082114F0F1FF6A1C02EB48024946C1
:10560000204692B215F0C2F9EEE700BF8B3D0200D2
:10561000793D0200723D0200F7B5064608680D4666
:10562000B8B116F034FC84B20B4F384616F02FFC9C
:1056300000970444082130462B68084AA4B214F0AD
:10564000CCFF22463046696803B0BDE8F04015F053
:105650009DB90446E8E700BF873D0200793B0200A0
:1056600010B50749044616F022FC38B1204605491A
:1056700016F01DFCB0FA80F0400910BD0120FCE7D7
:105680007D3D0200803D020010B583680446D3F8DA
:1056900060329B0603D50649406915F0EBF95022AC
:1056A000A36800205A851822A3681A8510BD00BF80
:1056B000D215020008B5836908211B68024A14F05C
:1056C000A9FB002008BD00BF8E3D02002DE9F3417B
:1056D0000E4A0821054614F09DFB00230C4C0D4E8C
:1056E000DFF83480B44203F1010703D3002002B095
:1056F000BDE8F081A2689BB212680821009228469A
:10570000424614F087FB30343B46EBE79E3D0200F7
:1057100070140200A0140200B63D02007FB50446DA
:1057200000250E4EA2680DF10E030121E06802F57E
:10573000A17215F00FFABDF80E00A36850B103F581
:10574000A173009332462B460821204614F062FBD9
:105750000135E7E783F8420104B070BDC23D0200A5
:10576000022907B50DD15368012101930C4B009319
:1057700013680C4A14F04EFB6FF0150003B05DF88F
:1057800004FB8368084AD3F86032082113F0020F43
:10579000064B08BF1346064A14F03CFB0020EDE719
:1057A000D93D0200D03D0200CC3D02002E36020061
:1057B000EE3D020010B583680446D3F860329A06C5
:1057C00003D50749406915F055F9A368D3F860324D
:1057D0009B0603D50349606915F04CF9002010BD04
:1057E000D9150200DE150200F0B50129044685B086
:1057F0000CD05368012101935F4B009313685F4AFB
:1058000014F008FB6FF0150005B0F0BD8368D3F805
:105810006032990603D55A49406915F02BF90025E5
:105820006FF0F9012046FFF737FDFA212046FFF718
:1058300049FDA0684FF48072294600F5A1708DF8EB
:105840000B5016F085FB4F49606915F013F960693C
:1058500014F005FB4FF47A766068012203680DF1BD
:105860000B011F6903ABB847039BF3B9013E4FF42B
:105870007A70B6B21BF083F9002EEDD1A368D3F88D
:1058800060329B0603D54049606915F0F3F8502259
:10589000A36820465A851822A36803211A853B4A2B
:1058A00014F0B8FA6FF00700AEE79DF80B20A3687C
:1058B0001B2A53D093F842111B29CDD1522A4DD126
:1058C0005A19002382F84231A66896F843215B2AD0
:1058D0002BD1022506F2431010F8011F2A463B295E
:1058E00005F10105ADB223D1FF2AC7D002F5A1729F
:1058F00016FA82F1002211F8010F18BBFA2A28BF0C
:10590000FA22FA2B28BFFA2386F84201A1684A85B9
:10591000A2681385A368D3F860329A0603D51A49A2
:10592000606915F0A7F800206EE786F84231A5E718
:1059300003EB8303303901EB4301B5F5807F8BB274
:10594000CAD19BE7013502EB8202ADB2303800EBE1
:105950004200B5F5807F82B2CDD18FE72B4401356F
:10596000ADB2092D83F842217FF676AF0022A368FD
:1059700083F8422182E700BFD93D0200D03D0200FA
:10598000E4150200393E0200E8150200FF3D020066
:105990002DE9F04F07461546894689B021B9032401
:1059A000204609B0BDE8F08F104615F078F90028C0
:1059B000F5D04FF000080224414624E05C463CE06C
:1059C00029460AF5A17016F016FA064600284CD0B2
:1059D00016F05DFA82B2601C31460132304416F096
:1059E00095FA22465946304616F0A7FA4FF02003A2
:1059F0003355BAF8403008F1010801331C44AAF8C5
:105A00004040002401994B1C484603AA0193FFF72C
:105A1000F7FB0646E8B100222846316813F08AFFFA
:105A20000028EFD1D6F800B0D7F808A0BBF1000FDE
:105A3000C4D0584616F02BFA84B2BAF8403023444A
:105A4000FF2BBDDD2B4603213846094A14F0C5FD66
:105A50000124B8F1000FA3D0B8682A4600F1400134
:105A600000F5A17014F034FB9AE70224F1E700BFBF
:105A70001F42020098B500AFB8B91B4803685A0727
:105A800003D16FF01500BD4698BD6C4688B06A46DC
:105A9000164B4FF4C2515361154B9361032342F8E7
:105AA000103F15F040F9A546EBE78368B3B90E48FF
:105AB00003685B0702D16FF00400E4E76C4688B02E
:105AC0006A460C4B4FF4C2515361094B9361032357
:105AD00042F8103F15F027F9A546ECE71B680BB11B
