:020000040000FA
:100000009066002091830000CDC10100658300004F
:100010006583000065830000658300006583000040
:10002000000000000000000000000000B17A0000A5
:100030006583000000000000557A00006583000021
:10004000357B0000357B0000357B0000357B0000F0
:10005000357B0000357B0000357B0000357B0000E0
:10006000357B0000357B0000357B0000357B0000D0
:10007000357B0000357B0000357B0000357B0000C0
:10008000357B0000357B0000357B0000357B0000B0
:10009000357B0000357B0000357B0000357B0000A0
:1000A000357B0000357B0000357B0000357B000090
:1000B000357B0000357B0000357B0000357B000080
:1000C000357B0000357B0000357B0000357B000070
:1000D000357B0000357B0000357B0000357B000060
:1000E000357B0000357B0000357B0000357B000050
:1000F000357B0000357B0000357B0000357B000040
:10010000357B0000357B0000357B0000357B00002F
:10011000357B0000357B0000357B0000357B00001F
:10012000357B0000357B0000357B0000357B00000F
:10013000357B0000357B0000357B0000357B0000FF
:10014000357B0000357B0000357B0000357B0000EF
:10015000357B0000FFFFFFFF53B94AB9002908BFF4
:1001600000281CBF4FF0FF314FF0FF3000F00CB8FB
:10017000ADF1080C6DE904CE00F008F8DDF804E0FC
:10018000DDE9022304B07047704700BF2DE9F04756
:1001900086468C460846089E154674461946002B2E
:1001A00040F0C1808542B2FA82F245D94AB1C2F12B
:1001B000200300FA02FC954094402EFA03F343EA30
:1001C0000C0C4FEA154EA8B2230CBCFBFEF80EFB3C
:1001D00018CC08FB00F943EA0C43994528D9EB18E1
:1001E00008F1FF3704D2994502D9A8F102072B4440
:1001F000A3EB0903A4B2B3FBFEFC0EFB1C330CFB08
:1002000000F044EA0344A04214D92C190CF1FF3346
:1002100004D2A04202D9ACF102032C44241A43EACE
:1002200007401EB1D440002334607360BDE8F087FE
:100230004746DDE76346F1E792BB431B01214FEAE6
:10024000154EAFB2200CB3FBFEFC0EFB1C330CFBB7
:1002500007F840EA0343984561D9EB180CF1FF30E9
:1002600004D2984502D9ACF102002B44A3EB080359
:10027000A4B2B3FBFEFC0EFB1C330CFB07F744EAF5
:100280000344A7424DD92C190CF1FF3304D2A742E5
:1002900002D9ACF102032C44E41B43EA0040C0E75E
:1002A000C2F120039540944020FA03F12EFA03F3A3
:1002B0004FEA154E9040AFB20343B1FBFEFC0EFB7C
:1002C0001C10190C0CFB07F841EA0041884522D9A3
:1002D00069180CF1FF3004D2884502D9ACF1020054
:1002E0002944A1EB08019BB2B1FBFEFC0EFB1C11E3
:1002F0000CFB07F743EA01439F420ED9EB180CF1C0
:10030000FF3104D29F4202D9ACF102012B44DB1B26
:1003100041EA004193E76046E3E76146F7E760465C
:10032000A4E76346B8E7834206D916B90021084618
:100330007CE7C6E900E0F9E7B3FA83F78FB98342B7
:1003400001D3724508D8BEEB020460EB0303012021
:100350009C461EB9002169E73846FAE7C6E9004C19
:10036000F8E7C7F1200CBB400EFA07F522FA0CF4AF
:100370002EFA0CF1BA401C4320FA0CF3B8404FEAB5
:10038000144901431FFA84FEB3FBF9F809FB183046
:100390000B0C08FB0EFA43EA00439A4540D9E318D8
:1003A00008F1FF3004D29A4502D9A8F10200234493
:1003B000A3EB0A0389B2B3FBF9F809FB183308FB76
:1003C0000EFE41EA03418E452CD9611808F1FF3336
:1003D00004D28E4502D9A8F10203214443EA004029
:1003E000A1EB0E01A0FB02984145CE46434602D345
:1003F00006D14D4504D20138B9EB020E68EB040377
:10040000002EA7D0B5EB0E0261EB030101FA0CFC44
:1004100022FA07F3F9404CEA0303C6E9003199E7F1
:100420004046C5E74346D9E72DE9F04383B0714D17
:1004300000AFD5F85C31996811F001011DD140F68B
:1004400003403A1D09F05EF80446002840F0BD80E4
:100450007C68E3681B786BB90BF04AFA05F1CC03B2
:10046000D3E8AF2F02F00902D3E8EF1FC3E8E02F73
:100470000028F9D1204613F0C5FD002141F2030008
:100480003A1D09F03FF80446002840F09E807E683F
:100490000822F168584801311CF05EF8304613F02C
:1004A000B1FD214641F201003A1D09F02BF8044646
:1004B000002840F08A807868C3685A7885F86820F8
:1004C0005A88A5F86A201A7985F86920B3F80720B8
:1004D000A5F86C20B3F80530A5F86E3013F092FD46
:1004E000214641F202003A1D09F00CF804460028AA
:1004F0006BD17C684022E168404801311CF02CF847
:10050000204613F07FFD0BF01DFC044600285CD153
:1005100095F8823099061ED43948036813F0060F07
:100520000ED06C4688B06A46364B4FF4C4515361C6
:10053000354B9361032342F8103F1CF0E7F8A546C2
:1005400095F874305A0665D42D4803685B0741D18D
:100550006FF0120439E0072140F6334008F098FFAD
:100560008046002800F0338107210C301FF062F82C
:100570002146072206461BF0FAFF6FF009034FF0F1
:1005800001093370062322463471414640F6334058
:1005900086F80190F37008F0B5FF0446A8B9494603
:1005A00040F6314008F074FF0646002800F00F8145
:1005B00049460C301FF04DF82246314640F6314096
:1005C00008F0A0FF04460028BAD020460C37BD46EC
:1005D000BDE8F0836C4688B06A460C4B4FF4C251BC
:1005E00053610B4B9361032342F8103F1CF08EF8CC
:1005F000A546ADE700000020700000207800002034
:100600003C060020E46102006D67020016620200F1
:1006100065670200002142F203003A1D08F072FFF4
:1006200004460028D1D17E680822F1689C48013137
:100630001BF092FF304613F0E5FC214642F2020027
:100640003A1D08F05FFF04460028BED17C68E368CD
:10065000B3F8012091B2A5F8FC2021B1DA789148D5
:10066000114620F0DAFB204613F0CCFC95F87460BC
:1006700016F0200618D1022140F66D4008F008FF60
:100680000446002800F0A38002210C301EF0D2FFA7
:100690000123214603704670324640F66D4008F053
:1006A00031FF0446002890D195F894301E0712D5EA
:1006B000002142F21C003A1D08F024FF04460028E5
:1006C00083D17868C368D3F80120D3F80530C5E931
:1006D000362313F097FC95F8D0305C0610D5002136
:1006E00042F22A003A1D08F00DFF044600287FF46C
:1006F0006CAF7868C3685B7885F8183113F082FCBA
:10070000082142F2010008F0C3FE044600285ED032
:1007100008210C301EF08EFF95F8D01040F2022315
:1007200011F0400F08BF0323024688074CBF43F077
:100730002C0043F00C0095F8D1308E0648BF40F0F5
:10074000400013F0090F18BF40F40060CB0795F884
:100750009A3048BF40F0100003F00603062B08BF94
:1007600040F4C07000211BF0DCFF2146002242F261
:10077000010008F0C7FE044600287FF426AF95F874
:100780007430B5F8FC109E0624D4C9B941F20500B6
:100790003A1D08F0B7FE044600287FF416AFB5F8FE
:1007A000FC307C684BB9E368B3F80120A5F8FC2065
:1007B0009A883C48114620F030FB204613F022FC7A
:1007C000082140F6014008F063FE0446D8B96FF0F6
:1007D0006804FAE60029F3D1334803685C0702D1C4
:1007E0006FF00404F1E66C4688B06A462F4B4FF474
:1007F000C25153612E4B9361032342F8103F1BF00B
:1008000085FFA546ECE708210C301EF013FF95F894
:10081000D0300246D9073AD44FF0005125481BF09A
:1008200080FF2146002240F6014008F06BFE04469E
:1008300000287FF4CAAE01463A1D4FF6014008F089
:1008400061FE194C00283BD0236813F0060F0FD02F
:100850006D4688B06A46184B4FF4C4515361174B2C
:1008600020469361032342F8103F1BF04FFFAD4633
:100870000AF046FC044600287FF4A7AE0CF0E6FC24
:10088000044600287FF4A1AE09F0C4FD9DE602A154
:10089000D1E90001C3E700BF90880002008000207A
:1008A000D0000020000100203C0600203E62020033
:1008B0007E6702001088000265620200596702002C
:1008C0007B68D3F80C80236803F00703022B6DD9F3
:1008D000B8F80130E946032B98BF5C4A8AB094BF50
:1008E00052F823105A496A46136240F201335948BC
:1008F0009384594E594BC2E9066150614FF433510C
:1009000042F8103F56481BF001FF2368CD4603F024
:100910000703022B4AD9B8F80120B8F80330022A9D
:1009200065D1032B63D84F4A52F82310E9468AB0A9
:100930006A46C2E9071340F201334B489384474BA0
:10094000C2E905064FF4335142F8103F44481BF00A
:10095000DDFE2368CD4603F00703022B26D998F865
:10096000053098F806E0032B98BF404AB8F807C056
:10097000D8F80900E8468EB094BF52F823103449E5
:100980006A46C2E9071340F20133DFF8E4901386A8
:10099000384BD062C2E90596C2E909EC44F2C04185
:1009A0002F4842F8103F1BF0B1FEC546786813F09F
:1009B00029FB00214FF602403A1D08F0A3FD064630
:1009C000B8B1236813F0060F3FF452AF6C4688B0FD
:1009D0006A46294B5361204B4FF4C4519361032362
:1009E0001F4842F8103F1BF091FEA54640E718490A
:1009F0009CE7D7F804800222D8F80C101F48013178
:100A00001BF0AAFD404613F0FDFA95F8B9305B07DC
:100A10007FF52EAF31464FF603403A1D08F072FDC8
:100A200048B1236813F0060F3FF422AF6C4688B03C
:100A30006A46134BCEE701227C681248E1681144F4
:100A40001BF08AFD204613F0DDFA11E7B8270200FB
:100A5000155C02008D62020059670200050000016A
:100A60003C060020A8270200AA6202009827020084
:100A7000C662020008000001F7620200B90000200F
:100A800024630200B8000020012910B50C4603D1F0
:100A900019F0CFFC204610BD022907D91368064A79
:100AA000012119F0B9FC6FF01500F4E702D1536889
:100AB000024AF5E70020EEE7B82E0200D32E02002E
:100AC000012973B505460C46164603D119F0B1FC51
:100AD000204608E0022908D913680121194A19F0B3
:100AE0009BFC6FF0150002B070BD0A2200217068F7
:100AF0001BF0A4FB40F67A4281B28B1F9BB293425B
:100B00000B4610D900912846336801210E4A19F08E
:100B100083FC4FF4486301210093284606230B4AC7
:100B200019F07AFCDDE70A4A0024518011804FF465
:100B30007A719480D18028460821064A19F06CFC0D
:100B4000C6E700BFE82E0200022F02001B2F0200A2
:100B5000100500204B2F0200012973B505460C46F5
:100B6000164604D119F065FC204602B070BD02297A
:100B700007D913680121164A19F04EFC6FF01500D1
:100B8000F3E700210A2270681BF058FB81B2A1F143
:100B90001B03E02B0B460FD9009128463368012137
:100BA0000C4A19F039FCFB230121009328461B2332
:100BB000094A19F031FCE1E7084A2846118044F25D
:100BC000902151800821064A19F026FC0020CCE72C
:100BD000E82E0200022F02006B2F02000805002001
:100BE0009D2F0200024B034A034900F00FBB00BFD8
:100BF000080500200C0500201005002037B508214D
:100C0000144A044619F008FC134A144B1588144A78
:100C10001B8891781088022918D004290ED0114A17
:100C20001148012918BF02462046CDE9005208218B
:100C30000E4A19F0F1FB002003B030BD012807D0A7
:100C4000094A0B49022808BF0A46EDE7094AEBE7C3
:100C5000094AE9E7D52F0200100500200805002009
:100C60000C050020BF2F0200CD2F0200FC2F020038
:100C7000D8310200C62F0200B1310200022208B5AD
:100C8000054B08211A8040F204425A80034B044A63
:100C900019F0C2FB002008BD0C050020D83102006D
:100CA0004030020010B540F201120024044B08212C
:100CB0001C805A80034B044A19F0AEFB204610BD3D
:100CC0000C050020BF2F02004030020010B540F29A
:100CD00002220024044B08211C805A80034B044A42
:100CE00019F09AFB204610BD0C050020C62F02000B
:100CF00040300200012208B5054B08211A8040F25D
:100D000004425A80034B044A19F086FB002008BDB8
:100D10000C050020B131020040300200014818F0FB
:100D20000FB900BFE1310200014818F009B900BF56
:100D3000F4310200014818F003B900BF213202006B
:100D400008B5054818F0FCF8044818F0F9F8BDE8B3
:100D50000840034818F0F4B8343202006C32020044
:100D6000A132020010B50C46074818F0E9F8628875
:100D70002188064818F0E4F8E288A188044818F0B1
:100D8000DFF8012010BD00BFD132020001330200A4
:100D90002D33020007B5D0E90113009303688A0AD6
:100DA000024818F0CDF803B05DF804FB47330200A9
:100DB00030B50D4604468BB02822002168461BF052
:100DC000D6FB0E4B0E490F48002D08BF194618F0F0
:100DD000B7F8694620460BF087FF014620B10A4864
:100DE00018F0AEF80BB030BD9DF80130002BF9D1F2
:100DF000FFF7A6FF0122054B1A70F3E787330200C5
:100E0000697F020092330200A3330200BA38002047
:100E1000002008B506F048F9014620B1BDE80840B9
:100E2000014818F08DB808BDC533020030B50B4D30
:100E300089B003AC0FCD0FC42B680949236001238F
:100E40000222009303A8074B0AF0E6FB014610B10B
:100E5000054818F075F809B030BD00BF901C0200BD
:100E6000401F0200381F0200E833020070B50D4633
:100E700000268AB028220021044668461BF077FB32
:100E800029460F4D0F4818F05BF80F4B28681E706D
:100E900010B11BF0BDFF2E60694620460BF024FF09
:100EA000014620B1094818F04BF80AB070BD9DF812
:100EB000013013B9FFF7ACFFF7E7FFF7B7FFF4E72F
:100EC000F423002009340200BA380020273402003D
:100ED000F0B50C4691B005462822002106A81BF06B
:100EE00046FB34B1022C0ED02146254818F028F8D4
:100EF00009E0244C236843B1234818F021F813215A
:100F000028461CF080F811B0F0BD28461BF069FFA0
:100F100006A920600BF0E8FE014608B11B48E5E792
:100F20001B4B1C4A9DF819101B48002914BF114681
:100F3000194618F005F8BDF82C10184818F000F8FC
:100F40009DF81930002BDED101AA1646144B2568F6
:100F500003F11007144618685968083303C4BB42EC
:100F60002246F7D11B783146237028460D4B0E4A96
:100F700005F028FE01460028C5D00C48B6E700BFA2
:100F80004B340200F42300206B340200A333020030
:100F900072300200503002009C340200AD34020076
:100FA000A41C0200D823002068010020C9340200DC
:100FB0004368074A1BB90748136017F0C1BF1068A0
:100FC000990AB0EB932F02D003481160F5E7704700
:100FD000D02300207D420200E334020038B50446ED
:100FE0000D460E4817F0ACFF2946204606F0F8F8EB
:100FF00020461AF054FC0A490A4B0B600A4B186849
:101000000FF09EFC014620B1BDE83840074817F0BC
:1010100097BF0748BDE8384017F092BFE53402009B
:10102000D4230020B10D0000F4230020023502007B
:101030002035020007B5D0E90113009303688A0A3E
:10104000044817F07DFF044816F0E8FC002003B0C8
:101050005DF804FB36350200C807002070B5037840
:101060008AB004460E4607AD032B20D8DFE803F014
:1010700002191B1D114928461BF0ECF905956378F0
:101080001E210493A37830460393E3780C4A02931D
:101090002379019363790093A37917F05EFF0AB077
:1010A00070BD0849E7E70849E5E70849E3E70A2191
:1010B0002846074A17F051FFE0E700BF74350200E9
:1010C000963502007B350200823502008C35020025
:1010D000C580020010B51446036888B018686946D8
:1010E000FFF7BCFF22466946024817F029FF08B007
:1010F00010BD00BFB935020010B50C46036888B0BA
:1011000018686946FFF7AAFF22466946024817F0A9
:1011100017FF08B010BD00BFE735020013B50A4C39
:1011200023787BB1CB88094800938B884A8809884B
:1011300017F006FF00232370054802B0BDE81040F9
:1011400016F06CBC02B010BDBB3800201636020091
:10115000C807002008B50B460A785B78042A96BFBA
:101160000849094951F82210042B96BF054A064A3E
:1011700052F82320054817F0E3FEBDE80840044874
:1011800016F04CBC081F0200CD2F0200583602009A
:10119000C807002008B5044817F0D2FEBDE8084093
:1011A000024816F03BBC00BF7E360200C807002094
:1011B00010B5104C237823B1BDE810400E4817F04D
:1011C000BFBE80B10D4817F0BBFEFFF721FE012323
:1011D0000B48237014F016FD014650B1BDE81040D5
:1011E000084817F0ADBE084817F0AAFEFFF71EFE2C
:1011F000EDE710BDB9380020C6360200F736020010
:101200006001002037370200143702002DE9F04357
:10121000854E9846336805460F4691468FB053B9C0
:101220000121824B824A19F0F7F86FF00D04204635
:101230000FB0BDE8F0837F4B1B782BB901217E4AAC
:1012400019F0EAF80024F2E708217C4A19F0E4F8E2
:101250002822002104A81BF08AF9306804A90BF0A9
:1012600043FD044630B10346754A0121284619F072
:10127000D3F8DCE79DF8113023B101212846714AEB
:1012800019F0CAF8494630681BF0A1FE044610B1B7
:1012900003466D4AE9E7082128466C4A19F0BCF874
:1012A0004FF4202200236A4816F0DEFB044628B1E2
:1012B000684A0121284619F0AFF8B8E70C9B1A8854
:1012C000B8F800309A421CD04FF00109624B4146F9
:1012D000306883F800901BF06AFE044610B10346A4
:1012E0005E4AC2E7082128465D4A19F095F84FF496
:1012F00020220023564816F0B7FB044608B1594A8D
:10130000D7E7BDF824207B889A420DD100214FF405
:10131000804017F0A7F80122534954481AF0F2FA16
:101320000446D0B1524AC4E7394630681BF0CAFEC1
:10133000044610B103464F4A97E7082128464E4A13
:1013400019F06AF84FF420220023414816F08CFB74
:1013500004460028DAD0494AABE71FF0D3FF4FF428
:101360007A72A0FB020302FB0133C00B3E4FDFF891
:10137000FC8040EA434640F2EF12394640461AF0FC
:10138000C1FA034680B3012128463D4A19F044F8CA
:101390001FF0B8FF4FF47A73A0FB030703FB01773C
:1013A000C20B42EA4742961B4FEAD73767F1000764
:1013B000344817F0C5FD3B463246E000610FFEF7AA
:1013C000CBFE4FEA9428CDE90201424621462E4841
:1013D000CDE9006717F0B4FD244805F07BFF044613
:1013E000C8B10346294A40E704F2EF141FF08AFF10
:1013F0004FF47A72A0FB020302FB0131C30B43EAF4
:10140000414344F621619B1B62EB02028B4272F165
:101410000002B0D3BCE74FF4202200230C4816F0A2
:1014200023FBFFF78DFC0DE7F4230020513702006A
:1014300080370200BA3800209B370200EB370200E9
:10144000A3330200103802004B3802006338020058
:10145000C807002077380200BB3800208B38020014
:10146000AD380200CC380200CA360020D823002054
:1014700060390200EB380200143902003A390200E8
:101480007C390200983902009F390200D6390200E7
:1014900030B52D4889B017F053FD002009F092F8BF
:1014A000044630B10146294809B0BDE8304017F084
:1014B00047BD274803AD17F043FD214614222846B7
:1014C0001BF055F84FF010120123CDE904328DF8CE
:1014D0000430204B68460293009505F0B3FD1E488A
:1014E00005F076FC1D49032005F082FC014670B131
:1014F0001B4817F025FD1B491B4805F065FE0446F7
:1015000060B11A4809B0BDE8304017F019BD042099
:1015100005F0D0FC0028EED01548EAE7154817F092
:101520000FFD154817F00CFD144817F009FD204673
:1015300014F0AAFB08B11248E4E7124809B0BDE86C
:10154000304014F041BB00BFF1390200183A0200EC
:10155000383A020018050020740100209D05002083
:101560004F3A02001C1F0200D82300208C3A0200D0
:101570006F3A02007D420200B73A0200EF3A0200E1
:101580002D3B0200600100202DE9F84300AF8046AA
:101590000E46154600F0C8F8C36804461BB94369F7
:1015A0001A78002A5BD10023E3606368434556F84C
:1015B000232009DB4A4B6361204600F09BF84FF083
:1015C000FF30BD46BDE8F883511C616192F8009080
:1015D000B9F12D0FEED1911C616151782D29A160D7
:1015E00004D192786AB901336360E3E749B93C4BAF
:1015F0004946284663611AF04BFF0028DCD0C4F846
:1016000008902846A1681AF043FFA36862693A2B44
:1016100001D0114640BB127812B962680132626093
:101620002268BAB12A783A2A14D02E4802685107A3
:1016300010D06D4688B06A462B4951612B49C2E9EA
:101640000613042342F8103F00234FF4015101F028
:10165000F1FDAD46204600F04DF83F20B1E75A1CA1
:1016600042611B788360CCE740783A280BD0002396
:101670002361137813B9636801336360204600F077
:1016800039F8A0689DE791F800C062681448BCF181
:10169000000F05D101329045626004DD56F822103A
:1016A000C4E90410E7E760612D783A2D04D12046A3
:1016B00000F020F8284684E72268002ACAD00948AA
:1016C00002685207C6D06D4688B06A460849516123
:1016D0000649C2E90613042342F8103F6346B4E703
:1016E0007E420200740600207F3B0200BE3B0200E7
:1016F000983B02000268074B1A604268064B1A606A
:101700008268064B1A60C268054B1A600269054B75
:101710001A607047980100209401002000240020E6
:10172000FC230020F8230020004870477C010020A3
:101730002DE9F04F91B0009302F004030293C2F33D
:10174000C2030133840705460E46DDF86880039224
:10175000059340F0BD81041D30B1072909D86FF011
:101760001B0011B0BDE8F08F01F00706341DC6F173
:101770000806009B4FF000094FF0040A591E4FF075
:10178000FF334F460193CB465346CDF810900DB131
:10179000009A22600598002800F3EB809948009A8F
:1017A000824203D398488242C0F0E380039AA4EBBC
:1017B000050E92074FEA9E0000F106810F2F00F2FE
:1017C000B480002D00F0088107F140020DEB020CFF
:1017D000019A0CF8200C0CF8102C0498013004909D
:1017E000EAE07A2860D84B280ED847285CD8292808
:1017F0002FD8252855D057D820287DD02338D0F190
:10180000000B4BEB000B77E0A0F14C0CBCF12E0F62
:101810004AD8DFE80CF071494949494949494949E1
:1018200049494C49494949494949495A494C4C5AFD
:101830005A5A714C6E497149184C18494983804C69
:1018400049494C49800000204FF0000B4FF0040A3A
:1018500039E00122A0F12A0C5FFA8CFC02FA0CFCA0
:101860001CEA0E0F48D11CF062502ED11CEA020B6C
:1018700042D0013C5444CAF1000C04EA0C04002D8F
:1018800061D0A3EB050CA444B4453FF668AF002833
:1018900068D1042B47D158F8043B23600423043457
:1018A0002AE0019A013A01924FF0000B24E011F86E
:1018B000010C6C2834D1002011F8023C83466C2BBB
:1018C000C4D14FF0080A5346D3E708F1070828F0BF
:1018D0000708073424F00704F8E802AB35B106988E
:1018E0002044B0423FF63BAFC4E900AB4FF0000BE1
:1018F00008344FF0080A534611F8010F002878D039
:10190000BBF1000F7FF46DAF2528F5D14FF0010B2F
:10191000019B013301934FF0040AECE7584693E72B
:1019200000208346A5E7082B02D06FF0150018E7CA
:1019300008F1070828F00708F8E80223C4E90023A3
:1019400008230834D8E768B9042B02D108F1040849
:10195000A4E7082BE9D108F1070828F0070808F1E7
:101960000808EDE7059A013A059258F8042B009211
:101970000DE7039A900720D54FF0010CA4EB050E5C
:101980004FEA9E00BEF5007FCFD20F2FCDD8F5B124
:1019900007F140020DEB020E019AC0B20EF8200CC6
:1019A0000EF8102CBCF1000F3FF417AF60F07F0071
:1019B0000EF8200C09F101090137C5F108024FF6B4
:1019C000DA7E0434069297E74FF0000CDAE7BCF1B8
:1019D000000F01D00136EFE7029802360028EBD164
:1019E0000098CDE906311AF061FDDDE906310644C3
:1019F000E2E7631BB3F5806F97D23DB9A6F1080407
:101A0000E018AEE6C4160200708D0200029A9B0830
:101A100028602B709DF81030C2B1EB7085F80290F1
:101A2000B9F1000F05D0002208A8C5F1010C9742BA
:101A30000ED14FF0000AC5F101030DF1200801930A
:101A40000DF1300B574512D1601B8AE66B70E5E74C
:101A500010F8013B190608D504EB0C0EB64503F04F
:101A60007F033FF67CAE04F8013B0132DFE7B9F1BA
:101A7000000F03D098F90020002A17DB029BD3B196
:101A80001AF80B2004F8012B0022019B981820441F
:101A9000B0423FF664AE98F80000009904F8010BDC
:101AA000204603921AF058FD039A14440AF1010AE1
:101AB00008F10108C6E798F8002055F82230009395
:101AC000029B009845F822301AF0F0FC421CDCE73B
:101AD0006FF00D0045E600BF2DE9F04F95B000AF67
:101AE000D7F878B0BB61CBF3C00304467A623B61A0
:101AF000396251B90D4603784678807800EB83004F
:101B00002044AE421AD8031B3B6294F80290E3785B
:101B10004E467B61B9F1000F02D01BF0010F16D1C8
:101B20007B6953BB7B6A1BB12046BA69396A984707
:101B30003D6A28465437BD46BDE8F08F00F10108E4
:101B400040461AF0B3FC013040440135D9E76368E0
:101B500094F800A0FB617B6A4FEA8A02FA6004EB0A
:101B60008A0A002B40F00881D04600263D6A09EB26
:101B70000A03434554D1CA4413E01BF0020FD1D0ED
:101B800094F800A04FEA8A03FB60636804EB8A0ABA
:101B9000FB617B6A002B7ED13D6AB9F1000F54D105
:101BA0004E461BF0050F0CBF022301237B627B69AD
:101BB0000AEB43090BF002033B62CA45B9D01AF89D
:101BC000021B1AF8013C54F82380AD4B984502D310
:101BD000AC4B98453FD33B69002B49D0F86917F0CF
:101BE00073F9002844D0A848036813F0060F15D0F5
:101BF000E8468AB06A46A54B5361A54B9361FB69E1
:101C0000C2E9073140F201339384A24B42F8103FFE
:101C100000234FF4325101F00DFBC546023DCCE7E5
:101C200018F8012B7B6254F822001AF03FFCFA6F7F
:101C30007B6A01303AB1D7F8802096423EBFFA6FF6
:101C400022F816000136054493E71BF004061CBF7A
:101C50007E6ACA44A5E73B6923B1F86917F034F9F5
:101C60000028C0D11BF0010F05D17B6AED1AA4E753
:101C70003B6A002BA1D040461AF018FCFB6F43B121
:101C8000D7F880309E423FBFFA6F431C22F81630CF
:101C90000136054491E7B9F1000F72D01BF004063C
:101CA00072D0C846002607F140004A4651461AF055
:101CB00053FC7B69CA445B00BB607B690AEB43034E
:101CC0007B610BF002037B607B699A455ED12378D0
:101CD0001BF0020FFB61637818BF002106EB0302C3
:101CE00008BF4FEA58011BF0010FD2B240F09D80AF
:101CF0001BF0040F14BF4046002094F802B094F883
:101D000003A03B616270A070E1702046BA69F96877
:101D10007B6A9847051EFFF60CAFFB6941462370AE
:101D20003B69BA69637084F802B07B6A84F803A0E7
:101D300007F140009847B0F10008C0F2B0803B6A5C
:101D4000BA69A3EB0901FB687869C91ABB68C91AAB
:101D50007B6A98470028C0F2A4804FF0000BA8448B
:101D600008EB000507F1300AB34560DB0021BA69D2
:101D700008467B6A9847DCE64FF0000807F1300020
:101D800093E74E46C84694E7B04692E71AF8021B1E
:101D90003B4A1AF8015C54F82530934202D3394A81
:101DA00093421CD33B6923B1F86917F08DF80028E2
:101DB0008AD17B68F3B908F1280207F128000244B0
:101DC00008F1010302F8101C07F1500208F10208A3
:101DD00052FA83F35FFA88F803F8105C74E73B6902
:101DE0002BB1F86917F070F800287FF46DAF1BF085
:101DF000010F09D006F1280207F12801731C5618BB
:101E000006F8205CDEB25FE71BF0040F3FF45CAF26
:101E100008F1280207F1280108F1010302EB01088B
:101E200008F8105C5FFA83F84EE7002065E71BF8BE
:101E30000A3054F8239087F82F30FB6F63B333F8E0
:101E40001B800121BA697B6A07F12F00984700289F
:101E500027DB0544B8F1000F06D148461AF026FBEF
:101E600000F101081FFA88F841464846BA697B6AC2
:101E70009847002815DB05440BF1010B74E700BF00
:101E8000C4160200708D020064060020CC3B0200E4
:101E9000733C020005000001D7F87C80D1E745467D
:101EA00047E6054645E600BF014B1860704700BF96
:101EB0009C01002030B5002587B0CDE90301044620
:101EC000009503A90548059500F018F9DDE90430EF
:101ED0009842B8BF255407B030BD00BF178F01002E
:101EE0002DE9F047058B04462807904611D40229B6
:101EF00005F0070540F0CD80204617F0EBFA78B1E9
:101F00000138218B042811D8DFE800F0C3106D855B
:101F1000950001290CBF45F0100545F020052583EB
:101F200088F31188BFF36F8FBDE8F08701F0070ACF
:101F3000AA4500F0A6800027B9463E46A368002BBC
:101F400000F0BD8041F00801218388F31188BFF3C0
:101F50006F8FA168002900F0BB800D68002900F098
:101F6000B780334652462046D1F80480C047002D42
:101F700076D02B6829461D46F0E701F007035A1F6B
:101F8000012A1BD8002221F00701062B276889B2FD
:101F9000C4E9002209D13B4603E0628B013262832F
:101FA0001B68002BF9D141F002012046218317F074
:101FB00091FA00287BD041F0200177E0042B0AD170
:101FC00021F0070189B22046218317F083FA10B16E
:101FD00041F020012183218B01F0070AAA4550D04E
:101FE0000027B946AAE7236921F0070141F006015D
:101FF000062DD3F8009021832DD1B9F1000F40D0E8
:1020000041F00801218388F31188BFF36F8F2046C8
:102010003949C84729E021F00701236941F004014B
:1020200089B2042DD3F804902183E6D000274FF025
:10203000040A3E4682E721F00701236941F00501C9
:1020400089B2052DD3F808902183D6D000274FF010
:10205000050A3E4672E700274FF0060A3E466DE746
:102060002B4687E7B9F1000FD1D14FF02003EFF3F2
:10207000118883F31288BFF36F8F238B23F008033B
:102080002383258BEA062ED525F01003238305F044
:1020900007056669218B002EBFF66FAF0023276806
:1020A000C4E9003321F0070141F001012183218BB4
:1020B0004FF0000901F0070AAA457FF43FAF002F57
:1020C0009BD041F00801218388F31188BFF36F8F03
:1020D000002FC7D03D68394633465246204617F098
:1020E00025FA2F46F4E7AB067FF51AAF25F020035B
:1020F000238305F00705FFE6599501002DE9F04F10
:1021000081468B4617461C46002595B0387808B99D
:10211000284657E37B1C2528039306D05946C84719
:102120000028C0F24F830135FBE1182200210EA8E0
:102130001AF01DFA7B78252B7DD0002398469E4609
:102140009C461E46781C014610F8012B2B2A00F0F5
:10215000A18000F29880202A00F09F80232A00F0BE
:102160009F802BB19DF8403043F040038DF8403004
:10217000B8F1000F05D09DF8403043F020038DF8F2
:102180004030BEF1000F05D09DF8403043F0100301
:102190008DF84030BCF1000F05D09DF8403043F081
:1021A00008038DF840302EB19DF8403043F0040311
:1021B0008DF840309DF8403003F04400442803D1AE
:1021C0006FF386138DF840309DF840302A2A43F093
:1021D00080038DF840307FD19DF841204B1C42F0A8
:1021E00001028DF841201A782E2A0CBF012100210E
:1021F0009DF8412061F341028DF8412078D15A7851
:102200002A2A6ED000224FF00A0C0133194611F829
:10221000010BA0F13006092E40F295809DF8401088
:102220001292C1F3400040EAD2700A4660F34102C4
:102230008DF840205CE0BA1C03928DF843309DF885
:102240004130DA0740F12E8154F8048BB8F1000FC9
:1022500007DA9DF84020C8F1000842F004028DF82A
:1022600040205E0740F1278154F804ABBAF1000F1B
:1022700080F226819DF841306FF341038DF84130A3
:102280004FF0FF3A1CE12D2A0DD0302A7FF469AFC0
:10229000012358E74FF0010C55E74FF0010E52E7CC
:1022A0004FF001084FE701264DE703460EFB02629F
:1022B000303A184610F8016BA6F1300CBCF1090F4A
:1022C000F3D999428FD09DF840101192D20F62F34A
:1022D00041018DF8401086E70B4600224FF00A0EB0
:1022E000E7E79DF84120023342F004028DF84120D7
:1022F0001A786C2A47D02BD8682A31D06A2A4BD05A
:102300004C2A51D01A4612F8013B782B03928DF8D3
:1023100043309DF8412000F2BE806D2B51D8692BCF
:1023200000F2B980572B67D8412B03D0453B022BD5
:1023300000F2B18004229DF8423062F302038DF86E
:102340004230012373E00CFB02020B46303A5DE79A
:10235000742A25D07A2AD5D106219DF841200CE097
:102360005A78682A9DF8412006D1012161F3C602FE
:102370008DF841200233C5E7022161F3C6028DF8D2
:1023800041200133BEE75A786C2A9DF8412001D1E3
:102390000421EBE70321F0E705219DF84120ECE75C
:1023A00007219DF84120E8E7BDF8402022F4F042E3
:1023B00022F0020242F4804242F00202ADF84020D4
:1023C000DFE76E3BD9B201238B4040F282410B42E2
:1023D00037D113F0240F51D1D8075CD503219DF8D4
:1023E000423061F302038DF8423002F07803A3F12A
:1023F00040014B424B411AE00120A3F15801C9B200
:1024000000FA01F111F4624F94D140F60106314215
:102410001DD111F4043F3ED09DF8423060F3020319
:1024200002F07802402A8DF8423034D000239DF823
:102430004020C2F340010B4363F341028DF840207A
:10244000FDE602219DF8423061F30203E8E7022035
:102450009DF8421002F0780260F30201402A8DF8E4
:10246000421002BF9DF8401041F001018DF840106C
:10247000632BDBD1131E18BF0123D8E703219DF87E
:10248000423012F0780F61F302038DF8423014BF2E
:1024900001230023CBE79DF8403043F001038DF882
:1024A0004030C3E79DF94020002AACBF4FF0FF3811
:1024B000DDF84480D5E698077FF5E2AEDDF848A068
:1024C0000023CDE911339DF842309DF8411003F00F
:1024D0000703012BC1F3C30133D1CB1E042B04D856
:1024E000DFE803F0214646212100236801294FEA55
:1024F000E372CDE90E321CD19DF93830DA17CDE9FF
:102500000E3204349DF8403013F0030650D03A46A2
:1025100059464846039B17F00BF90028C0F2528138
:102520000544039FF2E554F8043BDA17CDE90E3277
:10253000E8E70229E5D11AB243F3C033CDE90E230F
:10254000DFE7022B24D1CB1E042B04D8DFE803F0F5
:1025500018101018180001294FF0000254F8043B1D
:1025600014D00229CDE90E32CCD19BB20E93C9E72B
:10257000073424F00704F4E80223CDE90E23C1E771
:1025800054F8043B0E9300230F93BBE7DBB2CDE777
:10259000042B08D1073424F00704D4E900230834BD
:1025A000CDE90E23AEE7032BACD154F8043BDDE7B5
:1025B0009DF843007828B4D862281CD825283FF419
:1025C000ADAD5828ADD1DDE90E010DF13603009314
:1025D00010AA08AB17F066F8BAF1000F074680F2B0
:1025E0009980002F9DD00DF13603D81B002E00F0EE
:1025F000C0800130BDE06338152892D801A252F89E
:1026000020F000BFD9260000EB26000023250000A3
:10261000232500002325000023250000EB260000D1
:10262000232500002325000023250000232500008A
:10263000772700000F270000352700002325000022
:10264000232500005D260000232500000F27000041
:1026500023250000232500000F270000BAF1000FFA
:102660000E9F35DB5146384619F027FF07EB000A6D
:10267000002F3FF456AF00269DF8423013F01002B1
:10268000059200F0928002305B06119A48BF129BBF
:10269000104448BFC018B8F1000F049240F39F8067
:1026A0009DF84020A8EB0008C2F380035007069372
:1026B00000F19580510640F188803EB15946304680
:1026C000C84700287EDB069B01351E4630227DE090
:1026D000384619F0EBFEC9E70E9B002601208DF865
:1026E000203008AF0DF1210AC6E719075ABFC3F31E
:1026F00000135E012B26DDE90E23002BBFF663AF2E
:10270000524263EB43032D26CDE90E235BE70026FF
:1027100059E700269DF840200DF13603DB1B6FF3CF
:1027200086129A458DF840207FF65BAFAAEB030333
:10273000119356E70E9890B30DF1360300930021E4
:1027400008AB10AA16F0AEFFBDF84230BAF1000F88
:1027500003F0EF0343F4F04343F010030746ADF8F2
:102760004230D6DA00283FF4DCAE00260DF1360305
:10277000181A9A4680E70E9B07293FF6D2AEDFE88B
:1027800001F00C04060C08080C0C1D70C9E61D8035
:10279000C7E6EA17C3E90052C3E61D60C1E62F4F42
:1027A000064607F1050A052066E71A0748BF01300B
:1027B0006AE71046079306925946C847DDE90623A3
:1027C000002804DA15B0BDE8F08F202243461946F0
:1027D000002903F1FF33ECDC454498466D1A2EB115
:1027E00059463046C8470028ECDB01359DF8423099
:1027F000DA0601D41B0705D559463020C847002802
:10280000E0DB0135059B33B159469DF84300C847CD
:102810000028D7DB0135049E2E4405E059463020C0
:10282000C8470028CEDB0135731B002BF6DC53466E
:102830003A465946484616F07BFF0028C2DB05445D
:10284000A844A8EB0503002B7FF76BAE5946202068
:10285000C8470028B6DB0135F3E700BF9D3C020006
:1028600008B54FF02002EFF3118382F31288BFF313
:102870006F8F05F0C3FD034816F062FB04F0D4FF30
:10288000FCE700BFA33C020010B5094B094C00F067
:102890001F024009012818BF234603EB8203D3F827
:1028A000002222F0E04242EA0172C3F8002210BD89
:1028B000002884500025845070B54FF02003EFF3BA
:1028C000118683F31288BFF36F8F0124134B144DCD
:1028D000C3F8004502230321C5F8D0360020FFF7D6
:1028E000D3FF2046FFF7D0FF2146C5F8044721203B
:1028F000C5F80449C5F8004BFFF7C6FF2020FFF7D5
:10290000C3FF0B20FFF7C0FF0A20FFF7BDFF86F3D0
:102910001188BFF36F8F002070BD00BF0010005002
:102920000040005048B1054B054A1B68B3FBF2F369
:102930005843044B43F0010318477047E803002055
:1029400040420F00E01D0200062807D10122044B7F
:10295000C3F80025BFF34F8F20BFFDE7704700BFCE
:1029600000400050F0B583B000AF381D13F0D4FB29
:102970002A4B98424ED112F06DFD041E18DA3879B8
:1029800013F0D0FB264803685B073FD06D4688B044
:102990006A46244B5361244BC2E90634042342F8AF
:1029A000103F00234FF4015100F044FCAD462DE0F0
:1029B00040F607031D4D7C71AE68FB8074687B6830
:1029C00014B96FF05704DDE708212846184AA047DC
:1029D000041ED7DB3369002BF3D0012208212846DF
:1029E0009847041ECEDB01233D79124AAB40C2F862
:1029F00004357879FE791DF0F6F80F4B45F0004567
:102A0000B600C0F880509D51002CBBD120460C3739
:102A1000BD46F0BD6FF01204B4E700BF0000AD0B7F
:102A2000AC060020D03C0200FC3C0200E41702008F
:102A3000812A00000070015080A1025038B5049C2A
:102A4000C4F30725284612F065FB00210A4BA20BB0
:102A500002F0FC02C0F8801099500123E4B2074A4A
:102A6000A3402846C2F8083512F012FD2046BDE802
:102A7000384013F057BB00BF80A0025000700150D7
:102A8000F7B5144683681B690BB100229847C4F35D
:102A90000726304612F046FB054630461DF0A3F8E7
:102AA0000027104B220E9200C0F880709F503046D5
:102AB00012F030FBA20B0C4B02F0FC021344E2B20A
:102AC00042F000421A60094BC0F8802005F1320242
:102AD000009330463B46019452001DF08DF803B040
:102AE000F0BD00BF80A1025080A002503D2A00002E
:102AF00013F0BEB92DE9F047044607464FF001092F
:102B0000DFF8508014B93846BDE8F08794FAA4F590
:102B1000B5FA85F509FA05F32E0108EB05156FEAFC
:102B2000030A24EA03042B7B002BEBD058F8063071
:102B30001B694BB94644736804222846196807EAA2
:102B40000A0700F009FBDDE7284698470028D9D19D
:102B5000F0E700BFEC1B020030B5002289B00F493E
:102B60000F481EF0F7FB002200230024CDE90623C6
:102B70000E230C4DCDE903344FF440722846CDE9C5
:102B80000144094B0949009414F0B4FD0849284652
:102B900014F0EEFC204609B030BD00BFB52B00009C
:102BA000780E0020B8090020B52E0000E83900207A
:102BB00012410200014814F031BF00BF9807002005
:102BC0002DE9F04780461F480F4617F0D4F9064616
:102BD000002830D000252846BDE8F087237B73B15C
:102BE0002368DB680BB12046984723681B69D3B97B
:102BF000636804222046196800F0AEFA01361034EA
:102C00004C45EBD3B8F1000FE5D0002DE2D02846BB
:102C1000FFF770FF0546002FF7D000214FF4A47096
:102C200015F020FCF1E7204698470028E0D00AFA8A
:102C300006F31D43E2E705464FF0010A024CDFF8B8
:102C40000C90DDE714240020EC1B0200FC1B0200AA
:102C500008B5034608462BB1044A136000F05CFD3A
:102C6000002008BD6FF01500FBE700BFA0010020A9
:102C700010B5044C237813B9034814F0CFFE012398
:102C8000237010BDBC3800209807002010B5044602
:102C9000064817F070F93CB1054BD3E8EF1F013936
:102CA000C3E8E21F002AF8D110BD00BF0C240020A9
:102CB0001024002000200146034BD3E8EF0FC3E8A7
:102CC000E21F002AF9D170470C24002070B5FFF7ED
:102CD000F1FF0546074C084EB44200D370BD63684F
:102CE0005B792BB123685B6813B12946204698476E
:102CF0001034F1E7EC1B0200FC1B020010B5044C81
:102D00000449204616F087FE034B1C6010BD00BF2F
:102D1000D0050020501F02000424002008B5002325
:102D2000074A4FF400411370064A07481360FFF743
:102D30008FFFFFF7E3FFBDE8084000F07FB900BF59
:102D4000BD3800200C240020739F010001460022A2
:102D50000023014816F080BED0050020014816F07F
:102D600019BF00BFD0050020024B0146186816F0BD
:102D700061BF00BF04240020014816F08FBF00BFD0
:102D8000D0050020F8B5334B1878002860D0FFF745
:102D9000E5FF044670B1304BD3E8EF1F0139C3E8BB
:102DA000E21F002AF8D12D4D2D4EB5422DD32046DD
:102DB000FFF7DAFF2B4B2C4C1B68002B19DD1EF0A4
:102DC000A1FA4FF47A72A0FB020302FB0131C30B9C
:102DD00043EA4143D4E900209B1A40F2E9324FEA2A
:102DE000D13161EB0001934271F1000101D3FFF792
:102DF0006DFFD4E9003213F57A7342F10002C4E9A1
:102E00000032BDE8F840FFF7B7BF6B685B793BB1B4
:102E100021784B0706D52B68214628461B68984722
:102E20001035C2E72388626813F4E07FC3F382178A
:102E3000C1F3C201EFD0002AEDD00C4B2846D21AC4
:102E400042F38F02012300F0D3F9B842E8D3E2E75E
:102E5000F8BD00BFBC38002010240020EC1B02008D
:102E6000FC1B02000C240020700E00201406002021
:102E700070B50D4D297861B90120FFF7A1FE0B4C0B
:102E80000B4EB44206D3FFF77DFF0028FBD1012390
:102E90002B7070BD63685B791BB1236820469B680B
:102EA00098471034EDE700BFBD380020EC1B02004E
:102EB000FC1B020000212DE9F0470846FFF780FEC9
:102EC000044648B340F267684FF0000915F0E4FA91
:102ED0001A4B186030B11A4B1B68092B02DD1948D8
:102EE00014F09CFD0025184FDFF858A044B120468F
:102EF000FFF700FE044618B94FF0FF384FF0FF39D6
:102F0000FFF740FF064628B9B5B942464B46504642
:102F100014F0AAFD3546E9E74FF0FF384FF0FF39CE
:102F2000D4E72B689B691BB10022284611469847BD
:102F30001035BD42F5D3E8E7044DFAE70824002038
:102F40001024002098070020FC1B0200EC1B02004C
:102F500013B5184817F00FF8174B1B787BB14FF0DB
:102F60002003EFF3118483F31288BFF36F8FFFF711
:102F700009FF84F31188BFF36F8F02B010BD0F4BB0
:102F80001B68002BF9D050B9002200230C48CDE972
:102F900000234FF40042002315F0C0FCEDE70A289F
:102FA000EBD107481EF0E2F9064802B0BDE8104038
:102FB00014F034BD10240020BD3800200824002067
:102FC000780E00209807002010B5064B04461B68B9
:102FD00098472146A060044816F0BCFDBDE81040AB
:102FE000FFF7B6BFA0010020D005002008B50A46B3
:102FF0000146024816F05CFE002008BDD005002006
:103000000146014816F05FBED0050020024B034880
:10301000C01AC008704700BFAC1A0200EC1B0200C7
:10302000044A054B9B1AB1EBD30F34BF52F8310061
:1030300000207047AC1A0200EC1B020000210B4874
:103040000B4B30B51B1A0B4CDB080430994200D1F6
:1030500030BD10F83120256802F0070225F0070581
:103060002A4344F8042B0131F0E700BFAC1A0200F8
:10307000EC1B020014060020F8B506460024094F98
:10308000094DED1BED08AC4203D14FF0FF34204653
:10309000F8BD314657F8340019F018FA0028F6D078
:1030A0000134F0E7AC1A0200EC1B02002DE9F843F2
:1030B000884615461E4698B90446224FDFF8889088
:1030C00009E0384633462A464146FFF7EFFF84427F
:1030D00038BF044610374F45F3D32046BDE8F88388
:1030E0001A4B1B4AD21AB5EBD20F28D203EBC503F9
:1030F0001C79B44228BF344607214368154E1A791B
:1031000056F8253002EB4202914023EA010304F015
:10311000070101FA02F213430021032223FA02F00D
:1031200000F00700814202F1030238BF01461E2A67
:10313000F4D123F007030B4346F82530CDE70024F4
:10314000DAE700BFEC1B0200FC1B0200AC1A020015
:10315000EC1B0200140600202DE9F04104460E4647
:103160000025436810481746201A001101301871D5
:1031700063689A710D4B0E4AA3EB02084FEAD80818
:10318000454508D3012263681E6063685A71BDE833
:10319000F041FFF76DBD00212AB23B4620460135C4
:1031A000FFF784FFADB2EBE7EC1B0200EC1B020063
:1031B000AC1A020070B5436805465B791BB9002262
:1031C0006B685A7170BD0024074E084BF61AF6085A
:1031D000B442F4D2002322B2194628460134FFF744
:1031E00065FFA4B2F4E700BFEC1B0200AC1A0200BA
:1031F0000146184663B1002A14DB4B680A491B7963
:1032000051F8220003EB4303D84000F00700704759
:10321000064B0749C91AB2EBD10F04D203EBC20324
:10322000187970470420704714060020AC1A020079
:10323000EC1B02002DE9F04FC1F3CB448FB0C1F37A
:1032400049260D469046994605901734002E3CD0ED
:103250004FF0040B4FF00A0A002209AF31460BABC6
:103260004046CDF808B00197CDF800A0CDE90B227B
:103270000D920796FEF730FCC0F30903181920F0F1
:10328000070080081E4663F352250693FFF75EFD94
:10329000044678B10022069B10300B900C930D92DF
:1032A0004046CDE9017B0C4A0799CDF800A00BAB55
:1032B000FEF712FC66F352254B462A462046059936
:1032C0000FB0BDE8F04F16F088BE24F0070080086C
:1032D000FFF73CFD0446EDE7AF9F01002DE9F04FFD
:1032E00087B00446DDE9105ADDE912690F469346BE
:1032F0009846B6B31021334652460020CDF80090D0
:10330000CDF81490FEF714FA0146174B04F00704A9
:103310000BF0070BE40003EA412305F1170044EA30
:103320008B141C430844114B20F0070003EAC543EB
:1033300080081C430391FFF709FD054640B13EB1EB
:10334000334652460399CDF800901030FEF7F0F95D
:10335000434622463946284607B0BDE8F04F16F0EE
:103360003CBE3146D1E700BF00FE07000000F87FF9
:103370000EB403B503AB53F8042B01460448019384
:1033800016F052FE02B05DF804EB03B0704700BFC8
:1033900051A00100CA0605D48B064CBF024903495F
:1033A000FFF7E6BF704700BF7D420200D23D02003A
:1033B0002DE9F04F89B09B46DDE915769DF8483040
:1033C00004460493DDE913930593049B0D4606928E
:1033D000002B00F0878006F00803079316F0E5FD48
:1033E00006F0020A024600284BD020468549FFF726
:1033F000BFFF8046BAF1000F08D016F0440F42D14B
:103400002A4620468049FFF7B3FF804406F00103B7
:103410005BB17E4B049A204653F822207C4B7D49B9
:10342000002A08BF1A46FFF7A3FF06F00803002B87
:1034300055D0794B049A204653F822207749FFF75C
:1034400097FF0546069B2BB11A4620467449FFF7A5
:103450008FFF0544BBF1000F05D05A462046714945
:10346000FFF786FF05444544B9F1000F49D1002F0D
:103470004FD1F30700F1C08031462046FFF78AFFA5
:10348000B4E08046B6E7684B18680028BDD0674BAB
:103490004FF47A7E1B684FF46162B5FBF3F5B5FB20
:1034A000F0F300FB13550EFB05F5B3FBF2FAB5FB89
:1034B000F0FC3C2102FB1A3200FB1C55B2FBF1F37D
:1034C0000EFB05F5B5FBF0F501FB1322204600923B
:1034D000CDE901C552465649FFF74AFF95E706F088
:1034E0000805AFE7BBF1010F06D1B9F1000F64D1B8
:1034F000002F7BD000250CE0B9F1000FF8D04D482B
:103500005CE04D484B4622464C4915F0ACFC002F80
:1035100068D0DFF82C91DFF82CA1102F314620461F
:10352000B8464FF0000B28BF4FF01008FFF732FFEE
:103530005D4545DC059B514620461A78FFF718FF8C
:103540004FF0010B1BF0070F03D149462046FFF750
:103550000FFFD8453BD9059B5146204613F80B2059
:10356000FFF706FF0BF1010BBBF1100FEAD14FF093
:10357000000B20463449FFF7FBFE5A46059B2046C8
:103580009A5CA2F120015F2928BF2E222F49FFF764
:10359000EFFE0BF1010BBBF1100F1DD01BF0070F5D
:1035A00003D149462046FFF7E3FED8455A46E5D801
:1035B00049462046FFF7DCFEEBE71F48049DA1E7E4
:1035C00049462046FFF7D4FE0BF1010BB0E7204639
:1035D0001F49FFF7CDFEC5E7059BB7EB080743443E
:1035E00005939AD1049B002B7FF443AF204609B08A
:1035F000BDE8F04F16F01FBD2046054A0549FFF70C
:10360000B7FE39E7263D02002A3D0200641F020092
:10361000213D0200D0440200781F02004F3D02000D
:10362000553D0200593D02001C24002018240020B2
:10363000333D02007FA0010051A0010029A001003C
:10364000C88B02005E3D0200643D0200953B020013
:10365000C68B02002DE9F0410F884B6805460C46E9
:1036600090468E6886B0C7F382175BB1134A9B1AE7
:1036700043F38F0100291FDB2078C0F3C200FFF75E
:10368000CFFC0346214651F8102B6088C2F3492233
:10369000002A01EB020408BF0021C0F3CB00CDE9F2
:1036A0000308CDE901140022314628460097FFF7B0
:1036B0007FFE06B0BDE8F0810023E3E7140600209A
:1036C00042F20F7373B58B4228BF0B460568044660
:1036D000052168460D4A15F040FC064663682846F9
:1036E00004225B680A4916F092FC63683246694618
:1036F00028465B6816F08BFC6368172228465B68D7
:10370000044916F084FC02B070BD00BFF95C0200F1
:103710007E3D0200663D020000210123064A9042E0
:1037200006D8064A01B901231360054B186070479B
:10373000012140085B00F2E740420F0018240020FE
:103740001C24002000230428CB604B6098BF044B4E
:10375000044A98BF53F820308A600B60704700BF5E
:10376000D4200200801C02000023064A06488A601A
:10377000064ACB604B6082420B6000D3704793686F
:103780001032F8E758200200FC1B0200EC1B02007C
:103790000023064A10B50C46CB604B608A60014698
:1037A0001846FFF73DFC206010BD00BF801C0200E2
:1037B0002DE9F34105460E4C0E4E0F4FDFF83C80CD
:1037C000B44203D3002002B0BDE8F081636828460C
:1037D00059791B7900290CBF3A464246CDE90023AE
:1037E0000821A368064A16F017FE1034E8E700BF68
:1037F000EC1B0200FC1B0200AB3D0200A33D0200DB
:10380000B43D02002DE9F74F0D4604460020FFF7B6
:10381000FDFB6B6807465B7923B9032120461D4AEF
:1038200016F0FAFD082120461B4B1C4A16F0F4FD49
:10383000082120461A4A16F0EFFD4FF00008DFF885
:1038400064A00FFA88F6BE4208F1010803D30020F5
:1038500003B0BDE8F08F3246012300212846FFF770
:10386000C7FC00233246194681462846FFF7C0FCB4
:10387000834631460020FFF7D3FB5AF82B2003463E
:1038800001925AF82920082100922046064A16F093
:10389000C3FDD6E7D53D0200E73D0200F33D02003F
:1038A000113E0200E82002004E3E02002DE9F84FD2
:1038B00052F8048C064640469B468A46174618F046
:1038C000F5FD81460F4D104B9D4208D34346012123
:1038D00030460E4A16F0A0FD6FF007040CE04A4691
:1038E0004046A96818F0FEFD074B044638B93B4630
:1038F000524629463046D8472046BDE8F88F103555
:10390000E2E700BFEC1B0200FC1B0200623E02006B
:1039100008B5024BFFF7CAFF002008BD05380000BC
:10392000014BFFF7C3BF00BF9BA00100014BFFF796
:10393000BDBF00BFA3A00100014BFFF7B7BF00BF91
:10394000C93A0000014BFFF7B1BF00BFEFA0010073
:103950001FB5044602A901A8FFF748FB002804DAB6
:1039600001212046134A16F057FD08212046124A2D
:1039700016F052FD08212046019B104A16F04CFD1E
:1039800008212046029B0E4A16F046FD03A8FFF7C9
:1039900037FB002804DA082120460A4A16F03CFDCD
:1039A00020460821039B084A16F036FD002004B08B
:1039B00010BD00BF773E0200A83E0200D03E0200CC
:1039C000E53E0200023F02003A3F020010B5C36923
:1039D0009B681C792CB90121034A16F01DFD204675
:1039E00010BD0120FCE700BF543F02002DE9F04F5D
:1039F000074689469846154685B0B2BB1046FFF784
:103A000005FB0646D9F804305B7923B90321384613
:103A1000294A16F001FD0024DFF8A0B0B44221DAF3
:103A20003DB358F8243000200293FFF7EFFA00234B
:103A300082469A450CD0194600200393FFF7F0FA0E
:103A40004022029918F04EFD039B80B9002B2CDA1E
:103A500058F8243001213846194A013416F0DCFCAC
:103A6000A642DEDC05B0BDE8F08F1646CAE701339A
:103A7000DFE7A24600210E9B22B24846FFF716FB65
:103A80000E9B044683420DD095B951462846FFF758
:103A9000C7FA03465BF82420032100923846094AFE
:103AA00016F0BAFC0AF10104B8E7A2461C46E1E7A9
:103AB00058F82A30EEE700BF783F0200E820020005
:103AC000A33F02008D3F02002DE9F74F06468846CE
:103AD00091461D460027D3F804A0DFF844B0042225
:103AE00050465BF8041B18F0FDFC044658B1013742
:103AF000052FF4D1012130466B680A4A16F08CFC80
:103B00006FF0070408E041463046009705F10803CE
:103B1000A9F10202FFF76AFF204603B0BDE8F08F6B
:103B2000E8200200BD3F020013B5044613F06AFE10
:103B3000C0F307230193C0F3074300930821030E4A
:103B4000034A204616F068FC002002B010BD00BFFA
:103B50007841020038B504461DF0D4FB4FF47A7565
:103B6000A0FB052305FB0133D20B204642EA434369
:103B70000821024A16F050FC002038BD9141020095
:103B800010B5044611F0C2FC08210346074A20463E
:103B900016F042FC2046064A082116F03DFC21465C
:103BA000044813F0ADFC002010BD00BFA04102008E
:103BB000BF410200B93B0000F0B58FB004460D468E
:103BC000D0F8A0701DF06AF8064614F065FC244B8E
:103BD000244A002E08BF1E46234B0821844218BFEA
:103BE0001346CDE900462846204A16F015FCD4E9D4
:103BF0000A23CDE9022394F90E3028460093237B53
:103C000008211B4A16F008FC06A92022204613F0C2
:103C1000BFFC626E0346009208212846154A16F042
:103C2000FBFB204605A91DF049F8034630B10821E9
:103C30002846114A16F0F0FB0FB0F0BD6423059A38
:103C40002846B91A4B43B3FBF7F3CDE90021CDE980
:103C5000027308213B46094A16F0DEFBECE700BF81
:103C6000C9410200C88B02008B5A0200CC410200FD
:103C7000D8410200044202001B42020048420200F6
:103C8000002130B593B01C2204460BA80A9118F00D
:103C90006EFC1B4818F00AFCC0F1200001282CD94A
:103CA000174818F003FCC0F120020AAD2021284675
:103CB00018F05DFC2146134813F022FC09AA4FF4CA
:103CC000006111481CF0EEFF6423099A0195C2F5CA
:103CD00000614B43DB0A002506934FF40063204646
:103CE000CDE90413CDE902320821074B074A0095BC
:103CF00016F092FB284613B030BD0122D5E700BF75
:103D00007F420200013E000050590020864202001E
:103D100010B504461BF072FF08210346024A2046F4
:103D200016F07AFB002010BDCF4202002DE9F341CE
:103D30001746002304460A21B86801AA019316F029
:103D4000A3FD019DC6B255B12B4601212046144A60
:103D500016F062FB019D284602B0BDE8F081042EFA
:103D60000AD93346012120460E4A16F055FB20465B
:103D700016F05FFB0125EEE77868FFF77DF9B0F1FB
:103D8000000805DA012120467B68074A16F044FB4B
:103D90000021334608460FFA88F2FFF787F9DAE781
:103DA000E54202000C4302002343020013460022B6
:103DB00073B5044601920A21586801AA16F064FD01
:103DC000019D95B920EAE0744FF40046294640F27F
:103DD000E7304FF47A720023C4FB0601FCF7BCF90C
:103DE00014F040FB284602B070BD2B46012120464E
:103DF000024A16F011FB019DF4E700BF42430200A6
:103E0000F0B504460D46D0F8A06089B007A91CF0B3
:103E100055FF034630B1082128460F4A16F0FCFA38
:103E200009B0F0BD20461CF039FF6423079A0B4F00
:103E3000B11A4B43002818BF0746B3FBF6F3CDE990
:103E40000221CDE90463082123462846CDE9007606
:103E5000034A16F0E1FAE3E71B420200C9410200FF
:103E60006243020010B5034600680C46114608B1D3
:103E7000027822B92046024A04F0FCFC204610BD1C
:103E8000A044020010B50C68D1E90112FFF7EAFF67
:103E900008210346024A204616F0BEFA002010BD53
:103EA000A54402002DE9F0478AB0054601A813F0A9
:103EB00037F91823019E082103FB0066194A28469A
:103EC00016F0AAFADFF86080019CDFF86090DFF856
:103ED00060A0B44203D300200AB0BDE8F08705AF6C
:103EE000394614222046FFF7BDFF4246034608210B
:103EF000284616F091FA20461CF0E3FD0821002820
:103F00000CBF4B4653460B4A284616F085FA14233D
:103F10002046094902AACDE90257049318341CF03F
:103F2000DBFDD6E7C4440200CE440200BB440200DD
:103F3000B5440200D3440200853E00002DE9F04361
:103F400006460027104BDFF8449053F8214001311A
:103F500053F8218087B0A04503D8384607B0BDE8A4
:103F6000F08320461CF0ADFD054658B1142201A98E
:103F70002046FFF777FF4A4603460821304616F0F1
:103F80004BFA2F461834E6E75C220200DA440200BE
:103F900010B504460821254A16F03EFA00212046B5
:103FA000FFF7CCFF20B908212046214A16F034FA49
:103FB000082120461F4A16F02FFA01212046FFF75C
:103FC000BDFF20B908212046194A16F025FA08211C
:103FD0002046194A16F020FA02212046FFF7AEFFCC
:103FE00020B908212046124A16F016FA0821204668
:103FF000124A16F011FA03212046FFF79FFF20B95D
:10400000082120460A4A16F007FA082120460C4AE1
:1040100016F002FA04212046FFF790FF20B908218C
:104020002046034A16F0F8F9002010BDE0440200D3
:10403000E8440200F0440200FF4402000E45020082
:104040001C4502008B1E022B2DE9F04107468846D5
:10405000144637D810220021606818F064F9B8F1CE
:10406000020F064607D1202308213846244A16F0BD
:10407000D3F9336816E00A220021A06818F053F93A
:10408000C5B22B46082138461D4A16F0C5F9B8F1CD
:10409000040F1AD0102D0DD0202DEAD0082D0CD1F0
:1040A0003378DBB208213846164A16F0B5F90020FD
:1040B000BDE8F08133889BB2F4E708213846124A04
:1040C00016F0AAF96FF01500F2E710220021E0685F
:1040D00018F029F90821034604460C4A384616F020
:1040E0009BF9102D06D0202D07D0082DE5D1E4B284
:1040F0003470DCE7A4B23480D9E73460D7E700BF7E
:104100007B450200A645020090450200B74502002B
:1041100070B5104E04460D46337881B12BB10121A4
:10412000BDE870400C4A16F077B9012333700821BE
:1041300020460A4A16F070F90123337004E083F038
:1041400001033370002BF2D129462046BDE87040B0
:1041500016F084B9BE380020CB45020006460200A6
:1041600070B504463C480378182B02D10B78112B0C
:1041700031D00B46013A8D18AB4225D18B5C0A78C1
:104180000370A2F13003092B344C04D922F0200330
:10419000413B052B04D823683149CA5401332360BD
:1041A0002368022B34D1102200212D4818F0BBF8CF
:1041B0002C4A136803F8010B13602B4A1368013370
:1041C00013600023236023E013F8016B182ED3D172
:1041D0001E78112ED0D1244D08212B682046234A69
:1041E00016F01AF920460021FFF792FF204B1878AD
:1041F00070B9204A2B681168042B0ADC08B11160E1
:104200002B6013F003010BD1126813681BBA136003
:1042100070BD0868043B00BA41F8040B0120EBE7CD
:104220005B4203F0030358BF5942022904D11268CC
:1042300013885BBA9BB2EAE70329E9D110680268E8
:104240001104C2F3074301F47F010B4302F47F42E0
:1042500013430360DCE700BFBF38002020240020A8
:10426000C13800202C2400202424002030460200E5
:10427000C0380020282400202DE9F84F00230646EE
:1042800014460D462949DFF8A8800B602949DFF85C
:10429000A890DFF8A8B088F800300B60012D274601
:1042A00054F804AF1ED902224946504618F01AF9B4
:1042B00080B922689278003A18BF01229244504691
:1042C00002221F4918F00EF930B9012388F8003096
:1042D000013DE3E70022F1E74946504618F0F6F8C1
:1042E000A8B9043700227868114617F0A7FF00220A
:1042F000144B11461860786817F0A0FF124B134951
:1043000018603046FFF704FF0020BDE8F88F9AF8E8
:1043100000202D2AE6D19AF80120002AE2D0534647
:104320005A460821304616F077F8D1E720240020BD
:10433000C0380020242400204A46020050460200D3
:104340004D4602002C24002028240020614100005A
:104350002DE9F04F4FF0FF35914601220746884680
:1043600020262C46534BDFF850A185B01A604946F1
:1043700052464046FDF708F9411C07D16A1C4FD14F
:104380004E4A0121384616F047F81CE073281FD02A
:10439000772831D0612816D1DFF824B1102200210E
:1043A000DBF8000017F0BFFF05460028DFD112F050
:1043B000C5FE0368162BDAD1DBF80030414A012133
:1043C000384616F029F86FF0150005B0BDE8F08FFB
:1043D0000022DFF8ECB01146DBF8000017F0A3FF75
:1043E00004460028C3D112F0A9FE0368162BBED1E3
:1043F000DBF80030344AE2E70022DFF8C4B01146AF
:10440000DBF8000017F08FFF06460028AFD112F04E
:1044100095FE0368162BAAD1DBF800302B4ACEE7B5
:10442000631C01D12A4AACE75FFA86F8C6F3C406DA
:10443000002C3CD06B4629461A46A6EB050C0CE036
:10444000B8F1100F1DD0B8F1200F20D0B8F1080F2F
:104450002AD10878187031443344A64203D80CEBB3
:1044600001001028ECD9102CA14628BF4FF01009EC
:1044700029464B46384600F07FFF1035A4EB09046F
:10448000D6E7088880B21870000A5870E3E7086819
:104490004FEA102E187083F801E04FEA104E000E1C
:1044A00083F802E0D870D6E708210A4A6AE7204676
:1044B0008BE700BF940100209F460200A646020041
:1044C000F823002065460200784602008B46020071
:1044D000C34602009045020007B50A481CF0F1FAF5
:1044E00060B10423084A0093126801230549074874
:1044F00000F014FE002003B05DF804FB6FF0120022
:10450000F9E700BFB4170200C8220200FC1B02003A
:1045100010B5144642681068016011684C6011685B
:104520008B60136891681C680023C1E90233C1E9FC
:1045300005334B600B61D168C1E90233C1E9053332
:104540004B600B611168CB60A36823B19B6C13B106
:10455000204604499847A3689B6A0BB120469847B8
:10456000002010BD694500002DE9F04383B00446EA
:104570000D4600AF83685B6C03B19847A3685B6B23
:1045800003BB4FF00008E868391DC26915F0E7F871
:104590008146002837D0A36879689B6943B30246F7
:1045A00020469847064630B33146E86815F0F4F8DF
:1045B000B1454FF00108E6D02B680020D3E9012176
:1045C000904703E0204698470028DAD1A3685B6A49
:1045D000002B36D1A868391DC26915F011F90646BD
:1045E000002836D1204615F0CEFD2B68DE603BE07A
:1045F0006FF05706D8E70146E86815F0CDF8B8F136
:10460000000FE3D0D8E71D48036813F0060F0FD062
:104610006E4688B06A461A4B53611A4B9361032366
:1046200042F8103F4FF4C4514B46FEF703FEB54627
:10463000A3689B69002BE2D001222046F91C984711
:10464000DDE7204698470028C4D10C37BD46BDE8B9
:10465000F083A36879685B6963B102462046984796
:104660000146A86815F0E8F82B680120D3E901217C
:104670009047EAE76FF05701F3E700BFA406002078
:10468000294802004248020010B5044681680831FA
:1046900001F008F9A1682046BDE81040014A083140
:1046A00001F0A0B87E480200014915F0F8BD00BF36
:1046B0007D42020037B5044680680D46D0F864326A
:1046C0005A0705D5002115F02BFEE06816F041FDD4
:1046D000E368DB6873B9002D39D0A068423015F06B
:1046E000D8FDA368002834D003F1420103F5A1707E
:1046F00017F0B0FEA2682946E0680DF106034232C9
:1047000016F02AFD58B9A06800F5A171423017F0E3
:10471000A1FEA068423015F0BCFDADF806002046B1
:1047200016F0AEF9A368D3F860329B0603D50A49A8
:10473000606915F0B4FD204600F020FFA268BDF8C6
:1047400006302046D387A268938716F004F903B099
:1047500030BD83F84201CDE7501D0200022210B5A2
:10476000836804461A718268936BDBB982F8423021
:104770008268D387826893878368D3F86432DB04C6
:104780000BD50321084B094A16F029FAA0686FF4EB
:10479000805100F5197015F05BFD2046BDE8104012
:1047A00001F002B810BD00BF8C480200D0440200E6
:1047B0002DE9F04FA7B004465422002111A817F0AC
:1047C000D6FE0023CDE90533A36820464233029389
:1047D00016F05CF9204616F0A5F810B96069FFF7ED
:1047E00063FF00264FF0FF37B246B3463546B14669
:1047F000A06814220021083017F0B9FE204616F0F8
:104800000FF8A168E0688A8F423116F0DCFC204680
:1048100016F05BFD0DF144080396DDE90532012A2F
:104820006DD0132B6ED85FBBBBF1000F0AD02046B2
:1048300016F06CFD1423A26811A942320DEB03009F
:1048400015F079FEB9F1000F0CD099F81130FE2B5C
:1048500008D1059B26AA02EB830252F8542C0AB118
:1048600001330593A068059D4369002B40F0B68095
:10487000CEB1C3689E422DD00D9600F1080524E00C
:1048800002234146029A06A815F055FED8F80420E6
:1048900006990346029231B101290AD148B16F4A03
:1048A000204616F09CF96FF00705284627B0BDE8B2
:1048B000F08F059B002B34D0D8F8000001F016F8DB
:1048C00098B166B1A5680D9608350CAE0FCE0FC530
:1048D00033682B602046FFF7D7FE0125E5E7604AE5
:1048E0000121204616F07BF9DDE7059BCBB1294677
:1048F0002046D8F8002001F091F9022809D1059B43
:10490000132B91D9069B022B8ED10121554B564A70
:10491000C6E7032805D0059B4FF0010B0133059333
:104920007BE7039B33B94846D8F8001007AA15F077
:10493000F8FE054608F10408013F9DB3EB68BBF1A2
:10494000000F08D0F3B1204616F0A0F8204616F06C
:1049500002F8464AC4E7ABB1AE46A368DDF814A03E
:1049600003F1080CBEE80F00ACE80F00DEF80030E1
:10497000CCF80030AB682BB96B7CFE2B04BF2F7CCE
:1049800007F1FF37D5F804C0BCF1000F08D0AE46E0
:104990000CAEBEE80F000FC6DEF80030336066468E
:1049A000A94603E0059B53B101230393069B17B966
:1049B000022B7FF432AF059B013305932DE7A368EB
:1049C000DB6913B1DB68002BEED1294B0121009389
:1049D0002046119B274A16F002F9E5E7037EA5EB76
:1049E0000A05B3B14FF6FF72417EFF2918BF0A4690
:1049F0009D4202D313449D420BD983680121204676
:104A00001D4A16F0ECF82046FFF73EFE6FF0150544
:104A10004BE74FF4006100F5197015F00EFCA0682B
:104A200000F53E7015F095FCA36811AA294602EB2B
:104A30008A0220465B6998470546A0684FF0FF321E
:104A40004FF0FF3300F53E7015F036FCA0686FF4B0
:104A5000006100F5197015F0FBFB26E7D048020055
:104A6000E448020045490200DC4402000249020019
:104A700031490200DF4B0200694902002DE9F04F85
:104A8000044680680121B1B000F5197015F0D5FB1E
:104A9000A3681B79022B17D100230993A3686068D0
:104AA0009E6B03681D6909ABC6B110221BA9A847FC
:104AB000099A4AB120461BA9B047A3689B6B002BFB
:104AC000ECD12046FFF74AFE6FF00101A06800F527
:104AD000197031B0BDE8F04F15F0BABB01220DF1ED
:104AE0002301A847099B002BEED09DF923209DF8B8
:104AF0002310002AA368D1DB5A79032A00F294829A
:104B0000DFE812F004008102980292020D297BD0A6
:104B10000A2959D0B3F8642209296FF3CA02A3F80D
:104B20006422A06800F083803ED80029B6D008290E
:104B300000F0F3810346D3F860229207AED5013925
:104B40001629ABD801A252F821F000BFD5500000C1
:104B5000554F00005D4F00004D4F0000C950000050
:104B60007B4F00009D4A00009D4A00009D4A0000C6
:104B70009D4A0000834F00008B4F00009D4A0000BB
:104B8000B54F00009D4A0000BF4F00009D4A000045
:104B90009D4A00009D4A00009D4A0000C34F00004E
:104BA0009D4A0000F74F00001B293DD07F2900F0EF
:104BB000C081A1F120025E2A0346BCD8012115F074
:104BC000AFFB9DF82310E4E0D3F86422C2F3C702E0
:104BD0002AB1D3F86422C2F3C7020A2AABD1B3F8D0
:104BE000642261F3CA02A3F86422A068818FB9B974
:104BF00015F096FBE06816F0ACFA6069FFF754FD1B
:104C00002046FFF7ABFD49E7D3F86422C2F3C702A1
:104C1000002AE4D0D3F86422C2F3C7020D2ADDE7EC
:104C20002046FFF7C5FDEBE70123437136E7D0F8D7
:104C300060329B077FF532AF012115F071FBA06850
:104C4000838FFF2B3FF42AAF0025C28F00F1420172
:104C500000F5A17017F080FCA3681BA9DA8F0BA8E0
:104C6000134483F84251A268142302F5A17215F08F
:104C700062FC0B9914293FF611AF30AB03EB8103B3
:104C800043F8545CA368DA8F134493F84130202B27
:104C900002D0093B042B46D8002947D100250A95AC
:104CA00000260A9B30AA02EB830353F854ACB346A8
:104CB000504615F0EEFAB04637460290394628467F
:104CC00016AA00F0E3FB814600283BD1012E64D1F7
:104CD0000A9B30AA02EB830353F8540C15F0D9FA5F
:104CE000A268064641462846083200F0CFFB05463A
:104CF000006815F0CEFA864206D02968821B92B26F
:104D00002046314415F0ABFFA068C38F034493F8ED
:104D10004230202B02D0093B042B29D80121204608
:104D200015F04CFEBAE60129B8D9013900200CABC8
:104D3000009301900AAB1BAA15F013FD054600284D
:104D4000AED1ABE65146029AD9F8000017F0CAFB83
:104D500060B9D9F8000017F0A9FB584538BF58468C
:104D6000002E08BFB8461FFA80FB01360137A5E7C1
:104D7000D0F86032DF070BD5002115F0DBFA2021D7
:104D8000204600F0DBFC0121A06815F0D3FA85E68F
:104D90002021204600F0D2FC80E67FF67FAE0A9A02
:104DA00030AB03EB820252F8543CC24618460293E1
:104DB00015F06FFAA2680490A2F830900396A268EA
:104DC00051462846083200F061FB029B07460AF173
:104DD000010A002B50D13B68002B57D1A2681386E3
:104DE000039B013B0393EAD16069FFF75DFC20461A
:104DF00000F0DAFC0A9B30AA02EB830353F8540C50
:104E000015F047FA414611AA8146284600F03EFBBC
:104E10000746A0683968FF2200F5A17017F024FB4F
:104E20003B684FF6FF7708F1010AB84602935146F6
:104E3000284616AA0AF1010B00F028FB002860D0D2
:104E40000022A168036801F2411111F801EF985C9A
:104E5000704503D110B101324245F6D1B9F1000FCE
:104E600001D04A4506DBBA42A8BF3A46013E012EB0
:104E700097B246D0DA46DAE700680028ABD0049A49
:104E8000029917F02FFB0028A5D098E79D480693BC
:104E900015F0FFF9A16800EB0B0292B299484F8D13
:104EA000079215F0F6F9069B0590184615F0F1F9F2
:104EB000059B079AFF1A97FBF2F7A168A2EB00097E
:104EC000088EBFB2B0FBF7F200F1010E07FB120033
:104ED00080B2069B1FFA89F9A1F830E058B9009317
:104EE00006212046874B884A15F079FE4946204620
:104EF00000F02EFB74E706212046844A15F06FFE71
:104F0000F4E7002F3FF4CAAD0299A7EB090220464F
:104F100092B2494415F0A3FEC0E5D0F860329E0776
:104F20007FF5BCAD012115F0FBF9204615F0B4FE6C
:104F3000B4E5D0F860329D077FF5B0AD012115F0E2
:104F4000EFF9A368D3F860321907EED4204615F0C4
:104F500088FEA3E5204615F0A0FD9FE5204615F04C
:104F600095FD204615F0DEFC10B96069FFF79CFB4B
:104F70000121A06815F0D4F942E6204615F095FD10
:104F80008CE5204615F09AFD88E5D3F860329B0643
:104F900003D55F49606915F082F9A368D3F86032E0
:104FA0009F0603D55B49606915F079F9204600F04A
:104FB000FBFB73E500212046FFF77CFB6EE501213A
:104FC000F9E7204615F05CFD0023A268012182F874
:104FD0004230A268D387A2689387A06815F0A0F931
:104FE000A368D3F860329E067FF558AD4A496069E0
:104FF00015F055F952E5204600F006FB0121A068A6
:1050000015F08EF94AE55B2902D102225A7145E575
:10501000D3F860329D0706D5622907D14FF0FF31E2
:10502000204615F0EFFCA3680022EFE76629FAD1CD
:105030000121F5E700225A71A268D2F86032980780
:105040007FF52CADA1F131031B2B3FF627AD01A15C
:1050500051F823F0D1500000DD500000F150000065
:10506000C55000009D4A00009D4A00009D4A000076
:105070009D4A00009D4A00009D4A00009D4A000094
:105080009D4A00009D4A00009D4A00009D4A000084
:105090009D4A0000BF4F0000B54F00007B4F00004D
:1050A000554F00009D4A0000C95000009D4A000075
:1050B000D55000009D4A00009D4A00009D4A000016
:1050C000E150000003235371204615F0DFFCE5E4B6
:1050D00003235371204615F0D3FCDFE403235371FF
:1050E000A068D0F8601201F0010181F001014CE6E6
:1050F00003235371A368D3F860329B077FF5CEACCE
:1051000024E700BFC78B020084490200D04402009C
:10511000551D02005A1D0200501D02002DE9F043EA
:10512000044680688846D0F80C1315461F4689B09F
:10513000002966D14FF4447217F019FAA368226867
:105140001A60E06816F0A7F8A06800F53E701BF042
:10515000C9FD4FF42A794FF41A76A06830441CF048
:1051600070FAA068002283190121484410361CF00F
:105170004BFAB6F52A7F09F11409EED10026A3698E
:1051800002211E60A06866F3820500F5197015F013
:1051900054F85022A3685A851822A3681A85A36878
:1051A000186815F076F8A368414683F82C00A368C8
:1051B000154AC3F86052606803681D682346A84713
:1051C0000546D0B90122A3681A71D4E90A01002268
:1051D0000023CDE906230E230393109B4FF40062B6
:1051E000CDE901730495094B009412F083FAA3688A
:1051F000C3F80C03616A12F0BBF9284609B0BDE898
:10520000F0836FF07705F8E7BDA20100655200005A
:1052100010B5044680680379012B1DD14FF0FF3291
:105220004FF0FF3300F53E7015F046F82046082198
:1052300000F0ACF9206815F02CF818B10849606945
:1052400015F02DF82046FFF789FAA06800F53E70AA
:1052500015F07FF8002010BD6FF08500FBE700BF60
:105260007C4202002DE9F041044640680E46036886
:1052700000219B681546984700284CD126B12A4644
:105280002146E06915F0F2FD2046FFF7C1FF002836
:1052900041D1224E224FDFF88C80A06800F52A70A1
:1052A0004FF0FF324FF0FF33032113F083FB05462D
:1052B000A0684FF0FF324FF0FF3300F53E7075B13C
:1052C00014F0FAFF20462B460121174A15F087FCFF
:1052D000A068BDE8F04100F53E7015F03AB814F052
:1052E000EBFF32460221204614F0BDFF3A46294624
:1052F000204614F0B8FF20464246012114F0B3FFC7
:10530000606803685B6903B19847A06800F53E7068
:1053100015F01FF8C1E7BDE8F08100BFD1A2010080
:105320007D4A000057A301008A49020010B50446D7
:1053300008210C4A15F070F8204608210A4A15F099
:105340006BF820460821094A15F066F82046082126
:10535000074A15F061F820460021064A00F042FA9B
:10536000002010BDA1490200DF4902003E4A0200B0
:10537000924A02002C4B0200F8B51E4617460B4617
:105380002F4A0821044615F047F86EB3082120463D
:105390003B782C4A15F040F801256A0704D1082112
:1053A0002046294A15F038F8AE4223D90821204674
:1053B0007B5D244A15F030F80135102DEDD1082120
:1053C0002046224A15F028F8D6B9082120461E4A60
:1053D00015F022F80125AE422B4613D808212046AD
:1053E000194A15F019F818E008212046184A15F056
:1053F00013F8012508212046154A15F00DF8DBE7C2
:1054000000252B46FB5C0821A3F120025F2A28BF60
:105410002E2320460F4A14F0FFFF0135102D07D030
:105420006B07D8D108212046074A14F0F5FFD2E7D0
:105430002046BDE8F8400821074A14F0EDBF00BF40
:10544000424B02005E3D0200C88B0200643D020038
:10545000C68B0200953B0200494B02001346002216
:1054600013B5044600920A4601460748FCF746FE7B
:1054700023691B792BB1204602B0BDE8104014F01F
:10548000F0BF02B010BD00BF7BA4010038B50B46D1
:10549000154648B91449154A521AB3EB920F05D272
:1054A00051F82350284638BD84680CB90025F9E727
:1054B0000F4A94420AD30F4A944207D2184629460B
:1054C000226890472B68002BECD1EFE70A4A944200
:1054D00002D30A4A944205D3246814225343E518A0
:1054E000E358F0E70133F8E72C1C0200641C0200CB
:1054F000781C0200841C0200641C0200781C02005C
:105500008368D3F860329B0603D50249406915F0E1
:10551000E8B97047601D0200014915F0E2B900BF0B
:105520007D4202000A1E0DDC0ED042238168D1F8B4
:105530006012890608D5002A04494069B8BF524262
:1055400015F0CFB94123F1E7704700BF654B02006A
:105550000A1E0DDC0ED044238168D1F86012890642
:1055600008D5002A04494069B8BF524215F0B9B9BC
:105570004323F1E7704700BF654B02008268024990
:105580004069423215F0ADB9D044020008290A46FC
:1055900017D8836893F82E10914212D083F82E20EA
:1055A0008368082AD3F8603205D0990609D50549E1
:1055B000406915F096B99B0603D50349406915F07B
:1055C00090B970476C4B0200651D020038B50D465E
:1055D00009780446FFF7DAFF6A78072A11D8A3682A
:1055E00093F82F1091420CD083F82F20A368D3F8A2
:1055F00060329B0605D560690249BDE8384015F068
:1056000070B938BD754B0200F8B5836804469A8FAF
:10561000D98F002A50D000294ED0413103F14205E4
:105620000B441846A84206D3014611F80169202E02
:1056300039D0A84239D286B29DB2AB1B9BB2591C5D
:10564000471CD21A0144384616F06FFFA268711B3E
:10565000938F204613FA81F39387A36809B29A8F38
:105660001344002283F8422015F0A8F9A368D3F868
:1056700060329A0603D51149606915F032F93B464C
:10568000082120460E4A15F0AAFA2046FFF738FFF7
:10569000A368D3F860329B060ED560690949BDE85E
:1056A000F84015F01EB90846BCE7014611F801693B
:1056B000202EC0D00846BCE7F8BD00BF6A1D02001E
:1056C000D04402006E1D02002DE9F04104460D4653
:1056D00017460AB1FFF714FFA368DA8FD3F86012F8
:1056E000423213444A071FD5184616F0DFFE06461D
:1056F000DFF8408096B9A36820469A8FDA8715F0C4
:10570000FDF820B107B115B16069FFF705FF6942E7
:105710002046BDE8F04109B215F050B94146606934
:1057200015F0DFF8013EE5E708212046024A15F0B2
:1057300056FAE0E78B5A0200D044020013B58368A2
:105740008DF80710D3F860220446D00722D5D98FF0
:105750009A8F8A421ED0481C9DF80720D8870B4498
:1057600083F84220A368D3F86012890710D5D3F8D4
:105770006032606913F0040F18BF2A22094915F03E
:10578000B0F8204615F0CEF810B16069FFF7C4FEFE
:1057900002B010BD012220460DF1070115F02CFAD0
:1057A000F6E700BF953B020010B50446836802216E
:1057B0001B68084A15F013FAA368D3F860329B07F8
:1057C00007D52046FFF7DAFE2046BDE8104015F069
:1057D000D2B810BDD0440200014915F0CCBB00BFC7
:1057E0007D4202002DE9F04F0E4600210446174687
:1057F0000D468BB0304605AA01F10108FFF746FEC1
:10580000A0B985B127B13A460821204615F0E7F93D
:105810000021214FDFF884B0304605AA01F1010ACA
:10582000FFF734FE60B90BB0BDE8F08F006810B12F
:1058300016F03CFE80B2854238BF05464146D9E7A6
:105840000368D0F804903846039316F02FFE039BAC
:1058500080467BB11A786AB1CDE9005308213B46F6
:1058600020460F4A15F0BBF9B9F1000F04D1606969
:10587000FFF7B2FF5146CFE75A4620463B46082184
:1058800015F0ADF96A1C02EB48024946204692B277
:1058900015F07EFBEEE700BF974B0200854B020040
:1058A0007E4B0200F7B5064608680D46B8B116F003
:1058B000FDFD84B20B4F384616F0F8FD0097044406
:1058C000082130462B68084AA4B215F088F9224610
:1058D0003046696803B0BDE8F04015F059BB044696
:1058E000E8E700BF934B02008549020010B5074965
:1058F000044616F0EBFD38B12046054916F0E6FDEA
:10590000B0FA80F0400910BD0120FCE7894B02008D
:105910008C4B020010B583680446D3F860329B06B6
:1059200003D50649406915F0A7FB5022A368002063
:105930005A851822A3681A8510BD00BF721D020087
:1059400008B5836908211B68024A14F065FD002030
:1059500008BD00BF9A4B02002DE9F3410E4A082111
:10596000054614F059FD00230C4C0D4EDFF8348031
:10597000B44203F1010703D3002002B0BDE8F08177
:10598000A2689BB21268082100922846424614F091
:1059900043FD30343B46EBE7AA4B0200FC1B020000
:1059A0002C1C0200C24B02007FB5044600250E4E9F
:1059B000A2680DF10E030121E06802F5A17215F055
:1059C000CBFBBDF80E00A36850B103F5A1730093A3
:1059D00032462B460821204614F01EFD0135E7E72C
:1059E00083F8420104B070BDCE4B0200022907B516
:1059F0000DD15368012101930C4B009313680C4A9D
:105A000014F00AFD6FF0150003B05DF804FB836825
:105A1000084AD3F86032082113F0020F064B08BF82
:105A20001346064A14F0F8FC0020EDE7E54B0200AF
:105A3000DC4B0200D84B02003A440200FA4B020051
:105A400010B583680446D3F860329A0603D5074937
:105A5000406915F011FBA368D3F860329B0603D5AB
:105A60000349606915F008FB002010BD791D020094
:105A70007E1D0200F0B50129044685B00CD05368A4
:105A8000012101935F4B009313685F4A14F0C4FC3B
:105A90006FF0150005B0F0BD8368D3F86032990649
:105AA00003D55A49406915F0E7FA00256FF0F9016E
:105AB0002046FFF737FDFA212046FFF749FDA06891
:105AC0004FF48072294600F5A1708DF80B5016F046
:105AD0004EFD4F49606915F0CFFA606914F0C1FCC2
