:020000040000FA
:100000008864012059BE000037A305002DBE000002
:100010002DBE00002DBE00002DBE00002DBE000034
:1000200000000000000000000000000059B70000C0
:100030002DBE000000000000FDB600002DBE000037
:10004000D9B70000D9B70000D9B70000D9B7000070
:10005000D9B70000D9B70000D9B70000D9B7000060
:10006000D9B70000D9B70000D9B70000D9B7000050
:10007000D9B70000D9B70000D9B70000D9B7000040
:10008000D9B70000D9B70000D9B70000D9B7000030
:10009000D9B70000D9B70000D9B70000D9B7000020
:1000A000D9B70000D9B70000D9B70000D9B7000010
:1000B000D9B70000D9B70000D9B70000D9B7000000
:1000C000D9B70000D9B70000D9B70000D9B70000F0
:1000D000D9B70000D9B70000D9B70000D9B70000E0
:1000E000D9B70000D9B70000D9B70000D9B70000D0
:1000F000D9B70000D9B70000D9B70000D9B70000C0
:10010000D9B70000D9B70000D9B70000D9B70000AF
:10011000D9B70000D9B70000D9B70000D9B700009F
:10012000D9B70000D9B70000D9B70000D9B700008F
:10013000D9B70000D9B70000D9B70000D9B700007F
:10014000D9B70000D9B70000D9B70000D9B700006F
:10015000D9B70000FFFFFFFF81F0004102E000BFC0
:1001600083F0004330B54FEA41044FEA430594EA77
:10017000050F08BF90EA020F1FBF54EA000C55EAB2
:10018000020C7FEA645C7FEA655C00F0E2804FEA83
:100190005454D4EB5555B8BF6D420CDD2C4480EA65
:1001A000020281EA030382EA000083EA010180EA95
:1001B000020281EA0303362D88BF30BD11F0004FE3
:1001C0004FEA01314FF4801C4CEA113102D0404219
:1001D00061EB410113F0004F4FEA03334CEA133354
:1001E00002D0524263EB430394EA050F00F0A7806C
:1001F000A4F10104D5F1200E0DDB02FA0EFC22FA67
:1002000005F2801841F1000103FA0EF2801843FA5A
:1002100005F359410EE0A5F120050EF1200E012A4B
:1002200003FA0EFC28BF4CF0020C43FA05F3C01889
:1002300051EBE37101F0004507D54FF0000EDCF102
:10024000000C7EEB00006EEB0101B1F5801F1BD3AB
:10025000B1F5001F0CD349085FEA30004FEA3C0CAF
:1002600004F101044FEA445212F5800F80F09A80A5
:10027000BCF1004F08BF5FEA500C50F1000041EBA9
:10028000045141EA050130BD5FEA4C0C404141EBAD
:100290000101013C28BFB1F5801FE9D291F0000FA8
:1002A00004BF01460020B1FA81F308BF2033A3F157
:1002B0000B03B3F120020CDA0C3208DD02F1140C4E
:1002C000C2F10C0201FA0CF021FA02F10CE002F189
:1002D0001402D8BFC2F1200C01FA02F120FA0CFC82
:1002E000DCBF41EA0C019040E41AA2BF01EB0451CB
:1002F000294330BD6FEA04041F3C1CDA0C340EDCC9
:1003000004F11404C4F1200220FA04F001FA02F30B
:1003100040EA030021FA04F345EA030130BDC4F1C9
:100320000C04C4F1200220FA02F001FA04F340EABE
:100330000300294630BD21FA04F0294630BD94F06F
:10034000000F83F4801306BF81F480110134013D56
:100350004EE77FEA645C18BF7FEA655C29D094EAC7
:10036000050F08BF90EA020F05D054EA000C04BF45
:100370001946104630BD91EA030F1EBF0021002030
:1003800030BD5FEA545C05D14000494128BF41F0CF
:10039000004130BD14F580043CBF01F5801130BD33
:1003A00001F0004545F0FE4141F470014FF00000BE
:1003B00030BD7FEA645C1ABF194610467FEA655C6F
:1003C0001CBF0B46024650EA013406BF52EA033511
:1003D00091EA030F41F4002130BD00BF90F0000FFF
:1003E00004BF0021704730B54FF4806404F132043B
:1003F0004FF000054FF0000150E700BF90F0000FF4
:1004000004BF0021704730B54FF4806404F132041A
:1004100010F0004548BF40424FF000013EE700BFEA
:1004200042004FEAE2014FEA31014FEA02701FBF7A
:1004300012F07F4393F07F4F81F06051704732F0AC
:100440007F4208BF704793F07F4F04BF41F4002103
:10045000704730B54FF4607401F0004521F0004161
:100460001CE700BF50EA010208BF704730B54FF0EB
:1004700000050AE050EA010208BF704730B511F0EC
:10048000004502D5404261EB41014FF4806404F124
:1004900032045FEA915C3FF4D8AE4FF003025FEAAA
:1004A000DC0C18BF03325FEADC0C18BF033202EB2E
:1004B000DC02C2F1200300FA03FC20FA02F001FA88
:1004C00003FE40EA0E0021FA02F11444BDE600BF2B
:1004D00070B54FF0FF0C4CF4E06C1CEA11541DBFDA
:1004E0001CEA135594EA0C0F95EA0C0F00F0DEF8A5
:1004F0002C4481EA030621EA4C5123EA4C5350EA8A
:10050000013518BF52EA033541F4801143F48013DA
:1005100038D0A0FB02CE4FF00005E1FB02E506F06B
:100520000042E0FB03E54FF00006E1FB03569CF0C0
:10053000000F18BF4EF0010EA4F1FF04B6F5007FC6
:1005400064F5407404D25FEA4E0E6D4146EB060638
:1005500042EAC62141EA55514FEAC52040EA5E50C1
:100560004FEACE2EB4F1FD0C88BFBCF5E06F1ED86B
:10057000BEF1004F08BF5FEA500E50F1000041EBA2
:10058000045170BD06F0004646EA010140EA02004F
:1005900081EA0301B4EB5C04C2BFD4EB0C0541EA71
:1005A000045170BD41F480114FF0000E013C00F386
:1005B000AB8014F1360FDEBF002001F0004170BDAA
:1005C000C4F10004203C35DA0C341BDC04F11404C3
:1005D000C4F1200500FA05F320FA04F001FA05F24F
:1005E00040EA020001F0004221F0004110EBD3701C
:1005F00021FA04F642EB06015EEA430E08BF20EA48
:10060000D37070BDC4F10C04C4F1200500FA04F3EA
:1006100020FA05F001FA04F240EA020001F000417C
:1006200010EBD37041F100015EEA430E08BF20EAEF
:10063000D37070BDC4F1200500FA05F24EEA020E37
:1006400020FA04F301FA05F243EA020321FA04F066
:1006500001F0004121FA04F220EA020000EBD3701D
:100660005EEA430E08BF20EAD37070BD94F0000F1D
:100670000FD101F00046400041EB010111F4801F51
:1006800008BF013CF7D041EA060195F0000F18BF02
:10069000704703F00046520043EB030313F4801F3E
:1006A00008BF013DF7D043EA0603704794EA0C0FF8
:1006B0000CEA135518BF95EA0C0F0CD050EA41060E
:1006C00018BF52EA4306D1D181EA030101F000418B
:1006D0004FF0000070BD50EA410606BF10461946B3
:1006E00052EA430619D094EA0C0F02D150EA0136BF
:1006F00013D195EA0C0F05D152EA03361CBF104600
:1007000019460AD181EA030101F0004141F0FE419E
:1007100041F470014FF0000070BD41F0FE4141F422
:10072000780170BD70B54FF0FF0C4CF4E06C1CEA22
:1007300011541DBF1CEA135594EA0C0F95EA0C0FD7
:1007400000F0A7F8A4EB050481EA030E52EA033592
:100750004FEA013100F088804FEA03334FF08055B3
:1007600045EA131343EA12634FEA022245EA1115E0
:1007700045EA10654FEA00260EF000419D4208BF91
:10078000964244F1FD0404F5407402D25B084FEA3E
:100790003202B61A65EB03055B084FEA32024FF4EA
:1007A00080104FF4002CB6EB020E75EB030E22BF47
:1007B000B61A754640EA0C005B084FEA3202B6EB07
:1007C000020E75EB030E22BFB61A754640EA5C00B6
:1007D0005B084FEA3202B6EB020E75EB030E22BF46
:1007E000B61A754640EA9C005B084FEA3202B6EB47
:1007F000020E75EB030E22BFB61A754640EADC0006
:1008000055EA060E18D04FEA051545EA16754FEA67
:1008100006164FEAC30343EA52734FEAC2025FEA85
:100820001C1CC0D111F4801F0BD141EA00014FF014
:1008300000004FF0004CB6E711F4801F04BF0143E5
:100840000020B4F1FD0C88BFBCF5E06F3FF6AFAE01
:10085000B5EB030C04BFB6EB020C5FEA500C50F191
:10086000000041EB045170BD0EF0004E4EEA113114
:1008700014EB5C04C2BFD4EB0C0541EA045170BD1B
:1008800041F480114FF0000E013C90E645EA060E5F
:100890008DE60CEA135594EA0C0F08BF95EA0C0F8D
:1008A0003FF43BAF94EA0C0F0AD150EA01347FF4D5
:1008B00034AF95EA0C0F7FF425AF104619462CE7AC
:1008C00095EA0C0F06D152EA03353FF4FDAE10460F
:1008D000194622E750EA410618BF52EA43067FF460
:1008E000C5AE50EA41047FF40DAF52EA43057FF4F0
:1008F000EBAE12E74FF0FF3C06E000BF4FF0010CFB
:1009000002E000BF4FF0010C4DF804CD4FEA410C5E
:100910007FEA6C5C4FEA430C18BF7FEA6C5C1BD02B
:1009200001B050EA410C0CBF52EA430C91EA030FAC
:1009300002BF90EA020F0020704710F1000F91EA09
:10094000030F58BF994208BF90422CBFD8176FEAD7
:10095000E37040F0010070474FEA410C7FEA6C5CA5
:1009600002D150EA013C07D14FEA430C7FEA6C5CAC
:10097000D6D152EA033CD3D05DF8040B704700BFD8
:100980008446104662468C461946634600E000BF26
:1009900001B5FFF7B7FF002848BF10F1000F01BDF8
:1009A0004DF808EDFFF7F4FF0CBF012000205DF8C3
:1009B00008FB00BF4DF808EDFFF7EAFF34BF012048
:1009C00000205DF808FB00BF4DF808EDFFF7E0FFE1
:1009D00094BF012000205DF808FB00BF4DF808ED32
:1009E000FFF7CEFF94BF012000205DF808FB00BF99
:1009F0004DF808EDFFF7C4FF34BF012000205DF87B
:100A000008FB00BF4A0011D212F5001211D20DD519
:100A10006FF47873B3EB62520ED44FEAC12343F004
:100A2000004343EA505323FA02F070474FF00000AE
:100A3000704750EA013002D14FF0FF3070474FF05D
:100A4000000070474FEA4102B2F1E04324BFB3F522
:100A5000001CDCF1FE5C0DD901F0004C4FEAC00235
:100A60004CEA5070B2F1004F40EB830008BF20F019
:100A70000100704711F0804F21D113F13872BCBFD3
:100A800001F00040704741F480114FEA5252C2F128
:100A90001802C2F1200C10FA0CF320FA02F018BF71
:100AA00040F001004FEAC1234FEAD32303FA0CFCC4
:100AB00040EA0C0023FA02F34FEA4303CCE77FEA53
:100AC000625307D150EA01331EBF4FF0FE4040F49D
:100AD0004000704701F0004040F0FE4040F400004C
:100AE000704700BF7BB972B90029BEBF00204FF02C
:100AF000004106E008BF00281CBF6FF000414FF026
:100B0000FF3000F075B8ADF1080C6DE904CE002996
:100B100009DB002B1ADB01F0B4F8DDF804E0DDE9B5
:100B2000022304B07047404261EB4101002B1BDB04
:100B300001F0A7F8DDF804E0DDE9022304B040424B
:100B400061EB4101524263EB43037047524263EB56
:100B5000430301F096F8DDF804E0DDE9022304B078
:100B6000404261EB41017047524263EB430301F0A5
:100B700088F8DDF804E0DDE9022304B0524263EBBB
:100B80004303704753B94AB9002908BF00281CBF66
:100B90004FF0FF314FF0FF3000F02AB8ADF1080CF4
:100BA0006DE904CE01F06DF8DDF804E0DDE9022323
:100BB00004B07047D0B500220B4B06460F46FFF736
:100BC00087FCFFF71FFF0446FFF708FC0022074BD6
:100BD000FFF77EFC02460B4630463946FFF7C0FA67
:100BE000FFF710FF2146D0BD0000F03D0000F041AE
:100BF000704700BF844641EA000313F0030349D164
:100C0000403A23D30B6803604B6843608B68836072
:100C1000CB68C3600B6903614B6943618B69836176
:100C2000CB69C3610B6A03624B6A43628B6A83625E
:100C3000CB6AC3620B6B03634B6B43638B6B836346
:100C4000CB6BC36340304031403ADBD230320BD300
:100C50000B6803604B6843608B688360CB68C3603C
:100C600010301031103AF3D20C3205D351F8043B56
:100C700040F8043B043AF9D2043208D0D2071CBF32
:100C800011F8013B00F8013B01D30B88038060465B
:100C9000704700BF082A13D38B07B1D010F00303AD
:100CA000AED0C3F10403D21ADB071CBF11F8013B1D
:100CB00000F8013BA4D331F8023B20F8023B9FE748
:100CC000043AD9D3013A11F8013B00F8013BF9D2BB
:100CD0000B7803704B7843708B7883706046704755
:100CE00080EA010C1CF0030F37D110F0030C20F048
:100CF000030021F0030150F8042B08BF51F8043B16
:100D00000ED08CF0030C6FF07F434FEACC0C23FA2B
:100D10000CFC51F8043B42EA0C0243EA0C0300BF0E
:100D2000A2F1013C9A4201BF2CEA020C1CF0803F68
:100D300050F8042B51F8043BF2D04FEA02604FEA1E
:100D40001222012828BFB0EB036F08BF1B0AF4D0A2
:100D500003F0FF03000EC01A704710F0030F0AD013
:100D600010F8012B11F8013B012A28BF9A42F4D058
:100D7000A2EB030070474DF8045D50F8042B01F01E
:100D8000030521F0030151F8043B022D26D04DD874
:100D900022F07F45B5EB132FA2F1013C2CEA020CA7
:100DA0000DD11CF0803C08BF51F8043B0AD185EA04
:100DB0000205B5EB036F0CD150F8042BE8E74FEABE
:100DC00013235BE03CF07F4C54D10B784FEA126563
:100DD00054E04FEA126503F0FF034FE04FEA02458B
:100DE000A2F1013C4FEA15452CEA020CB5EB134F7A
:100DF00018D11CF0803C08BF51F8043B07D185EAAC
:100E00000205B5EB034F09D150F8042BE6E75FEA82
:100E10000C4C2FD10B884FEA12452FE04FEA0343C9
:100E20004FEA12454FEA134328E000BF02F0FF05E6
:100E3000B5EB136FA2F1013C2CEA020C0DD11CF0B2
:100E4000803C08BF51F8043B0AD185EA0205B5EBA6
:100E5000032F0AD150F8042BE8E74FEA13630DE0A3
:100E600012F0FF0F06D051F8043B4FEA122523F091
:100E70007F4303E04FF0000020BC704705F0FF0205
:100E800003F0FF00012828BF904204BF2D0A1B0A6F
:100E9000F4D0A2EB000020BC704700BF4FEA410C29
:100EA0007FEA6C5C02D150EA013C0AD14FEA430C64
:100EB0007FEA6C5C02D152EA033C02D14FF00000A1
:100EC00070474FF0010070474FEA410212F50012DF
:100ED00015D211D56FF47873B3EB625212D94FEA81
:100EE000C12343F0004343EA505311F0004F23FA6B
:100EF00002F018BF404270474FF00000704750EAC0
:100F0000013005D111F0004008BF6FF0004070477C
:100F10004FF00000704700BF2DE9F14F03F11C04B2
:100F200002EB840C4FEA930B8A68CB680868496827
:100F300000F046F93CE9F0006040694072407B40B7
:100F40000BF1060E4EE083EA134480EA134582EA71
:100F5000134746BA96EA3444604000F00F1684EA1C
:100F6000063420F00F1684EA161054BA94EA0106EB
:100F7000724002F00F1486EA043622F00F1486EA5B
:100F800014124CBA6540694001F00F1485EA04352B
:100F900021F00F1485EA14115CBA67407B4003F01E
:100FA0000F1487EA043723F00F1487EA141344BAA6
:100FB00044404DBA4D4056BA56405FBA5F4087EA4A
:100FC000174886EA174B84EA17464FEA38488BEAF7
:100FD0001B4485EA1B4788EA1B4580EA3440694088
:100FE00072407B4000F0703400F0803500F00F302C
:100FF00040EA440040EAD50080EA900404F033243B
:1010000080EA8400604001F0703401F0803501F026
:101010000F3141EA440141EAD50181EA910404F02B
:10102000332481EA8401614002F0703402F080359B
:1010300002F00F3242EA440242EAD50282EA920406
:1010400004F0332482EA8402624003F0703403F037
:10105000803503F00F3343EA440343EAD50383EAC0
:10106000930404F0332483EA84036340C943DB43DD
:1010700081EA000483EA044686EA020183EA014326
:1010800082EA334583EA14435C4084EA00077FEA3E
:10109000040A8AEA024A8AEA010B87EA11488AEAC4
:1010A000374A80EA060181EA1A418AEA030A04EA19
:1010B0000A00454088EA040707EA0B0041408AEA33
:1010C0000B0608EA060084EA34428AEA3A4602EA53
:1010D000060358404540414087EA37438BEA3B408E
:1010E00003EA000985EA090582EA0309464006EA9F
:1010F0000906714085EA010005EA3546464006EAE0
:10110000314181EA304181EA364606EA304686EAD4
:10111000354634400F4086EA010508EA050886EAAC
:101120003640024088EA020881EA314213405C40BE
:1011300080EA020309EA030987EA0907674088EAA7
:10114000040806EA0A0601EA0B018AEA0B042540B4
:101150008AEA3A44204045408BEA3B4B02EA0B02C4
:10116000564084EA0B04234059406E40694087EAA8
:10117000364080EA384080EA060380EA104481EA7B
:10118000134585EA344585EA17427D4082EA3541B8
:1011900080EA05403CE9F0006040694072407B40D5
:1011A000BEF1010E3FF6CFAE20BC00F05FF8286024
:1011B0006960AA60EB60BDE8F08F00BF00F000BA84
:1011C00080EA101404F0F01480EA0410604081EA10
:1011D000111404F0F01481EA0411614082EA12143F
:1011E00004F0F01482EA0412624083EA131404F05B
:1011F000F01483EA0413634080EA102404F47F446B
:1012000080EA0420604081EA112404F47F4481EAEA
:101210000421614082EA122404F47F4482EA042219
:10122000624083EA132404F47F4483EA0423634086
:1012300081EA500404F0553480EA4400614083EAB6
:10124000520404F0553482EA4402634082EA900476
:1012500004F0333480EA8400624083EA910404F0AD
:10126000333481EA84016340704700BF82EA90040E
:1012700004F0333480EA8400624083EA910404F08D
:10128000333481EA8401634081EA500404F0553428
:1012900080EA4400614083EA520404F0553482EA53
:1012A0004402634080EA102404F47F4480EA04206E
:1012B000604081EA112404F47F4481EA0421614002
:1012C00082EA122404F47F4482EA0422624083EA20
:1012D000132404F47F4483EA0423634080EA101457
:1012E00004F0F01480EA0410604081EA111404F064
:1012F000F01481EA0411614082EA121404F0F0143F
:1013000082EA0412624083EA131404F0F01483EAC0
:1013100004136340704700BF2DE9F14F94464FEA34
:10132000930B8A68CB6808684968FFF749FF0BF19F
:10133000060E33E083EA134480EA134582EA13473A
:1013400046BA96EA3444604000F00F1684EA063448
:1013500020F00F1684EA161054BA94EA010672407F
:1013600002F00F1486EA043622F00F1486EA1412F3
:101370004CBA6540694001F00F1485EA043521F04C
:101380000F1485EA14115CBA67407B4003F00F1418
:1013900087EA043723F00F1487EA1413BCE8F0003F
:1013A0006040694072407B4000F0E03400F010354E
:1013B00000F00F3040EA540040EAC50080EA900493
:1013C00004F0332480EA8400604001F0E03401F04E
:1013D000103501F00F3141EA540141EAC50181EABB
:1013E000910404F0332481EA8401614002F0E03486
:1013F00002F0103502F00F3242EA540242EAC5020E
:1014000082EA920404F0332482EA8402624003F008
:10141000E03403F0103503F00F3343EA540343EA9A
:10142000C50383EA930404F0332483EA840363400E
:1014300081EA324787EA134581EA354690EA060495
:1014400084EA034B82EA1B4280EA044484EA0544AE
:1014500083EA144A85EA14448BEA044B84EA37444D
:1014600081EA0B4181EA164104EA0A00454082EA1A
:1014700004082BEA080041408AEA0B0602EA06004B
:1014800084EA34438AEA3A4603EA0607784045404C
:10149000414088EA38478BEA3B4007EA000985EA81
:1014A000090583EA0709464006EA0906714085EA0C
:1014B000010005EA3546464006EA314181EA3041FD
:1014C00081EA364606EA304686EA3546344008EA7E
:1014D000010886EA01052A4086EA364003405A4060
:1014E00081EA31431F407C4080EA030709EA07098B
:1014F00088EA0908544088EA020806EA0A0601EA6E
:101500000B018AEA0B0215408AEA3A421040454034
:101510008BEA3B4003405E404240174079404D40DB
:101520004E40E443F64386EA18435D4085EA0540B1
:1015300083EA134386EA034183EA384284EA11438B
:1015400083EA04435FEA3343BEF1010E3FF6F2AE95
:101550001ED4BCE8F0006040694072407B4020BC73
:10156000FFF784FE28606960AA60EB60BDE8F08F39
:101570002DE9E0414FF2F00280EA1031114080EA9B
:101580000130484041088208C3084FF0000E4FE781
:1015900000F0113001F0113102F0113203F011337B
:1015A00040EA410040EA820040EAC3004FF2F00204
:1015B00080EA1031114080EA01304840BDE8E08106
:1015C0002DE9F04F02F11C050646074600EB8508A1
:1015D00051F8040B043A46F8040BF9D14FF0010C12
:1015E000FFF7C6FF5FEA302080EA0C001ECF4140C3
:1015F0004A4053405C401EC62000464517D04FEA83
:101600004C0C1CF4807F18BFACF1E50C2C2DE7D0FE
:101610003C2D06D1FFF7ACFF06CF41404A4006C63D
:10162000100006CF41404A4006C61000D8E736E910
:101630000F00FFF7C5FD043D86E80F00F7D1BDE8B8
:10164000F08F00BF2DE9F04FB0E8FE0783B02DE921
:10165000010790E8005F4FF00A0006900198DB193F
:101660009CEA030C18EB3C4897EA080713EB375346
:1016700093EA3C4C18EB3C6898EA375724189EEAEA
:10168000040E19EB3E4990EA090014EB305494EA39
:101690003E4E19EB3E6999EA3050CDE90489DDE907
:1016A000028949199AEA010A18EB3A4895EA0805AD
:1016B00011EB355191EA3A4A18EB3A6898EA3555F8
:1016C00092199BEA020B19EB3B4996EA090612EBC9
:1016D000365292EA3B4B19EB3B6999EA365613EBCB
:1016E000706393EA3B6B18EB3B4898EA706013EB2E
:1016F000305393EA3B4B5FEA3B6B18EB0B0898EADD
:1017000030505FEA706014EB756494EA3C6C19EB3E
:101710003C4999EA756514EB355494EA3C4C5FEA10
:101720003C6C19EB0C0999EA35555FEA7565CDE912
:101730000289DDE9048911EB766191EA3E6E18EBCE
:101740003E4898EA766611EB365191EA3E4E5FEAE2
:101750003E6E18EB0E0898EA36565FEA766612EB94
:10176000776292EA3A6A19EB3A4999EA776712EB9B
:10177000375292EA3A4A5FEA3A6A19EB0A0999EA59
:1017800037575FEA77670190069801387FF465AFB5
:1017900001BC80E8005FBDE8000700E9FE0703B078
:1017A000BDE8F08F30B44FF0000310F8014B11F892
:1017B000015B013A84EA050443EA0403F5D1A3F18D
:1017C00001034FEAD37030BC704700BF4FF00003F5
:1017D00010F8012B013943EA0203F9D1A3F1010307
:1017E0004FEAD370704700BF30B411F8014B12F8C4
:1017F000015B6C4000F8014B013BF6D130BC7047F7
:101800002DE9F14FF8C892E8005E19EB03095AEB95
:10181000040A5BEB050B5CEB060C4EEB070E91E844
:10182000E001A9FB0502AAFB0543E9FB6624EAFBEC
:101830006634A9FB0765E9FB6845B1E80003EBFBEB
:101840006836ECFB6846EEFB6856ABFB0987ECFBA1
:101850006957EEFB696791E80202EAFB6148EBFB1E
:101860006158ECFB6168EEFB61784FF00001EAFB28
:101870000951EBFB6961ECFB6971EEFB69814FF487
:10188000A03C4FEA154949EA06495FF0000AE9FB26
:101890000C0A4FEA164646EA0746E6FB6C2A4FEA70
:1018A000174747EA0847E7FB6C3A4FEA184848EA07
:1018B0000148E8FB6C4AADB25544AF0805F003059A
:1018C00007EB8707C01952F1000153F1000254F1F0
:1018D000000345F1000420BC1FC5BDE8F08F00BF28
:1018E00030B490E83C10511D53F1000154F1000157
:1018F00055F100014CF100014FEA9101494201F01C
:101900000501521853F1000354F1000455F100058C
:101910004CF1000C0CF0030C80E83C1030BC70471C
:101920002DE9F04F90E8F00F00F140004FF0040E69
:1019300059E0F0B4826BC36B0468052524268759EF
:101940003C444FEA724787EAF24787EA92273C44D1
:1019500042684FEAF21787EAB24787EAD2073C4467
:1019600040F8044B032D08BF6FF01B0687593A441B
:101970004FEA734787EAF34787EA93273A44436875
:101980004FEAF31787EAB34787EAD3073A4440F8A8
:10199000042B87593B444FEA744787EAF44787EAA8
:1019A00094273B4444684FEAF41787EAB44787EA30
:1019B000D4073B4440F8043B013DC0D1A0F13C00BA
:1019C000076A3C444FEA724787EAF24787EA922760
:1019D0003C4402684FEAF21787EAB24787EAD20727
:1019E0003C44C463F0BC4FF0020288EA781C8CEAE5
:1019F000F84C0BEBBC1C8AEA090303EA080383EAF0
:101A00000A039C4450F8043B9C4451F8043B9C441A
:101A1000674444EA050B0BEA060B04EA05034BEAAC
:101A2000030BE34484EAF42383EA34530BEBB30B54
:101A300087EA771C8CEAF74C0AEBBC1C89EA08039E
:101A400003EA070383EA09039C4450F8043B9C44DF
:101A500051F8043B9C4466444BEA040A0AEA050A2E
:101A60000BEA04034AEA030AE2448BEAFB2383EA13
:101A70003B530AEBB30A86EA761C8CEAF64C09EB78
:101A8000BC1C88EA070303EA060383EA08039C44B4
:101A900050F8043B9C4451F8043B9C4465444AEA9A
:101AA0000B0909EA04090AEA0B0349EA0309E144BC
:101AB0008AEAFA2383EA3A5309EBB30985EA751CEB
:101AC0008CEAF54C08EBBC1C87EA060303EA050325
:101AD00083EA07039C4450F8043B9C4451F8043BC0
:101AE0009C44644449EA0A0808EA0B0809EA0A0324
:101AF00048EA0308E04489EAF92383EA395308EB0A
:101B0000B30884EA741C8CEAF44C07EBBC1C86EA2C
:101B1000050303EA040383EA06039C4450F8043BEC
:101B20009C4451F8043B9C44E34448EA090707EA13
:101B30000A0708EA090347EA0307674488EAF82323
:101B400083EA385307EBB3078BEA7B1C8CEAFB4C28
:101B500006EBBC1C85EA040303EA0B0383EA0503D6
:101B60009C4450F8043B9C4451F8043B9C44E244A0
:101B700047EA080606EA090607EA080346EA0306F2
:101B8000664487EAF72383EA375306EBB3068AEA0B
:101B90007A1C8CEAFA4C05EBBC1C84EA0B0303EAC2
:101BA0000A0383EA04039C4450F8043B9C4451F824
:101BB000043B9C44E14446EA070505EA080506EAB9
:101BC000070345EA0305654486EAF62383EA3653AC
:101BD00005EBB30589EA791C8CEAF94C04EBBC1CD3
:101BE0008BEA0A0303EA090383EA0B039C4450F8D7
:101BF000043B9C4451F8043B9C44E04445EA060401
:101C000004EA070405EA060344EA0304644485EA97
:101C1000F52383EA355304EBB304013A7FF4E5AED0
:101C2000A0F14000BEF1010E7FF483AEA0F1400CA4
:101C30009CE80F00001949199219DB19ACE80F0054
:101C40009CE80F004044494452445B44ACE80F0018
:101C5000BDE8F08F38B50022002304460D46FEF79C
:101C6000A9FE28B920462946BDE83840FEF7A2BFA4
:101C7000204605F10041FEF79DFF404261EB410126
:101C800038BD2DE9F04786468C460846089E154625
:101C900074461946002B40F0C1808542B2FA82F2A8
:101CA00045D94AB1C2F1200300FA02FC95409440A4
:101CB0002EFA03F343EA0C0C4FEA154EA8B2230C9C
:101CC000BCFBFEF80EFB18CC08FB00F943EA0C4302
:101CD000994528D9EB1808F1FF3704D2994502D964
:101CE000A8F102072B44A3EB0903A4B2B3FBFEFC4B
:101CF0000EFB1C330CFB00F044EA0344A04214D951
:101D00002C190CF1FF3304D2A04202D9ACF102032A
:101D10002C44241A43EA07401EB1D4400023346007
:101D20007360BDE8F0874746DDE76346F1E792BBA5
:101D3000431B01214FEA154EAFB2200CB3FBFEFC52
:101D40000EFB1C330CFB07F840EA0343984561D9AE
:101D5000EB180CF1FF3004D2984502D9ACF1020027
:101D60002B44A3EB0803A4B2B3FBFEFC0EFB1C3315
:101D70000CFB07F744EA0344A7424DD92C190CF198
:101D8000FF3304D2A74202D9ACF102032C44E41B76
:101D900043EA0040C0E7C2F120039540944020FA96
:101DA00003F12EFA03F34FEA154E9040AFB203430E
:101DB000B1FBFEFC0EFB1C10190C0CFB07F841EAF2
:101DC0000041884522D969180CF1FF3004D28845BA
:101DD00002D9ACF102002944A1EB08019BB2B1FB8E
:101DE000FEFC0EFB1C110CFB07F743EA01439F426C
:101DF0000ED9EB180CF1FF3104D29F4202D9ACF19D
:101E000002012B44DB1B41EA004193E76046E3E714
:101E10006146F7E76046A4E76346B8E7834206D920
:101E200016B9002108467CE7C6E900E0F9E7B3FAF5
:101E300083F78FB9834201D3724508D8BEEB020401
:101E400060EB030301209C461EB9002169E7384678
:101E5000FAE7C6E9004CF8E7C7F1200CBB400EFAE0
:101E600007F522FA0CF42EFA0CF1BA401C4320FAC2
:101E70000CF3B8404FEA144901431FFA84FEB3FB48
:101E8000F9F809FB18300B0C08FB0EFA43EA004383
:101E90009A4540D9E31808F1FF3004D29A4502D997
:101EA000A8F102002344A3EB0A0389B2B3FBF9F8BB
:101EB00009FB183308FB0EFE41EA03418E452CD97D
:101EC000611808F1FF3304D28E4502D9A8F102034C
:101ED000214443EA0040A1EB0E01A0FB02984145DA
:101EE000CE46434602D306D14D4504D20138B9EB64
:101EF000020E68EB0403002EA7D0B5EB0E0261EBD7
:101F0000030101FA0CFC22FA07F3F9404CEA03033F
:101F1000C6E9003199E74046C5E74346D9E70000E6
:101F20002DE9F04188B06B4D00AFD5F86431996868
:101F300011F001011DD140F603403A1D0BF0A4FA47
:101F40000446002840F0C1807C68E3681B786BB9C8
:101F50000DF0E4FA05F1D403D3E8AF2F02F0090243
:101F6000D3E8EF1FC3E8E02F0028F9D1204615F091
:101F7000CDFA002141F203003A1D0BF085FA044628
:101F8000002840F0A2807B68534EDA68D2F8010046
:101F9000D2F8051003C6184615F0B8FA214641F2EA
:101FA00001003A1D0BF070FA0446002840F08D80C5
:101FB0007868C3685A7885F870205A88A5F8722026
:101FC0001A7985F87120B3F80720A5F87420B3F8C2
:101FD0000530A5F8763015F099FA214641F2020055
:101FE0003A1D0BF051FA044600286ED1D7F804C010
:101FF000DCF80C20531C4132344618685968083309
:1020000003C493422646F7D1604615F07FFA0DF0DF
:1020100097FC0446002858D195F88A309A061CD4BB
:102020002E4B4FF48451FB6102232D48BB6107F115
:10203000180258F0D5FA95F87C305B0654D4294B39
:102040004FF48251FB6102232548BB6107F118025E
:1020500058F0C6FA6FF0120437E0072140F633401B
:102060000BF0D8F90646002800F0248107210C3037
:102070005BF020FB6FF009034FF0010803700623AB
:10208000C0F8024084710471224680F80180C37058
:10209000314640F633400BF0F7F90446A8B9414603
:1020A00040F631400BF0B6F90646002800F00281F8
:1020B00041460C305BF00DFB2246314640F6314084
:1020C0000BF0E2F904460028B5D020462037BD4683
:1020D000BDE8F08100000020780000204BBB080024
:1020E0005C6B070079BB0800002142F2030007F196
:1020F00008020BF0C9F904460028E6D1BB68984EE7
:10210000DA68D2F80100D2F8051003C6184615F0B7
:10211000FDF9214642F2020007F108020BF0B4F982
:1021200004460028D1D1BC68E368B3F8012091B21D
:1021300049B1D97839B1A5F80421DA78114606F108
:10214000280070F018FC204615F0E0F995F87C6046
:1021500016F0200618D1022140F66D400BF05AF916
:102160000446002800F0A68002210C305BF0A2FAA1
:102170000123214603704670324640F66D400BF055
:1021800083F904460028A0D195F89C301E0713D58A
:10219000002142F21C0007F108020BF075F9044619
:1021A000002892D1B868C368D3F80120D3F805306D
:1021B000C5E9382315F0AAF995F8D8305C0611D591
:1021C000002142F22A0007F108020BF05DF90446F3
:1021D00000287FF47AAFB868C3685B7885F820314F
:1021E00015F094F9082142F201000BF013F90446AE
:1021F00000285FD008210C305BF05CFA95F8D8100D
:1022000040F2022311F0400F08BF03230246880763
:102210004CBF43F02C0043F00C008B0695F8D930EE
:1022200048BF40F0400013F0090F95F8A23018BFE6
:1022300040F4006003F00603CE0748BF40F01000F2
:10224000062B08BF40F4C070002158F0D4F9214695
:10225000002242F201000BF017F9044600287FF437
:1022600034AF95F87C30B5F80411980625D4D1B96F
:1022700041F2050007F108020BF006F904460028B8
:102280007FF423AFB5F80431BC684BB9E368B3F809
:102290000120A5F804219A883248114670F06BFBA2
:1022A000204615F033F9082140F601400BF0B2F852
:1022B000044690B96FF0680407E70029F3D12A4B70
:1022C0004FF48251FB6102232848BB6107F11802D9
:1022D00058F086F96FF00404F7E608210C305BF043
:1022E000E9F995F8D8300246D9072FD44FF00051BC
:1022F0001F4858F080F92146002240F601400BF0BB
:10230000C3F8044600287FF4E0AE01463A1D4FF6BC
:1023100001400BF0B9F878B3164BFB6102234FF480
:1023200084511248BB6107F1180258F059F90CF0BA
:102330000BFD044600287FF4C8AE0EF03BFD0446BA
:1023400000287FF4C2AE0BF073FFBEE602A1D1E914
:102350000001CEE7AFF300809088000200800020EB
:10236000D8000020080100209DBB08005C6B07001E
:1023700010880002C0BB08007B686D46DC688AB02C
:10238000B4F80130032B96BF424A434952F8231058
:102390006A46D3614FF4007340481384404BC2E94E
:1023A000050142F8103F4FF413513E4858F018F918
:1023B000B4F80120AD46022AB4F8033048D1032B0B
:1023C00046D8394A52F823106D468AB06A46D3611E
:1023D0004FF4007335481384314BC2E9050142F8CC
:1023E000103F4FF413512F4858F0FAF8AD46637977
:1023F000A679032B98BF2E4AB4F80750D4F80900E9
:102400006C468CB094BF52F8231023496A46C2E947
:1024100007364FF40073DFF89CC09385264BC2E962
:1024200005C1C2E909504FF4735142F8103F1D48ED
:1024300058F0D6F8A546786815F068F800214FF6F0
:1024400002403A1D0BF020F8044618B11B4B64E71C
:102450001149B9E778681A4DC368B3F80130A5F897
:10246000C13015F053F895F8C1305B077FF55FAFC9
:1024700021464FF603403A1D0BF006F808B1114B08
:102480004BE77868C3685B7885F8C03015F03EF894
:102490004DE700BFB4770700CDB50800E4BB0800E6
:1024A000040000015C6B0700A4770700FDBB080077
:1024B0009477070015BC08000700000142BC080023
:1024C000000000206BBC08002DE9F04F8846D0F8D2
:1024D000201182460B6B16468FB053B1062218317D
:1024E00006F1200045F00CF818B901200FB0BDE846
:1024F000F08F504604A9D8F86050D8F88040D6F83C
:10250000807064F01CFD002852D1DDF820B0BBF1D2
:10251000000F04D1DDF81CB0BBF1000F27D042F250
:102520000F71099B049A8B420AD16FF47A63D31816
:1025300040F2657293428CBF6FF058036FF05B03FB
:102540004046ABEB030962F05DFDD8F88C200346F2
:1025500008F194010AB9D8F89020D8F850005D46E7
:10256000CDE9009050462EF099FCCB46044604F588
:102570009C530833BB42B8D3336DB3F57A6F1ADD81
:10258000D8F85030B3F57A6FACBF4FF0000A4FF077
:10259000010A002D12DB07F59C5308339C4200F220
:1025A000CB80BBF1190F00F3C7804FF0020B3AE06C
:1025B0004FF0000BDBE74FF0000AEAE7336E03EB66
:1025C0004A03AB4215DA3846FDF708FF804620463D
:1025D0008946FDF703FF4FF033325B4BFDF778FF81
:1025E00002460B4640464946FEF7E4F9002840F013
:1025F000A38007F59C530833A342C0F09D80BBF134
:10260000190F00F3998015F1550F31DB15F1500FBB
:10261000CBDB15F14B0F2EDB15F1460FB4BF4FF09E
:10262000040B4FF0050B2046FDF7D8FE80463846D8
:102630008946FDF7D3FE02460B46CDE90223002270
:10264000424BFDF745FF02460B4640464946FEF722
:10265000CFF998B10BF10A0BBAF1000F01D0ABF131
:10266000020B306E401B5845B4BF002001203DE7EF
:102670004FF0010BD7E74FF0030BD4E74FF03332A5
:10268000DDE90201304BFDF723FF02460B464046D1
:102690004946FEF7ADF910B10BF1050BDCE728A3B5
:1026A000D3E90023DDE90201FDF712FF02460B46E4
:1026B00040464946FEF79CF910B10BF1020BCBE7FF
:1026C000BC4202D90BF1010BC6E700221F4B40466A
:1026D0004946FDF7FDFE02460B46DDE90201FEF725
:1026E00087F910B1ABF10A0BB6E74FF03332164B56
:1026F00040464946FDF7ECFE02460B46DDE9020185
:10270000FEF776F910B1ABF1050BA5E70CA3D3E901
:10271000002340464946FDF7DBFE02460B46DDE955
:102720000201FEF765F910B1ABF1020B94E7BC4270
:1027300038BF0BF1FF3B8FE70020D7E6AFF30080F7
:102740009A9999999999F13F3333F33F0000F83FF3
:10275000C1F30A5C02460B462DE9F041ACF2FF35AD
:102760000C460646132D34DC002D20DBDFF8D0802C
:102770000F4648FA05F801EA080C5CEA000C2DD077
:102780002DA3D3E90023FDF7EDFC00220023FEF783
:102790002FF940B1002C03DD4FF480132B411F446F
:1027A00027EA0804002621463046BDE8F08122A32E
:1027B000D3E90023FDF7D6FC00220023FEF718F929
:1027C0000028F0D0002C33DB3443EBD000261D4C26
:1027D000E9E7332D06DDB5F5806F26D010461946A2
:1027E000BDE8F081ACF2134C4FF0FF3727FA0CF73D
:1027F0003842F3D010A3D3E90023FDF7B3FC002245
:102800000023FEF7F5F80028CDD0002C334609DD73
:10281000142D06D0C5F134050122AA4013449E426E
:1028200000D9013423EA0706BDE7FDF79BFCD7E793
:1028300000264FF00044B6E79C7500883CE4377EE4
:10284000FFFF0F000000F03FC1F30A5C02460B4699
:102850002DE9F041ACF2FF350C460646132D32DC73
:10286000002D20DBDFF8E0800F4648FA05F801EA8A
:10287000080C5CEA000C2BD031A3D3E90023FDF750
:1028800071FC00220023FEF7B3F840B1002C03DAFC
:102890004FF480132B411F4427EA080400262146E9
:1028A0003046BDE8F08126A3D3E90023FDF75AFCAA
:1028B00000220023FEF79CF80028F0D0002C27DB34
:1028C00000263446EBE7332D06DDB5F5806F1CD0CE
:1028D00010461946BDE8F081ACF2134C4FF0FF37BB
:1028E00027FA0CF70742F3D015A3D3E90023FDF72D
:1028F00039FC00220023FEF77BF80028CFD0002C03
:1029000033460CDB23EA0706C9E7FDF72BFCE1E7BA
:1029100024F0004426430DD14FF00044BFE7142DAE
:1029200006D0C5F134050122AA401344B342E9D2CE
:102930000134E7E70026054CB1E700BFAFF30080A4
:102940009C7500883CE4377EFFFF0F000000F0BF5D
:10295000F8B5C1F30A5604460D4617460B462EBB82
:1029600021F00043034320D02D4B0022FDF7B0FDA2
:102970002C4B04460D469F4241DBC1F30A560B46E1
:10298000363EBA1940F2FE718A4217DC002A30DC6A
:1029900012F1350F1EDB244E363220461E40234BEB
:1029A00046EA02510022FDF793FDF8BD40F2FF72A6
:1029B0009642E6D10246FDF7D5FBF8BD14A3D3E954
:1029C0000023ED0F1A481C4665F3DF742146FDF71E
:1029D0007FFDF8BD05F00044164844F0D27141F483
:1029E000B7310DA3D3E9002341F01F01FDF770FDBE
:1029F000F8BD0D4E20461E4046EA0251F8BD06A322
:102A0000D3E90023FDF764FDF8BD00BFAFF30080FC
:102A10009C7500883CE4377E59F3F8C21F6EA5010F
:102A200000005043B03CFFFFFFFF0F800000903CD0
:102A30009C75008859F3F8C22DE9F04F016C9BB0EA
:102A400016461F46279D0490CDE9026749B1426CA6
:102A50000123044693404A608B604CF0C1FC002384
:102A60002364B7F10009C0F2B68000232B607E4BCF
:102A700033EA090300F0BA800022DDE90234184687
:102A800021460023CDE90801FDF78AFF804668B1A1
:102A90000123269A1360289B13B1744B289A136064
:102AA000DFF8CC8140461BB0BDE8F08F18AB04982E
:102AB000019319AB0093DDE908234DF097F88346A5
:102AC0005FEA195540F0A980DDE91885454405F213
:102AD0003243202B40F34D82C3F1400309FA03F93E
:102AE00005F2124326FA03F349EA0300FDF776FCE8
:102AF000013D0123A1F1F871109300225D4BFDF718
:102B00002FFB53A3D3E90023FDF7E2FC52A3D3E943
:102B10000023FDF727FB06460F462846FDF76EFC0F
:102B20004FA3D3E90023FDF7D3FC02460B46304602
:102B30003946FDF717FB06460F46FEF7C5F900229A
:102B40008246002330463946FDF734FF002840F026
:102B50000382A8EB0508BAF1160F08F1FF330693BC
:102B600000F2A781444E06EBCA06DDE90801D6E96A
:102B70000023FDF71FFF002800F0848000230AF1E6
:102B8000FF3A0F9308F1FF33002BC0F29981002325
:102B90000A93BAF1000F7BDA0A9BCDF82CA0A3EBC5
:102BA0000A030A93CAF100034FF0000A0E93249B14
:102BB000092B77D8052B40F3E181043B00272493B0
:102BC000249B023B032B00F25986DFE813F05404E8
:102BD000510447042C04012329F000492B60224BA7
:102BE000CDF80C9033EA09037FF446AFC9F313091B
:102BF00042F20F73269A59EA060913601DD0289BEA
:102C0000DFF87880002B3FF44DAF08F10303289ADA
:102C1000404613601BB0BDE8F08FDDE90812CDF827
:102C20004080A5F2FF35C2F313030846DDF860804B
:102C300043F07F5141F440115FE7289BDFF840806B
:102C4000002B3FF42FAF08F10803E0E7AFF300805B
:102C500061436F63A787D23FB3C8608B288AC63FA2
:102C6000FB799F501344D33F0000F07FD9870800C1
:102C7000D88708000000F83FF06F0700748808004C
:102C800068880800B8F1000F40F3B1840F900A90F3
:102C9000069BCDF82CA05344069300230E93249B4F
:102CA000092B87D900230127CDE924334FF0FF33C7
:102CB0000C970793049B00215964079B1193049878
:102CC0004CF068FB0590002800F0E185079B0E2B77
:102CD0008CBF002707F00107DDE904321A64002FDA
:102CE00000F01B810B9A002A40F34A81BC4E02F08F
:102CF0000F03D4054FEA221806EBC303D3E900679C
:102D000040F17083B74B08F00F080325D3E908237F
:102D1000DDE90801FDF706FDCDE91201B8F1000F6C
:102D200012D0DFF8C09218F0010F08D030463946B3
:102D30000135D9E90023FDF7CBFB06460F465FEAD4
:102D4000680809F10809EED132463B46DDE9120177
:102D5000FDF7E8FC804689460F9B43B10022A24B59
:102D600040464946FDF726FE002840F047842846A5
:102D7000FDF744FB42464B46FDF7AAFB9B4B002266
:102D8000FDF7F0F9079B0646A1F15077002B00F004
:102D9000AB80079B0B9C1293059B404612995D1CD0
:102DA000CDE914678E4E06EBC10353E90212CDE95B
:102DB00016124946FEF788F800F13007FDF71EFBB2
:102DC00002460B4640464946FFB2FDF7C9F989461F
:102DD0000C998046DDE91623002900F00F810020C0
:102DE0008349FDF79FFCDDE91423FDF7B9F9059E42
:102DF00042464B46377006460F46FDF7F9FD002860
:102E000040F02F850023CDF858A0CDF850B09A4659
:102E1000DDF848B012942BE00AF1010ADA4580F29D
:102E2000BD84304639460022724BFDF751FB00222B
:102E3000704B06460F4640464946FDF749FB89461A
:102E40008046FEF741F80446FDF7D8FA02460B46E5
:102E5000303440464946FDF783F932463B4605F893
:102E6000014B80468946FDF7A5FD002840F09C8473
:102E700042464B4600205C49FDF772F932463B461C
:102E8000FDF798FD0028C7D0DDF850B02F46129C02
:102E9000059902E08F4200F05F843A4617F8013D41
:102EA000392BF7D00133DBB23B70DDF8148005928B
:102EB0006BE101230F9308F1FF33002BBFF667AEE0
:102EC000C8F101030A930023069362E62846FDF742
:102ED00095FA42464B46FDF7FBFA0022434BFDF7BD
:102EE00041F90646A1F15077404649460022424B3F
:102EF000FDF736F932463B4680468946FDF778FDB8
:102F0000002840F0AD8340464946324607F1004371
:102F1000FDF750FD002840F0D5810B9A199B0E2A31
:102F200002DC002B80F2AD810C9A002A00F0B58003
:102F3000249A012A40F38583079A0E9B551EAB42C3
:102F4000C0F2C782002AA3EB050580F25B840A9BCE
:102F5000079AA3EB0208C9E25046FDF74FFA324642
:102F60003B46FDF71DFD00287FF4F3AD0AF1FF3A63
:102F7000EFE5C3F1200306FA03F0B7E501271FE6EA
:102F800000F0A3820B9B164E5D4205F00F0306EB8B
:102F9000C303DDE90801D3E90023FDF799FA2E11F7
:102FA000CDE9120100F052840E4C00230225804628
:102FB0008946F00709D5404649460135D4E9002342
:102FC000FDF786FA3B4680468946761004F10804F0
:102FD000EFD1002B7FF4C0AEDDE91289BCE600BF63
:102FE000F06F0700C86F07000000F03F00001C40B2
:102FF0000000E03F0000244000001440DDE914011F
:10300000FDF766FA059B1F70129B012BCDE90C01A1
:1030100000F00984129F059BCDF840A01F440022B8
:10302000AA4B40464946FDF753FA89468046FDF7CC
:103030004BFF8246FDF7E2F902460B460AF1300AE1
:1030400040464946FDF78CF805F801ABAF42804693
:103050008946E4D1DDF840A000229D4BDDE90C015A
:10306000FDF780F842464B46FDF7A4FC002840F0EF
:103070007B8300209649DDE90C23FDF771F8424679
:103080004B46FDF7B5FC002840F01982199B002B38
:1030900003DB0B9B0E2B40F3F58000230E9DDDF828
:1030A00028801E460C93B8F1000F0DDD069900290B
:1030B0000B4609DD41450A9AA8BF4346D21AA8EB40
:1030C0000308CB1A0A9206930E9B53B10C9B13B1C3
:1030D000002D40F01E8259460E9A04984CF068FB71
:1030E0008346012104984CF083FA0746BAF1000F99
:1030F00040F06381249B012B40F37A8101230699E0
:103100000B4413F01F0308D0C3F12002042A00F37C
:10311000B5810AD0C3F13C0300E01C230A9A98440D
:103120001A440A92069A1A4406920A9B002B05DD5D
:1031300059461A4604984CF095FB8346069B002B93
:1031400005DD39461A4604984CF08CFB0746249B53
:10315000022B0F9BD4BF00250125002B40F0BE8021
:10316000079B002B24DC1DB3079B002B00F08F81F5
:10317000259BDDF81480DC43394604984CF030F987
:103180001EB1314604984CF02BF9594604984CF086
:1031900027F900220599631C0A70269A1360289B60
:1031A000002B3FF47FAC404619601BB0BDE8F08FA8
:1031B0000C9B002B00F0AF80B8F1000F00F3C08132
:1031C000BAF1000F40F0D382B146059D079C6B1EFB
:1031D0001C44029B089403F00103049C0A933946A3
:1031E00058464BF041FB3146824658464CF0AEFB08
:1031F0004A463946804620464CF0C8FBC268014624
:103200000AF13003002A40F0A281CDE906035846B6
:103210004CF09CFB0699069020464CF0E1F8249B6C
:10322000069A52EA0301079B40F0C2810A9A002ADB
:1032300000F0F282B8F1000FC0F2AD81089AA84602
:10324000AA4208F8013B00F0D282594600230A2224
:1032500020464CF0CFF84E45834631464FF00003F0
:103260004FF00A02204600F09D814CF0C3F8494619
:10327000064600230A2220464CF0BCF8454681460B
:10328000ADE7144E0B9B06EBC306D6E90034CDE93F
:103290000234259B002B80F2E881079B002B00F372
:1032A000E481079B73B900220B4BDDE90201FDF7B6
:1032B0000FF902460B46DDE90801FDF785FB002802
:1032C00000F0CE8100273E4652E700BF00002440B8
:1032D0000000E03FF06F07000000144039465846F8
:1032E0004CF034FB0028BFF63BAF0B9B59460A223B
:1032F0000498013B0B9300234CF07CF80C9B834615
:10330000002B40F09282119B002B119B079302DC53
:10331000002D7FF429AFDDF814800125079CDDF82E
:10332000109007E0594600230A2248464CF062F804
:1033300001358346394658464BF096FAA54200F1CE
:10334000300308F8013BEDDB079A0025002ACCBFCB
:1033500090464FF00108059A90445946012204987E
:1033600002934CF07FFA394683464CF0EFFA00287E
:1033700040F3E481059A02E0904500F0D48118F80A
:10338000013CC24608F1FF38392BF5D001330B9CC4
:1033900088F80030394604984CF022F8002E00F0EE
:1033A000C8812DB1B54203D0294604984CF018F8D5
:1033B000DDF81480CDF814A0E3E6014652460498E7
:1033C0004CF0F6F9249B0746012B40F395804FF013
:1033D000000A3B6907EB830318694CF0B5F8C0F1AC
:1033E00020038CE6DDE908340225CDE9123495E4AA
:1033F000029B002B7FF482AEDDE90212C2F31303BD
:10340000002B7FF47BAEAD4B134033B10A9B0133ED
:103410000A93069B013306930123BAF1000F40F093
:10342000F9819A466AE601230C93259B0B9A134473
:1034300011930133012B1D460793B8BF0125172DAA
:1034400040F31382012204235B001146013203F191
:103450001400A842F8D9049B596430E401230C936A
:10346000259B002B40F3BE801D4611930793E6E792
:1034700000230C93D9E700230C93F1E7C3F11C035D
:103480000A9A19441A4498440A9206914DE639461C
:10349000052204984BF0AEFF0746584639464CF0DB
:1034A00055FA00287FF764AEDDF81480059B0B9C6D
:1034B000013301340593312388F800305CE63A4645
:1034C00017F8013D302BFAD0EFE40225DDE9088939
:1034D00042E40E9B0E95EB1A00259A44DDE9063274
:1034E000134406930A9B984613440A9301210498B7
:1034F0004CF07EF80646D6E5029B002B7FF467AFC2
:10350000DDE90201C1F313030A46002B3FF47BAF50
:103510005DE7049C31462A4620464CF049F90646B0
:103520005A46204631464CF091F85946834620468B
:103530004BF056FF0E9B5B1B0E933FF4D2ADCAE5DA
:103540003146424604984CF08DF9064638E6049818
:1035500006934BF045FFB8F1000F069B08DB029A7B
:10356000249902F0010248EA010852EA08022ED129
:1035700059460122049802934CF074F93946834667
:103580004CF0E4F90028029B40F36581392B00F0F0
:1035900031810AF13103AA460B9C35464E460AF8A2
:1035A000013BF7E64BF026FF45460646814616E608
:1035B000B8F1000FC0F25E81249948EA01080A9927
:1035C00051EA080800F05681002A7FF737AE392B00
:1035D00000F01081AA46013335460B9C4E460AF88E
:1035E000013BD7E6012325930793FFF763BBC8F19F
:1035F000010306900F900A93FFF74ABB079B002B2D
:103600003FF464AC119B002B7FF787AC0B9A4046CC
:1036100049461293541E2A4B0022FCF759FF80465C
:103620008946681CFCF7EAFE42464B46FCF750FF11
:103630000022244BFCF796FD0646A1F15077FFF7D8
:10364000ABBB109A002A00F08B8003F23343069A3A
:103650000E9D1A4406920A9A90461A440A9245E729
:103660000027DDF814803E4620E7DDE90889DDE922
:10367000022340464946FDF755F8059FFDF724FC17
:103680000546FCF7BBFEDDE90223FCF721FF0B46F4
:10369000024649464046FCF763FD05F1300307F852
:1036A000013B079B012B00F08980CDF818B0012663
:1036B000DDF81C90DDE902AB22E000BF0000F07FE6
:1036C0000000244000001C4052465B46204629462C
:1036D000FDF728F80136FDF7F7FB8046FCF78EFE74
:1036E00052465B46FCF7F4FE0B460246294620464E
:1036F000FCF736FD08F13003B14507F8013B5AD01D
:103700000022704BFCF7E4FE0022002304460D4625
:10371000FDF746F90028D7D0DDF818B0DDF81480A1
:103720000B9C059731E50B9C3123059A01341370EE
:1037300030E6DDF81480CDF814A026E503D1029B15
:10374000DB073FF517AE18F8013CC24608F1FF3819
:10375000302BF8D00B9C1DE601343123FFF7A4BBBE
:10376000189BC3F1360372E70599FFF796BB7168A2
:1037700004984BF00FFE0546002800F08F80336957
:1037800006F10C010C3002339A00FDF733FA29469A
:10379000012204984CF066F8814616E5DDF858A041
:1037A000DDF850B0FFF7B9BBDDF81480DDF850B09C
:1037B000129C0595E9E4DDF818B0454602460B4633
:1037C000FCF7D0FC80468946DDE90223FDF710F9BD
:1037D00048B940464946DDE90223FDF7E1F80028F3
:1037E0009CD0E9079AD50B9C0599FFF756BB354647
:1037F0004E46B2E5A84639233546059A4E4608F8A6
:10380000013BBCE5069B134406930A9B9846134470
:103810000A936BE69A46DCE5392BEBD0B8F1000F42
:103820003FF7B7AEB7E62F4616E4314600230A222B
:1038300004984BF0DFFD119B0646002B119B07936C
:103840003FF7BAAC002D7FF48FACB5E4DDE9128907
:103850000225FFF781BA7FF49EAEDA077FF59BAEB3
:1038600094E6DDF8148005958FE40021049B5964EB
:10387000FFF725BA002A3FF77BAE8CE6049B0025B4
:10388000184629465D644BF085FD059068B90E4BDE
:1038900000224FF4D5710D4843F0A8FA02460A4BB6
:1038A00040F2EA21094843F0A1FADDE90432259506
:1038B0001A644FF0FF33012211930C920793FFF724
:1038C0002CBB00BF00002440788808008C880800CA
:1038D0002DE9F04F1C46794B9FB00E4600258346DC
:1038E000186807921A95089044F00CFE00210246D1
:1038F00033460020CDE904019846199313F801AB33
:10390000BAF12D0F5ED801A151F82AF0A33A0000B8
:10391000C5390000C5390000C5390000C5390000AF
:10392000C5390000C5390000C5390000C53900009F
:10393000F9380000F9380000F9380000F9380000C3
:10394000F9380000C5390000C5390000C53900004C
:10395000C5390000C5390000C5390000C53900006F
:10396000C5390000C5390000C5390000C53900005F
:10397000C5390000C5390000C5390000C53900004F
:10398000C5390000C5390000C5390000F93800000C
:10399000C5390000C5390000C5390000C53900002F
:1039A000C5390000C5390000C5390000C53900001F
:1039B000C5390000C539000077400000C539000056
:1039C0009140000000230993BAF1300F00F06882A3
:1039D00000230A93AAF13003092B00F25684002732
:1039E00040463D463C460130082C07EB870104F178
:1039F000010405EB850C199090F800A0CCBF03EBF7
:103A0000410703EB4C05AAF13003092BEBD90899C8
:103A1000089244F0A5FD089A8146002850D1199BD0
:103A200001460894981819909B5CA3F13002092A6A
:103A300000F2F082013192461998002A40F0F88491
:103A4000431C19934378F0E74FF0010EB31C199310
:103A5000B378A3F1300CBCF1090F00F2F582199A8A
:103A6000302B0B9240F02B83013219921378302BBC
:103A7000FAD0A3F131000B92082840F21E830022F5
:103A80000C9254BB0A9A0A4340F09882BAF1000F94
:103A900007D1692B00F0398340F318826E2B00F0B8
:103AA0001B82079B4FF000084FF0000903B11E6016
:103AB000404649461FB0BDE8F08F00BFF08A0800BD
:103AC0002AF02002002153460894452A89468A4656
:103AD00000F0AD820C91002CD4D0089A2846A24662
:103AE0001346002A08BF23460893FCF777FC0B46D1
:103AF0000246102CCDE904230C9BA8BF4FF0100AFE
:103B0000092CA3EB09030B9317DD544B03EBCA03FA
:103B100053E91223FCF7DCFC024638460F461646F2
:103B2000FCF75CFC02460B4630463946FCF71AFBB4
:103B30000F2CCDE9040100F3E1810B9B002B00F079
:103B400097820B9B40F3A782162B40F39A84C4F113
:103B500025030B9A934280F2DA84A4EB0A061644FA
:103B600016F00F000AD03D4901EBC001DDE9042346
:103B7000D1E90001FCF7ACFCCDE9040136F00F03FC
:103B80004ED0B3F59A7F00F34684102B4FEA2316EC
:103B900040F3B285DFF8C8E04FF0000CCDF8289074
:103BA0007746E246F146DDE9042316F0010F1046A0
:103BB00019464FEA66060AF1010A07D0D7E9002341
:103BC000FCF786FC4FF0010C02460B46012E07F174
:103BD0000807EAD1CE46DDF82890BCF1000F01D0ED
:103BE000CDE90423059B0EEBCA0E1E4EA3F15473C0
:103BF0000593DDE90423DEE90001FCF769FC1A4BBB
:103C00000A460B40B342CDE9040100F2048417498F
:103C10008B4240F2FE844FF0FF33154ACDE9043267
:103C200000230A932346089A4146584600954BF0D4
:103C300033FC1590002800F0EE830B9A4FF0000A39
:103C40000C9B002ACDF820A0A9EB0303A8BF0023FA
:103C50000C9322EAE2731493E2E000BFF06F0700D6
:103C6000C86F07000000A07C0000F07F0000907C7F
:103C7000FFFFEF7FD21A1F2AA4EB020400F3C682D3
:103C8000012300259340984626443C440A9BA742C2
:103C90001E443B46A8BF2346B342A8BF3346002B71
:103CA00002DDE41AF61AFF1A0C9B002B00F3548273
:103CB000002C00F36A820B9B002B00F39D82002EE8
:103CC00000F38E82002F08DD51463A4658464BF0ED
:103CD000C9FD8246002800F08C824A461A9958464F
:103CE0004BF054FE0890002800F08382089A0023CD
:103CF000D168D3600D9151464BF028FE0028C0F2E8
:103D0000C584059F00F02284514608984BF0CEFFF1
:103D100000224FF0804304460D46FCF755FE002874
:103D200000F00A820D9B002B40F07C82049B002B4C
:103D300040F06183C7F31303002B40F0E6820022BA
:103D4000AB4B20462946FCF735FE002840F0F583B2
:103D50002046A84B29460022FCF7BAFB03460C4636
:103D60000E90CDE9123401F100430F93A24EA34B04
:103D70003E409E42DDE90E4500F05B820A9B23B384
:103D8000B6F1D46F21D8DDE9127897A3D3E90023E7
:103D900038464146FCF718FEA0B141463846FCF7CC
:103DA00031FE012838BF0120FCF718FB0D9BCDE93F
:103DB0001201002B40F0378301F100431690179356
:103DC000DDE9164505F1D6639D1BDDE9107838461F
:103DD00041464BF08BFE02460B4620462946FCF737
:103DE00077FB3A464346FCF7BDF90C46CDE90401A2
:103DF000814B2340B34203D10A9B002B00F08E82FB
:103E00001A9958464BF0ECFA494658464BF0E8FAF6
:103E1000514658464BF0E4FA089958464BF0E0FA00
:103E2000159C584661684BF0B5FA8146002800F0B1
:103E3000E081226904F10C010C3002329200FCF79F
:103E4000D9FE1CAB584601931BAB0093DDE904344B
:103E50001A46CDE9103423464BF0C8FE1A900028CC
:103E600000F09C81012158464BF0C2FB824600289D
:103E700000F0BF811B9B002BC0F2AE810C9A149EF8
:103E80009F180A9A1C9C9B1A5D4A2344C4F136046D
:103E9000013B9342FFF6EEAE012300259846F3E680
:103EA00098F8013003F0DF03582B00F07582434689
:103EB0000133199393F800A0BAF1300FF8D0984667
:103EC000BAF1000F7AD001230A9383E5492B00F061
:103ED0001C814E2B7FF4E5AD4A4919A84CF05AFEDF
:103EE00000283FF4DEAD199B1B78282B00F07E8361
:103EF00045484CF05BFF8046894663E0A4EB0A0628
:103F00000B9B1E44002E3FF72BAE3FF489AE76424A
:103F100016F00F020AD03D4B03EBC203DDE90401AA
:103F2000D3E90023FCF7FEFBCDE9040136113FF491
:103F300077AE1F2E3FDC16F01003354F4FF0000C0C
:103F400018BF6A230A93DDE9042316F0010F104617
:103F5000194607D0D7E90023FCF7BAFA4FF0010C55
:103F600002460B46761007F10807EED1BCF1000FB0
:103F700001D0CDE904230A9BA3B1DDE90401C1F31B
:103F80000A52C2F16B03002B0ADD1F2B40F3FA83A8
:103F90000020342B049040F321844FF05C73059390
:103FA0006A230A9300220023DDE90401FCF7F8FCF0
:103FB00000283FF437AE2223CBF800304FF0000842
:103FC0004FF00009079A0AB1199B1360099B002B57
:103FD0003FF46EAD09F100434046994649461FB093
:103FE000BDE8F08FAFF300800000C0FFFFFFDF41AE
:103FF0000000F03F0000E03F0000F07F0000E07FA5
:1040000002FCFFFF6489080070960800F06F07004B
:10401000B87007004FF0010A23F02002452A7FF410
:104020002EAD44EA01030A9A13433FF43AAD199EB8
:10403000731C199373782B2B00F023812D2B3FF4E5
:1040400003AD4FF0000E04E5002219960C9218E51E
:104050001C9A03F2334304921D9A22F4801242EA1E
:1040600003530593210703D5059B43F000430593B4
:10407000DDE90489A6E70023099308F101031993F8
:1040800098F801A0BAF1000F3FF40BAD98469BE4FD
:1040900001230993F1E71633FFF630AF0C9BA9EB30
:1040A0000309B34B03EBC903DDE90401D3E90023A2
:1040B000FCF738FB8046894684E7A3F1300C0B9B64
:1040C000581C19905B78A3F13002092A00F2D181C3
:1040D00001300CEB8C0C199003EB4C0C0378ACF119
:1040E000300CA3F13002092AF2D90B9A801A082861
:1040F00040F3BF8144F61F620C92BEF1000F3FF403
:10410000C0AC0C9A52420C92BBE49A4919A84CF0EC
:1041100041FD00283FF4C5AC199B19A89649013B05
:1041200019934CF037FD10B9199B013319934FF0D7
:104130000008DFF8489245E7914B204629460022C7
:10414000FCF7C6F90D9BCDE91201002B65D101F1F9
:1041500000430E900F9309E651461A4658464BF01D
:1041600027FB8246002844D001461A9A58464BF055
:104170006DFA00283DD00D9058461A994BF030F951
:104180000D9B002C1A937FF796AD22461A9958463C
:104190004BF068FB1A9000287FF48DAD4F46054622
:1041A00022234FF00008DFF8D491CBF800302946E5
:1041B00058464BF015F9394658464BF011F951461F
:1041C00058464BF00DF9159958464BF009F90899E6
:1041D00058464BF005F9F5E6149A0C9FD61A50E6AE
:1041E0004946324658464BF03DFB814600287FF455
:1041F00069AD4F461A9DD3E74946149A58464BF08D
:10420000D7FA814600287FF45AADF2E75D4AD31A07
:10421000012202FA03F5904636E5DDE91234CDE9D4
:104220000E34A3E50023584CCDE90E34CDE9123409
:104230009CE5A7F15473514F0593DDE904452046F1
:1042400029464BF053FCDDE90E23FCF741F92B46E0
:104250002246FBF787FF4D4B0F409F42CDE90401FB
:1042600040F2DD8003F15473DDE91001994202D17F
:10427000B0F1FF3FBDD04FF0FF33454ACDE90432E6
:10428000BEE54FF0000EFFF7E1BB089940460B92E8
:1042900044F066F90B9A089048B10022534617463D
:1042A000924615461146914614460892B4E6199B6B
:1042B000981819909B5C302B40F0278102461146DC
:1042C000013219921378302BF9D0C0F1010001446A
:1042D000A3F13102082A10D8DDF864800025A3F18B
:1042E000300A01F10109012440462F4605EB8505FE
:1042F00000210AEB4505FFF7A3BB4FF000094FF083
:10430000010A4C464F464D4686E60023214CCDE936
:104310000E3400231C4CCDE9123427E5DDE912569A
:10432000C4F3130728463146FDF794FCFCF7A2F8C6
:1043300002460B4628463146FBF712FF049D0D9EB0
:1043400004462E430D46374343D107A3D3E9002348
:10435000FCF730FB00283FF453AD4F461A9DDDE9D2
:10436000048924E7AFF300809535A094FFFFCF3F89
:10437000F06F0700588908005C8908000000F07F92
:104380000000E03FE2FBFFFF0000F03FFFFF9F7CEB
:10439000FFFFEF7F0000F0BF099B19A90294584668
:1043A00001931AABB04A00931BAB4CF0F7F810F036
:1043B000070504463FF402AE062D7BD1079A12B1E1
:1043C00008F1010313604FF000084FF00009FFF7F8
:1043D0006FBBA1A3D3E90023FCF7ECFA0028BCD102
:1043E000204629469EA3D3E90023FCF701FB0028C1
:1043F0003FF406ADB1E7049B012B86D1002F84D199
:104400004F461A9C222325464FF000084FF0000922
:10441000CBF80030CBE62223CBF8003087E601F161
:1044200054740594E4E4DDE91234CDE91634C7E4AC
:10443000012900F0138204EB010E0EF1FF3CCDF8D0
:104440002CE003E04FEA4E05A4450BD0082C05EB09
:10445000850E04F10104F5D907EB8703102CD8BFB2
:104460005F00F1E7DDF82CE0082C894416DC744687
:104470003CE744F61F629445A8BF9446CDF830C08F
:104480003BE60B98794901EBC001DDE90423D1E952
:104490000001FCF71DF88046894693E5BEF1100F38
:1044A00074464FF00001DCBF07EB870702EB4707BC
:1044B000FFF7C6BA1A9A3AB135211CA84BF020FC76
:1044C00058461A994AF08CFF013D1B9B042D3FF67C
:1044D000C9AD01A252F825F051400000014500008D
:1044E000FB440000ED440000514000004FF0FF335A
:1044F0006FF00040CDE90430B4E55D4B0593B1E5C4
:104500001C9B04931D9B0593ACE50899E0E6C4F160
:104510000F04564D05EBC401DDE90423D1E9000188
:10452000FBF7D6FF0B9B1C1B05EBC405D5E900234D
:10453000FBF7CEFF8046894644E500234D4CCDE98C
:104540000E3400234C4CCDE912340FE43B460D9859
:10455000C4464F46AE464949C3F31302DDE910890C
:1045600000285BD08A4200F0FB80B5BB049A1CEAAD
:10457000020F35D04046494604934BF0B7FA0A9BE8
:1045800004460D46002B00F01F81049BC3F30A5321
:10459000C3F16B06002E40F36481394C002204EB1A
:1045A0000653FBF795FF02460B4640464946FBF78C
:1045B000D9FD1A9C8046894640464946314B002227
:1045C000FBF786FF0B4625468046034389467FF46A
:1045D000EEAD2223CBF80030E9E51EEA030FC9D186
:1045E0001A9C0A9B2546002BE6D1E0E519A81CAAD7
:1045F00025494CF0E9FA05287FF47AAC1D9B43F07D
:10460000FF4343F4E00305931C9B0493DDE9048915
:10461000D8E402F154730593FFF702BB002A71D16D
:10462000DDE904452246002C40F0B4800A9A002AB5
:1046300040F0F08025F00044240D2405A4F58014FA
:104640001A9D6FEA14536FEA035305934FF0FF333B
:104650000493DDE90489AAE59535A094FFFFDF3FC7
:1046600035E5AF350000E03F7C890800F06F0700BA
:104670000000F07F0000E0BF0000E03FFFFF0F0000
:104680000000F03F00005039688908000D9B4F463C
:10469000DDE90401DDE910890343A1D1C1F313036E
:1046A000002B9DD121F00044240D2405B4F1D66FD8
:1046B000264695D9089A536913B91369012B8FDDE2
:1046C0000899012258464BF0CDF8514608904BF01E
:1046D0003DF9002884DD0A9B002BAFD0A6F580139E
:1046E0001A9C6FEA13536FEA035305934FF0FF339D
:1046F0000493DDE904895FE74FF0000ADFF87CE10D
:10470000FFF770BA002D48D1049A1CEA020F3FF45B
:1047100067AF4046494604934BF0E8F90A9B002BEB
:1047200040D0049BC3F30A53C3F16B06002E40F341
:10473000A280534C002204EB0653FBF7C9FE02464D
:104740000B4640464946FBF70BFD002200238046FE
:104750008946FCF725F900287FF453AE1A9C2BE715
:10476000DDE904010A9A0446002A40D102460132DA
:104770006DD0BEF1000F7FF430AF14EA0C0F3FF4A0
:104780002FAFF7E64FF0FF3202FA03F3049A1A4014
:10479000049205E4BEF1000FB7D01EEA030F3FF408
:1047A0001FAFB6E702460B4640464946FBF7D8FC2A
:1047B0001A9C00220023804689462546FCF7F0F823
:1047C00000283FF4F4AC1DE6404649462B462246FD
:1047D000FBF7C8FC1A9D80468946E8E4C2F14B020B
:1047E0004FF0FF3393400B400593FFF7D9BB254AA9
:1047F0001A40B2F1D46F21D9611CBAD122498B423F
:104800003FF4F8AC02F58013059300230493DDE92F
:104810000489E5E61B4E1E40B6F1D66F3FF65EAF4B
:104820001A9DB6F15C7F2C463FF6C6AE22234FF0B0
:1048300000084FF00009CBF80030B8E4100D4FF03D
:10484000FF31C0F16B0081408C4292D1DAE70E4A11
:1048500093423FF4CFAC01321A40D3E704F1010E8A
:1048600002E64046494622462B46FBF77BFC1A9C53
:1048700080468946A0E602460B4662E7C86F0700FD
:104880000000F03F0000F07FFFFFEF7F000000001E
:104890002DE9F04F012984468E4687B064D800295F
:1048A00042D033A3D3E9002333A7D7E9006734A567
:1048B000D5E900450FF2D00BDBE900AB34A1D1E91B
:1048C0000001CDE9042334A3D3E90023CDE900237B
:1048D00033A3D3E90023CDE9022333A3D3E9002393
:1048E0004FF000084FF00009CCE90A01DDE90401AE
:1048F000CCE90C01DDE90001CCE90E01DDE90201A2
:10490000CCE910010020CCE90089CCE90289CCE98E
:104910000467CCE90645CCE908ABCCE91223CCF816
:10492000D0E007B0BDE8F08F21A3D3E9002322A790
:10493000D7E90067CDE9042321A5D5E9004522A3E5
:10494000D3E900230FF2880BDBE900ABCDE90023AC
:1049500021A1D1E9000122A3D3E90023CDE902235B
:1049600021A3D3E90023BBE76FF07400D9E700BFB0
:10497000310BC0FF67263367D89E05C15D9DBBCB59
:1049800007D57C362A299A6217DD70305A01599171
:1049900039590EF7D8EC2F1511155868874AB48E7F
:1049A000A78FF9640D2E0CDBA44FFABE1D48B54746
:1049B000D182E6AD7F520E5108C9BCF367E6096AA1
:1049C0003BA7CA8485AE67BB1F6C3E2B8C68059BDA
:1049D0002BF894FE72F36E3CF1361D5F3AF54FA54D
:1049E0006BBD41FBABD9831F79217E1319CDE05BF1
:1049F0004368084A33B913600122074B07481A700D
:104A000052F00BBE1068990AB0EB932F18BF1160DB
:104A1000704700BFD84C0020A1800020C438090096
:104A20007FB5064B4FF4825105930223044804AA34
:104A3000049352F044FD07B05DF804FB9E99080012
:104A4000AC6B0700B0B50C468AB000AF0546282213
:104A50000021384642F018FE194A1A4B002C08BFB4
:104A600013466C4688B06A4617491848C2E90513D0
:104A70004FF400739383164B4FF4E65142F8103F06
:104A800052F01DFD3946A54628460BF039FF80B18E
:104A900088B06A460F4B4FF4C251C2E90530032378
:104AA0000A4842F8103F52F00AFDA5462837BD4695
:104AB000B0BD7B78002BF9D10122074B1A70F5E7C6
:104AC000BD99080094CF0800C8990800AC6B070096
:104AD00003000001D89908009E800020B0B56C4604
:104AE00000AF88B06A460B4B0025C2E905310323AD
:104AF000094842F8103F4FF4C65152F0E0FCA54679
:104B0000064C074B20681D7010B156F002F9256065
:104B1000BD46B0BDF9990800AC6B0700FC4C002005
:104B20009E8000202DE9F0410C4690B000AF054674
:104B30002822002107F1180042F0A6FDA4B1022CA2
:104B40000ED06D4688B06A46414B4FF4C251C2E95F
:104B5000053403233F4842F8103F52F0B0FCAD4605
:104B60004037BD46BDE8F0813B4E33687BB13B4BDF
:104B70004FF486517B61022336483B6107F11002F6
:104B800052F09DFC1321284656F004FAE8E7284627
:104B900056F0A8F807F1180130600BF0B1FE78B1BB
:104BA0006C4688B06A462E4BC2E9053003234FF4A9
:104BB000C251284842F8103F52F081FCA546CFE789
:104BC000797E284A284BE84688B0002908BF13465A
:104BD0006C46264A2546C4E905234FF40073A38397
:104BE000234B4FF4E65145F8103F2A46194852F03E
:104BF00066FCC546BB8DA5461E4A4FF4C651C4E9A6
:104C0000052303232A462361124852F058FC7B7E79
:104C1000C546002BA4D135683A463E46164B03F1F3
:104C2000100C144618685968083303C463452246BB
:104C3000F7D11B78314623702846104B104A05F0F7
:104C400041FE00288CD06C4688B06A460D4BABE71D
:104C5000219A0800AC6B0700FC4C0020409A080029
:104C6000D8990800DDA70800169A0800709A080075
:104C700003000001809A0800706D0700E04C0020DE
:104C8000380800209B9A08002DE9F04186B00446C0
:104C900000AF0D466E464FF002081B4B07F11002A5
:104CA0007B614FF486511948C7F8108052F007FC19
:104CB0002946204606F010F9204654F09CFE144B7D
:104CC00014490B60144B18680FF0FEF988B188B0D6
:104CD0006A46124B4FF4C251C2E9053003230B4818
:104CE00042F8103F52F0EBFBB5461837BD46BDE821
:104CF000F0810B4B4FF48651C7E90483034807F159
:104D0000100252F0DCFBF0E7B49A0800AC6B07002D
:104D1000454A0000DC4C0020FC4C0020D09A0800E2
:104D2000ED9A08002DE9F04387B00C4600AFE94644
:104D3000184B194D7B61022307F110024FF4865185
:104D400028463B6152F0BBFB88B06A4621886388E5
:104D50004FF004084FF403561048D361C2E905012F
:104D6000314642F8108F284652F0A9FBCD4688B054
:104D70006A46A188E3880A48D361C2E9050128464A
:104D8000314642F8108F52F09AFB01201C37BD4685
:104D9000BDE8F083029B0800AC6B0700319B080064
:104DA0005C9B080098B500AF8AB06A46D0E9004322
:104DB000816808485162C2E905039B0AC2E90734C9
:104DC00006234FF44351044842F8103F52F077FB5A
:104DD000BD4698BD759B0800AC6B070080B500AF61
:104DE00088B06A46064B0748C2E9053103234FF4F1
:104DF000C65142F8103F52F062FBBD4680BD00BF75
:104E0000B39B0800AC6B07007FB5064B4FF486518F
:104E100005930223044804AA049352F050FB07B000
:104E20005DF804FBDF9B0800AC6B07007FB5064B09
:104E30004FF4825105930223044804AA049352F0CC
:104E40003EFB07B05DF804FBF19B0800AC6B07006C
:104E5000B0B500AF6C46D0E900538AB06A468168AD
:104E60000A485162C2E905039B0AC2E907350623D5
:104E70004FF44351064842F8103F52F020FBA5463C
:104E8000044840F0A9FB0020BD46B0BD039C0800CB
:104E9000AC6B07000018002070B503788AB0044698
:104EA0000E4607AD032B20D8DFE803F002191B1DC7
:104EB0001149284643F0C8FA059563781E210493EA
:104EC000A37830460393E3780C4A02932379019345
:104ED00063790093A37952F0ADFB0AB070BD084925
:104EE000E7E70849E5E70849E3E70A212846074AD2
:104EF00052F0A0FBE0E700BF409C0800629C080065
:104F0000479C08004E9C0800589C080041D10800AE
:104F100090B589B0036800AF186839461446FFF7AA
:104F2000BBFF8AB06B46094ADC61C3E905274FF431
:104F300000721A841A46064B4FF41351054842F882
:104F4000103F52F0BCFA2437BD4690BD859C080046
:104F500004000001AC6B070010B50C46036888B074
:104F600018686946FFF798FF22466946024852F0E2
:104F700054FB08B010BD00BFB29C0800B0B500AF34
:104F80006C468AB06846C0E9072302460523084DEF
:104F9000C0E905514FF42351064842F8103F52F042
:104FA0008EFAA546044840F017FBBD46B0BD00BFD1
:104FB000E19C0800AC6B07000018002098B50B7846
:104FC00000AF042B96BF114A114852F823004B78CA
:104FD0006C46042B98BF0D4A8AB094BF52F8233018
:104FE0000B4B6A46D3610B4B0B4913620B4BC2E967
:104FF00005104FF423510A4842F8103F52F05FFA6F
:10500000A546084840F0E8FABD4698BDE0730700A1
:10501000279D0800000201032F9D080004000002E4
:10502000AC6B070000180020F8B500AF6C468AB0E2
:105030006A46068845888188C388536206230A48E1
:10504000C2E90751C2E905064FF4435142F8103F47
:10505000064852F034FA0022054BA5461A7005485E
:1050600040F0BAFABD46F8BD549D0800AC6B07008D
:105070009F80002000180020034B08461B780BB1CE
:10508000FFF7D2BF704700BF9F80002010B58EB0E1
:1050900003AC00211422204642F0F6FA4FF0101221
:1050A0000123CDE904328DF80430114B6846029398
:1050B000009405F043FE0F4805F004FD0E4903205F
:1050C00005F010FD014658B10C4B0D9302234FF42F
:1050D00086510B480CAA0C9352F0F1F90EB010BD9A
:1050E000042005F061FD0028F8D0064BEDE700BF75
:1050F0003C14002044080020CB140020959D08009B
:10510000AC6B0700B49D080098B5002000AF05F017
:1051100047FE70B16C4688B06A46074B4FF4C251E7
:10512000C2E905300323054842F8103F52F0C7F9A1
:10513000A546BD4698BD00BFD09D0800AC6B0700DA
:10514000B0B588B0104D02AF3C1D0FCD0FC42B6819
:105150000222236001230D490093381D0C4B0AF0F5
:105160004DF870B16C4688B002AA0A4B4FF4C25198
:10517000C2E905300323084842F8103F52F09FF976
:10518000A5461837BD46B0BD846D070018740700EA
:1051900010740700F29D0800AC6B070090B587B053
:1051A0001A4C00AF23786BB1194B4FF486517B61D9
:1051B0000223184807F110023B6152F080F91C37B6
:1051C000BD4690BDD8B1144852F027FAFFF79CFFB6
:1051D0000123124823701FF063FB0028EFD06C46B8
:1051E00088B06A460E4B4FF4C651C2E9053003231E
:1051F000084842F8103F52F062F9A546DFE7094837
:1052000052F00BFAFFF79CFFE2E700BF9D80002001
:10521000129E0800AC6B0700419E08003008002079
:10522000819E08005E9E080008B500201FF07AFBF2
:1052300018B1BDE80840FFF7F3BB0248BDE80840DD
:105240001FF010BB300800202DE9F04790B0674EEA
:1052500000AF8046894615460021282207F1180034
:1052600042F012FA306807F118010BF049FB0446CE
:1052700098B16D4688B06A465D4BC2E90534032398
:105280004FF4C2515B4842F8103F52F018F9AD4656
:1052900020464037BD46BDE8F0877B7E53B1564B74
:1052A0004FF486517B61022352483B6107F11002A3
:1052B00052F005F94946306855F050FE044620B1D9
:1052C0006D4688B06A464D4BD7E7E9464FF0020A73
:1052D0004B4B4FF4865147487B61C7F810A007F14C
:1052E000100252F0ECF84FF420220023454840F021
:1052F00099F9044650B1444B4FF48651C7E904A3D1
:105300003C4807F1100252F0DAF8C1E7BB6B1A888B
:105310002B889A4235D001223C4B294630681A70BE
:1053200055F00CFE054678B188B06A46384B4FF40C
:10533000C251C2E9053003232E4842F8103F52F013
:10534000BEF8CD462C46A3E7324B4FF48651C7E951
:1053500004A3284807F1100252F0B1F84FF42022BC
:105360000023284840F05EF9054650B12A4BC7E9B2
:1053700004A34FF486511F4807F1100252F09FF822
:10538000E0E7BA8DB8F802309A4281D041463068E1
:1053900055F062FE054678B16C4688B06A461F4BF0
:1053A0004FF4C251C2E905300323124842F8103FBE
:1053B00052F085F8A546C5E70226194B4FF48651F1
:1053C0000C487B613E6107F1100252F078F84FF40F
:1053D000202200230B4840F025F9054600283FF421
:1053E00057AF104BC7E90463C3E700BFFC4C002074
:1053F000D8990800AC6B07009A9E0800D49E08005C
:10540000EB9E080000180020FE9E08009F800020F0
:10541000119F0800329F0800509F08006E9F0800EF
:10542000969F0800BB9F08002DE9F04387B05F4BB3
:1054300000AF1B68CBB96C4688B06A465C4B4FF432
:10544000E65153615B4B5C4893614FF40073938367
:105450005A4B42F8103F52F032F8A5466FF00D0457
:1054600020461C37BD46BDE8F083554B1B7863B919
:10547000544B4FF486517B6102234F483B6107F147
:10548000100252F01CF80024EAE701224E494F486E
:1054900054F0E4FA044658B14D4B4FF482517B610D
:1054A000022345483B6107F1100252F008F8D7E7A4
:1054B00052F008F80546444EDFF8108140F2EF1232
:1054C0003146404654F0CAFA00285AD06E4688B099
:1054D0006A46404B4FF4C251C2E9053003233648B7
:1054E00042F8103F51F0EBFFB5466DF01EFD4FF452
:1054F0007A76A0FB062306FB0131D20B42EA414239
:10550000551B4FEAD1316E4661F10009324B4FF421
:1055100086517B61022328483B6107F1100251F05C
:10552000CEFF8CB0E8462D4B2A46C8E90534A30AC5
:10553000C8E90735E0004B46610FC8F82490FBF737
:1055400021FB42460823C8E90A0144F2C0011A4877
:1055500042F8103F51F0B3FF1C48B54605F020FD5E
:105560000446E0B188B06A461D4B4FF4C251C2E90F
:1055700005300323104842F8103F51F0A0FFB54614
:105580006EE751F09FFF44F62162401B63EB03037B
:10559000904273F1000304F2EF148FD3A5E74FF4A8
:1055A000202200230F4840F03DF86CE7FC4C00201F
:1055B000E09F0800FA9F0800AC6B070003000001A1
:1055C0009E80002029A00800AE7E0020E04C002034
:1055D00078A0080093A00800AEA00800B3A00800BF
:1055E000E9A00800001800202DE9F04F89B0064618
:1055F00000AF002008F0C6FE044698B16D4688B0A2
:105600006A46434B4FF4C251C2E905300323414877
:1056100042F8103F51F053FFAD4620462437BD46B7
:10562000BDE8F08F02253C4B4FF486513948FB61B1
:1056300007F11802BD6151F042FFFFF727FD37491E
:10564000374805F03DFC044650B1364B4FF48251CB
:10565000C7E906532F4807F1180251F030FFDCE785
:10566000FFF7E2FD3046FFF799FD2F4B4FF48651CF
:10567000C7E90653274807F1180251F020FF51F0FF
:1056800021FF4FF47A78824644F62069DFF89CB017
:105690006DF04BFCA0FB080608FB0166C50B45EA54
:1056A0004645B5EB0A0A4FEAD63666EB0404CA450E
:1056B00074F10004DBF800300EDBB3B91C4B4FF47F
:1056C0008651FB6102231348BB6107F1180251F0B8
:1056D000F6FE6FF07F04A0E73BB94FF400400021D5
:1056E00040F02CFDAA463446D2E74FF050124FF05E
:1056F0007A73C7E90223A3F1F3733B600D4B39467C
:105700003A1D07F108007B60FFF79EFD044684E721
:1057100003A10800AC6B070022A10800F473070086
:10572000E04C002039A1080063A10800FC4C0020D7
:105730007CA10800FB00904210B5124B86B018689F
:1057400070B9114B6FF07F04059302234FF486511B
:105750000E4804AA049351F0B2FE204606B010BDD4
:10576000132155F017FC04460028F6D0084B4FF4DF
:10577000865105930223054804AA049351F09FFE25
:10578000EBE700BFFC4C002096A10800AC6B0700C3
:10579000A5A108007FB5074B4FF482510593022362
:1057A000054804AA049351F0A6FE6FF0070007B065
:1057B0005DF804FBF3A10800246B07002DE9F0431A
:1057C000012887B00D4600AF0FD002286FD0002807
:1057D00069D13B4B4FF486517B61022307F11002E4
:1057E0003B61384851F087FE5DE0E8460224364BC5
:1057F0004FF4865133487B613C6107F1100251F050
:105800007AFE324B07F11002C7E904434FF4865188
:105810002C4851F070FE4FF47A712B682A6A88B0D8
:105820005A43EB696C46B3FBF1F3E361264604236C
:1058300027492448C4E9051246F8103F32464FF480
:10584000035151F058FEC5462B68A5464FF0030999
:10585000204A4FF4C651C4E905231A483246C4F819
:10586000109051F048FEC546AB68A5461A4A4FF461
:10587000C651C4E9052313483246C4F8109051F0CC
:105880003AFEC5466B68A546144A4FF4C651C4E9B2
:1058900005230C483246C4F8109051F02CFEC54642
:1058A0000F483FF099FE1C37BD46BDE8F0830D4B15
:1058B0004FF48251C7E9040307F1100291E700BFDA
:1058C00013A20800246B07002BA208004EA20800B8
:1058D0005EA2080070A2080080A2080090A2080042
:1058E00018180020A4A208000022014B1A7070476B
:1058F000A08000202DE9F04F87B000AF12F068FEC5
:10590000774D014644232A46764858F039FA8346B3
:1059100088B1754B6FF0070B7B6102234FF4865102
:1059200072483B6107F1100251F0E5FD58461C3703
:10593000BD46BDE8F08F6E4602246D4B4FF4865194
:105940006A487B613C6107F1100251F0D4FD694B5C
:1059500007F110024FF48651C7E90443634851F040
:10596000CAFD287812F066FA88B06A464FF4007AC9
:10597000614BDFF88891C2E90530A2F81CA04FF412
:10598000E6515A4842F8109F51F0B5FD2B68B546D4
:10599000052BCBDD95F8340012F058FA88B06A4632
:1059A000574BA2F81CA0C2E905304FF4E65142F86B
:1059B000109F4E4851F09FFDB54695F8350012F006
:1059C00051FA88B06C46A0464E4BA4F81CA0C4E91E
:1059D000053048F8109F42464FF4E651434851F0D5
:1059E0008AFDB546A546484B4246636105F108036A
:1059F000A3614FF4E6513D48A4F81CA0C4F81090F0
:105A000051F079FD1223B5463A46062105F12800EA
:105A100014F06CFBA5463D4B4246C4E905304FF4FB
:105A2000E6513248A4F81CA0C4F8109051F063FD70
:105A3000B54695F82E0012F0F1F9A546344B4246D2
:105A4000C4E905304FF4E6512848A4F81CA0C4F876
:105A5000109051F050FDB5462B6BA5462D4A4FF4E2
:105A6000C651C4E905230323424623611F4851F070
:105A700042FDB54695F8360012F0B8F9A546264A1B
:105A80004FF4E651C4E90520A4F81CA0424617488B
:105A9000C4F8109051F02FFDB54695F8370012F07C
:105AA000B1F9A5461D4A4FF4E651C4E90520A4F812
:105AB0001CA042460D48C4F8109051F01CFDB5469C
:105AC000AA6BA546032316490848C4E905122361B9
:105AD00042464FF4C65151F00EFDB54626E700BFD1
