:020000040100F9
:10000000785E002195520201D1AE020169520201CF
:1000100069520201695202016952020100000000A6
:10002000000000000000000000000000DD4F0201A1
:100030006952020100000000854F0201695202016D
:100040005D5002015D5002015D5002015D500201F0
:100050005D5002015D5002015D5002015D500201E0
:100060004FB502015D5002015D5002015D50020179
:1000700005B502015D5002015D5002015D500201B3
:100080005D50020139B502015D5002015D5002016F
:100090005D5002015D5002015D5002015D500201A0
:1000A0005D5002015D5002015D5002015D50020190
:1000B0005D5002015D50020153B94AB9002908BFE1
:1000C00000281CBF4FF0FF314FF0FF3000F00CB89C
:1000D000ADF1080C6DE904CE1FF02EFFDDF804E051
:1000E000DDE9022304B07047704700BF2DE9F00737
:1000F00091E8F807B2E802105B1854EB0C04B2E880
:1001000002104D4156EB0C06B2E802104F4158EB7D
:100110000C08B2E8021059EB01095AEB0C0A80E80E
:10012000F80780410130BDE8F00770472DE9F0077E
:1001300091E8F807B2E802105B1A74EB0C04B2E81D
:1001400002108D4176EB0C06B2E802108F4178EB7D
:100150000C08B2E8021079EB01097AEB0C0A80E88E
:10016000F80780414042BDE8F00770472DE9F007ED
:10017000524290E87800B1E880071740DB1918EA8E
:10018000020854EB080419EA020955EB09051AEABA
:10019000020A56EB0A0678C090E87800B1E88007BA
:1001A00017407B4118EA020854EB080419EA0209D7
:1001B00055EB09051AEA020A56EB0A0678C0804197
:1001C0000130BDE8F00770472DE9F007524290E892
:1001D0007800B1E880071740DB1B18EA020874EBCF
:1001E000080419EA020975EB09051AEA020A76EB16
:1001F0000A0678C090E87800B1E880071740BB4154
:1002000018EA020874EB080419EA020975EB0905FB
:100210001AEA020A76EB0A0678C080414042BDE83D
:10022000F00770472DE9F00152424FF0040890E8C2
:10023000300091E8C000A31B1340E41AF618EB1B32
:100240001340ED1AFF1830C0C0C1B8F10108EED15B
:10025000BDE8F001704700BF00B592E8DC072DE96A
:10026000DC07B1E8805702B4A7FB02510A95A8FB4E
:10027000020B09180020E7FB03105BEB000B0020CA
:100280004041E9FB02B00B91A8FB0351401800214B
:100290004941EAFB02011BEB050B0025E7FB04B516
:1002A00068410025E7FB0605694100256D41E8FB33
:1002B0000615CDF830B0A9FB03B689190026EAFB74
:1002C0000316754100267641ECFB035610EB0B003C
:1002D0005FF0000BE8FB040B51EB0B015FF0000B30
:1002E000E9FB041B55EB0B055FF0000BEAFB045B1D
:1002F00056EB0B065FF0000B5BEB0B0BECFB046BA0
:100300000D90ACFB0230059C2D180020EEFB025036
:1003100046410020E9FB04605BEB000B00204041FC
:10032000EAFB04B05B180021E7FB04314D410021DA
:10033000E8FB0451069C4E410021E8FB04615BEBA5
:10034000010B0021E9FB04B1484100214941EAFBCE
:1003500004010E93A7FB0432079CB6180022E7FBAA
:1003600004625BEB020B0022E8FB04B25041002266
:10037000E9FB0402514100225241EAFB0412049CB1
:10038000ED180023E9FB04535E410023EAFB0463FC
:10039000089C5BEB030B0023E7FB04B358410023ED
:1003A000E8FB040359410023E9FB04135A410023ED
:1003B0005B41EAFB04230F955DF8049B99E8000676
:1003C000DDF80080A9FB08541BEB040B0024EAFBBA
:1003D00008B4DDF8108060410024ECFB08046141A2
:1003E0000024EEFB081462410024E9FB0824634169
:1003F00000246441EAFB0834DDF804807619002506
:10040000EEFB08655BEB050B0025E9FB08B56841D1
:100410000025EAFB0805DDF8148069410025ECFBA6
:1004200008156A410025EEFB08256B410025E9FB14
:1004300008356C4100256D41EAFB08450F96DDF853
:100440000880AEFB087680190026E9FB080671419A
:100450000026EAFB0816DDF8188072410026ECFB46
:10046000082673410026EEFB083674410026E9FB9E
:100470000846754100267641EAFB0856DDF80C80F7
:100480001BEB070B0027ECFB08B778410027EEFBBE
:10049000080779410027E9FB08177A410027EAFBA2
:1004A0000827DDF81C807B410027ECFB08377C41E6
:1004B0000027EEFB08477D410027E9FB08577E41F6
:1004C00000277F41EAFB086708B000BD2DE9F14F26
:1004D00087B0FFF7C1FEDDF81C8008F1200888E82E
:1004E000FF00FFBC87E87F08BDE8F08F00B591E80A
:1004F0004C57A2FB02410194A2FB034524190020A2
:10050000E2FB06506D417F41641802940021E2FB3A
:100510000801A3FB034B654103950024E3FB06049C
:1005200040417F41091900246441E2FB0914FF079F
:1005300050EB0B0004900025E2FB0A455FF0000B36
:10054000E3FB081B49415FEA370714EB0B045FF03C
:10055000000BE3FB094B55EB0B055FF0000B5BEB6E
:100560000B0BE2FB0C5BFF0F0020E2FB0EB0002246
:100570005141E6FB061205910021E6FB084164416A
:100580007F416D180021E3FB0A515BEB010B002159
:10059000E3FB0CB1484100214941E3FB0E0100237C
:1005A000E6FB09531BEB030B0023E6FB0AB35841A0
:1005B0000023E6FB0C03594100235B41E6FB0E13CD
:1005C000FF07544106946D417F41A8FB0826554121
:1005D00007950022E8FB09B25BEB0B0B7F4180180B
:1005E0000022E8FB0A0251410022E8FB0C125A41AA
:1005F00000235B41E8FB0E230024E9FB0E340025B9
:10060000E9FB0A1552190025E9FB0C256B41002571
:10061000EAFB0C356C4100256D41EAFB0E45FF07F6
:100620005BEB060B0026ECFB0E5640414941524164
:100630005B4164416D417641AEFB0EE848F1000834
:100640007F00A9FB0979784151EB0901AAFB0A7ADD
:100650007A4153EB0A03ACFB0C7C7C4155EB0C0557
:1006600056EB0E0648F1000700BD00BF2DE9F14F23
:1006700087B0FFF73BFFDDF81C8008F1200888E811
:10068000FF00FFBC87E87F08BDE8F08F30B44FF073
:10069000000310F8014B11F8015B013A84EA0504EC
:1006A00043EA0403F5D1A3F101034FEAD37030BC50
:1006B000704700BF4FF0000310F8012B013943EAE7
:1006C0000203F9D1A3F101034FEAD370704700BFD1
:1006D00030B411F8014B12F8015B6C4000F8014B8B
:1006E000013BF6D130BC70472DE9F00791E8F807DF
:1006F000B2E802105B1854EB0C04B2E802104D4152
:1007000056EB0C06B2E802104F4158EB0C08B2E869
:10071000021059EB01095AEB0C0A8941B3F1FF337E
:1007200074F1FF3475F1FF3576F1000677F10007BB
:1007300078F1000879F101097AF1FF3A51F10001ED
:100740005B184C414D4156F1000657F1000758F136
:10075000000859EBD1795AEB010A80E8F807BDE8A7
:10076000F00770472DE9F00791E8F807B2E80210AA
:100770005B1A74EB0C04B2E802108D4176EB0C06A8
:10078000B2E802108F4178EB0C08B2E8021079EB66
:1007900001097AEB0C0A89415B184C414D4156F135
:1007A000000657F1000758F1000859EBD1795AEBD0
:1007B000010A80E8F807BDE8F007704718EB040865
:1007C00059EB05095AEB060A5BEB070B5FF0000CCF
:1007D0004CF1000C18EB050859EB06095AEB070A17
:1007E0005BEB070B50EB0C005FF0000C51EB0C01C6
:1007F00052EB0C0263414CF1000CB8EB070879F1A5
:1008000000097AF1000A7BEB040BA841B141A24137
:10081000B3416CF1000CBBEB050BB041B941AA41EF
:10082000BB416CF1000C6FEAEC74B8EB040879EB97
:1008300004097AEB040A7BF1000B70F1000071F1FE
:10084000000172EBD472A3416CF1000C18EBEC7850
:1008500059EBEC795AEBEC7A5BF1000B50F10004A8
:1008600051F1000552EBDC7653EBEC774CF1000CC8
:1008700018EBEC7059EBEC715AEBEC725BF1000386
:1008800054F1000455F1000556EBDC7657EBEC779C
:10089000704700BF2DE9F14F87B0FFF7DDFCDDF8B1
:1008A0001080DDF81490DDF818A0FFF787FFBDE891
:1008B000000FFFF783FF03B05DF8048B88E8FF00AB
:1008C000BDE8F08F2DE9F14F87B0FFF70FFEDDF89F
:1008D0001080DDF81490DDF818A0FFF76FFFBDE879
:1008E000000FFFF76BFF03B05DF8048B88E8FF0093
:1008F000BDE8F08F2DE9F047002386B06F4DC41D91
:1009000007460E46AA7D24F00704CDE903332B7871
:100910008DF812208DF80D306B782A7F8DF80E300F
:10092000AB788DF814208DF80F306A7FEB788DF856
:1009300015208DF8103095F820202B798DF8113086
:100940000AB18DF81330002E03A94FF000080CBF38
:100950002046002000F00AFE95F800906B780444D1
:10096000C24699445FFA89F95FFA88F3994500F223
:1009700096800334002E4946524624F0030414BFE7
:100980000020204601F010F9A978204459B1033025
:10099000002E6B8A20F00304EA7814BF0020204662
:1009A00001F0A4FA204495F821308BB1297C79B16B
:1009B00095F822300330002B20F0030414BFFF22EF
:1009C0002522002E0CBF2046002001F025FC2044EB
:1009D0003B4B1B685BB1297949B10330002E2A7D5E
:1009E00020F0030414BF0020204698472044354BD4
:1009F0001B6853B1697D41B10330002E20F0030420
:100A000014BF00202046984720442F4BD3F8008085
:100A1000B8F1000F0FD0A97D69B10330002E6B7EB5
:100A200020F00304EA7D009318BF00202B7E08BF4E
:100A30002046C047204495F8203063B1297951B150
:100A40000330002EEA7E20F0030414BF002020466D
:100A500001F076FC2044AB7F6BB1033020F003043F
:100A60003EBB204619F060FC20464FF48872A97FF7
:100A700021F050F92044EB7F6BB1033020F00304E8
:100A8000CEB9204619F056FC20464FF48872E97F13
:100A900021F040F92044C01B06B0BDE8F0872B7A56
:100AA00008F10108EA79A979687921F0D3F882443C
:100AB0005AE70020D9E70020E7E700BF58070021E8
:100AC000440000214C000021480000218FB572B67F
:100AD0001A4B5D6AE5B9BFF34F8F1949194BCA68C4
:100AE00002F4E0621343CB60BFF34F8F00BFFDE71A
:100AF000B4FBF6F4D3B20132002CF9D103F11002A9
:100B00006A4402F80C4C0A2433B901A8A847E2E76A
:100B1000044600220A26EDE7013BDBB203F1100296
:100B20000DEB0206C2B2B2FBF4F704FB172230321F
:100B3000B0FBF4F006F80C2CE6E700BF58070021E4
:100B400000ED00E00400FA051FB51A4C02A8237A54
:100B50008DF80930E3798DF80830A379ADF80C30C1
:100B60006379ADF80A3017F09FFB18B1A821032074
:100B7000FFF7ACFFE36801A8019317F0ABFB08B1E6
:100B8000AC21F4E7012368468DF8003022F0CCFC5C
:100B900008B1B021EBE7607E17F0AEFB08B1B921D8
:100BA000E5E7207E17F0A2FB08B1BA21DFE704B029
:100BB00010BD00BF5807002138B5054600283CD0BD
:100BC0001DF040FC10B94FF0FF3038BD1DF0F8F8B3
:100BD000B0F5FA7FF7D81A4C1A48656200F012FB9C
:100BE00019490220194A0023194D84F8283084F845
:100BF000293084F8213084F8223084F82030C4E988
:100C0000001241F64C52C4E90202124AC4E90452ED
:100C10004732C4E90623EFF3108472B601F01AFCE0
:100C20000D4801F0DDFC18B1C6210320FFF74EFF8F
:100C3000002CCAD162B62046C7E76FF01500C4E7A2
:100C400058070021490B000101010100001B1B0393
:100C500003001F0002000001810F000110B50028F1
:100C600040F08580454C94F82830002B7CD181B130
:100C7000002A6CD001390E2979D8DFE801F0081577
:100C800018282B545C315F6270373D4B500013784D
:100C9000237001210020FFF72DFEB0F5803F69DAB7
:100CA000012384F8293010BD13786370F1E793783D
:100CB000002B4CD0D378002B49D013781A2B46D96F
:100CC00053781A2B43D91068C4F80500E1E713687C
:100CD000E360DEE71378E278934238D3A370D8E775
:100CE0001378A278934232D8E370D2E71378A278CF
:100CF00093422CD8A375CCE7137843B35378013BC8
:100D0000DBB2F82B23D813889278A4F817301C4B49
:100D10009A70BEE71078A07617F068FCB9E71378F0
:100D2000ABB1E376B5E7137894F821200AB1012B33
:100D30000DD92374ADE713886382AAE71378237172
:100D4000A7E794F82010137821B9012B04D86FF08D
:100D50001500A8E7002BFAD01378237599E71378CC
:100D6000082BF4D8637594E74FF0FF309BE76FF0E2
:100D70002C0098E76FF00B0095E700BF58070021A3
:100D80006F07002170B50D460646F0B1E9B111F0CC
:100D900007041AD100F04CF9D0B130460E4E1DF0C8
:100DA00095FB214686F82A002846FFF7A3FD17F099
:100DB00023FC96F82A00214617F070FBFFF7C4FECB
:100DC0000123204686F8283070BD6FF01500FBE740
:100DD0004FF0FF30F8E700BF5807002110B5094C6D
:100DE00094F828302BB117F075FB94F82A001DF009
:100DF00089FB01F043FB01F009FC002084F8280086
:100E000010BD00BF5807002150B1074B03F1140279
:100E100053F8041B934240F8041BF9D1002070479B
:100E20006FF01500704700BFF5D80201074B93F82B
:100E3000292010B532B993F828401CB917F0C0FA30
:100E4000204610BD4FF0FF30FBE700BF58070021E0
:100E5000074B93F8292010B532B993F828401CB9F4
:100E600017F0C2FA204610BD4FF0FF30FBE700BF7D
:100E70005807002110B50B4C94F829307BB994F831
:100E8000283063B994F8223033B117F0EBFA01231C
:100E9000002084F8213010BD17F0C8FAF7E74FF0B2
:100EA000FF30F8E758070021074B93F8292010B5C9
:100EB00032B993F828401CB917F032FA204610BD19
:100EC0004FF0FF30FBE700BF58070021074B93F8B6
:100ED000292010B532B993F828401CB917F012FA3E
:100EE000204610BD4FF0FF30FBE700BF5807002140
:100EF000074B93F8292010B532B993F828401CB954
:100F000022F03AFB204610BD4FF0FF30FBE700BF58
:100F100058070021074B93F8292010B532B993F8F0
:100F200028401CB922F02BFB204610BD4FF0FF30AB
:100F3000FBE700BF58070021074B93F8292010B5A5
:100F400032B993F828401CB922F01CFB204610BD92
:100F50004FF0FF30FBE700BF58070021074B93F825
:100F6000292010B532B993F828401CB922F00CFBA7
:100F7000204610BD4FF0FF30FBE700BF58070021AF
:100F800037B5114C256801A801F0F6FA034618B1EF
:100F9000052816D035210BE0019A022A05D0032A34
:100FA000F1D1226852B92D2102E022681AB9282114
:100FB0000420FFF78BFD2360A847E4E701202360AE
:100FC000FAE703B030BD00BF8407002107C8024B19
:100FD00083E807000020704788070021054B5B6805
:100FE00010B51BB98C210420FFF770FDBDE810403F
:100FF000184700BF84070021054B9B6810B51BB93B
:1010000092210420FFF762FDBDE81040184700BFA1
:1010100084070021054BDB6810B51BB9982104201B
:10102000FFF754FDBDE81040184700BF84070021BA
:10103000044B586828B1986818B1D868003818BFB0
:101040000120704784070021014B1870704700BFD2
:10105000940700212DE9F743364D031D04462F4622
:1010600047F8043F95F80C317BB195F80E2105F255
:101070000D112046042602321DF056FB002385F890
:101080000C31304603B0BDE8F083384605F052FE1F
:101090000228064604D1284920461FF0BAF8F0E796
:1010A00004283FD12B790A2B15D13E2000F05AF8A5
:1010B00060B92B8901A96846ADF800301FF0D2FD58
:1010C0000028CFD0A7210820FFF700FD052000F061
:1010D00089F80028EDD0394620461FF047F9B0F5D1
:1010E000817F01D3B121EEE70028BBD094F80090B6
:1010F00094F80280484600F035F80028B2D0B9F1E3
:101100003E0FBED1B8F1120F06D195F80E32022B68
:1011100002D02B78002BA5D0404600F063F80028C1
:10112000AFD19FE70828ACD1034920461FF0A9F8AA
:10113000A7E700BF9407002198070021074B4FF055
:10114000FF3141F6FF72C3E9001205490022C1E9EF
:1011500000221F21C3E90212704700BF00000021D6
:10116000A40900213F280CD801380B4BC0F34212D0
:1011700000F01F0053F8223023FA00F000F00100C5
:101180007047FF2806D04038044BC0F3421200F0ED
:101190001F00EFE70120704700000021A409002193
:1011A000074B0146006849681A4603C240F48C2286
:1011B0001A6041F0107242F4FF625A60704700BF3B
:1011C000000000210246024B0068516803C37047CB
:1011D000A40900210246024B0068516803C370470E
:1011E000080000210138064BC0F3421200F01F0036
:1011F00003EB82039B6823FA00F000F001007047C4
:1012000000000021014B1860704700BFAC090021AD
:1012100010B5FFF793FF0020FFF716FF21F0B5FB95
:10122000034B04461B6803B19847204610BD00BF1E
:10123000AC09002138B5274B0446D3F8A022D3F8D7
:10124000A412013106D1D3F8A8324FF6FF719BB238
:101250008B423DD0D3073BD51E4DD5F8A422D5F8FF
:10126000A832C4F80120A4F80530C3F3072363F0C3
:101270003F03A371D5F89032013323D0D5F89432CF
:1012800001331FD0D5F8983201331BD0D5F89C32EA
:10129000013317D0002001F0B7FA98B9D5F89002C1
:1012A000D5F89412D5F89822D5F89C32C4F80700E6
:1012B000C4F80B10C4F80F20C4F813300123002029
:1012C000237038BD10220021E01D1DF0A3FAF5E7C0
:1012D0000023F4E70000FF0170B5274D1022002124
:1012E0000446D5F8A0621DF095FA10220021A0183E
:1012F0001DF090FAD5F8803201330BD1D5F8843245
:10130000013307D1D5F88832013303D1D5F88C32B7
:1013100001330BD0D5F88002D5F88412D5F8882295
:10132000D5F88C3220616161A261E361002001F097
:101330006BFA08B9F3071CD40F4BD3F89022013293
:101340000BD1D3F89422013207D1D3F8982201327D
:1013500003D1D3F89C2201320BD0D3F89002D3F8FA
:101360009412D3F89822D3F89C3220606160A26076
:10137000E360002070BD00BF0000FF0180B588B0B1
:1013800000AF786039603B681B88BB83BB8BC3F3BD
:101390000E037B837B68DB7C18461FF08DFC0346C5
:1013A0003B837B681A883B8B1344FB827B68183332
:1013B0003B617B8B3A691344FB603B8BFA68128874
:1013C00092B21A44FB8A13445A1EFB8A92FBF3F32F
:1013D0009BB2FA8A02FB03F37B817A8B7B891344ED
:1013E000FB837B685B88FA8B9A420AD2B7F91C2090
:1013F0000A4B13401AB2B7F91E3013431BB2FB83DA
:1014000005E0BB8BDB439AB2044B1340FB833B6884
:10141000FA8B1A8000BF2037BD4680BD0080FFFFD9
:1014200090B589B000AFB9607B600346FB7313468B
:10143000BB73BB689B79082B03D9C2211720FFF728
:1014400045FBFB7B484A52F82330002B03D0C321D5
:101450001720FFF73BFBBB68DB79002B7FD07B6855
:101460001C68BB68DB79184620F017FA0346234452
:10147000BB61BB689B79022B38BF0223DBB21A46E3
:10148000BB6913445A1EBB689B79022B38BF0223E9
:10149000DBB25B421340BB61BB689B881A46BB68EA
:1014A0009B7913445A1EBB689B795B4213407B6156
:1014B0007B694FF6FE72934203D9CE211720FFF7C6
:1014C00005FB97F8303083F00103DBB2002B3BD0F3
:1014D000BB68DB79184620F0E0F903465B42BA6945
:1014E00013443B61FB7B20493A6941F823207B6927
:1014F0009AB23B691A80BB68DA793B699A703B699A
:101500000122DA703B69BA7B1A71BB681B681B0C3D
:101510009AB23B69DA80BB681B689AB23B691A8150
:101520000023FB610AE03A69FB6904335B00134462
:101530004FF6F0725A80FB690133FB61BB68DB79BF
:101540001A46FB699342EED3BB68DB791A467B6986
:1015500002FB03F3BA691A447B681A6000E000BF1B
:101560002437BD4690BD00BFB009002180B5A4B0AE
:1015700002AF786039603B689B781A463B685B78BD
:101580001344FF2B03D9EB211720FFF79FFA3B6889
:101590001A783B685B789A4203D9EF211720FFF74E
:1015A00095FA7B68C7F880307B68002B0CBF01235D
:1015B000002387F887307B6803F00703002B04D0F3
:1015C0004FF480711720FFF781FA002387F88630E7
:1015D00024220021A1481DF01DF93B68597807F12C
:1015E000740300221A605A609A609D4B7B674FF427
:1015F0005E73A7F87830082387F87A300B4687F8AF
:101600007B3007F1800097F8862007F1740197F886
:101610008730009303460020FFF702FF3B685A78AB
:1016200097F88630134487F886303B68997807F13D
:10163000740300221A605A609A608A4B7B674FF4E9
:101640008163A7F87830082387F87A300B4687F84B
:101650007B3007F1800097F8862007F1740197F836
:101660008730009303460120FFF7DAFE3B689A7843
:1016700097F88630134487F886303B68D97807F1AD
:10168000740300221A605A609A60774B7B674FF4AC
:10169000B073A7F87830082387F87A300B4687F8BC
:1016A0007B3007F1800207F1740197F887300093CF
:1016B000134600220220FFF7B3FE3B68197907F1B9
:1016C000740300221A605A609A60684B7B6790230B
:1016D000A7F87830082387F87A300B4687F87B30F4
:1016E00007F1800207F1740197F8873000931346E1
:1016F00000220320FFF794FE3B68597907F1740339
:1017000000221A605A609A60594B7B67A823A7F899
:101710007830082387F87A300B4687F87B3007F15A
:10172000800207F1740197F8873000931346002276
:101730000420FFF775FE3B68997907F174030022D6
:101740001A605A609A604B4B7B67082387F87A309F
:101750000B4687F87B303B689B79002B04D016F052
:1017600039FF0346A7F8783007F1800207F17401CA
:1017700097F887300093134600220520FFF750FEAC
:101780003B68D97907F1740300221A605A609A60A5
:10179000394B7B677823A7F87830082387F87A30AD
:1017A0000B4687F87B3007F1800207F1740197F848
:1017B00087300093134600220620FFF731FE3B6876
:1017C000197A07F1740300221A605A609A602B4B51
:1017D0007B677023A7F87830082387F87A300B46A8
:1017E00087F87B3007F1800207F1740197F88730A2
:1017F0000093134600220720FFF712FE3B68597A38
:1018000007F1740300221A605A609A601C4B7B67D0
:10181000E823A7F87830082387F87A300B4687F852
:101820007B3007F1800097F8862007F1740197F864
:101830008730009303460820FFF7F2FD3B685A7A91
:1018400097F88630134487F88630D7F880207B6875
:10185000D31A18468837BD4680BD00BFB0090021A5
:10186000BD63010149DF00014D9A00019337020178
:101870003D3802013B38020143380201756901011C
:101880004969010180B584B000AF0346FB71FB7963
:10189000084A52F82330FB60FB68002B04D14FF458
:1018A000DC711720FFF712F9FB689B781846103798
:1018B000BD4680BDB009002180B584B000AF78601E
:1018C0000B46FB707B684FF6FF721A80FB781B4A51
:1018D00052F82330FB60FB68002B04D140F2CF119B
:1018E0001720FFF7F3F84FF6F071F8681FF0FAFFD2
:1018F0000346FB72FB7AFF2B01D1002319E0FB6842
:10190000DB78002B04D14FF4ED711720FFF7DEF8E0
:10191000FB7A9AB2FB681B799BB213449AB27B683C
:101920001A807B681B88FA7A1946F8681FF0FCFF5A
:10193000034618461037BD4680BD00BFB0090021E0
:1019400080B584B000AF03460A46FB8013467B7126
:101950007B79154A52F82330FB60FB881946F868FA
:101960001FF07BFF0346FB72FB7AFF2B04D140F292
:10197000E5111720FFF7AAF8FB7AFA6804335B0039
:1019800013445B884FF6F072934201D0002306E0C7
:10199000FA7AFB881946F8681FF0C6FF0346184616
:1019A0001037BD4680BD00BFB009002180B584B0AE
:1019B00000AF03460A46FB8013467B717B79124ACF
:1019C00052F82330FB60FB881946F8681FF045FF8A
:1019D0000346FB72FB7AFF2B09D0FB7AFA680433CB
:1019E0005B0013445B884FF6F072934201D10023F1
:1019F00005E0FB7A1946F8681FF05CFF03461846BD
:101A00001037BD4680BD00BFB009002180B586B04B
:101A100000AF03460A46FB8013467B717B791C4A64
:101A200052F823307B61FB88194678691FF015FF57
:101A30000346FB74FB7CFF2B09D0FB7C7A690433E3
:101A40005B0013445B884FF6F072934202D143F27D
:101A5000020319E07B69DB881B047A69128913434E
:101A6000FB60FB7C194678691FF024FF0146FA8869
:101A7000FB6810469847FB7C7A6904335B0013448B
:101A80004FF6F0725A80002318461837BD4680BDC5
:101A9000B009002180B584B000AF78607B689B7985
:101AA0001A461C4B53F82230FB60FB68002B26D1F2
:101AB00005232BE07B68DB79FB727B68DB790133E4
:101AC000DAB27B68DA71FB7AFA6804335B0013449C
:101AD0005B884FF6F072934211D0FB7AFA680433B8
:101AE0005B0013445A887B689A80FB7A1946F86831
:101AF0001FF0E0FE02467B681A60002306E07B6868
:101B0000DA79FB689B789A42D4D3052318461037BC
:101B1000BD4680BDB009002180B584B000AF03464A
:101B20000A46FB8013467B717B790C4A52F82330BE
:101B3000FB60FB881946F8681FF08FFE0346FB72B6
:101B4000FB7AFF2B04D140F239211720FEF7BEFFAC
:101B5000FB7A18461037BD4680BD00BFB009002192
:101B600080B483B000AF0023FB710023FB710DE054
:101B70000C4B1B685A68FB799B0013441B68002BB5
:101B800001D0002309E0FB790133FB71054B1B6891
:101B90001B7AFA799A42EBD3012318460C37BD46DB
:101BA00080BC7047D409002180B586B000AFF860D2
:101BB0000B467A60FB7200237B61FB68002B0CBF35
:101BC00001230023FB74FB6803F00303002B03D005
:101BD00086211820FEF77AFFFB7A002B36D0796831
:101BE00000201FF06AFD78617B690C337B61FB7A12
:101BF0009B007A6913447B61FB7C83F00103DBB2B9
:101C0000002B23D0144AFB681360134B1B68FA7A2D
:101C10001A72114B1B68FA680C325A600E4B1B6823
:101C20005968FB7A9A000C4B1B680A441A600A4BED
:101C30001B685868FB7A9B001A4600211CF0EAFDDD
:101C4000054B1B68796818461FF037FD7B691846FD
:101C50001837BD4680BD00BFD409002190B589B0BA
:101C600002AF0446084611461A462346FB80034647
:101C7000BB800B467B8013463B80344B1B68002B9C
:101C800003D1A5211820FEF721FF304B1B681B7ADA
:101C90009BB2FA889A4208D22C4B1B685A68FB8880
:101CA0009B0013441B68002B02D043F2020348E060
:101CB0003A88BB88114618461FF08AFF0346FB820C
:101CC0003A8D7B88114618461FF09AFF0346BB8267
:101CD000FB8ABA8A114618461FF0AAFF03467B8288
:101CE0001A4B1B681B687A8A114618461FF03AFD8A
:101CF000F860FB68002B01D1042322E0BA8A7B8ABA
:101D00001946F8681FF038FFF8681FF048FF7A8816
:101D1000B98A3B8D009309231FF048FEF8681FF035
:101D200049FFBA88F98A3B8800930A231FF0C8FE4E
:101D3000064B1B685A68FB889B001344FA681A60BC
:101D4000002318461C37BD4690BD00BFD4090021B2
:101D500080B584B000AF0346FB80224B1B68002B8C
:101D600003D1C6211820FEF7B1FE1E4B1B681B7A5B
:101D70009BB2FA889A4208D21A4B1B685A68FB88B1
:101D80009B0013441B68002B02D143F2020324E0A2
:101D9000144B1B685A68FB889B0013441B68FB604C
:101DA000104B1B685A68FB889B00134400221A6082
:101DB0000C4B1B681868FB685B881A46F9681FF0B3
:101DC00033FDFFF7CDFE0346002B05D0054B1B6806
:101DD0001B6818461FF0A6FC002318461037BD46A6
:101DE00080BD00BFD409002180B582B000AF0C4B8C
:101DF0001B68002B10D00023FB7107E0FB799BB21E
:101E00001846FFF7A5FFFB790133FB71044B1B68F4
:101E10001B7AFA799A42F1D300BF0837BD4680BDDC
:101E2000D409002180B584B000AF0346FB800023B5
:101E3000FB60144B1B68002B03D1EC211820FEF72C
:101E400045FE104B1B681B7A9BB2FA889A4213D24C
:101E50000C4B1B685A68FB889B0013441B68002BC3
:101E60000AD0084B1B685A68FB889B0013441B6808
:101E700018461FF094FEF860FB6818461037BD4600
:101E800080BD00BFD409002180B584B000AF0346F7
:101E9000FB800023FB60144B1B68002B03D1FA214D
:101EA0001820FEF713FE104B1B681B7A9BB2FA88B2
:101EB0009A4213D20C4B1B685A68FB889B00134450
:101EC0001B68002B0AD0084B1B685A68FB889B00D4
:101ED00013441B6818461FF06DFEF860FB68184637
:101EE0001037BD4680BD00BFD409002180B586B043
:101EF00000AF7860084611461A460346FB700B4651
:101F0000BB7013463B807B68002B0CBF0123002372
:101F10003B7400237B61FA78BB781344DAB23F4B01
:101F20001A707B6803F00303002B03D04E210920B5
:101F3000FEF7CCFD3B881F2B03D83B889B007B82A0
:101F40001CE03B88FF2B0FD93B8803F1FF023B8845
:101F50005B009A4203DA3B88FF339BB202E03B8886
:101F60005B009BB27B8209E03B885B007C2B03DD3E
:101F70003B885B009BB200E07C237B827B8A03333F
:101F80009BB223F00303FB813B7C83F00103DBB2B4
:101F9000002B05D0224A7B681360224AFB891380FC
:101FA0001E4B1B781A4613469B001344DB001A464F
:101FB0007B6913447B6100237B7422E03B7C83F0CC
:101FC0000103DBB2002B15D0154B19687A7C134640
:101FD0009B001344DB000B4401221A70104B19685C
:101FE0007A7C13469B001344DB000B4479687A69C2
:101FF0000A445A60FB897A6913447B617B7C013314
:102000007B74064B1B787A7C9A42D7D37B69073363
:1020100023F0070318461837BD4680BDD8090021B4
:10202000DC090021E009002180B588B000AF7860AC
:102030000B46FB707B685B687B61FB78002B30D0C4
:102040007B6801225A70404B1B8818461FF0A4FE83
:102050000346FB810023FB611FE07B68FA690C32B9
:10206000002123F812107B68FA691032F98923F8ED
:102070001210FB89FA6902FB03F37A691A44796842
:10208000FB699B000B445A607A68FB691344143364
:1020900000221A70FB690133FB61FB69032BDCD959
:1020A0004DE07B6800225A700023BB611AE07B6818
:1020B000BA690C32002123F812107B68BA69103219
:1020C000002123F812107A68BB699B001344002298
:1020D0005A607A68BB691344143300221A70BB69D2
:1020E0000133BB61BB69032BE1D9174B1B88184631
:1020F0001FF05FFE03467B82134B1B8818461FF0C0
:102100006BFE03463B827B687A695A607B683A8A39
:102110001A843B8A7A691A447B689A607B687A8A57
:102120005A847B687A69DA607B683A8A9A843B8A47
:102130007A691A447B681A617B687A8ADA8400BFFC
:102140002037BD4680BD00BFE009002180B584B0C6
:1021500000AF0023FB600023FB7217E01D4B1968E2
:10216000FA7A13469B001344DB000B441B78002BC8
:1021700009D0184B1968FA7A13469B001344DB0008
:102180000B44FB6007E0FB7A0133FB72124B1B78B8
:10219000FA7A9A42E2D3FB68002B03D1A9210920E5
:1021A000FEF794FCFB68002B0ED0FB6802337B60CB
:1021B00000BF7B6800221A7000BF0121F868FFF79A
:1021C00033FFFB6800221A70FB6818461037BD46C3
:1021D00080BD00BFDC090021D809002180B582B094
:1021E00000AF0C4B1B8818461FF0D6FD0346FB8042
:1021F000084B1B8818461FF0EFFD0346BB80FA888A
:10220000BB88934238BF13469BB218460837BD4679
:1022100080BD00BFE009002180B586B002AF7860C4
:102220000B46FB701346BB702E23FB73BB789BB22F
:10223000FA7892B2F97B18461FF01AFC0346BB816C
:102240007B68002B13D0BB789AB2FB789BB2F87BEB
:10225000B9890093034678681FF0C2FB064A7B6881
:102260001360064AFB781370054ABB781370BB896C
:1022700018461037BD4680BDE4090021E809002159
:10228000E909002180B500AF054B1B68054A1178AC
:10229000054A12781846FFF7BFFF00BF80BD00BF98
:1022A000E4090021E8090021E909002180B400AF18
:1022B000024B1B681846BD4680BC7047E4090021EC
:1022C00080B400AF024B1B781846BD4680BC7047F7
:1022D000E909002180B584B000AF03460A46FB80BF
:1022E00013467B717B79002B0FD1FB8805211846A3
:1022F000FFF712FC0346BB730D4B1B68BA7B0D49FD
:10230000098801FB02F213440EE0FB8806211846FF
:10231000FFF702FC0346FB73074B1B68FA7B074978
:10232000098801FB02F2134418461037BD4680BDF0
:10233000F4090021FA090021000A0021040A002101
:1023400080B586B002AF78600B46FB701346BB7059
:10235000BB789BB21A460521F7201FF0F9FB034614
:1023600003339BB223F00303BB817B68002B28D08F
:102370007B6803F00303002B03D071211920FEF7C3
:10238000A5FB144A7B681360134ABB8913800023A2
:10239000FB8111E0FB8901211846FFF79BFFB86024
:1023A000BB789BB2B98900930523F722B8681FF068
:1023B000A1FBFB890133FB81FB789BB2FA899A422E
:1023C000E8D3FB78BA8902FB03F318461037BD4601
:1023D00080BD00BF000A0021040A00210122104B29
:1023E0004FF0FF3000215A60C3F8080303F5805313
:1023F0009A60C3F80012C3F80803C3F80015C3F8C5
:1024000004259A60C3F80803C3F80015C3F804252F
:1024100003F5805341F6F872C3F80825704700BFF2
:1024200000D000410A4B4FF40052C3F88020BFF3A4
:102430004F8FBFF36F8FC3F880214FF48042C3F8F2
:102440008020BFF34F8FBFF36F8FC3F88021704799
:1024500000E100E008B5FFF7C1FFFFF7E3FF00F080
:102460001BF8054B41F6F872C3F8082500F0AAF8EE
:10247000BDE8084000F0AEB800F0004108B5FFF735
:10248000ADFFFFF7CFFF034B41F6F872C3F8082505
:1024900008BD00BF00F0004110B5054C204621F0FA
:1024A00017FA18B127211D20FEF710FB607010BD30
:1024B000060A00212DE9F04707462B4E2B4C2A48EF
:1024C00021F00AFA054608B1FF2373704FF00108A6
:1024D0000023DFF89C90C4F80480C4F80031C4F8ED
:1024E0000431C4F80475C4F80080D4F8003113B97D
:1024F000D4F80431E3B1D4F80431002BE8D1A5B904
:1025000096F80180032375704FF400523046C4F8EA
:102510000833184BC4F80451C4F80051C3F88021A3
:1025200021F0E9F9B8F1000FC9D10020BDE8F0872A
:10253000D9F81030DB06D8D50E4B4FF40052C3F853
:102540008021EFF3108A72B60323C4F80433D4F861
:10255000003123B9D4F804310BB921F0D7F9BAF11D
:10256000000FC2D162B6C0E7060A002100D00041C8
:1025700000ED00E000E100E0114B1A6870B5E2B137
:102580005A680921012501321E68092A28BF002244
:1025900005FA02F426420DD05A60EFF3108172B6AC
:1025A0001A6822EA04021A6001B962B65B68036025
:1025B000002070BD0139E6D15A600520F9E700BF5F
:1025C000080A0021024B00221A605A60704700BFBF
:1025D000080A0021014B00221A707047100A0021DE
:1025E000084B10B51C784CB91BF070FF064BFF2848
:1025F000187005D173211F20FEF768FA0F2010BD57
:102600002046FCE7100A00211000002110B5044C00
:102610002078FF2803D01BF075FFFF23237010BD27
:1026200010000021044B4FF6FF7200219A86DA86D3
:1026300083F832101A8770475C0A0021044B4FF66A
:10264000FF7200219A86DA8683F832101A87704763
:102650005C0A0021054B9A8E824205D100214FF67B
:10266000FF7283F832109A86704700BF5C0A00211F
:10267000014BD886704700BF5C0A00210A4A4FF61A
:10268000FF710346B2F834C08C4503D000221046D7
:102690001A60704792F83210012902D001201A60A6
:1026A00070470020704700BF5C0A0021064B93F87A
:1026B0003220012A06D00122D98E104683F832201A
:1026C00099867047002070475C0A0021014B1887EB
:1026D000704700BF5C0A0021074B0246B3F834C0C4
:1026E000198F8C4501D00020704793F832000028E4
:1026F000FAD00120136070475C0A0021094B998EC3
:102700001A8F914201D0002070474FF6FF7193F865
:1027100032209986002AF6D00022012083F8322048
:10272000704700BF5C0A0021064B998E1A8F9142B8
:1027300001D00120704793F83200B0FA80F04009D0
:10274000704700BF5C0A0021704700BF034648B9CC
:10275000094B4FF0010C08688A88586003F804CBD5
:102760009A807047012800D07047034A086889881A
:102770009372D06011827047980A002140B90C4AC8
:1027800013781BB15068128908608A801846704718
:10279000012809D1064A937A002BF7D0D068128A13
:1027A000086018468A80704700231846704700BFAB
:1027B000980A002100B580EA020C1A78087891F88E
:1027C00005E050404A78604493F801C082EA0C0268
:1027D00091F802C0024498788CEA000CC8789444BE
:1027E000DA7850400A7900EB0C0193F804C058796C
:1027F00082EA0C038EEA00020B44DA420CBF01208D
:1028000000205DF804FB00BF10B9054B1878704735
:10281000012802D1024B987A70470020704700BF10
:10282000980A002130B503468DB0CA780D460024C1
:1028300000685968EC468DF81F209A68DB6806949A
:102840008DF81C40CDE90444ACE80F002B796846B4
:102850008DF81E306B798DF81D301FF09DFD2A78A4
:102860009DF82F309A4202D020460DB030BD6A78D4
:102870009DF82E309A42F7D1AC789DF82D00201AA1
:10288000B0FA80F040090DB030BD00BF30B50C4645
:10289000032105468DB0601852B3FEF7ADFB637996
:1028A000EC4603F03F0343F0400363718DF81D30A5
:1028B0000023286806938DF81C306968AA68CDE962
:1028C0000433E3788DF81F3023798DF81E30EB68E0
:1028D000ACE80F0068461FF05FFD9DF82F109DF8D3
:1028E0002E209DF82D3021706270A3700DB030BD88
:1028F000FEF790FBD3E700BF10B5044639B10621BF
:10290000FEF77AFB637903F03F03637110BD062184
:10291000FEF780FB637903F03F03637110BD00BFD6
:10292000F0B52E230E460A4C8446002726F8043BB9
:102930008CF80870334620686168A268B4F80CE02F
:102940009CF8085007C3A3F800E0002DF0D1F0BDBB
:10295000BE0A002170B5224D296BEC6A0B78A834B1
:1029600003F00303032B1AD1EB8E0120AA8E03433D
:10297000207442F40062EB86AB6BAA869847296B01
:10298000237E013B18BF012323764B7833B1D4E972
:102990002032013342F10002C4E9203270BD002B25
:1029A000EED04B78002BEBD0AA8E42F40062AA86C0
:1029B000EA6B002AF2D0FB2B08D895F8403063B1BF
:1029C000AB6B00212020BDE87040184795F84130DE
:1029D00043F0100385F8413070BD01230370CFE749
:1029E000B00A002170B57E4C002382B0E56A8DF8F4
:1029F000053095F8CB2005F1A80694F876300AB199
:102A00000433DBB2FF2B11D180B995F86F3095F804
:102A10006E108B4202D0FF2016F060F9B37D032BBD
:102A200000F2D980DFE803F0051F7F6F95F86E1084
:102A3000F1E794F877306B48ADF80630A5F85430DC
:102A4000FFF74AFE002840F09D800DF105020DF1D0
:102A50000601E06F1EF0B1FAA06720B196F85D3074
:102A6000002B00F0A280604B1846A367F37DDB00CB
:102A700003F00802037803F0F3031343327E92005D
:102A800002F00402134303F0EF0203F00303032BED
:102A9000027002D1C378022B11D0E06F1EF0B8FB98
:102AA00048B9A06F027802F00303032B07D0FFF7A9
:102AB0003BFE002876D1A06F027842F0100202702F
:102AC00096F8223013B14378002B46D116F00CFC57
:102AD00015F028FF6A6941F64B539A4236D8012116
:102AE00095F86F20084616F0C7FCA26F01233F49F6
:102AF0001088927884F8B030A4F8B40084F8B73025
:102B00008A7002B070BD3748FFF7E6FD00285DD03F
:102B1000A06FC3781B2BA9D1012105F1100016F07D
:102B20000FF9A06FA2E7B5F854300DF105020DF1D1
:102B30000601E06FADF806301EF03FFAA0670028EE
:102B400094D140F2EA212720FDF7C0FF95F86F20CD
:102B50000121002016F090FCC7E7D4F8800016F0A1
:102B6000C3FB94F82810D4F88000D6E91E23B1FAEC
:102B700081F6A16F7609C4E9262384F8A06015F0D8
:102B800077FEA7E7E38E8020A16F43F08003A26B5E
:102B9000E38690470121A06F7174C3781B2B7FF4EB
:102BA00065AFBAE7A06F027889E79DF805302BB1D1
:102BB000BDF8061003F004FFA06F57E70380012162
:102BC0008370A06F03F0C2FCA06FF1E740F2F32125
:102BD0002720FDF77BFF4FF440712720FDF776FF9C
:102BE000B00A0021280B0021F40A0021640B002107
:102BF00010B5134C16F04EFA15F094FE0021A36B9D
:102C0000A08E9847237F53B9D4F8BC3094F8411074
:102C100094F8B8009847002384F8B73010BD2346D5
:102C200007CB1B88C4F80E0004F11D00C4F8121075
:102C3000C4F8162002220349638304F0B3F9E3E7E2
:102C4000B00A002121290001034B93F8B73003B9E2
:102C50007047FFF7CDBF00BFB00A0021174A92F8B6
:102C600028307BB180B992F8B410C9060ED503B3F1
:102C70000021D38E9B0714D5936FDB78981E18BF65
:102C8000012070470128EED000207047D2F8C01014
:102C9000D06B0978C1F30011C1F1010120B1002B03
:102CA000E7D131B101207047B2F8C4000028F9D152
:102CB000F5E7D08E003818BF01207047B00A002118
:102CC00008B5094B93F8B720022A07D11A7B42F0C6
:102CD00001021A73BDE80840FFF78ABF40F24E2197
:102CE0002720FDF7F3FE00BFB00A0021F8B52C4CF9
:102CF0000646E56AD4F8C03095F8CB2005F1A80760
:102D000094F8760023630AB1031DD8B2FF2895F822
:102D10006F1004D11EB995F86E30994203D015F0AA
:102D2000DDFF97F823205AB3D4F8800016F0DCFAC0
:102D300094F82830D4F88010003B206B18BF012392
:102D400084F8A030D7E92023C4E9262315F090FDAC
:102D50003EB995F86F0010F00C0018BF282016F04F
:102D600023FB6A6941F64B539A420FD895F86E20BF
:102D70000021012016F080FB022384F8B730F8BD53
:102D8000206B16F0B1FA15F0CDFDE1E7002195F8C2
:102D90006E20084616F070FB022384F8B730F8BDA9
:102DA000B00A00212DE9F041444C82B006460F469E
:102DB00094F8B720E56A012A5FFA82F805F1A805C0
:102DC00077D12B7C6BB1E38E0021042043F0040308
:102DD0002974E386A36B984794F828300BB185F8E3
:102DE0001280A16F0A7802F00302032A44D04B78C4
:102DF000EBB10223AB7595F8233023B3E36A93F864
:102E00006F1094F828300139003B18BF012384F873
:102E1000A030D5E92023C4E9262394F87620072999
:102E200042D8DFE801F03E0941074141413B01231F
:102E3000AB75E0E74FF00308002143460120009105
:102E40001F4915F0B7FC012F11D186B9D4F8C8304D
:102E50003046984758B194F8413043B93046FFF7AF
:102E6000FDFE20B902B0BDE8F041FFF73FBF02B060
:102E7000BDE8F041FFF7BCBEAB7D63B9E38E022035
:102E800043F00203E386A36B9847A16F0B7803F02E
:102E90000303032BABD10323AB75ACE74FF0020860
:102EA000CAE74FF00008C7E740F222410620FDF7CD
:102EB0000DFE40F276412720FDF708FEB00A002102
:102EC000380B002170B50B4C94F8B73073B9064637
:102ED0000D4603F0FF02012104F14400227703F0C4
:102EE00035FBC4F8C060C4F8805070BDD0212720E5
:102EF000FDF7ECFDB00A0021044A92F8B73003F068
:102F0000FF000BB9107770470C207047B00A002102
:102F1000024B012283F84020704700BFB00A002115
:102F20002DE9F04385B0BF4C02AD85E8030094F86D
:102F3000B7100C98002940F0F081002B18BF002A30
:102F400000F0EB81002800F0E88101F0FF06C4F8F2
:102F5000C830C4F8BC0004F12803A26384F84060C0
:102F600084F8416084F8CC6084F8B86084F8B0607C
:102F7000E686A68695E8030083E80300E56A15F077
:102F800033FF15F0CFFC95F9720005F1A80716F094
:102F900065F8286A16F08CF9A86916F06BF897F8AE
:102FA000330016F071F894F82830002B00F0B2804E
:102FB00004201BF00FFD6A6941F64B539A4200F260
:102FC000C680012016F052FA4D2015F041FE95F80A
:102FD0006F10012016F05EFF002800F0B1809248CB
:102FE00016F06CF92888FEF74FFFE0672888FEF797
:102FF00019FF95F87B30C4F8D0001BB9696F002920
:1030000040F0D480D7F89430DFF820C2D7F8880099
:10301000D7F88C10D7F89020ACE80F00D7F898308C
:10302000C4F8A130D7F89C30CCF80D3094F8283093
:10303000002B40F09080E36A93F8C520263A012ADD
:1030400040F2DB8093F8C620262A00F0D68093F861
:103050006E10042900F0188111F00C0FA88F18BF12
:103060004FF4296002F0F8F82B8F95F86F10834227
:1030700097F82390B5F8408028BF034611F00C0F55
:103080000CBFB5F842004FF42960082984F8773066
:1030900008BF042102F0E0F8B9F1000F01D10430BB
:1030A00080B2404528BF40465FFA80F884F8D4805B
:1030B00004F052FA20B1B8F12B0F38BF4FF02B08B3
:1030C00094F8281084F87680002940F0D28097F890
:1030D0002230002B00F0B480012395F86E6084F854
:1030E000A030013E6869D7E91E23C4E9262341F6D2
:1030F0004B53984294BF04200020072E00F2E48036
:10310000DFE816F09700F900E2009600E200E20026
:10311000E200FB0003201BF05DFC6A6941F64B53A3
:103120009A4210D8012016F0A1F94D2015F090FD1B
:1031300095F86E10002016F0ADFE00287FF44FAF1A
:1031400005B0BDE8F083962015F082FDF0E79620EB
:1031500015F07EFD3BE7E26A92F8C530A3F1260147
:10316000012934D992F8C600262830D0A3F12101D4
:103170001346012900F2C780242840F0AA8092F863
:10318000671092F866310B4092F86E105A077BD4A4
:1031900013F0010274D19B077FF55EAF042973D051
:1031A000082971D0012918BF022124E0B7F84A206C
:1031B000BB8A93427FF426AFB5F8782013440122EE
:1031C000A7F84A3095F87A0018F098F81AE792F8BC
:1031D000D63392F86E10002B3FF43EAF082953D03F
:1031E000042951D0082B4FD0042B4DD0012901D0F8
:1031F000012B15D10121A88F34E793F8322393F8DE
:103200006E10002A3FF428AF08293DD004293BD096
:10321000082A39D0042A37D00129EBD0012AE9D075
:103220000221E8E7B00A002140CD0201380B00215D
:10323000032100220B463E490092FB2215F0BAFA08
:103240000120FFF7CFFB3B4BD3F8503523F00803A9
:10325000032B67D0002397F83320C4E90033A36021
:10326000A3812988BB8A21802271638005B0BDE8D3
:10327000F08397F823305BB90120FFF737FDE2E7D1
:10328000042901D0082946D108214FF42960E9E634
:1032900095F86F300122D7E92001013B84F8A02086
:1032A000C4E92601072B0FD8DFE803F005290E0437
:1032B0000E0E0E2B032600213346424601200091BC
:1032C0001B4915F077FAD7E740F222410620FDF7B7
:1032D000FDFB92F8663192F86E105A07D4D413F0C1
:1032E000010214D198077FF5B7AE0829CCD0042984
:1032F0007FF458AFC8E701219BE7022199E7012637
:10330000D9E70226D7E724287FF4A1AE37E70829BA
:10331000BAD00429B8D011466DE74FF4A371272025
:10332000FDF7D4FB40F203212720FDF7CFFB00BFC0
:10333000380B00210080004110B5174C94F8B730CD
:10334000DBB194F828307BB194F8B730022B1ED152
:10335000E36AD3F8100315F0FDFFE36A93F87B20CE
:103360000AB9596F61B910BD94F8B730012BF4D088
:1033700040F21B212720FDF7A9FBFFF739FCECE702
:10338000114693F87A00BDE8104017F0B7BF40F23D
:103390001F212720FDF79AFBB00A0021FFF728BC68
:1033A000014B1877704700BFB00A0021014B93F81A
:1033B000B0007047B00A0021024B988EC0F3802005
:1033C000704700BFB00A0021014B93F8CC00704752
:1033D000B00A00212DE9F0411E4F820782B0054658
:1033E000FC6A0E4604F1A80411D4EB070CD5217E2B
:1033F000D4E92032013342F100020129C4E920322C
:103400000CBF00230123237602B0BDE8F081FB6BE3
:10341000DBB1B7F8C4201846396B033291F801804C
:103420001BF082F90DF1020201A93863D7F8D00030
:103430001EF0BCF801981EF07DF801223060414674
:10344000D7F8D0001DF0A6FFCFE740F26741272054
:10345000FDF73CFBB00A00212DE9F047002386B0C0
:10346000A54C06468DF80F300F46E56ACDE90433CA
:1034700094F8B730A835022B5FFA83F840F08981C1
:10348000A38E13F0400106D1A36B40209847A38E72
:1034900043F04003A386002E61D095F82330002B23
:1034A00040F00A81236B597889B2A4F8C41000292E
:1034B00040F016810022E2631A78E87DA38EC2F301
:1034C000800143F480738842A38600F0DF80E16AC4
:1034D00094F8280001F1A80999F81610D9B1022929
:1034E00000F03E81002189F8161020B199F81230C1
:1034F000002B40F02B8199F81130002B40F0028115
:1035000099F81730012B0CBF0023012389F81730DD
:10351000236B1A78A38E43F480634FF00009A386CF
:10352000C2F3C0022B7E934228D104F015F8002884
:1035300000F0BD80226B137803F00303013B012BE5
:1035400000F2B580527894F8D4309A4240F2AF80BD
:1035500094F8413043F0100384F841300EE095F8C0
:103560002320002A40F0C38043F400734FF0000989
:10357000A38694F8CC30013384F8CC3095F822300F
:103580003BB394F8283041F64B52B3FA83F35B090E
:1035900084F8A030E36A586993F86E10904294BFA3
:1035A000042000200139D5E91E23C4E92623072978
:1035B00000F2C480DFE801F07804C275C2C2C2061E
:1035C0004FF00108002243464C490092FB2215F0BF
:1035D000F1F8002F45D194F8CC30012B41D8D4F824
:1035E000C8300120984700283BD094F84130002B88
:1035F00037D10120FFF732FB0746002831D1FFF712
:10360000F1F99DF80F30002B32D1B9F1000F06D03F
:1036100094F82830002B3BD163890133638166B372
:10362000E38800223648013384F8CC20E38004F09C
:103630004BFC049840B11DF07DFFE16A0023052298
:103640000130037203F08CFC059B33B1E16A00206A
:103650000E221872059803F083FC97B906B0BDE8F6
:10366000F08715F06DFF9DF80F300127002BCCD0AF
:1036700005A90220FFF7AEFEC7E7238901332381A6
:10368000D7E7FFF7B5FA06B0BDE8F087B14647E7E0
:10369000E3882189AA8A0B4313439BB2002BBED037
:1036A000BAE74FF003088DE74FF000088AE70DF105
:1036B0000F00FFF74FF961E715F078F915F05AF9A7
:1036C000236B597800287FF4EFAE00293BD01B789C
:1036D0002A7EC3F3C0039A4255D089B2A4F8C4101D
:1036E000D4F8D0001DF0E1FD236BE063E4E615F0B3
:1036F00097F9A38E38E700BFB00A0021380B0021EC
:10370000D80A00214FF0000A89F811A0FEF7F6FF51
:10371000002848D0E38E5146082043F00803E38692
:10372000A36B9847D9F878300133C9F87830D9F8C5
:103730007C3043F10003C9F87C30E1E640F22241DD
:103740000620FDF7C3F9A4F8C410B3E6E38E1020F9
:1037500089F8121043F01003E386A36B9847CAE67A
:1037600004A9E06F1DF07CFCC0B1D9F8783094F862
:1037700028000133C9F87830D9F87C3043F10003D0
:10378000C9F87C30AEE6012384F8B830FFF730FA90
:1037900064E740F2EB412720FDF798F94FF4797187
:1037A0002720FDF793F940F2FB312720FDF78EF932
:1037B000464B9A786AB393F8031181422FD0012ABD
:1037C00027D093F80411814229D0022A21D093F8FE
:1037D0000511814223D0032A1BD093F806118142A0
:1037E0001DD0042A15D093F80711814217D0052A5D
:1037F0000FD093F80811814211D0062A09D093F80E
:10380000091181420BD0072A03D093F80A21824282
:1038100005D01A78013AD2B290421A7000D170479E
:10382000D200C10002F2531201F2531110B59C589C
:103830001A4403EB010CD2F804E05C509A78197832
:10384000CCF804E06AB393F803418C422FD0012AEC
:1038500027D093F804418C422BD0022A21D093F830
:1038600005418C4229D0032A1BD093F806418C4293
:1038700021D0042A15D093F807418C421FD0052A85
:103880000FD093F808418C421DD0062A09D093F836
:1038900009418C4215D0072A03D093F80A218A42A5
:1038A00000D010BD0722134483F8030110BD00228D
:1038B000F9E70122F7E70322F5E70222F3E7042202
:1038C000F1E70622EFE70522EDE700BF880B0021B4
:1038D000044B9A78824203D9184490F84301704708
:1038E00000207047880B002108B50B4B40F2D31223
:1038F000002118461AF08EFF002203464FF0FF31D8
:103900004FF4617083F8DC2183F8DD21A3F8DE0138
:10391000C3E9751108BD00BF880B00212DE9F84FE0
:10392000DFF804A105469AF80040002C6BD091F80E
:1039300000B0534691F801904FF0000E91F80280CC
:10394000CF780E79487906E00EF1010E08335FFA60
:103950008EF2944237D993F8532193F854C16A40B8
:103960008BEA0C0C624493F855C189EA0C0C624452
:1039700093F856C188EA0C0C944493F857217A4086
:10398000944493F858217240624493F859C180EAF4
:103990000C0C1CEB020FD7D10EF12A0E0AEBCE0E47
:1039A0009EF80A3013F001000BD19AF80120072A83
:1039B00007D843F001038EF80A30013201208AF85B
:1039C0000120BDE8F88F9AF80130072B02D90020BA
:1039D000BDE8F88F631C0F2C8AF8003020D82A34F9
:1039E000E3B2DB00043308680AEBC4044AF80300BE
:1039F00053448A889A80A37A9AF8012043F00103FD
:103A0000E570A372D9E79AF80130072B01D9204657
:103A1000D7E701224FF4AA732A248AF80020E2E7AC
:103A200046212820FDF752F8880B00212B4B2DE969
:103A3000F04F1E7885B0002E4ED00B79002507463A
:103A400091F800B0019328464B7991F801A00293B8
:103A500091F8029091F80380204B039604E0013521
:103A6000039AE8B2824233D993F85311083393F89A
:103A70004C4193F84D2179408BEA040493F84EE1D0
:103A80008AEA0202019E214489EA0E0E93F84FC190
:103A90000A4493F8501188EA0C0C93F8514172448F
:103AA0007140029E6244744011446118D7D10B4AA0
:103AB0002A35537802EBC505013B5370AB7A61F3AD
:103AC0000003AB72FFF774FE012005B0BDE8F08F74
:103AD000002005B0BDE8F08F3046F6E7880B0021E6
:103AE000014B83F8DD017047880B0021014B93F8EF
:103AF000DD017047880B00215E4A1378013B5BB201
:103B0000002BC0F2A48010B505E0DBB2013B5BB234
:103B1000591C00F0988003F12A0002EBC0018C7A56
:103B2000E407F2D592F801C0DBB291F80AE00CF19B
:103B3000FF3C94786FF3000E82F801C081F80AE030
:103B40006CB392F803119942E0D0012C27D092F87F
:103B500004119942DAD0022C21D092F80511994231
:103B6000D4D0032C1BD092F806119942CED0042C4D
:103B700015D092F807119942C8D0052C0FD092F8B1
:103B800008119942C2D0062C09D092F80911994225
:103B9000BCD0072C03D092F80A119942B6D0117804
:103BA0000139C9B28B421170B0D0C900C00001F216
:103BB0005311033052F801E011441418D1F804C035
:103BC00042F800E091781078C4F804C000299DD034
:103BD00092F8034184423ED0012997D092F80441E3
:103BE00084423AD0022991D092F80541844238D0DB
:103BF00003298BD092F80641844230D0042985D025
:103C000092F8074184422ED005293FF47FAF92F805
:103C10000841844229D006293FF478AF92F809413F
:103C2000844224D007293FF471AF92F80A118142EF
:103C30007FF46CAF0721114481F80331013B5BB283
:103C4000591C7FF468AF002382F8DD3110BD0023DA
:103C500082F8DD3170470021EDE70121EBE7032118
:103C6000E9E70221E7E70421E5E70521E3E706218B
:103C7000E1E700BF880B00212DE9F04F85B000255A
:103C80000393514B15701F780292002F70D00B795F
:103C90002E4691F800B000934B7991F801A0019362
:103CA00091F8029091F80380474B03E00135EEB2A2
:103CB000BE425DD293F85311083393F84C4193F808
:103CC0004D2141408BEA040493F84EE18AEA020256
:103CD000214489EA0E0E93F84FC10A4493F850111B
:103CE00088EA0C0C93F851419644009AE6445140FE
:103CF000019A714454406118D8D10A463249029859
:103D000001EBC50595F85A31C3F3000303708B78B6
:103D100073B32D4890F80311B1422ED0012B27D058
:103D200090F80421B2423DD0022B21D090F8052119
:103D3000B2423AD0032B1BD090F80621B24237D0C2
:103D4000042B15D090F80721B24234D0052B0FD0A8
:103D500090F80821B24231D0062B09D090F8092101
:103D6000B2422ED0072B03D090F80A31B34203D0D1
:103D7000012005B0BDE8F08F07221346039921B159
:103D80000A70114989789142F2D90F4A134493F885
:103D90003B2193F84B01012A08BF40F0010005B018
:103DA000BDE8F08F01221346E8E702221346E5E75B
:103DB00003221346E2E704221346DFE705221346F7
:103DC000DCE706221346D9E7880B00212DE9F04FE6
:103DD0006A4D85B0044628780391CDE90123002877
:103DE00000F0BE804B794FF0000E91F800B00093C8
:103DF000F44691F801A02B4691F8029091F80380C7
:103E00000F7907E00EF1010E08335FFA8EFC604572
:103E100040F29B8093F8541193F853218BEA0106EA
:103E20006240911993F855618AEA0606721893F870
:103E3000561189EA01018E1893F8572188EA020287
:103E4000911993F85821009E7A400A4493F8591129
:103E500071406646D142D5D1AC78002C4AD095F855
:103E60000321624578D0012C44D095F804216245A5
:103E700072D0022C3ED095F8052162456CD0032CFF
:103E800038D095F80621624566D0042C32D095F8DA
:103E90000721624560D0052C2CD095F80821624599
:103EA0005AD0062C26D095F80921624554D0072C0B
:103EB00020D095F80A0160450CBF1220072005B0FC
:103EC000BDE8F08F431C0F282B7052D800F12A0256
:103ED000D3B2DB0004330399064605EBC20208683F
:103EE000E8502B4489889980937AD4706FF300034B
:103EF000AC7893722701DDF80480621C2C44F81C16
:103F00004146AA701022284401F028F807F18300E6
:103F100010222844029D294601F020F8102128464D
:103F200000F0B0FF03461021404684F8433100F012
:103F3000A9FF0023024684F80361184684F83B3148
:103F400084F84B2105B0BDE8F08FAB78072BB9D9C9
:103F5000072005B0BDE8F08F122005B0BDE8F08F56
:103F6000AB78072BF4D801232A222B704FF4AA73C5
:103F7000B1E746212820FCF7A9FD00BF880B0021EE
:103F8000774B1A78002A75D02DE9F04F85B00B7960
:103F9000002691F800B001934B79374691F801A0C3
:103FA00091F8029091F8038002936D49039204E026
:103FB0000136039BF7B2BB4258D991F853410831FF
:103FC00091F84C5191F84D3144408BEA050591F838
:103FD0004EE18AEA0303019A2C4489EA0E0E91F815
:103FE0004FC1234491F8504188EA0C0C91F851518B
:103FF00073445440029A634455401C442D19D7D150
:10400000574A907898B392F80331BB4235D00128D3
:104010002CD092F80431BB4200F09280022825D0C7
:1040200092F80531BB4200F08E8003281ED092F832
:104030000631BB4200F08A80042817D092F807317D
:10404000BB4200F08680052810D092F80831BB42B0
:1040500000F08280062809D092F80931BB420BD0CB
:10406000072803D092F80A31BB4266D0002005B081
:10407000BDE8F08F1046704706252B46421EDFF83C
:10408000E0C0D2B29A428CF8022049D01001E34637
:104090002B01C41C02EB420103F1030E6244A44451
:1040A0005BF804A00BEB0E048330DCF8088083334C
:1040B000DCF804904900DCF80CC04BF80EA001F2CB
:1040C0000B11C4F80CC0C4F80490C4F808805C4616
:1040D0005BF8008004445846D4F804E01844D4F84F
:1040E00008C0E4684BF8038005EB4503C0F804E022
:1040F0005D44C4605B00C0F808C05C4692F80301F0
:1041000003F20B1385F8030160185BF801104BF8FC
:1041100003105B448188998092F83B3185F83B31EC
:104120000F4B03EBC60696F85A5115F001009ED1CD
:104130003846FFF73DFB012099E707252B469DE711
:1041400001252B469AE702252B4697E703252B46A8
:1041500094E704252B4691E705252B468EE700BF03
:10416000880B00217D4A9378013B59B20029C0F2A7
:10417000E58002EB01102DE9F04F01EB410E01F556
:104180008275033002EB4E0E15440EF20B1E09E051
:1041900001391038AEF1060E49B24B1C00F0CC804C
:1041A0009378013BDBB2C9B293708B4215F801CD15
:1041B00038D01E01F41C833602EB040852F8049038
:1041C000971903EB4304D8F808A01344D8F804B0B7
:1041D0006400D8F80C80C0F8009004F20B14C0F80A
:1041E00004B0C0F808A0C0F80C8052F806A0D7F8B8
:1041F0000490FE68D7F80880C0F88C601619C0F8E3
:1042000080A0C0F88490C0F8888093F803712F7064
:104210001459CEF80040B488AEF8044093F83B310E
:1042200085F838300CF12A0302EBC304A47AE407C2
:10423000AED4947874B392F803616645A8D0012C8B
:1042400028D092F804616645A2D0022C22D092F8C0
:10425000056166459CD0032C1CD092F8066166452A
:1042600096D0042C16D092F80761664590D0052CA4
:1042700010D092F8086166458AD0062C0AD092F8D0
:104280000961664584D0072C04D092F80A41644540
:104290003FF47EAF1478013CE4B2A44514703FF4BF
:1042A00077AFE400DB0004F25314033316591444CF
:1042B0006468D65013445C6093781478002B3FF404
:1042C00067AF92F80361A64239D0012B3FF460AF8B
:1042D00092F80461A64234D0022B3FF459AF92F811
:1042E0000561A64231D0032B3FF452AF92F806612C
:1042F000A64228D0042B3FF44BAF92F80761A642A8
:1043000025D0052B3FF444AF92F80861A64220D097
:10431000062B3FF43DAF92F80961A6421BD0072B54
:104320003FF436AF92F80A31A3427FF431AF07234E
:10433000134483F803C12BE7BDE8F08F70470023D7
:10434000F6E70123F4E70323F2E70223F0E704236F
:10435000EEE70523ECE70623EAE700BF880B002120
:10436000014B83F8DC017047880B0021014B93F867
:10437000DC017047880B0021421E4AF2B711034648
:1043800092B28A4204D8034A0120A2F8DE31704773
:1043900000207047880B0021014BB3F8DE01704705
:1043A000880B0021444B2DE9F04F1F7885B0002F7A
:1043B0006FD00B79002591F800B001932E464B7910
:1043C00091F801A0029391F8029091F803803A4B82
:1043D000039703E0EEB2039AB2425AD993F853110D
:1043E000083393F84C41013593F84D2141408BEA55
:1043F000040493F84EE18AEA0202019F214489EA0B
:104400000E0E93F84FC10A4493F8501188EA0C0C31
:1044100093F8514172447940029F62447C401144B8
:104420006118D7D1244B9B789BB3234890F8032184
:10443000B24234D0012B2CD090F80421B24230D0BB
:10444000022B26D090F80521B2422CD0032B20D08D
:1044500090F80621B24220D0042B1AD090F8072100
:10446000B24222D0052B14D090F80821B2421ED0BF
:10447000062B0ED090F80921B2421AD0072B08D093
:1044800090F80A11B1420CBF0720082005B0BDE822
:10449000F08F082005B0BDE8F08F0320FAE708464A
:1044A000F8E70120F6E70220F4E70420F2E7052010
:1044B000F0E70620EEE700BF880B0021044B9A7856
:1044C000824203D903EB001083307047002070470D
:1044D000880B0021044B9A78824203D903EB001029
:1044E0000330704700207047880B002110B40D4C3A
:1044F000A378834203D8002310BC18467047204499
:1045000090F803312A33D80004EBC3030430DB787E
:104510000B7021182058012310BC106018468988A0
:1045200091807047880B002170B506460D4614F047
:1045300083FF14F0ABF80A4B93F8DC4114B199787F
:1045400011B90C46204670BDD81C83333246002D6D
:1045500008BF184614F066F814F0BEF8204670BD87
:10456000880B002108B514F0CDF808B9FF2008BD6C
:10457000BDE8084014F0FCB814F0C4B8074B9A78B2
:10458000824209D9184490F8032103EBC20393F83F
:104590005A0100F00100704700207047880B00218D
:1045A0004C4A2DE9F04F157895B0002D00F082802F
:1045B00092F808110023907802F5AA74019192F8FC
:1045C000091192F803E1029192F80A1192F804613C
:1045D0000391194692F8058192F8069192F807A185
:1045E00004E001330834DFB2AF4244D202EBC30728
:1045F00097F85A71FF07F4D530B3DFB2BE4540D00B
:10460000012821D0B74249D002281DD0B84548D052
:10461000032819D04F4547D0042815D0574546D018
:10462000052811D0DDF804C067454AD006280BD014
:10463000DDF808C0674547D0072805D0DDF80CC075
:10464000674544D01028CCD84FF0100C14AF01F1BE
:10465000010B013307EBC107114481F8D4C15FFAA4
:104660008BF114F801CC47F8404C083407F83CCCE7
:10467000DFB2AF42BAD304A814F03AFC15B0BDE8DB
:10468000F08F0027BC46174497F83BB1BBF1010FF0
:10469000DCD097F84B71002FA3D0D7E70127BC4699
:1046A000F1E70227BC46EEE70327BC46EBE7042709
:1046B000BC46E8E7294604A814F01AFC15B0BDE88A
:1046C000F08F0527BC46DEE70627BC46DBE7072759
:1046D000BC46D8E7880B00218A4B10B59A7890B079
:1046E000002A00F0088193F83B11012900F0938023
:1046F00093F84B11002940F08E80012A00F086804B
:1047000093F83C01012800F0968093F84C010028B2
:1047100040F09180022A79D093F83D01012802D01F
:1047200093F84D01B0B193F805014C1C0DF1400C0C
:1047300003EB010E2A300CEBC10CC000E1B2041DEA
:104740001844C0781C440CF83C0C02204CF8404C37
:104750008EF8D401032A59D093F83E01012802D0E3
:1047600093F84E01B0B193F806014C1C0DF1400CCA
:1047700003EB010E2A300CEBC10CC000E1B2041DAA
:104780001844C0781C440CF83C0C03204CF8404CF6
:104790008EF8D401042A39D093F83F01012862D061
:1047A00093F84F0100285ED1052A2FD093F84001DD
:1047B000012870D093F8500100286CD1062A25D02A
:1047C00093F8410101287ED093F8510100287AD155
:1047D000072A1BD093F84221012A02D093F85221D4
:1047E000A2B193F80A21581807242A3280F8D4413C
:1047F00010A8D20000EBC1000131141D1A44C9B247
:104800002344D27840F8403C00F83C2C684614F031
:104810006FFB10B010BD93F80301002401212A3072
:1048200083F8D441C000041D18441C44C07800948F
:104830008DF8040061E793F804014C1C0DF1400C65
:1048400003EB010E2A300CEBC10CC000E1B2041DD9
:104850001844C0781C440CF83C0C01204CF8404C27
:104860008EF8D40156E793F807014C1C0DF1400C6B
:1048700003EB010E2A300CEBC10CC000E1B2041DA9
:104880001844C0781C440CF83C0C04204CF8404CF4
:104890008EF8D40188E793F808014C1C0DF1400C08
:1048A00003EB010E2A300CEBC10CC000E1B2041D79
:1048B0001844C0781C440CF83C0C05204CF8404CC3
:1048C0008EF8D4017AE793F809014C1C0DF1400CE5
:1048D00003EB010E2A300CEBC10CC000E1B2041D49
:1048E0001844C0781C440CF83C0C06204CF8404C92
:1048F0008EF8D4016CE71146684614F0F9FA10B04E
:1049000010BD00BF880B00218C460246012108B56E
:10491000054B03EB0C1303F1830013F083FEBDE89A
:10492000084013F0D9BE00BF880B0021074B10B51B
:1049300093F8DC4114B1997811B90C46204610BDAA
:104940000246D81C13F06EFE204610BD880B0021D5
:10495000F8B5114DAE7856B1002407462346E91844
:1049600091F8431121B10134E3B2B342F7D3F8BD5A
:1049700003EB4301013405EB03133A4605EB410118
:1049800003F1830001F20B11FDF780FFAE78E3B273
:10499000B342E4D3F8BD00BF880B00210048704744
:1049A000680D0021084B9A7882420AD91A1892F8A9
:1049B000432132B900EB400003EB400000F20B1042
:1049C00070470020704700BF880B002101EB4101B8
:1049D000044B0268490001F20B115A5019448388B4
:1049E0008B807047880B0021064B9A78824206D94B
:1049F000184490F83B01B0FA80F04009704700205D
:104A0000704700BF880B00212DE9F04F0C4683B0A2
:104A1000062105462046009200F034FA064658B1B9
:104A20004B48827822B1009900F23B1019F0F2FE57
:104A3000304603B0BDE8F08F454B18780028F7D01A
:104A400094F800B0B64694F801A094F8029094F857
:104A50000380277994F805C034463D4B019603E066
:104A60005FFA8EF4A04262D993F85321083393F889
:104A70004C610EF1010E93F84D116A408BEA060667
:104A80008AEA0101164493F84E21314489EA020270
:104A900093F84F610A4493F8501188EA060679406A
:104AA000164493F8512131448CEA02025118D7D1AF
:104AB00027480A46019E8378002BB9D090F803114D
:104AC000A1422AD0012BB3D090F80421A24235D0C4
:104AD000022BADD090F80521A24231D0032BA7D0F4
:104AE00090F80621A2422DD0042BA1D090F80721E6
:104AF000A24229D0052B9BD090F80821A2421BD0BE
:104B0000062B95D090F80921A2421FD0072B8FD0F9
:104B100090F80A31A3428BD107220D4B01261A448B
:104B20003046009B82F83B3103B0BDE8F08F019E18
:104B3000304603B0BDE8F08F0522EEE70122ECE736
:104B40000222EAE70322E8E70422E6E70622E4E796
:104B5000880B0021002342F2107CA0F84820036457
:104B60004B1E0CFB0232B2FBF1F14164704700BFF7
:104B700070B50D4600210646FCF718FF686018B1B5
:104B8000002318462B7070BD044601213046FCF707
:104B90000DFF686018B1012320462B7070BD022004
:104BA00070BD00BF38B504460D4631B101296AD049
:104BB000022931D003295FD038BD4FF4816219F04A
:104BC00029FE01214922042084F8CD10342184F8E3
:104BD00017212B2284F81911072184F81621FE22AF
:104BE0004FF6FF7384F8180184F81A117F204349A7
:104BF00084F84E21202284F81B5184F81C5184F83B
:104C00001D51A4F8563184F8C100C4F8B010A4F8BE
:104C1000B43384F8842338BD0023D0F8DC23416901
:104C200042F21075B0F8E203A4F8F630B4F8FA30A6
:104C300001FB03F3B3FBF2F3A4F8FA30531E05FBB8
:104C40000030B0FBF2F0A4F8F800D4F8E80000FB64
:104C500001F1B1FBF2F1C4F8E8102949B1FBF2F11E
:104C60000131A4F8FE10B4F8F01005FB0133B3FBDA
:104C7000F2F3C4F8EC3038BD00F1CE01CD30BDE820
:104C8000384000F095BD436900251E49B0F8FA0090
:104C9000D4F8E820194403FB00F003FB02F2A4F867
:104CA000165384F80B53A4F8F650B1FBF3F1B0FBA4
:104CB000F3F0B2FBF3F2C4F8EC1040F6B831A4F80C
:104CC000FA00581EC4F8E820A4F8F01042F210715F
:104CD000E28B01FB02000A4A04F1CE01B2FBF3F2BF
:104CE000B0FBF3F3013204F1CD00A4F8F830A4F8DE
:104CF000FE20BDE8384000F05BBD00BF00E0FCFFD7
:104D0000005A62027FC3C90138B504460D4631B16D
:104D1000012964D002292BD0032959D038BD4FF482
:104D20005E7219F077FD49230122042184F81731BE
:104D3000342384F8CD20072284F81931FE232B2058
:104D400084F8181184F81A217F21404A84F84E31E2
:104D5000202384F81B5184F81C5184F81D5184F8D9
:104D6000160184F8C110C4F8B02084F8193338BD96
:104D70000023D0F84023416942F21075B0F8460391
:104D8000A4F8F630B4F8FA3001FB03F3B3FBF2F306
:104D9000A4F8FA30531E05FB0030B0FBF2F0A4F883
:104DA000F800D4F8E80000FB01F1B1FBF2F1C4F81F
:104DB000E8102749B1FBF2F10131A4F8FE10B4F874
:104DC000F01005FB0133B3FBF2F3C4F8EC3038BD4F
:104DD00000F1CE01CD30BDE8384000F0E9BC4369B8
:104DE00042F210751B4AB0F8FA001A44D4F8E810E1
:104DF00003FB00F003FB01F1B2FBF3F2B0FBF3F0B5
:104E0000C4F8EC2040F6B832A4F8FA00581EA4F812
:104E1000F020E28B05FB02000D4AB1FBF3F1B2FB7F
:104E2000F3F2B0FBF3F30132A4F8F8300023C4F836
:104E3000E81004F1CD0004F1CE01A4F8FE20A4F89E
:104E4000F630BDE8384000F0B3BC00BF00E0FCFF26
:104E5000005A62027FC3C90170B5047934F01F049F
:104E60000ED1451E061D15F8010F02F0ADFC0444DD
:104E7000B542E4B2F7D1012C94BF0020012070BDEF
:104E8000002070BD002964D04B1E062B00B562D9EE
:104E90008B0800F1040E02464FF0000C013BDBB220
:104EA0000EEB830E52F8043B724543EA0C0CF9D129
:104EB000CCF30723CCF307424CEA0303134301F07E
:104EC000FC0243EA1C6331F0FC0CDBB23CD010F86E
:104ED00002C043EA0C0302F1010C5FFA8CFC61454D
:104EE00032D910F80CC043EA0C0302F1020C5FFA4D
:104EF0008CFCDBB2614527D910F80CC043EA0C03E7
:104F000002F1030C5FFA8CFC61451DD910F80CC04E
:104F100043EA0C0302F1040C5FFA8CFC614513D9DF
:104F200010F80CC043EA0C0302F1050C5FFA8CFC8C
:104F3000614509D9063210F80CC0D2B243EA0C031D
:104F4000914201D9825C1343B3FA83F040095DF8C2
:104F500004FB0120704700221346B8E762B102F15A
:104F6000FF3C0A44431E5FFA8CF1084412F8011D0D
:104F700003F8011F9842F9D1704700BF30B51C46B5
:104F80008DB0C37B154642788DF80030837B8DF859
:104F90000E208DF80130437B8DF80230037B8DF8B5
:104FA0000330C37A8DF80430837A8DF80530437A64
:104FB0008DF80630037A8DF80730C3798DF8083004
:104FC00083798DF8093043798DF80A3003798DF8AB
:104FD0000B30C3788DF80C3083788DF80D30037862
:104FE00068468DF80F30CB7B4A788DF810308B7B7C
:104FF0008DF81E208DF811304B7B8DF812300B7B15
:105000008DF81330CB7A8DF814308B7A8DF81530FB
:105010004B7A8DF816300B7A8DF81730CB798DF8E6
:1050200018308B798DF819304B798DF81A300B794F
:105030008DF81B30CB788DF81C308B788DF81D30B7
:105040000B788DF81F301DF0A7F98DB39DF82F0058
:105050009DF82E109DF82D209DF82C302070617049
:105060009DF82B009DF82A10A270E3709DF829206E
:105070009DF82830207161719DF827009DF8261059
:10508000A271E3719DF825209DF824302072617291
:105090009DF823009DF82210A272E3729DF8212052
:1050A0009DF8203020736173A273E3730DB030BD9F
:1050B00008AD0FCD20606160A260E3600DB030BD2F
:1050C000A0F10B03042B08D9A0F121032F2818BF4E
:1050D000062B94BF0120002070470120704700BFBD
:1050E0000D2900F28380DFE801F00D11171D23293F
:1050F00039454B51585E67072A3A042A8CBF002075
:1051000001207047B2FA82F040097047073A012A3D
:105110008CBF0020012070470B3A022A8CBF002070
:10512000012070470E3A012A8CBF002001207047F1
:10513000113A0C2A8CBF002001207047002B41D16E
:10514000A2F11303012B49D990F85E30002B47D010
:10515000143A082A8CBF002001207047A2F11103E5
:10516000032B3BD990F85E001D2A8CBF002000F075
:1051700001007047A2F10400B0FA80F040097047C6
:10518000A2F10100B0FA80F04009704703BBA2F120
:105190000500B0FA80F0400970471E3A022A8CBF21
:1051A000002001207047A2F121002F2A18BF0628F5
:1051B00094BF012000207047A2F12900B0FA80F0CE
:1051C00040097047123A0B2A8CBF0020012070471B
:1051D000A2F11000B0FA80F040097047012070473A
:1051E000183A042A8CBF0020012070470020704725
:1051F000F8B504460D46D0E9046716F0EBFA08B39B
:10520000DDB1236962699B1B62EB0702012B72F11E
:10521000000114DB6FF001000021984271EB0202E3
:1052200015DB6A1E1344B3FBF5F303FB05F5AE195A
:105230001D4647F10007C4E904672846F8BD00256C
:105240002846F8BD40F217212920FBF73FFC40F229
:1052500021212920FBF73AFC11F00C030CD04B075D
:1052600012D44FF4747340229842194612D9401A4E
:1052700090FBF2F080B2704702290DD0702809D956
:105280007038C0F3CF00704740F20E2310229842CE
:105290001946ECD8002070473C28FBD93C38C0F3B5
:1052A0008F0070470B68C0F86A307047034610F0F3
:1052B000010007D19A0704D413F0040018BF082096
:1052C00070470220704700BF2DE9F84F8946074616
:1052D0000846924601F0A4FA0546484601F0A4FAB1
:1052E00010F00104064659D1820700F1928010F0B7
:1052F000040474D1A34615F001084CD1AB0700F1AA
:10530000838015F0040803D04FF0010B4FF008081C
:1053100013F024F90640F6B2002E08BF002413F063
:105320001DF9054097F86E30EDB2002D08BF4FF023
:105330000008A34226D08AF8004097F86F30434512
:105340002FD044EA0803DBB28AF80180002B4CD04E
:10535000D4B3082C06D05846BDE8F88F042B01D0F2
:10536000082B37D197F86431012BF4D1B7F86831A5
:10537000012B97F86E3050D0082BECD008238AF818
:105380000030E8E700238AF8003097F86F204245A4
:1053900029D04346D8E74FF0010BB9E74FF0010B96
:1053A000A9E700238AF80130002CD2D1484601F049
:1053B00041FAB7F8BC3047F6FD72DB4303449BB2B9
:1053C000934288BF4FF0000B97F86E30022BC5D880
:1053D000002BC0D14FF436710620FBF777FB4FF05E
:1053E000010B082487E78AF80130484601F022FAC9
:1053F000B7F8BC30DB43184447F6FD7380B29842DF
:1054000088BF4FF0000BA3E74FF0010B4FF00208ED
:105410007EE74FF0010B02246DE7042BAED004238E
:105420008AF8003097E700BF012805D0022803D092
:1054300010F00C0018BF0420704700BFC1F3072311
:1054400084B05FFA80FC012B0190C9B2C0F3072041
:105450001ED101291CD10CEA000001400B401A4664
:10546000990731D413F0010102D113F0040131D1B5
:1054700090072DD412F0010303D112F0040318BFDA
:105480000823002061F3070063F30F2004B0704786
:10549000022901D1022BDED0042901D1042BDAD05C
:1054A000BCF1010F01D10128D5D0BCF1020F01D10F
:1054B0000228D0D0BCF1040F01D10428CBD00CEAD3
:1054C000030300EA0102CBE790074FF00201D1D5B8
:1054D0000223D6E793070DD412F0010303D112F093
:1054E000040318BF0823BDF80620012A14BF0821B1
:1054F0000421C6E70223F6E7082908BF01288446ED
:105500000CBF012000200FD0A1F10400BCF1010F5D
:10551000B0FA80F04FEA501008BF002000B9704781
:1055200008211380518070470421138051807047F7
:10553000162A01D000207047A0F10C02032A0CD9D2
:10554000212806D00029F5D00A78012A05D9162A83
:10555000F0D1232201201A7070472A2201201A70EC
:10556000704700BF013908B5072914D8DFE801F0FA
:10557000071013041313130440F6A66008BD034676
:1055800040F2E24240F6C410002B08BF104608BDAE
:1055900040F6C41008BD40F2A7312920FBF796FA67
:1055A00041F27073A0F57A729A4205D9064BA3FBBB
:1055B0000030C0F38F207047044BA3FB00308009FC
:1055C00000F5506080B270475917B7D1D34D6210C3
:1055D0006FF45063C318062B04D940F2E24303FB77
:1055E00000F070474FF47A73A0F5506003FB00F0B1
:1055F000704700BF41F64B53994208D9C0EB4013A6
:1056000000EB830000EB8000400080B2704700EBAD
:10561000800000EB80008000704700BF41F64B53D4
:10562000994205D9054BA3FB0030C0F38720704792
:10563000034BA3FB0030C0F3471070475917B7D195
:105640001F85EB5141F64B53994294BF642340F2BE
:10565000E24303FB00F0704741F64B53994205D9F2
:10566000054BA3FB0030C0F38F207047034BA3FB17
:105670000030C0F34F1070475917B7D11F85EB5159
:1056800041F64B53994209D9094B40F2E242A3FB40
:1056900000139B0A02FB1303C01A7047054B6422D8
:1056A000A3FB00135B0902FB1303C01A704700BF82
:1056B0005917B7D11F85EB51A0F5E770884294BF09
:1056C000091A491A1868012910B400EB510494BF53
:1056D000002001201C60136810BCA3EB5101116075
:1056E000704700BF074B93F900301844142804DCBE
:1056F00010F17F0F03DB40B27047142070476FF04A
:105700007E007047780D002100B583B07F230DF136
:1057100007008DF8073013F09DFE20B99DF90700B2
:1057200003B05DF804FB0A4A9DF907305078404207
:1057300040B21844142806DC10F17F0F05DB40B29C
:1057400003B05DF804FB1420EAE76FF07E00E7E7A2
:10575000780D0021024B00221A705A70704700BF6A
:10576000780D0021074B1A7803463AB90649012201
:1057700008680979186010461971704700221046B0
:10578000704700BF7C0D002114000021034606492C
:105790004FF0FF0C054A00681B7982F800C00860D2
:1057A0000B71002313707047140000217C0D002141
:1057B00070B5441C05468C4204D00B68C0F801301B
:1057C0000B7923716B790022AE1D03F01F03EA727F
:1057D0006B7114F8010B01F0F7FF2071B442EB7A02
:1057E0001844E872F5D170BD81EA1141844689B24E
:1057F0004A4008B5D3B293FAA3F3120A92FAA2F27E
:10580000120E1B0E43EA022303EB03130B449AB25E
:10581000DBB293FAA3F3120A92FAA2F2120E1B0E53
:1058200043EA022303EB03130B449AB2DBB293FA6D
:10583000A3F3120A92FAA2F2120EA0481B0E43EA38
:10584000022303EB03130B444B409BB2A0FB03204A
:105850001A1A00EB5200400900EBC00200EB820074
:105860000122181AC0F3C40100F0070E614402FAC5
:105870000EF24978114201D0C0B208BD9CF80B105D
:1058800001FB03F39CF806104FEA134E1B140EF1B4
:105890000100C2B28A425BD9501AC2B29CF80730EA
:1058A000934280F09A80D01AC2B29CF808309A4293
:1058B00040F2D980D01AC2B29CF809309A420AD973
:1058C000D01AC2B29CF80A30934280F013819D2115
:1058D0004620FBF7FBF89CF80430D90705D5501E8D
:1058E00010F0FF0201D1032281E0980705D5501E78
:1058F00010F0FF0201D1032238E0590705D5501EF0
:1059000010F0FF0201D103223BE0180705D5501E1D
:1059100010F0FF0201D103223BE0D90605D5501E4D
:1059200010F0FF0201D103223BE0980605D5501E7E
:1059300010F0FF0201D103223BE0590600F118816B
:105940001806BFD5501E10F0FF02BBD1032242E063
:105950009CF80110C80703D5002B00F01081724697
:105960008B0708D5501E10F0FF0204D1012000EB78
:10597000C200C0B208BD480705D5501E10F0FF0296
:1059800001D10220F3E70B0705D5501E10F0FF02EE
:1059900001D10320EBE7C80605D5501E10F0FF0229
:1059A00001D10420E3E78B0605D5501E10F0FF025D
:1059B00001D10520DBE7480605D5501E10F0FF0297
:1059C00001D10620D3E70B067FF568AF501E10F01B
:1059D000FF027FF463AF0720C9E79CF8023013F0A1
:1059E000010106D0501E10F0FF0202D10A4600202D
:1059F000BDE7980705D5501E10F0FF0201D1012226
:105A0000B4E7590705D5501E10F0FF0201D101225D
:105A1000B7E7180705D5501E10F0FF0201D101228B
:105A2000B7E7D90605D5501E10F0FF0201D10122BB
:105A3000B7E7980605D5501E10F0FF0201D10122EC
:105A4000B7E7590605D5501E10F0FF0201D101221B
:105A5000B7E718067FF529AF501E10F0FF027FF45C
:105A600024AF0122B7E79CF80330D90705D5501EB3
:105A700010F0FF0201D10222B9E7980705D5501EA8
:105A800010F0FF0201D1022270E7590705D5501E20
:105A900010F0FF0201D1022273E7180705D5501E4E
:105AA00010F0FF0201D1022273E7D90608D5501E7B
:105AB00010F0FF0204D1022273E700BF4D91CFBA6C
:105AC000980605D5501E10F0FF0201D1022270E7A2
:105AD000590605D5501E10F0FF0201D1022270E7D1
