:020000040000FA
:10000000B0660020458D00007DCB0100198D0000F9
:10001000198D0000198D0000198D0000198D000048
:1000200000000000000000000000000065840000E7
:10003000198D00000000000009840000198D0000E7
:10004000E9840000E9840000E9840000E9840000FC
:10005000E9840000E9840000E9840000E9840000EC
:10006000E9840000E9840000E9840000E9840000DC
:10007000E9840000E9840000E9840000E9840000CC
:10008000E9840000E9840000E9840000E9840000BC
:10009000E9840000E9840000E9840000E9840000AC
:1000A000E9840000E9840000E9840000E98400009C
:1000B000E9840000E9840000E9840000E98400008C
:1000C000E9840000E9840000E9840000E98400007C
:1000D000E9840000E9840000E9840000E98400006C
:1000E000E9840000E9840000E9840000E98400005C
:1000F000E9840000E9840000E9840000E98400004C
:10010000E9840000E9840000E9840000E98400003B
:10011000E9840000E9840000E9840000E98400002B
:10012000E9840000E9840000E9840000E98400001B
:10013000E9840000E9840000E9840000E98400000B
:10014000E9840000E9840000E9840000E9840000FB
:10015000E9840000FFFFFFFF53B94AB9002908BF37
:1001600000281CBF4FF0FF314FF0FF3000F00CB8FB
:10017000ADF1080C6DE904CE00F008F8DDF804E0FC
:10018000DDE9022304B07047704700BF2DE9F04756
:1001900086468C460846089E154674461946002B2E
:1001A00040F0C1808542B2FA82F245D94AB1C2F12B
:1001B000200300FA02FC954094402EFA03F343EA30
:1001C0000C0C4FEA154EA8B2230CBCFBFEF80EFB3C
:1001D00018CC08FB00F943EA0C43994528D9EB18E1
:1001E00008F1FF3704D2994502D9A8F102072B4440
:1001F000A3EB0903A4B2B3FBFEFC0EFB1C330CFB08
:1002000000F044EA0344A04214D92C190CF1FF3346
:1002100004D2A04202D9ACF102032C44241A43EACE
:1002200007401EB1D440002334607360BDE8F087FE
:100230004746DDE76346F1E792BB431B01214FEAE6
:10024000154EAFB2200CB3FBFEFC0EFB1C330CFBB7
:1002500007F840EA0343984561D9EB180CF1FF30E9
:1002600004D2984502D9ACF102002B44A3EB080359
:10027000A4B2B3FBFEFC0EFB1C330CFB07F744EAF5
:100280000344A7424DD92C190CF1FF3304D2A742E5
:1002900002D9ACF102032C44E41B43EA0040C0E75E
:1002A000C2F120039540944020FA03F12EFA03F3A3
:1002B0004FEA154E9040AFB20343B1FBFEFC0EFB7C
:1002C0001C10190C0CFB07F841EA0041884522D9A3
:1002D00069180CF1FF3004D2884502D9ACF1020054
:1002E0002944A1EB08019BB2B1FBFEFC0EFB1C11E3
:1002F0000CFB07F743EA01439F420ED9EB180CF1C0
:10030000FF3104D29F4202D9ACF102012B44DB1B26
:1003100041EA004193E76046E3E76146F7E760465C
:10032000A4E76346B8E7834206D916B90021084618
:100330007CE7C6E900E0F9E7B3FA83F78FB98342B7
:1003400001D3724508D8BEEB020460EB0303012021
:100350009C461EB9002169E73846FAE7C6E9004C19
:10036000F8E7C7F1200CBB400EFA07F522FA0CF4AF
:100370002EFA0CF1BA401C4320FA0CF3B8404FEAB5
:10038000144901431FFA84FEB3FBF9F809FB183046
:100390000B0C08FB0EFA43EA00439A4540D9E318D8
:1003A00008F1FF3004D29A4502D9A8F10200234493
:1003B000A3EB0A0389B2B3FBF9F809FB183308FB76
:1003C0000EFE41EA03418E452CD9611808F1FF3336
:1003D00004D28E4502D9A8F10203214443EA004029
:1003E000A1EB0E01A0FB02984145CE46434602D345
:1003F00006D14D4504D20138B9EB020E68EB040377
:10040000002EA7D0B5EB0E0261EB030101FA0CFC44
:1004100022FA07F3F9404CEA0303C6E9003199E7F1
:100420004046C5E74346D9E72DE9F04383B0714D17
:1004300000AFD5F85C31996811F001011DD140F68B
:1004400003403A1D09F038FD0446002840F0BD8005
:100450007C68E3681B786BB90BF024FF05F1CC03D3
:10046000D3E8AF2F02F00902D3E8EF1FC3E8E02F73
:100470000028F9D1204614F0A9FA002141F2030026
:100480003A1D09F019FD0446002840F09E807E6860
:100490000822F168584801311CF036FD304614F04E
:1004A00095FA214641F201003A1D09F005FD044686
:1004B000002840F08A807868C3685A7885F86820F8
:1004C0005A88A5F86A201A7985F86920B3F80720B8
:1004D000A5F86C20B3F80530A5F86E3014F076FA64
:1004E000214641F202003A1D09F0E6FC04460028CC
:1004F0006BD17C684022E168404801311CF004FD6A
:10050000204614F063FA0CF0F7F8044600285CD19A
:1005100095F8823099061ED43948036813F0060F07
:100520000ED06C4688B06A46364B4FF4C4515361C6
:10053000354B9361032342F8103F1CF0BFFDA546E5
:1005400095F874305A0665D42D4803685B0741D18D
:100550006FF0120439E0072140F6334009F072FCD5
:100560008046002800F0338107210C301FF03EFD4B
:100570002146072206461CF0D2FC6FF009034FF01B
:1005800001093370062322463471414640F6334058
:1005900086F80190F37009F08FFC0446A8B949462B
:1005A00040F6314009F04EFC0646002800F00F816D
:1005B00049460C301FF029FD2246314640F63140B5
:1005C00009F07AFC04460028BAD020460C37BD4614
:1005D000BDE8F0836C4688B06A460C4B4FF4C251BC
:1005E00053610B4B9361032342F8103F1CF066FDEF
:1005F000A546ADE700000020700000207800002034
:1006000040060020586E0200E17302008A6E02006C
:10061000D9730200002142F203003A1D09F04CFC9C
:1006200004460028D1D17E680822F1689C48013137
:100630001CF06AFC304614F0C9F9214642F202006F
:100640003A1D09F039FC04460028BED17C68E368F5
:10065000B3F8012091B2A5F8FC2021B1DA789148D5
:10066000114621F0B6F8204614F0B0F995F8746000
:1006700016F0200618D1022140F66D4009F0E2FB89
:100680000446002800F0A38002210C301FF0AEFCCD
:100690000123214603704670324640F66D4009F052
:1006A0000BFC0446002890D195F894301E0712D513
:1006B000002142F21C003A1D09F0FEFB044600280E
:1006C00083D17868C368D3F80120D3F80530C5E931
:1006D000362314F07BF995F8D0305C0610D5002154
:1006E00042F22A003A1D09F0E7FB044600287FF495
:1006F0006CAF7868C3685B7885F8183114F066F9D8
:10070000082142F2010009F09DFB044600285ED05A
:1007100008210C301FF06AFC95F8D01040F202233B
:1007200011F0400F08BF0323024688074CBF43F077
:100730002C0043F00C0095F8D1308E0648BF40F0F5
:10074000400013F0090F18BF40F40060CB0795F884
:100750009A3048BF40F0100003F00603062B08BF94
:1007600040F4C07000211CF0B4FC2146002242F28B
:10077000010009F0A1FB044600287FF426AF95F89C
:100780007430B5F8FC109E0624D4C9B941F20500B6
:100790003A1D09F091FB044600287FF416AFB5F826
:1007A000FC307C684BB9E368B3F80120A5F8FC2065
:1007B0009A883C48114621F00CF8204614F006F9BE
:1007C000082140F6014009F03DFB0446D8B96FF01E
:1007D0006804FAE60029F3D1334803685C0702D1C4
:1007E0006FF00404F1E66C4688B06A462F4B4FF474
:1007F000C25153612E4B9361032342F8103F1CF00A
:100800005DFCA546ECE708210C301FF0EFFB95F8E6
:10081000D0300246D9073AD44FF0005125481CF099
:1008200058FC2146002240F6014009F045FB0446F1
:1008300000287FF4CAAE01463A1D4FF6014009F088
:100840003BFB194C00283BD0236813F0060F0FD058
:100850006D4688B06A46184B4FF4C4515361174B2C
:1008600020469361032342F8103F1CF027FCAD465D
:100870000BF020F9044600287FF4A7AE0DF0C0F974
:10088000044600287FF4A1AE0AF09EFA9DE602A17C
:10089000D1E90001C3E700BF90880002008000207A
:1008A000D00000200001002040060020B26E0200AF
:1008B000F273020010880002D96E0200CD730200AC
:1008C0007B68D3F80C80236803F00703022B6DD9F3
:1008D000B8F80130E946032B98BF5C4A8AB094BF50
:1008E00052F823105A496A46136240F201335948BC
:1008F0009384594E594BC2E9066150614FF433510C
:1009000042F8103F56481CF0D9FB2368CD4603F04F
:100910000703022B4AD9B8F80120B8F80330022A9D
:1009200065D1032B63D84F4A52F82310E9468AB0A9
:100930006A46C2E9071340F201334B489384474BA0
:10094000C2E905064FF4335142F8103F44481CF009
:10095000B5FB2368CD4603F00703022B26D998F890
:10096000053098F806E0032B98BF404AB8F807C056
:10097000D8F80900E8468EB094BF52F823103449E5
:100980006A46C2E9071340F20133DFF8E4901386A8
:10099000384BD062C2E90596C2E909EC44F2C04185
:1009A0002F4842F8103F1CF089FBC546786814F0C8
:1009B0000DF800214FF602403A1D09F07DFA064677
:1009C000B8B1236813F0060F3FF452AF6C4688B0FD
:1009D0006A46294B5361204B4FF4C4519361032362
:1009E0001F4842F8103F1CF069FBA54640E7184934
:1009F0009CE7D7F804800222D8F80C101F48013178
:100A00001CF082FA404613F0E1FF95F8B9305B071D
:100A10007FF52EAF31464FF603403A1D09F04CFAF0
:100A200048B1236813F0060F3FF422AF6C4688B03C
:100A30006A46134BCEE701227C681248E1681144F4
:100A40001CF062FA204613F0C1FF11E78831020062
:100A500089680200016F0200CD73020005000001E9
:100A600040060020783102001E6F0200683102004B
:100A70003A6F0200080000016B6F0200B90000200D
:100A8000986F0200B8000020012910B50C4603D170
:100A90001AF0A7F9204610BD022907D91368064AA3
:100AA00001211AF091F96FF01500F4E702D15368B3
:100AB000024AF5E70020EEE788380200A33802007A
:100AC000012973B505460C46164604D11AF089F97A
:100AD000204602B070BD022907D913680121164AC9
:100AE0001AF072F96FF01500F3E700210A2270681E
:100AF0001CF07CF881B2A1F11B03E02B0B460FD94F
:100B000000912846336801210C4A1AF05DF9FB2355
:100B10000121009328461B23094A1AF055F9E1E701
:100B2000084A2846118044F2902151800821064A43
:100B30001AF04AF90020CCE7B8380200D238020097
:100B4000EB380200080500201D390200012973B5A9
:100B500005460C46164603D11AF043F9204608E034
:100B6000022908D913680121194A1AF02DF96FF0EA
:100B7000150002B070BD0A22002170681CF036F822
:100B800040F67A4281B28B1F9BB293420B4610D93A
:100B900000912846336801210E4A1AF015F94FF4E6
:100BA000486301210093284606230B4A1AF00CF9EA
:100BB000DDE70A4A0024518011804FF47A71948055
:100BC000D18028460821064A1AF0FEF8C6E700BF81
:100BD000B8380200D23802003F3902001005002068
:100BE0006F390200024B034A034900F0E1BD00BF28
:100BF000080500200C0500201005002037B508214D
:100C0000144A04461AF0E0F8134A144B1588144AA3
:100C10001B8891781088022918D004290ED0114A17
:100C20001148012918BF02462046CDE9005208218B
:100C30000E4A1AF0C9F8002003B030BD012807D0D1
:100C4000094A0B49022808BF0A46EDE7094AEBE7C3
:100C5000094AE9E7A539020010050020080500202F
:100C60000C0500208F3902009D390200CC390200AA
:100C7000A83B020096390200813B0200022208B51F
:100C8000054B08211A8040F204425A80034B044A63
:100C90001AF09AF8002008BD0C050020A83B0200BD
:100CA000103A020010B540F201120024044B082152
:100CB0001C805A80034B044A1AF086F8204610BD67
:100CC0000C0500208F390200103A020010B540F2E6
:100CD00002220024044B08211C805A80034B044A42
:100CE0001AF072F8204610BD0C050020963902005B
:100CF000103A0200012208B5054B08211A8040F283
:100D000004425A80034B044A1AF05EF8002008BDE2
:100D10000C050020813B0200103A020002460B46FF
:100D2000014817F051BB00BFD407002098B50B480D
:100D300000AF03685B070ED06C4688B06A46084B6C
:100D40004FF4C2515361074B9361032342F8103FA4
:100D500018F045FDA546BD4698BD00BF68060020B9
:100D6000B13B0200354602002DE9F0410C4690B03F
:100D700000AF06462822002107F118001CF0CFF82A
:100D8000B4B1022C31D05B48036859072DD06D46B1
:100D900088B06A46584B4FF401515361574BC2E932
:100DA0000634042342F8103F18F019FDAD461CE04C
:100DB000534D504C2B68E3B1236803F00703022B1B
:100DC0000FD96D4688B06A464E4B4FF4C6515361F9
:100DD0004A4B20469361032342F8103F18F0FFFC72
:100DE000AD46132130461CF0E6FD4037BD46BDE858
:100DF000F08130461CF0CDFC07F1180128600CF0A2
:100E00004DFC88B123685A07EFD06D4688B06A461A
:100E10003D4B4FF401515361384BC2E90630042376
:100E2000204642F8103FBFE72368797E03F00703AE
:100E3000022B2ED9354A364B6E468AB0002908BFA0
:100E400013466A46DFF8B4803249C2E9068340F2AD
:100E500001331384304B5161204642F8103F4FF468
:100E6000135118F0BCFC2368B54603F00703022BAE
:100E70000FD988B0BB8D6A46D36104232749204629
:100E8000C2E905184FF4035142F8103F18F0A7FCCF
:100E9000B5467B7E002BA8D13A1D9446204B2E6888
:100EA00003F1100E154618685968083303C57345D9
:100EB0002A46F7D11B7861462B703046194B1A4AE7
:100EC00006F04CFB002890D023685B078DD06C4661
:100ED00088B06A46154B4FF401515361074BC2E984
:100EE00006300423034842F8103F18F078FCA5466A
:100EF0007BE700BF68060020D43B0200FD450200EE
:100F0000FC230020F73B02002B3C0200423A020087
:100F1000203A0200503C020004000001643C020040
:100F200060260200E023002068010020833C0200CC
:100F3000F8B50346114800AF026802F00702022A22
:100F400016D9D3E900516C468CB09B686A4693620F
:100F500007230B4E56610B4EC2E90661890AC2E9AE
:100F600008154FF4635142F8103F18F038FCA546BD
:100F7000054817F003FA0020BD46F8BD68060020BA
:100F8000A03C020014460200D40700202DE9F041E5
:100F9000274C054623680E4603F00703022B00AFDB
:100FA0000FD9E84688B06A46224B4FF4C6515361C8
:100FB000214B20469361032342F8103F18F00FFCA9
:100FC000C5463146284606F0D7FD28461BF03FF9B6
:100FD0001A491B4B0B601B4B186810F095F92368DE
:100FE000A8B15B0710D06C4688B06A46164B4FF428
:100FF00001515361104BC2E90630042342F8103FFF
:101000000B4818F0ECFBA546BD46BDE8F08103F0A7
:101010000703022BF8D96C4688B06A460B4B4FF495
:10102000C6515361044B9361032342F8103FE7E735
:1010300068060020E13C0200E0460200DC230020BC
:10104000B5150000FC230020013D0200223D0200F6
:10105000002298B50C480D4B00AF1A60036803F0EE
:101060000703022B0ED96C4688B06A46084B4FF432
:10107000C6515361074B9361032342F8103F18F0A8
:10108000AEFBA546BD4698BD68060020D8230020CB
:101090003B3D02004747020043680BB9FFF7D8BF4A
:1010A000054A990A1068B0EB932F03D003481160EA
:1010B00018F01EBC704700BFD8230020403D02003E
:1010C0002DE9F843264C8946236800AF03F0070357
:1010D000022B41D96D4688B06A46224B224E53619D
:1010E000032396614FF4C65142F8103F204618F092
:1010F00076FB2368AD4603F00703022B2CD98AB098
:101100006A46B9F80010B9F802304FF005081748E0
:10111000C2E90713C2E905064FF42351204642F8FD
:10112000108F18F05CFB2368AD4603F00703022B19
:1011300012D98AB0B9F80410B9F806306A460C48DA
:10114000C2E90713C2E905064FF42351204642F8CD
:10115000108F18F044FBAD460120BD46BDE8F88372
:1011600068060020423D020007460200753D02006D
:10117000A43D0200F8B503460F4800AF026802F034
:101180000702022A16D9D3E900516C468CB09B683D
:101190006A4693620723094E5661094EC2E9066109
:1011A000890AC2E908154FF4635142F8103F18F05C
:1011B00016FBA546BD46F8BD68060020C13D0200ED
:1011C0004E46020098B50C4800AF036803F00703D1
:1011D000022B0FD96C4688B06A46084B5361084B06
:1011E000C2E9063104234FF4035142F8103F18F0CE
:1011F000F6FAA546BD4698BD68060020033E0200EB
:10120000B446020098B50C4800AF036803F007032A
:10121000022B0ED96C4688B06A46084B4FF4C65173
:101220005361074B9361032342F8103F18F0D7FA3C
:10123000A546BD4698BD00BF68060020333E0200AB
:10124000C446020098B50B4800AF03685B070ED098
:101250006C4688B06A46084B4FF4C2515361074B45
:101260009361032342F8103F18F0B9FAA546BD4632
:1012700098BD00BF68060020493E020001470200F9
:1012800070B503788AB004460E4607AD032B20D80C
:10129000DFE803F002191B1D114928461BF0B2FDBF
:1012A000059563781E210493A37830460393E37871
:1012B0000C4A02932379019363790093A37918F080
:1012C00024FB0AB070BD0849E7E70849E5E708498B
:1012D000E3E70A212846074A18F017FBE0E700BFBA
:1012E0005F3E0200813E0200663E02006D3E02004B
:1012F000773E0200398D0200B0B588B0036800AFB8
:10130000186839461446FFF7BBFF0E48036803F020
:101310000703022B13D96D468AB06A460A4B146242
:1013200053610A4B4FF43351C2E9063740F201339F
:101330009384074B42F8103F18F051FAAD4620371E
:10134000BD46B0BD68060020A43E02002C47020046
:1013500005000001B0B588B0036800AF18680C46FE
:101360003946FFF78DFF0E48036803F00703022B91
:1013700013D96D468AB06A460A4B146253610A4B10
:101380004FF43351C2E9063740F201339384074BDF
:1013900042F8103F18F023FAAD462037BD46B0BDE5
:1013A00068060020D53E0200174702000500000134
:1013B000F8B50F4800AF046804F00704022C12D9F6
:1013C0006D468AB06C46C4E9082322460623094EBE
:1013D0006661094EC4E906614FF4435142F8103F7B
:1013E00018F0FDF9AD46054816F0C8FFBD46F8BD3A
:1013F00068060020073F020084460200D407002050
:10140000F0B583B01D4B00AF1B6803F00703022B40
:101410002DD90B786C46042B96BF194A194852F8FF
:1014200023004B788AB0042B96BF154A154952F811
:1014300023106B46144D19625D61144D03F11002C7
:10144000C3E90650124803F12301786003F1270530
:10145000381D10F8016B01F8016FA942F9D10D494F
:10146000064819614FF4435118F0B9F9A5460A48E6
:1014700016F084FF0C37BD46F0BD00BF68060020A3
:10148000D82802009D390200513F02007546020033
:101490000103020405000002D4070020F8B503464A
:1014A000144800AF026802F00702022A19D96C46FC
:1014B0008CB01E885D8899886A46DB889362072312
:1014C000DFF834C0C2E90851C2F814C0DFF82CC0FC
:1014D0004FF46351C2E906C642F8103F18F07FF995
:1014E000A5460022064B1A70064816F047FFBD4677
:1014F000F8BD00BF680600207A3F02005E46020089
:10150000D7380020D4070020034B08461B780BB1C6
:10151000FFF7C4BF704700BFD73800202DE9F04166
:101520001F4C00AF236803F00703022B35D96D462B
:1015300088B06A4603261B4BDFF86C805361C2F803
:1015400018804FF4C651204642F8106F18F047F942
:101550002368AD4603F00703022B1ED988B06A4604
:10156000124B4FF4C651C2E90538204642F8106FBD
:1015700018F035F92368AD4603F00703022B0CD9A8
:1015800088B06A460A4B4FF4C651C2E90538204676
:1015900042F8106F18F023F9AD46BD46BDE8F08162
:1015A00068060020BF3F020068470200F93F0200C2
:1015B00031400200F0B58BB0244C00AF2822054624
:1015C0000E46384600211BF0AAFC23685A0718D0A3
:1015D0001F4A204B002E08BF13466E468AB06A464B
:1015E0001D49204651611D49C2E9061340F20133ED
:1015F00013841B4B4FF4115142F8103F18F0EFF8D1
:10160000B546394628460CF049F8B0B123685B0767
:1016100010D06C4688B06A46124B4FF401515361AA
:101620000E4BC2E906300423084842F8103F18F078
:10163000D6F8A5462C37BD46F0BD7B78002BF9D1F6
:10164000FFF76CFF0122084B1A70F3E768060020D1
:1016500064400200DD8B02006F400200F34602008E
:10166000040000012B3C0200D63800202DE9F04395
:10167000424F8BB005468846914600212822684695
:101680001E461BF04CFC694638680CF007F804460F
:1016900048B103463A4A0121284619F095FB2046F5
:1016A0000BB0BDE8F0839DF8013023B1012128463D
:1016B000344A19F089FB494638681CF060F9044641
:1016C00010B10346304AE6E7082128462F4A19F0B0
:1016D0007BFB4FF420200021FFF720FB044628B1BC
:1016E000012128462A4A19F06FFBD8E7089B1A887F
:1016F00033889A4224D04FF00109264B314638688E
:1017000083F800901CF02BF9064638B10346224AB4
:101710000121284619F058FB3446C0E70821284625
:101720001E4A19F051FB4FF420200021FFF7F6FA72
:10173000064628B11A4A0121284619F045FBEBE775
:10174000BDF81420B8F802309A42A8D04146386853
:101750001CF090F9064610B10346124AD8E708215A
:101760002846114A19F030FB4FF420200021FFF7E2
:10177000D5FA0646002892D00C4ADCE7FC2300206C
:1017800083400200A5400200E0400200F740020052
:101790000B410200D73800201F41020041410200E6
:1017A000604102007F410200A8410200CE410200D8
:1017B0002DE9F04F83B09846584B06461B680C46FF
:1017C000154600AF5BB90121554B564A19F0FCFA9A
:1017D0006FF00D0420460C37BD46BDE8F08F524B2C
:1017E0001B782BB90121514A19F0EEFA0024F1E7D8
:1017F00008214F4A19F0E8FA214643462A46304666
:10180000FFF734FF04460028E4D14FF48040002164
:1018100017F0E8FF0122474947481AF04BFD0446FC
:1018200028B101213046454A19F0CEFAD2E717F027
:10183000DBFF0546C7E90004DFF8F880DFF8F89021
:1018400040F2EF12414648461AF034FD03460028A4
:1018500050D0012130463A4A19F0B6FA384617F00E
:10186000A8FFDFF8E0808346D8F80030894603F00F
:101870000703022B32D9EA4688B06A460321324B6D
:1018800040465361314B936142F8101F4FF4C651EB
:1018900017F0A5FFD8F80020D54602F00702022A6B
:1018A0001CD98EB06D46294B294AC5E90634A30AD6
:1018B0006A612B625A464B46C5E90AB9E000610FDE
:1018C000FEF74AFC2A460A23C5E90C0145F2C0018D
:1018D000404642F8103F17F082FFD546164806F002
:1018E000C5F90446A0B1034601213046194A19F052
:1018F0006BFA6FE717F078FF4EF66122401B63EB3F
:101900000303904273F1000304F2EF1498D3A5E7A8
:1019100000214FF42020FFF701FA67E7FC230020A5
:10192000F441020023420200D63800203E42020069
:101930008E420200E7360020E0230020B24202007F
:10194000CE42020068060020EA4202003E47020042
:10195000F34202002D43020090B589B000AF07F1B9
:101960000C040021142220461BF0D9FA4FF010126B
:101970000123C7E904323B711B4B3846BB603C6016
:1019800006F02CF8194805F0EFFE1949032005F080
:10199000FBFE0146B8B11748036803F00703022BAA
:1019A0000ED96C4688B06A46134B5361134B4FF403
:1019B000C6519361032342F8103F17F010FFA5466C
:1019C0002437BD4690BD042005F040FF0028F7D025
:1019D0000848036803F00703022BF1D96C4688B06E
:1019E0006A46074BE1E700BF18050020740100209C
:1019F0009D0500206806002048430200AA46020018
:101A00006B43020098B5002000AF06F019F80346BA
:101A100098B10B48026852070FD06C4688B06A46EE
:101A2000084951610849C2E9061304234FF40151E2
:101A300042F8103F17F0D3FEA546BD4698BD00BF43
:101A4000680600208B4302009F460200B0B588B0B4
:101A5000134D02AF3C1D0FCD0FC42B680222236033
:101A6000012310490093381D0F4B0AF0AFFA0346CB
:101A700098B10E48026852070FD06C4688B002AA8F
:101A80000B4951610B49C2E9061304234FF401517C
:101A900042F8103F17F0A3FEA5461837BD46B0BD6B
:101AA000742602001029020008290200680600209E
:101AB000B1430200954602002DE9F0418AB0284C5E
:101AC00000AF05460E462822002138461BF027FAB3
:101AD000236803F00703022B10D9E84688B06A4652
:101AE000204B4FF4035153611F4B2046C2E9063689
:101AF000042342F8103F17F072FEC5464FF000086D
:101B00001A4E1B4B306883F8008018B11BF058FE4A
:101B1000C6F80080394628460BF0C0FDB8B12368EE
:101B20005B0710D06C4688B06A46124B4FF40151E7
:101B300053610D4BC2E906300423094842F8103FB7
:101B400017F04DFEA5462837BD46BDE8F0817B78ED
:101B500013B9FFF757FFF6E7FFF778FFF3E700BF8A
:101B600068060020D54302005B470200FC230020EA
:101B7000D6380020F6430200F8B5324C324D2368C7
:101B80002A7800AF03F007039AB1022B0FD96D46F4
:101B900088B06A462D4B4FF4C65153612C4B2046FA
:101BA0009361032342F8103F17F019FEAD46BD467E
:101BB000F8BD88B3022B0FD96E4688B06A46254B14
:101BC0004FF4C6515361224B20469361032342F8E0
:101BD000103F17F004FEB546FFF714FF01231E481F
:101BE0002B7014F0BFFC0028E1D0236803F007033A
:101BF000022BDCD96C4688B06A46184B4FF403516F
:101C00005361134BC2E9063004230E4842F8103FDB
:101C100017F0E5FDA546CAE7022B0FD96E4688B03E
:101C20006A460F4B4FF4C6515361094B20469361EE
:101C3000032342F8103F17F0D2FDB546FFF706FF29
:101C4000CCE700BF68060020E63600201D440200F5
:101C50004246020050440200600100209444020009
:101C60006F44020008B5002014F0BEFC18B1BDE8B6
:101C70000840FFF75BB80248BDE8084014F054BCC8
:101C8000600100202DE9F0414C4C00AF236803F0C7
:101C90000703022B0FD96D4688B06A46484B4FF4B4
:101CA000C6515361474B20469361032342F8103FCE
:101CB00017F095FDAD46002009F05EF92368A8B144
:101CC0005A0710D06C4688B06A463F4B4FF401511A
:101CD00053613C4BC2E90630042342F8103F3748B9
:101CE00017F07DFDA546BD46BDE8F08103F0070372
:101CF000022B0FD96D4688B06A46344B4FF4C6515B
:101D00005361304B2D489361032342F8103F17F085
:101D100066FDAD46FFF720FE2D492E4805F020FF59
:101D2000236870B15B07DED06C4688B06A462A4BE8
:101D30004FF4C2515361234B9361032342F8103F88
:101D4000CDE703F00703022B35D96D4688B06A460C
:101D50000326224BDFF86C805361C2F818804FF4E1
:101D6000C651164842F8106F17F039FD2368AD468A
:101D700003F00703022B1ED988B06A46184B4FF4B4
:101D8000C651C2E905380D4842F8106F17F027FD1B
:101D90002368AD4603F00703022B0CD988B06A46CE
:101DA000104B4FF4C651C2E90538044842F8106F91
:101DB00017F015FDAD46FFF755FF94E768060020C4
:101DC000B144020024460200DB440200FE4402004B
:101DD000EC280200E0230020184502003B3D0200F1
:101DE000464502008145020098B50D4800AF0368E2
:101DF00003F00703022B0FD96C4688B06A46094BE3
:101E00005361094B9361032342F8103F00234FF4C1
:101E1000C65101F0DBFEA546FFF734FFBD4698BD75
:101E20008C0600208C470200A94702002DE9F843E8
:101E300000AF80460E46154600F0C8F8C368044659
:101E40001BB943691A78002A5BD10023E3606368F9
:101E5000434556F8232009DB4A4B6361204600F0D6
:101E60009BF84FF0FF30BD46BDE8F883511C61611F
:101E700092F80090B9F12D0FEED1911C616151786B
:101E80002D29A16004D192786AB901336360E3E738
:101E900049B93C4B4946284663611AF0D1FF0028F6
:101EA000DCD0C4F808902846A1681AF0C9FFA368DE
:101EB00062693A2B01D0114640BB127812B96268B0
:101EC000013262602268BAB12A783A2A14D02E48C8
:101ED0000268510710D06D4688B06A462B4951619F
:101EE0002B49C2E90613042342F8103F00234FF4A4
:101EF000015101F06BFEAD46204600F04DF83F2049
:101F0000B1E75A1C42611B788360CCE740783A28DD
:101F10000BD000232361137813B963680133636026
:101F2000204600F039F8A0689DE791F800C062688B
:101F30001448BCF1000F05D101329045626004DD08
:101F400056F82210C4E90410E7E760612D783A2DB5
:101F500004D1204600F020F8284684E72268002AB1
:101F6000CAD0094802685207C6D06D4688B06A4692
:101F7000084951610649C2E90613042342F8103F9B
:101F80006346B4E7F24E02007C060020B34702002D
:101F9000F2470200CC4702000268074B1A60426811
:101FA000064B1A608268064B1A60C268054B1A60BD
:101FB0000269054B1A6070479801002094010020C7
:101FC000082400200424002000240020004870473A
:101FD0007C0100202DE9F04F91B0009302F0040342
:101FE0000293C2F3C2030133840705460E46DDF8AF
:101FF00068800392059340F0BD81041D30B107292C
:1020000009D86FF01B0011B0BDE8F08F01F0070692
:10201000341DC6F10806009B4FF000094FF0040A7A
:10202000591E4FF0FF334F460193CB465346CDF830
:1020300010900DB1009A22600598002800F3EB8003
:102040009948009A824203D398488242C0F0E380C4
:10205000039AA4EB050E92074FEA9E0000F1068159
:102060000F2F00F2B480002D00F0088107F140022C
:102070000DEB020C019A0CF8200C0CF8102C0498B3
:1020800001300490EAE07A2860D84B280ED847281F
:102090005CD829282FD8252855D057D820287DD07E
:1020A0002338D0F1000B4BEB000B77E0A0F14C0C88
:1020B000BCF12E0F4AD8DFE80CF071494949494973
:1020C0004949494949494C49494949494949495A6C
:1020D000494C4C5A5A5A714C6E497149184C18491E
:1020E0004983804C49494C49800000204FF0000B47
:1020F0004FF0040A39E00122A0F12A0C5FFA8CFCAF
:1021000002FA0CFC1CEA0E0F48D11CF062502ED1D2
:102110001CEA020B42D0013C5444CAF1000C04EA10
:102120000C04002D61D0A3EB050CA444B4453FF68C
:1021300068AF002868D1042B47D158F8043B2360CE
:10214000042304342AE0019A013A01924FF0000B73
:1021500024E011F8010C6C2834D1002011F8023C65
:1021600083466C2BC4D14FF0080A5346D3E708F1DD
:10217000070828F00708073424F00704F8E802AB42
:1021800035B106982044B0423FF63BAFC4E900ABFE
:102190004FF0000B08344FF0080A534611F8010FB6
:1021A000002878D0BBF1000F7FF46DAF2528F5D162
:1021B0004FF0010B019B013301934FF0040AECE750
:1021C000584693E700208346A5E7082B02D06FF01E
:1021D000150018E708F1070828F00708F8E80223B7
:1021E000C4E9002308230834D8E768B9042B02D1D6
:1021F00008F10408A4E7082BE9D108F1070828F042
:10220000070808F10808EDE7059A013A059258F821
:10221000042B00920DE7039A900720D54FF0010C94
:10222000A4EB050E4FEA9E00BEF5007FCFD20F2F24
:10223000CDD8F5B107F140020DEB020E019AC0B204
:102240000EF8200C0EF8102CBCF1000F3FF417AF65
:1022500060F07F000EF8200C09F101090137C5F18B
:1022600008024FF6DA7E0434069297E74FF0000C2E
:10227000DAE7BCF1000F01D00136EFE70298023631
:102280000028EBD10098CDE906311AF0E7FDDDE931
:1022900006310644E2E7631BB3F5806F97D23DB980
:1022A000A6F10804E018AEE67C200200D8990200EE
:1022B000029A9B0828602B709DF81030C2B1EB7019
:1022C00085F80290B9F1000F05D0002208A8C5F1E9
:1022D000010C97420ED14FF0000AC5F101030DF138
:1022E000200801930DF1300B574512D1601B8AE68F
:1022F0006B70E5E710F8013B190608D504EB0C0EEE
:10230000B64503F07F033FF67CAE04F8013B013293
:10231000DFE7B9F1000F03D098F90020002A17DB9E
:10232000029BD3B11AF80B2004F8012B0022019B69
:1023300098182044B0423FF664AE98F80000009927
:1023400004F8010B204603921AF0DEFD039A1444B0
:102350000AF1010A08F10108C6E798F8002055F8CB
:1023600022300093029B009845F822301AF076FD47
:10237000421CDCE76FF00D0045E600BF2DE9F04F91
:1023800095B000AFD7F878B0BB61CBF3C00304467B
:102390007A623B61396251B90D460378467880789C
:1023A00000EB83002044AE421AD8031B3B6294F832
:1023B0000290E3784E467B61B9F1000F02D01BF02A
:1023C000010F16D17B6953BB7B6A1BB12046BA69EA
:1023D000396A98473D6A28465437BD46BDE8F08FB4
:1023E00000F1010840461AF039FD01304044013542
:1023F000D9E7636894F800A0FB617B6A4FEA8A0220
:10240000FA6004EB8A0A002B40F00881D0460026CF
:102410003D6A09EB0A03434554D1CA4413E01BF05B
:10242000020FD1D094F800A04FEA8A03FB606368E2
:1024300004EB8A0AFB617B6A002B7ED13D6AB9F10D
:10244000000F54D14E461BF0050F0CBF0223012391
:102450007B627B690AEB43090BF002033B62CA45CE
:10246000B9D01AF8021B1AF8013C54F82380AD4B7E
:10247000984502D3AC4B98453FD33B69002B49D0DC
:10248000F86917F0F9F9002844D0A848036813F058
:10249000060F15D0E8468AB06A46A54B5361A54B96
:1024A0009361FB69C2E9073140F201339384A24B87
:1024B00042F8103F00234FF4325101F087FBC5462C
:1024C000023DCCE718F8012B7B6254F822001AF089
:1024D000C5FCFA6F7B6A01303AB1D7F8802096428A
:1024E0003EBFFA6F22F816000136054493E71BF051
:1024F00004061CBF7E6ACA44A5E73B6923B1F8699C
:1025000017F0BAF90028C0D11BF0010F05D17B6A82
:10251000ED1AA4E73B6A002BA1D040461AF09EFCBE
:10252000FB6F43B1D7F880309E423FBFFA6F431C28
:1025300022F816300136054491E7B9F1000F72D048
:102540001BF0040672D0C846002607F140004A4638
:1025500051461AF0D9FC7B69CA445B00BB607B69B9
:102560000AEB43037B610BF002037B607B699A45B6
:102570005ED123781BF0020FFB61637818BF002146
:1025800006EB030208BF4FEA58011BF0010FD2B25D
:1025900040F09D801BF0040F14BF4046002094F8CB
:1025A00002B094F803A03B616270A070E170204615
:1025B000BA69F9687B6A9847051EFFF60CAFFB699C
:1025C000414623703B69BA69637084F802B07B6A44
:1025D00084F803A007F140009847B0F10008C0F26A
:1025E000B0803B6ABA69A3EB0901FB687869C91A34
:1025F000BB68C91A7B6A98470028C0F2A4804FF0D4
:10260000000BA84408EB000507F1300AB34560DB76
:102610000021BA6908467B6A9847DCE64FF000085B
:1026200007F1300093E74E46C84694E7B04692E77C
:102630001AF8021B3B4A1AF8015C54F82530934201
:1026400002D3394A93421CD33B6923B1F86917F08E
:1026500013F900288AD17B68F3B908F1280207F141
:102660002800024408F1010302F8101C07F150028F
:1026700008F1020852FA83F35FFA88F803F8105C55
:1026800074E73B692BB1F86917F0F6F800287FF47E
:102690006DAF1BF0010F09D006F1280207F12801E8
:1026A000731C561806F8205CDEB25FE71BF0040FBF
:1026B0003FF45CAF08F1280207F1280108F101039B
:1026C00002EB010808F8105C5FFA83F84EE700207F
:1026D00065E71BF80A3054F8239087F82F30FB6F1A
:1026E00063B333F81B800121BA697B6A07F12F00BD
:1026F0009847002827DB0544B8F1000F06D148466B
:102700001AF0ACFB00F101081FFA88F84146484670
:10271000BA697B6A9847002815DB05440BF1010B69
:1027200074E700BF7C200200D89902006C060020EC
:1027300000480200A748020005000001D7F87C808D
:10274000D1E7454647E6054645E600BF014B186020
:10275000704700BF9C01002030B5002587B0CDE94F
:1027600003010446009503A90548059500F018F9F2
:10277000DDE904309842B8BF255407B030BD00BF32
:10278000C79801002DE9F047058B044628079046BD
:1027900011D4022905F0070540F0CD80204617F03E
:1027A00071FB78B10138218B042811D8DFE800F0E3
:1027B000C3106D85950001290CBF45F0100545F04B
:1027C0002005258388F31188BFF36F8FBDE8F0875C
:1027D00001F0070AAA4500F0A6800027B9463E4648
:1027E000A368002B00F0BD8041F00801218388F32D
:1027F0001188BFF36F8FA168002900F0BB800D68BE
:10280000002900F0B780334652462046D1F80480B4
:10281000C047002D76D02B6829461D46F0E701F011
:1028200007035A1F012A1BD8002221F00701062B9B
:10283000276889B2C4E9002209D13B4603E0628BD4
:10284000013262831B68002BF9D141F0020120465E
:10285000218317F017FB00287BD041F0200177E09F
:10286000042B0AD121F0070189B22046218317F0F9
:1028700009FB10B141F020012183218B01F0070AEF
:10288000AA4550D00027B946AAE7236921F00701DD
:1028900041F00601062DD3F8009021832DD1B9F126
:1028A000000F40D041F00801218388F31188BFF365
:1028B0006F8F20463949C84729E021F00701236975
:1028C00041F0040189B2042DD3F804902183E6D0AD
:1028D00000274FF0040A3E4682E721F007012369F2
:1028E00041F0050189B2052DD3F808902183D6D097
:1028F00000274FF0050A3E4672E700274FF0060A10
:102900003E466DE72B4687E7B9F1000FD1D14FF076
:102910002003EFF3118883F31288BFF36F8F238BAB
:1029200023F008032383258BEA062ED525F0100318
:10293000238305F007056669218B002EBFF66FAF74
:1029400000232768C4E9003321F0070141F00101A9
:102950002183218B4FF0000901F0070AAA457FF47B
:102960003FAF002F9BD041F00801218388F31188ED
:10297000BFF36F8F002FC7D03D68394633465246AC
:10298000204617F0ABFA2F46F4E7AB067FF51AAFF7
:1029900025F02003238305F00705FFE6099F0100CA
:1029A0002DE9F04F81468B4617461C46002595B011
:1029B000387808B9284657E37B1C2528039306D0AE
:1029C0005946C8470028C0F24F830135FBE1182261
:1029D00000210EA81AF0A3FA7B78252B7DD00023C6
:1029E00098469E469C461E46781C014610F8012BD0
:1029F0002B2A00F0A18000F29880202A00F09F800E
:102A0000232A00F09F802BB19DF8403043F0400313
:102A10008DF84030B8F1000F05D09DF8403043F0FC
:102A200020038DF84030BEF1000F05D09DF84030F6
:102A300043F010038DF84030BCF1000F05D09DF835
:102A4000403043F008038DF840302EB19DF84030FF
:102A500043F004038DF840309DF8403003F044000B
:102A6000442803D16FF386138DF840309DF8403031
:102A70002A2A43F080038DF840307FD19DF8412011
:102A80004B1C42F001028DF841201A782E2A0CBF0F
:102A9000012100219DF8412061F341028DF8412080
:102AA00078D15A782A2A6ED000224FF00A0C0133CE
:102AB000194611F8010BA0F13006092E40F295805D
:102AC0009DF840101292C1F3400040EAD2700A46CD
:102AD00060F341028DF840205CE0BA1C03928DF84F
:102AE00043309DF84130DA0740F12E8154F8048BD1
:102AF000B8F1000F07DA9DF84020C8F1000842F055
:102B000004028DF840205E0740F1278154F804ABA1
:102B1000BAF1000F80F226819DF841306FF3410336
:102B20008DF841304FF0FF3A1CE12D2A0DD0302AAC
:102B30007FF469AF012358E74FF0010C55E74FF0E0
:102B4000010E52E74FF001084FE701264DE703461B
:102B50000EFB0262303A184610F8016BA6F1300CF9
:102B6000BCF1090FF3D999428FD09DF84010119212
:102B7000D20F62F341018DF8401086E70B46002228
:102B80004FF00A0EE7E79DF84120023342F00402BD
:102B90008DF841201A786C2A47D02BD8682A31D07A
:102BA0006A2A4BD04C2A51D01A4612F8013B782B96
:102BB00003928DF843309DF8412000F2BE806D2BCA
:102BC00051D8692B00F2B980572B67D8412B03D01D
:102BD000453B022B00F2B18004229DF8423062F3A3
:102BE00002038DF84230012373E00CFB02020B4616
:102BF000303A5DE7742A25D07A2AD5D106219DF88E
:102C000041200CE05A78682A9DF8412006D1012124
:102C100061F3C6028DF841200233C5E7022161F35A
:102C2000C6028DF841200133BEE75A786C2A9DF820
:102C3000412001D10421EBE70321F0E705219DF8B4
:102C40004120ECE707219DF84120E8E7BDF840204E
:102C500022F4F04222F0020242F4804242F00202E8
:102C6000ADF84020DFE76E3BD9B201238B4040F244
:102C700082410B4237D113F0240F51D1D8075CD5D4
:102C800003219DF8423061F302038DF8423002F0D7
:102C90007803A3F140014B424B411AE00120A3F11C
:102CA0005801C9B200FA01F111F4624F94D140F613
:102CB000010631421DD111F4043F3ED09DF842304F
:102CC00060F3020302F07802402A8DF8423034D0DB
:102CD00000239DF84020C2F340010B4363F34102FF
:102CE0008DF84020FDE602219DF8423061F3020399
:102CF000E8E702209DF8421002F0780260F302013A
:102D0000402A8DF8421002BF9DF8401041F00101A9
:102D10008DF84010632BDBD1131E18BF0123D8E7B9
:102D200003219DF8423012F0780F61F302038DF811
:102D3000423014BF01230023CBE79DF8403043F01D
:102D400001038DF84030C3E79DF94020002AACBF55
:102D50004FF0FF38DDF84480D5E698077FF5E2AE06
:102D6000DDF848A00023CDE911339DF842309DF8ED
:102D7000411003F00703012BC1F3C30133D1CB1E74
:102D8000042B04D8DFE803F0214646212100236804
:102D900001294FEAE372CDE90E321CD19DF938309A
:102DA000DA17CDE90E3204349DF8403013F00306F3
:102DB00050D03A4659464846039B17F091F90028EF
:102DC000C0F252810544039FF2E554F8043BDA1740
:102DD000CDE90E32E8E70229E5D11AB243F3C03358
:102DE000CDE90E23DFE7022B24D1CB1E042B04D820
:102DF000DFE803F018101018180001294FF0000246
:102E000054F8043B14D00229CDE90E32CCD19BB248
:102E10000E93C9E7073424F00704F4E80223CDE950
:102E20000E23C1E754F8043B0E9300230F93BBE736
:102E3000DBB2CDE7042B08D1073424F00704D4E932
:102E400000230834CDE90E23AEE7032BACD154F8B0
:102E5000043BDDE79DF843007828B4D862281CD8ED
:102E600025283FF4ADAD5828ADD1DDE90E010DF1B7
:102E70003603009310AA08AB17F0ECF8BAF1000F74
:102E8000074680F29980002F9DD00DF13603D81BA4
:102E9000002E00F0C0800130BDE06338152892D8C4
:102EA00001A252F820F000BF7D2F00008F2F0000FC
:102EB000C72D0000C72D0000C72D0000C72D000042
:102EC0008F2F0000C72D0000C72D0000C72D000068
:102ED000C72D00001B300000B32F0000D92F0000C9
:102EE000C72D0000C72D0000012F0000C72D0000D6
:102EF000B32F0000C72D0000C72D0000B32F000026
:102F0000BAF1000F0E9F35DB5146384619F0ADFF80
:102F100007EB000A002F3FF456AF00269DF8423021
:102F200013F01002059200F0928002305B06119AB5
:102F300048BF129B104448BFC018B8F1000F04925C
:102F400040F39F809DF84020A8EB0008C2F3800367
:102F50005007069300F19580510640F188803EB1FC
:102F600059463046C84700287EDB069B01351E4681
:102F700030227DE0384619F071FFC9E70E9B00262C
:102F800001208DF8203008AF0DF1210AC6E719079E
:102F90005ABFC3F300135E012B26DDE90E23002B7D
:102FA000BFF663AF524263EB43032D26CDE90E23F8
:102FB0005BE7002659E700269DF840200DF1360317
:102FC000DB1B6FF386129A458DF840207FF65BAFCE
:102FD000AAEB0303119356E70E9890B30DF1360355
:102FE0000093002108AB10AA17F034F8BDF8423066
:102FF000BAF1000F03F0EF0343F4F04343F0100382
:103000000746ADF84230D6DA00283FF4DCAE0026A1
:103010000DF13603181A9A4680E70E9B07293FF6F2
:10302000D2AEDFE801F00C04060C08080C0C1D7091
:10303000C9E61D80C7E6EA17C3E90052C3E61D6072
:10304000C1E62F4F064607F1050A052066E71A0775
:1030500048BF01306AE71046079306925946C847B1
:10306000DDE90623002804DA15B0BDE8F08F202240
:1030700043461946002903F1FF33ECDC45449846EA
:103080006D1A2EB159463046C8470028ECDB013591
:103090009DF84230DA0601D41B0705D55946302089
:1030A000C8470028E0DB0135059B33B159469DF840
:1030B0004300C8470028D7DB0135049E2E4405E0B5
:1030C00059463020C8470028CEDB0135731B002B42
:1030D000F6DC53463A465946484617F001F80028B0
:1030E000C2DB0544A844A8EB0503002B7FF76BAEB9
:1030F00059462020C8470028B6DB0135F3E700BF5A
:10310000D148020008B54FF02002EFF3118382F39B
:103110001288BFF36F8F05F04BFE034816F0E8FBF3
:1031200005F04EF8FCE700BFD748020010B5094B88
:10313000094C00F01F024009012818BF234603EB89
:103140008203D3F8002222F0E04242EA0172C3F87F
:10315000002210BD0028845000258450F8B54FF09F
:103160002003EFF3118783F31288BFF36F8F0125DC
:10317000214B224EC3F8005502230321C6F8D03656
:103180000020FFF7D3FF2846FFF7D0FF7E237F22E2
:103190000024C6F80C37C6F83C39194B2946C3F849
:1031A0001821184A2120C2F8044EC2F8084E02F530
:1031B0004822C2F81041C3F82441C3F82C4103F55A
:1031C000FF1303F58053C3F8A042C6F80457C6F8AE
:1031D0000459C6F8005BFFF7A9FF2020FFF7A6FF00
:1031E0000B20FFF7A3FF0A20FFF7A0FF87F311884A
:1031F000BFF36F8F2046F8BD001000500040005014
:10320000002000500090035005232DE9F041244D8B
:1032100000AF2C78DFF88C800134B4FBF3F303EBC0
:103220008303E41A1DF0C6F91F4A204E137803B336
:1032300058F82430C01A07281BD83378ABB91C487B
:10324000026812F0060F0ED06C4688B06A46194923
:10325000516119499161032142F8101F4FF4C45183
:1032600000F0B4FCA546012333700020BD46BDE844
:10327000F08100214FF050233170D3F8140138B1A0
:10328000C3F81411D3F814312C700CB90123137046
:103290002C781DF08FF948F824000120E6E700BFE4
:1032A000DA3800200C240020D9380020D83800203B
:1032B000B4060020004902002D49020048B1054B28
:1032C000054A1B68B3FBF2F35843044B43F0010378
:1032D00018477047E803002040420F00B027020063
:1032E000062807D10122044BC3F80025BFF34F8FF6
:1032F00020BFFDE7704700BF00400050F0B583B02D
:1033000000AF381D13F0B8FB2A4B98424ED112F093
:103310004FFD041E18DA387913F0B4FB2648036811
:103320005B073FD06D4688B06A46244B5361244BFF
:10333000C2E90634042342F8103F00234FF4015140
:1033400000F044FCAD462DE040F607031D4D7C71B6
:10335000AE68FB8074687B6814B96FF05704DDE7D2
:1033600008212846184AA047041ED7DB3369002BE2
:10337000F3D00122082128469847041ECEDB012302
:103380003D79124AAB40C2F804357879FE791DF0D8
:1033900006F90F4B45F00045B600C0F880509D512E
:1033A000002CBBD120460C37BD46F0BD6FF0120497
:1033B000B4E700BF0000AD0BB80600204949020089
:1033C000754902009C210200193400000070015070
:1033D00080A1025038B5049CC4F30725284612F09A
:1033E00061FB00210A4BA20B02F0FC02C0F8801026
:1033F00099500123E4B2074AA3402846C2F8083591
:1034000012F0F4FC2046BDE8384013F03BBB00BF8F
:1034100080A0025000700150F7B5144683681B6904
:103420000BB100229847C4F30726304612F042FB46
:10343000054630461DF0B3F80027104B220E9200CF
:10344000C0F880709F50304612F02CFBA20B0C4B42
:1034500002F0FC021344E2B242F000421A60094B4F
:10346000C0F8802005F13202009330463B460194BB
:1034700052001DF09DF803B0F0BD00BF80A10250C6
:1034800080A00250D533000013F0A2B92DE9F04717
:10349000044607464FF00109DFF8508014B938465A
:1034A000BDE8F08794FAA4F5B5FA85F509FA05F3B5
:1034B0002E0108EB05156FEA030A24EA03042B7BAF
:1034C000002BEBD058F806301B694BB946447368A3
:1034D00004222846196807EA0A0700F009FBDDE71D
:1034E000284698470028D9D1F0E700BFBC25020044
:1034F00030B5002289B00F490F481EF007FC0022AA
:1035000000230024CDE906230E230C4DCDE903341E
:103510004FF440722846CDE90144094B0949009413
:1035200014F098FD0849284614F0D2FC204609B052
:1035300030BD00BF4D350000800E0020C0090020C6
:103540004D380000083A0020864D0200014814F072
:1035500015BF00BFA40700202DE9F04780461F4893
:103560000F4617F0E0F90646002830D0002528461F
:10357000BDE8F087237B73B12368DB680BB120467D
:10358000984723681B69D3B96368042220461968E9
:1035900000F0AEFA013610344C45EBD3B8F1000F11
:1035A000E5D0002DE2D02846FFF770FF0546002F3A
:1035B000F7D000214FF4A47015F004FCF1E7204689
:1035C00098470028E0D00AFA06F31D43E2E70546D3
:1035D0004FF0010A024CDFF80C90DDE730240020A8
:1035E000BC250200CC25020008B5034608462BB1D5
:1035F000044A136000F05CFD002008BD6FF0150068
:10360000FBE700BFA001002010B5044C237813B9DC
:10361000034814F0B3FE0123237010BDDB380020F3
:10362000A407002010B50446064817F07CF93CB109
:10363000054BD3E8EF1F0139C3E8E21F002AF8D198
:1036400010BD00BF282400202C24002000200146AB
:10365000034BD3E8EF0FC3E8E21F002AF9D170470C
:103660002824002070B5FFF7F1FF0546074C084EEF
:10367000B44200D370BD63685B792BB123685B688B
:1036800013B12946204698471034F1E7BC250200C3
:10369000CC25020010B5044C0449204616F093FED8
:1036A000034B1C6010BD00BFD00500202029020084
:1036B0002024002008B50023074A4FF4004113706E
:1036C000064A07481360FFF78FFFFFF7E3FFBDE8E7
:1036D000084000F07FB900BFDC380020282400201B
:1036E00023A90100014600220023014816F08CBEE8
:1036F000D0050020014816F025BF00BFD0050020EE
:10370000024B0146186816F06DBF00BF2024002050
:10371000014816F09BBF00BFD0050020F8B5334B21
:103720001878002860D0FFF7E5FF044670B1304BF1
:10373000D3E8EF1F0139C3E8E21F002AF8D12D4D6D
:103740002D4EB5422DD32046FFF7DAFF2B4B2C4CE4
:103750001B68002B19DD1EF0B1FA4FF47A72A0FB42
:10376000020302FB0131C30B43EA4143D4E90020C9
:103770009B1A40F2E9324FEAD13161EB00019342EA
:1037800071F1000101D3FFF76DFFD4E9003213F5A9
:103790007A7342F10002C4E90032BDE8F840FFF755
:1037A000B7BF6B685B793BB121784B0706D52B68B7
:1037B000214628461B6898471035C2E7238862686F
:1037C00013F4E07FC3F38217C1F3C201EFD0002AE4
:1037D000EDD00C4B2846D21A42F38F02012300F0A1
:1037E000D3F9B842E8D3E2E7F8BD00BFDB380020E8
:1037F0002C240020BC250200CC2502002824002017
:10380000780E00201406002070B50D4D297861B99E
:103810000120FFF7A1FE0B4C0B4EB44206D3FFF77D
:103820007DFF0028FBD101232B7070BD63685B799D
:103830001BB1236820469B6898471034EDE700BF12
:10384000DC380020BC250200CC25020000212DE937
:10385000F0470846FFF780FE044648B340F2676829
:103860004FF0000915F0C8FA1A4B186030B11A4B26
:103870001B68092B02DD194814F080FD0025184F44
:10388000DFF858A044B12046FFF700FE044618B9FF
:103890004FF0FF384FF0FF39FFF740FF064628B9D9
:1038A000B5B942464B46504614F08EFD3546E9E721
:1038B0004FF0FF384FF0FF39D4E72B689B691BB1FD
:1038C00000222846114698471035BD42F5D3E8E757
:1038D000044DFAE7242400202C240020A407002013
:1038E000CC250200BC25020013B5184817F01BF8C0
:1038F000174B1B787BB14FF02003EFF3118483F358
:103900001288BFF36F8FFFF709FF84F31188BFF3AD
:103910006F8F02B010BD0F4B1B68002BF9D050B950
:10392000002200230C48CDE900234FF4004200237D
:1039300015F0A4FCEDE70A28EBD107481EF0F2F9D8
:10394000064802B0BDE8104014F018BD2C24002039
:10395000DC38002024240020800E0020A407002052
:1039600010B5064B04461B6898472146A0600448E2
:1039700016F0C8FDBDE81040FFF7B6BFA00100205B
:10398000D005002008B50A460146024816F068FE38
:10399000002008BDD00500200146014816F06BBE8E
:1039A000D0050020024B0348C01AC008704700BF72
:1039B00064240200BC250200044A054B9B1AB1EBAB
:1039C000D30F34BF52F83100002070476424020046
:1039D000BC25020000210B480B4B30B51B1A0B4CC9
:1039E000DB080430994200D130BD10F83120256841
:1039F00002F0070225F007052A4344F8042B0131A1
:103A0000F0E700BF64240200BC2502001406002079
:103A1000F8B506460024094F094DED1BED08AC42F0
:103A200003D14FF0FF342046F8BD314657F834003B
:103A300019F024FA0028F6D00134F0E764240200DB
:103A4000BC2502002DE9F843884615461E4698B964
:103A50000446224FDFF8889009E0384633462A466C
:103A60004146FFF7EFFF844238BF044610374F4509
:103A7000F3D32046BDE8F8831A4B1B4AD21AB5EBA4
:103A8000D20F28D203EBC5031C79B44228BF3446B9
:103A900007214368154E1A7956F8253002EB420289
:103AA000914023EA010304F0070101FA02F21343F3
:103AB0000021032223FA02F000F00700814202F104
:103AC000030238BF01461E2AF4D123F007030B433B
:103AD00046F82530CDE70024DAE700BFBC25020018
:103AE000CC25020064240200BC250200140600203C
:103AF0002DE9F04104460E4600254368104817465C
:103B0000201A00110130187163689A710D4B0E4A2A
:103B1000A3EB02084FEAD808454508D301226368A1
:103B20001E6063685A71BDE8F041FFF76DBD00216A
:103B30002AB23B4620460135FFF784FFADB2EBE7E2
:103B4000BC250200BC2502006424020070B5436855
:103B500005465B791BB900226B685A7170BD002461
:103B6000074E084BF61AF608B442F4D2002322B2EC
:103B7000194628460134FFF765FFA4B2F4E700BFF9
:103B8000BC250200642402000146184663B1002AE5
:103B900014DB4B680A491B7951F8220003EB4303FD
:103BA000D84000F007007047064B0749C91AB2EB2E
:103BB000D10F04D203EBC203187970470420704779
:103BC0001406002064240200BC2502002DE9F04FF9
:103BD000C1F3CB448FB0C1F349260D4690469946B8
:103BE00005901734002E3CD04FF0040B4FF00A0A1A
:103BF000002209AF31460BAB4046CDF808B0019723
:103C0000CDF800A0CDE90B220D920796FEF7B6FB8A
:103C1000C0F30903181920F0070080081E4663F35B
:103C200052250693FFF75EFD044678B10022069BFD
:103C300010300B900C930D924046CDE9017B0C4A5D
:103C40000799CDF800A00BABFEF798FB66F3522561
:103C50004B462A46204605990FB0BDE8F04F16F0B6
:103C600094BE24F007008008FFF73CFD0446EDE712
:103C70005FA901002DE9F04F87B00446DDE9105A35
:103C8000DDE912690F4693469846B6B310213346D4
:103C900052460020CDF80090CDF81490FEF79AF926
:103CA0000146174B04F007040BF0070BE40003EA8E
:103CB000412305F1170044EA8B141C430844114BBF
:103CC00020F0070003EAC54380081C430391FFF777
:103CD00009FD054640B13EB1334652460399CDF841
:103CE00000901030FEF776F94346224639462846C2
:103CF00007B0BDE8F04F16F048BE3146D1E700BF2F
:103D000000FE07000000F87F0EB403B503AB53F8C4
:103D1000042B01460448019316F05EFE02B05DF8E4
:103D200004EB03B0704700BF01AA0100CA0605D426
:103D30008B064CBF02490349FFF7E6BF704700BF3F
:103D4000F14E0200464A02002DE9F04F89B09B4631
:103D5000DDE915769DF8483004460493DDE91393B8
:103D60000593049B0D460692002B00F0878006F019
:103D70000803079316F0F1FD06F0020A0246002838
:103D80004BD020468549FFF7BFFF8046BAF1000FB0
:103D900008D016F0440F42D12A4620468049FFF74A
:103DA000B3FF804406F001035BB17E4B049A2046CA
:103DB00053F822207C4B7D49002A08BF1A46FFF7A2
:103DC000A3FF06F00803002B55D0794B049A204638
:103DD00053F822207749FFF797FF0546069B2BB142
:103DE0001A4620467449FFF78FFF0544BBF1000FC8
:103DF00005D05A4620467149FFF786FF05444544E1
:103E0000B9F1000F49D1002F4FD1F30700F1C08065
:103E100031462046FFF78AFFB4E08046B6E7684B9C
:103E200018680028BDD0674B4FF47A7E1B684FF4AA
:103E30006162B5FBF3F5B5FBF0F300FB13550EFB28
:103E400005F5B3FBF2FAB5FBF0FC3C2102FB1A329C
:103E500000FB1C55B2FBF1F30EFB05F5B5FBF0F5CD
:103E600001FB132220460092CDE901C55246564976
:103E7000FFF74AFF95E706F00805AFE7BBF1010F32
:103E800006D1B9F1000F64D1002F7BD000250CE0E2
:103E9000B9F1000FF8D04D485CE04D484B46224642
:103EA0004C4915F0B8FC002F68D0DFF82C91DFF8F2
:103EB0002CA1102F31462046B8464FF0000B28BFEA
:103EC0004FF01008FFF732FF5D4545DC059B51467A
:103ED00020461A78FFF718FF4FF0010B1BF0070F71
:103EE00003D149462046FFF70FFFD8453BD9059B34
:103EF0005146204613F80B20FFF706FF0BF1010B8C
:103F0000BBF1100FEAD14FF0000B20463449FFF708
:103F1000FBFE5A46059B20469A5CA2F120015F29D0
:103F200028BF2E222F49FFF7EFFE0BF1010BBBF14B
:103F3000100F1DD01BF0070F03D149462046FFF795
:103F4000E3FED8455A46E5D849462046FFF7DCFE51
:103F5000EBE71F48049DA1E749462046FFF7D4FE42
:103F60000BF1010BB0E720461F49FFF7CDFEC5E777
:103F7000059BB7EB0807434405939AD1049B002B9C
:103F80007FF443AF204609B0BDE8F04F16F02BBDDB
:103F90002046054A0549FFF7B7FE39E79F49020069
:103FA000A3490200342902009A4902004451020048
:103FB00048290200C8490200CE4902003B3D0200E8
:103FC0003824002034240020AC4902002FAA01002C
:103FD00001AA0100D9A901003C980200D2490200BF
:103FE000D8490200C94702003A9802002DE9F04181
:103FF0000F884B6805460C4690468E6886B0C7F31E
:1040000082175BB1134A9B1A43F38F0100291FDB10
:104010002078C0F3C200FFF7CFFC0346214651F8D9
:10402000102B6088C2F34922002A01EB020408BF6A
:104030000021C0F3CB00CDE90308CDE90114002233
:10404000314628460097FFF77FFE06B0BDE8F081B5
:104050000023E3E71406002042F20F7373B58B428E
:1040600028BF0B4605680446052168460D4A15F031
:104070004CFC06466368284604225B680A4916F031
:104080009EFC63683246694628465B6816F097FCDA
:104090006368172228465B68044916F090FC02B05A
:1040A00070BD00BF6D690200F2490200DA490200EA
:1040B00000210123064A904206D8064A01B901238D
:1040C0001360054B18607047012140085B00F2E760
:1040D00040420F003424002038240020002304280C
:1040E000CB604B6098BF044B044A98BF53F8203014
:1040F0008A600B60704700BFA42A020050260200AD
:104100000023064A06488A60064ACB604B6082421A
:104110000B6000D3704793681032F8E7282A02003A
:10412000CC250200BC2502000023064A10B50C462F
:10413000CB604B608A6001461846FFF73DFC20606B
:1041400010BD00BF502602002DE9F34105460E4C7C
:104150000E4E0F4FDFF83C80B44203D3002002B074
:10416000BDE8F0816368284659791B7900290CBFA6
:104170003A464246CDE900230821A368064A16F0D4
:1041800023FE1034E8E700BFBC250200CC25020066
:104190001F4A0200174A0200284A02002DE9F74F81
:1041A0000D4604460020FFF7FDFB6B6807465B7970
:1041B00023B9032120461D4A16F006FE0821204699
:1041C0001B4B1C4A16F000FE082120461A4A16F026
:1041D000FBFD4FF00008DFF864A00FFA88F6BE423E
:1041E00008F1010803D3002003B0BDE8F08F324688
:1041F000012300212846FFF7C7FC00233246194659
:1042000081462846FFF7C0FC834631460020FFF771
:10421000D3FB5AF82B20034601925AF82920082193
:1042200000922046064A16F0CFFDD6E7494A020022
:104230005B4A0200674A0200854A0200B82A02006F
:10424000C24A02002DE9F84F52F8048C0646404657
:104250009B468A46174618F001FE81460F4D104BCB
:104260009D4208D34346012130460E4A16F0ACFD6C
:104270006FF007040CE04A464046A96818F00AFEB1
:10428000074B044638B93B46524629463046D84784
:104290002046BDE8F88F1035E2E700BFBC250200DC
:1042A000CC250200D64A020008B5024BFFF7CAFF30
:1042B000002008BD9D410000014BFFF7C3BF00BFB8
:1042C0004BAA0100014BFFF7BDBF00BF53AA01007D
:1042D000014BFFF7B7BF00BF61440000014BFFF780
:1042E000B1BF00BF9FAA01001FB5044602A901A8E3
:1042F000FFF748FB002804DA01212046134A16F094
:1043000063FD08212046124A16F05EFD0821204672
:10431000019B104A16F058FD08212046029B0E4AC8
:1043200016F052FD03A8FFF737FB002804DA082136
:1043300020460A4A16F048FD20460821039B084AF9
:1043400016F042FD002004B010BD00BFEB4A020091
:104350001C4B0200444B0200594B0200764B0200FA
:10436000AE4B020010B5C3699B681C792CB90121C2
:10437000034A16F029FD204610BD0120FCE700BFCE
:10438000C84B02002DE9F04F07468946984615466E
:1043900085B0B2BB1046FFF705FB0646D9F80430DE
:1043A0005B7923B903213846294A16F00DFD002414
:1043B000DFF8A0B0B44221DA3DB358F82430002031
:1043C0000293FFF7EFFA002382469A450CD0194674
:1043D00000200393FFF7F0FA4022029918F05AFDEB
:1043E000039B80B9002B2CDA58F824300121384681
:1043F000194A013416F0E8FCA642DEDC05B0BDE83F
:10440000F08F1646CAE70133DFE7A24600210E9B74
:1044100022B24846FFF716FB0E9B044683420DD09E
:1044200095B951462846FFF7C7FA03465BF82420A2
:10443000032100923846094A16F0C6FC0AF101042D
:10444000B8E7A2461C46E1E758F82A30EEE700BF7D
:10445000EC4B0200B82A0200174C0200014C02008B
:104460002DE9F74F0646884691461D460027D3F8AA
:1044700004A0DFF844B0042250465BF8041B18F097
:1044800009FD044658B10137052FF4D1012130460A
:104490006B680A4A16F098FC6FF0070408E0414682
:1044A0003046009705F10803A9F10202FFF76AFF01
:1044B000204603B0BDE8F08FB82A0200314C02005C
:1044C00013B5044613F04EFEC0F307230193C0F367
:1044D000074300930821030E034A204616F074FC9C
:1044E000002002B010BD00BFEC4D020038B50446FC
:1044F0001DF0E4FB4FF47A75A0FB052305FB0133A7
:10450000D20B204642EA43430821024A16F05CFCE3
:10451000002038BD054E020010B5044611F0A6FC7F
:1045200008210346074A204616F04EFC2046064A5C
:10453000082116F049FC2146044813F091FC0020A4
:1045400010BD00BF144E0200334E02005145000062
:10455000F0B58FB004460D46D0F8A0701DF07AF883
:10456000064614F049FC244B244A002E08BF1E4680
:10457000234B0821844218BF1346CDE90046284644
:10458000204A16F021FCD4E90A23CDE9022394F94C
:104590000E3028460093237B08211B4A16F014FC9A
:1045A00006A92022204613F0A3FC626E0346009267
:1045B00008212846154A16F007FC204605A91DF0DB
:1045C00059F8034630B108212846114A16F0FCFB81
:1045D0000FB0F0BD6423059A2846B91A4B43B3FBCC
:1045E000F7F3CDE90021CDE9027308213B46094AE2
:1045F00016F0EAFBECE700BF3D4E02003C980200DB
:10460000FF660200404E02004C4E0200784E02004F
:104610008F4E0200BC4E0200002130B593B01C2228
:1046200004460BA80A9118F07AFC1B4818F016FCF7
:10463000C0F1200001282CD9174818F00FFCC0F158
:1046400020020AAD2021284618F069FC21461348B3
:1046500013F006FC09AA4FF4006111481CF0FEFF9C
:104660006423099A0195C2F500614B43DB0A0025DA
:1046700006934FF400632046CDE90413CDE90232DE
:104680000821074B074A009516F09EFB284613B0F9
:1046900030BD0122D5E700BFF34E0200994700006C
:1046A00070590020FA4E020010B504461BF082FF3C
:1046B00008210346024A204616F086FB002010BD62
:1046C000434F02002DE9F3411746002304460A2117
:1046D000B86801AA019316F0AFFD019DC6B255B1AD
:1046E0002B4601212046144A16F06EFB019D2846F8
:1046F00002B0BDE8F081042E0AD9334601212046DC
:104700000E4A16F061FB204616F06BFB0125EEE722
:104710007868FFF77DF9B0F1000805DA012120463D
:104720007B68074A16F050FB0021334608460FFA13
:1047300088F2FFF787F9DAE7594F0200804F02004D
:10474000974F02001346002273B5044601920A21D6
:10475000586801AA16F070FD019D95B920EAE07431
:104760004FF40046294640F2E7304FF47A720023B6
:10477000C4FB0601FBF7F0FC14F024FB284602B052
:1047800070BD2B4601212046024A16F01DFB019DFB
:10479000F4E700BFB64F0200F0B504460D46D0F86E
:1047A000A06089B007A91CF065FF034630B108215D
:1047B00028460F4A16F008FB09B0F0BD20461CF051
:1047C00049FF6423079A0B4FB11A4B43002818BFC7
:1047D0000746B3FBF6F3CDE90221CDE904630821D6
:1047E00023462846CDE90076034A16F0EDFAE3E7C2
:1047F0008F4E02003D4E0200D64F020010B5034618
:1048000000680C46114608B1027822B92046024AD7
:1048100004F00AFD204610BD1451020010B50C68CA
:10482000D1E90112FFF7EAFF08210346024A2046B8
:1048300016F0CAFA002010BD195102002DE9F04708
:104840008AB0054601A813F01BF91823019E082120
:1048500003FB0066194A284616F0B6FADFF86080B6
:10486000019CDFF86090DFF860A0B44203D3002021
:104870000AB0BDE8F08705AF394614222046FFF79D
:10488000BDFF424603460821284616F09DFA204601
:104890001CF0F3FD082100280CBF4B4653460B4A81
:1048A000284616F091FA14232046094902AACDE9B8
:1048B0000257049318341CF0EBFDD6E73851020080
:1048C000425102002F5102002951020047510200BB
:1048D0001D4800002DE9F04306460027104BDFF885
:1048E000449053F82140013153F8218087B0A0450E
:1048F00003D8384607B0BDE8F08320461CF0BDFD64
:10490000054658B1142201A92046FFF777FF4A4611
:1049100003460821304616F057FA2F461834E6E7CA
:104920002C2C02004E51020010B504460821254AE5
:1049300016F04AFA00212046FFF7CCFF20B90821E3
:104940002046214A16F040FA082120461F4A16F058
:104950003BFA01212046FFF7BDFF20B90821204680
:10496000194A16F031FA08212046194A16F02CFA95
:1049700002212046FFF7AEFF20B908212046124A47
:1049800016F022FA08212046124A16F01DFA0321D9
:104990002046FFF79FFF20B9082120460A4A16F05B
:1049A00013FA082120460C4A16F00EFA042120467C
:1049B000FFF790FF20B908212046034A16F004FAB9
:1049C000002010BD545102005C51020064510200ED
:1049D0007351020082510200905102008B1E022B83
:1049E0002DE9F04107468846144637D810220021A9
:1049F000606818F070F9B8F1020F064607D120235D
:104A000008213846244A16F0DFF9336816E00A22F6
:104A10000021A06818F05FF9C5B22B46082138467E
:104A20001D4A16F0D1F9B8F1040F1AD0102D0DD08F
:104A3000202DEAD0082D0CD13378DBB2082138467E
:104A4000164A16F0C1F90020BDE8F08133889BB208
:104A5000F4E708213846124A16F0B6F96FF015004F
:104A6000F2E710220021E06818F035F9082103462A
:104A700004460C4A384616F0A7F9102D06D0202D12
:104A800007D0082DE5D1E4B23470DCE7A4B234805D
:104A9000D9E73460D7E700BFEF5102001A52020095
:104AA000045202002B52020070B5104E04460D460F
:104AB000337881B12BB10121BDE870400C4A16F06A
:104AC00083B901233370082120460A4A16F07CF985
:104AD0000123337004E083F001033370002BF2D123
:104AE00029462046BDE8704016F090B9DD38002018
:104AF0003F5202007A52020070B504463C480378E7
:104B0000182B02D10B78112B31D00B46013A8D189E
:104B1000AB4225D18B5C0A780370A2F13003092BDC
:104B2000344C04D922F02003413B052B04D82368E0
:104B30003149CA54013323602368022B34D1102237
:104B400000212D4818F0C7F82C4A136803F8010B10
:104B500013602B4A1368013313600023236023E0A2
:104B600013F8016B182ED3D11E78112ED0D1244DFD
:104B700008212B682046234A16F026F920460021FA
:104B8000FFF792FF204B187870B9204A2B68116804
:104B9000042B0ADC08B111602B6013F003010BD168
:104BA000126813681BBA136070BD0868043B00BA32
:104BB00041F8040B0120EBE75B4203F0030358BF0D
:104BC0005942022904D1126813885BBA9BB2EAE702
:104BD0000329E9D1106802681104C2F3074301F404
:104BE0007F010B4302F47F4213430360DCE700BF05
:104BF000DE3800203C240020E0380020482400203B
:104C000040240020A4520200DF3800204424002069
:104C10002DE9F84F0023064614460D462949DFF8D2
:104C2000A8800B602949DFF8A890DFF8A8B088F8C1
:104C300000300B60012D274654F804AF1ED9022224
:104C40004946504618F026F980B922689278003A11
:104C500018BF01229244504602221F4918F01AF947
:104C600030B9012388F80030013DE3E70022F1E785
:104C70004946504618F002F9A8B90437002278686E
:104C8000114617F0B3FF0022144B114618607868E4
:104C900017F0ACFF124B134918603046FFF704FFC2
:104CA0000020BDE8F88F9AF800202D2AE6D19AF866
:104CB0000120002AE2D053465A460821304616F019
:104CC00083F8D1E73C240020DF3800204024002076
:104CD000BE520200C4520200C15202004824002009
:104CE00044240020F94A00002DE9F04F4FF0FF3531
:104CF000914601220746884620262C46534BDFF872
:104D000050A185B01A60494652464046FDF78EF8DC
:104D1000411C07D16A1C4FD14E4A0121384616F07A
:104D200053F81CE073281FD0772831D0612816D1A2
:104D3000DFF824B110220021DBF8000017F0CBFFD0
:104D400005460028DFD112F0A9FE0368162BDAD140
:104D5000DBF80030414A0121384616F035F86FF093
:104D6000150005B0BDE8F08F0022DFF8ECB0114669
:104D7000DBF8000017F0AFFF04460028C3D112F0A3
:104D80008DFE0368162BBED1DBF80030344AE2E713
:104D90000022DFF8C4B01146DBF8000017F09BFFDB
:104DA00006460028AFD112F079FE0368162BAAD16F
:104DB000DBF800302B4ACEE7631C01D12A4AACE76E
:104DC0005FFA86F8C6F3C406002C3CD06B46294631
:104DD0001A46A6EB050C0CE0B8F1100F1DD0B8F187
:104DE000200F20D0B8F1080F2AD10878187031446C
:104DF0003344A64203D80CEB01001028ECD9102C48
:104E0000A14628BF4FF0100929464B46384600F00E
:104E10007FFF1035A4EB0904D6E7088880B218702C
:104E2000000A5870E3E708684FEA102E187083F8FC
:104E300001E04FEA104E000E83F802E0D870D6E78A
:104E400008210A4A6AE720468BE700BF9401002048
:104E5000135302001A53020000240020D95202000A
:104E6000EC520200FF5202003753020004520200CB
:104E700007B50A481CF001FB60B10423084A0093FF
:104E8000126801230549074800F014FE002003B012
:104E90005DF804FB6FF01200F9E700BF6C2102001F
:104EA000982C0200CC25020010B514464268106808
:104EB000016011684C6011688B60136891681C6810
:104EC0000023C1E90233C1E905334B600B61D168AE
:104ED000C1E90233C1E905334B600B611168CB6056
:104EE000A36823B19B6C13B1204604499847A3687B
:104EF0009B6A0BB120469847002010BD014F00006F
:104F00002DE9F04383B004460D4600AF83685B6C27
:104F100003B19847A3685B6B03BB4FF00008E868D8
:104F2000391DC26915F0F3F88146002837D0A3680F
:104F300079689B6943B3024620469847064630B3DA
:104F40003146E86815F000F9B1454FF00108E6D0A8
:104F50002B680020D3E90121904703E020469847C1
:104F60000028DAD1A3685B6A002B36D1A868391D06
:104F7000C26915F01DF90646002836D1204615F005
:104F8000DAFD2B68DE603BE06FF05706D8E701469C
:104F9000E86815F0D9F8B8F1000FE3D0D8E71D485C
:104FA000036813F0060F0FD06E4688B06A461A4B9E
:104FB00053611A4B9361032342F8103F4FF4C451DD
:104FC0004B46FEF703FEB546A3689B69002BE2D073
:104FD00001222046F91C9847DDE720469847002823
:104FE000C4D10C37BD46BDE8F083A36879685B691E
:104FF00063B10246204698470146A86815F0F4F8C8
:105000002B680120D3E901219047EAE76FF05701AF
:10501000F3E700BFB00600209D540200B654020022
:1050200010B504468168083101F008F9A1682046EE
:10503000BDE81040014A083101F0A0B8F254020066
:10504000014915F004BE00BFF14E020037B5044619
:1050500080680D46D0F864325A0705D5002115F056
:1050600037FEE06816F04DFDE368DB6873B9002D8C
:1050700039D0A068423015F0E4FDA368002834D090
:1050800003F1420103F5A17017F0BCFEA2682946A6
:10509000E0680DF10603423216F036FD58B9A068FB
:1050A00000F5A171423017F0ADFEA068423015F056
:1050B000C8FDADF80600204616F0BAF9A368D3F88B
:1050C00060329B0603D50A49606915F0C0FD204691
:1050D00000F020FFA268BDF806302046D387A26802
:1050E000938716F010F903B030BD83F84201CDE785
:1050F00020270200022210B5836804461A718268D4
:10510000936BDBB982F842308268D38782689387D9
:105110008368D3F86432DB040BD50321084B094ABA
:1051200016F035FAA0686FF4805100F5197015F08B
:1051300067FD2046BDE8104001F002B810BD00BF79
:1051400000550200445102002DE9F04FA7B004467B
:105150005422002111A817F0E2FE0023CDE9053307
:10516000A36820464233029316F068F9204616F0F1
:10517000B1F810B96069FFF763FF00264FF0FF3701
:10518000B246B3463546B146A06814220021083025
:1051900017F0C5FE204616F01BF8A168E0688A8F5C
:1051A000423116F0E8FC204616F067FD0DF1440888
:1051B0000396DDE90532012A6DD0132B6ED85FBB53
:1051C000BBF1000F0AD0204616F078FD1423A26828
:1051D00011A942320DEB030015F085FEB9F1000F65
:1051E0000CD099F81130FE2B08D1059B26AA02EBB2
:1051F000830252F8542C0AB101330593A068059D2F
:105200004369002B40F0B680CEB1C3689E422DD0DA
:105210000D9600F1080524E002234146029A06A8F3
:1052200015F061FED8F8042006990346029231B1C8
:1052300001290AD148B16F4A204616F0A8F96FF04B
:105240000705284627B0BDE8F08F059B002B34D01A
:10525000D8F8000001F016F898B166B1A5680D966F
:1052600008350CAE0FCE0FC533682B602046FFF714
:10527000D7FE0125E5E7604A0121204616F087F9AF
:10528000DDE7059BCBB129462046D8F8002001F088
:1052900091F9022809D1059B132B91D9069B022B6A
:1052A0008ED10121554B564AC6E7032805D0059BF0
:1052B0004FF0010B013305937BE7039B33B948465D
:1052C000D8F8001007AA15F004FF054608F10408F5
:1052D000013F9DB3EB68BBF1000F08D0F3B120464E
:1052E00016F0ACF8204616F00EF8464AC4E7ABB10B
:1052F000AE46A368DDF814A003F1080CBEE80F0069
:10530000ACE80F00DEF80030CCF80030AB682BB909
:105310006B7CFE2B04BF2F7C07F1FF37D5F804C050
:10532000BCF1000F08D0AE460CAEBEE80F000FC6B1
:10533000DEF8003033606646A94603E0059B53B1B2
:1053400001230393069B17B9022B7FF432AF059B11
:10535000013305932DE7A368DB6913B1DB68002BEC
:10536000EED1294B012100932046119B274A16F0CC
:105370000EF9E5E7037EA5EB0A05B3B14FF6FF7220
:10538000417EFF2918BF0A469D4202D313449D4225
:105390000BD98368012120461D4A16F0F8F82046F3
:1053A000FFF73EFE6FF015054BE74FF4006100F587
:1053B000197015F01AFCA06800F53E7015F0A1FCFC
:1053C000A36811AA294602EB8A0220465B69984726
:1053D0000546A0684FF0FF324FF0FF3300F53E70F6
:1053E00015F042FCA0686FF4006100F5197015F02B
:1053F00007FC26E74455020058550200B955020043
:105400005051020076550200A55502005358020083
:10541000DD5502002DE9F04F044680680121B1B04E
:1054200000F5197015F0E1FBA3681B79022B17D169
:1054300000230993A36860689E6B03681D6909AB2C
:10544000C6B110221BA9A847099A4AB120461BA938
:10545000B047A3689B6B002BECD12046FFF74AFEB8
:105460006FF00101A06800F5197031B0BDE8F04F90
:1054700015F0C6BB01220DF12301A847099B002BA3
:10548000EED09DF923209DF82310002AA368D1DBDC
:105490005A79032A00F29482DFE812F004008102B4
:1054A000980292020D297BD00A2959D0B3F86422C0
:1054B00009296FF3CA02A3F86422A06800F0838070
:1054C0003ED80029B6D0082900F0F3810346D3F86E
:1054D00060229207AED501391629ABD801A252F845
:1054E00021F000BF6D5A0000ED580000F558000093
:1054F000E5580000615A00001359000035540000BF
:105500003554000035540000355400001B5900008C
:1055100023590000355400004D5900003554000057
:105520005759000035540000355400003554000030
:10553000355400005B590000355400008F590000BD
:105540001B293DD07F2900F0C081A1F120025E2AF5
:105550000346BCD8012115F0BBFB9DF82310E4E005
:10556000D3F86422C2F3C7022AB1D3F86422C2F38B
:10557000C7020A2AABD1B3F8642261F3CA02A3F8C6
:105580006422A068818FB9B915F0A2FBE06816F01B
:10559000B8FA6069FFF754FD2046FFF7ABFD49E715
:1055A000D3F86422C2F3C702002AE4D0D3F86422FD
:1055B000C2F3C7020D2ADDE72046FFF7C5FDEBE782
:1055C0000123437136E7D0F860329B077FF532AF95
:1055D000012115F07DFBA068838FFF2B3FF42AAFDC
:1055E0000025C28F00F1420100F5A17017F08CFC7C
:1055F000A3681BA9DA8F0BA8134483F84251A26851
:10560000142302F5A17215F06EFC0B9914293FF6D4
:1056100011AF30AB03EB810343F8545CA368DA8F1E
:10562000134493F84130202B02D0093B042B46D879
:10563000002947D100250A9500260A9B30AA02EBD3
:10564000830353F854ACB346504615F0FAFAB0460B
:10565000374602903946284616AA00F0E3FB8146F9
:1056600000283BD1012E64D10A9B30AA02EB8303B0
:1056700053F8540C15F0E5FAA26806464146284650
:10568000083200F0CFFB0546006815F0DAFA8642D2
:1056900006D02968821B92B22046314415F0B7FF2C
:1056A000A068C38F034493F84230202B02D0093BFB
:1056B000042B29D80121204615F058FEBAE601290D
:1056C000B8D9013900200CAB009301900AAB1BAA9A
:1056D00015F01FFD05460028AED1ABE65146029AF3
:1056E000D9F8000017F0D6FB60B9D9F8000017F020
:1056F000B5FB584538BF5846002E08BFB8461FFABC
:1057000080FB01360137A5E7D0F86032DF070BD503
:10571000002115F0E7FA2021204600F0DBFC0121F2
:10572000A06815F0DFFA85E62021204600F0D2FCC3
:1057300080E67FF67FAE0A9A30AB03EB820252F826
:10574000543CC2461846029315F07BFAA2680490B6
:10575000A2F830900396A26851462846083200F01D
:1057600061FB029B07460AF1010A002B50D13B68FE
:10577000002B57D1A2681386039B013B0393EAD108
:105780006069FFF75DFC204600F0DAFC0A9B30AA56
:1057900002EB830353F8540C15F053FA414611AA57
:1057A0008146284600F03EFB0746A0683968FF2284
:1057B00000F5A17017F030FB3B684FF6FF7708F15A
:1057C000010AB84602935146284616AA0AF1010B6F
:1057D00000F028FB002860D00022A168036801F2D5
:1057E000411111F801EF985C704503D110B10132FD
:1057F0004245F6D1B9F1000F01D04A4506DBBA4265
:10580000A8BF3A46013E012E97B246D0DA46DAE703
:1058100000680028ABD0049A029917F03BFB0028DF
:10582000A5D098E79D48069315F00BFAA16800EB08
:105830000B0292B299484F8D079215F002FA069B1F
:105840000590184615F0FDF9059B079AFF1A97FB7E
:10585000F2F7A168A2EB0009088EBFB2B0FBF7F225
:1058600000F1010E07FB120080B2069B1FFA89F9B6
:10587000A1F830E058B9009306212046874B884AAA
:1058800015F085FE4946204600F02EFB74E7062100
:105890002046844A15F07BFEF4E7002F3FF4CAADA2
:1058A0000299A7EB0902204692B2494415F0AFFED7
:1058B000C0E5D0F860329E077FF5BCAD012115F040
:1058C00007FA204615F0C0FEB4E5D0F860329D0717
:1058D0007FF5B0AD012115F0FBF9A368D3F8603274
:1058E0001907EED4204615F094FEA3E5204615F0E6
:1058F000ACFD9FE5204615F0A1FD204615F0EAFC21
:1059000010B96069FFF79CFB0121A06815F0E0F970
:1059100042E6204615F0A1FD8CE5204615F0A6FDD7
:1059200088E5D3F860329B0603D55F49606915F0BE
:105930008EF9A368D3F860329F0603D55B4960698E
:1059400015F085F9204600F0FBFB73E500212046A9
:10595000FFF77CFB6EE50121F9E7204615F068FDB5
:105960000023A268012182F84230A268D387A2688E
:105970009387A06815F0ACF9A368D3F860329E064F
:105980007FF558AD4A49606915F061F952E5204646
:1059900000F006FB0121A06815F09AF94AE55B29A1
:1059A00002D102225A7145E5D3F860329D0706D52F
:1059B000622907D14FF0FF31204615F0FBFCA368A8
:1059C0000022EFE76629FAD10121F5E700225A719A
:1059D000A268D2F8603298077FF52CADA1F13103AF
:1059E0001B2B3FF627AD01A151F823F0695A0000A7
:1059F000755A0000895A00005D5A000035540000B5
:105A00003554000035540000355400003554000072
:105A10003554000035540000355400003554000062
:105A2000355400003554000035540000575900002B
:105A30004D59000013590000ED5800003554000086
:105A4000615A0000355400006D5A000035540000C2
:105A50003554000035540000795A00000323537177
:105A6000204615F0EBFCE5E403235371204615F0C6
:105A7000DFFCDFE403235371A068D0F8601201F06B
:105A8000010181F001014CE603235371A368D3F8AF
:105A900060329B077FF5CEAC24E700BF3B98020045
:105AA000F855020044510200252702002A2702006F
:105AB000202702002DE9F043044680688846D0F88C
:105AC0000C1315461F4689B0002966D14FF4447265
:105AD00017F025FAA36822681A60E06816F0B3F898
